:020000040000FA
:10080000FCEF3DF0C96E1200F3EF1CF0006AC2B2BB
:06081000002A0050120056
:08081800C2EF12F0D9CFE5FF99
:10082000E1CFD9FF00C0E5FF01C0E5FF02C0E5FF51
:1008300003C0E5FF04C0E5FF05C0E5FF06C0E5FF16
:1008400007C0E5FF08C0E5FF09C0E5FF0AC0E5FFF6
:100850000BC0E5FF0CC0E5FF0DC0E5FF0EC0E5FFD6
:100860000FC0E5FF10C0E5FF11C0E5FF12C0E5FFB6
:1008700013C0E5FF14C0E5FF15C0E5FF16C0E5FF96
:10088000020EDBCF00F0030EDBCF01F0040EDBCF56
:1008900002F0050EDBCF03F0010E035C03E3070E4D
:1008A000035C03E3800E6CEF0AF08EEC28F0046E1C
:1008B000F3CF05F0F4CF06F0E9CF07F0D5A604D0CA
:1008C000010E086E096A0FD0070ED5140A6E020ECB
:1008D000086E000E096E0A5006E0E86CD8900836E3
:1008E0000936010FFCE30950E56E0850E56E270E4E
:1008F000E56E100EE56E8FEC2DF0086EF3CF09F06B
:10090000040EE126E86A09BEFF0E0A6E0B6EE56E64
:100910000A50E56E0950E56E0850E56E0750E56E29
:100920000650E56E0550E56E0450E56EF3EC2AF0D6
:100930000201916FF3CF92F2F4CF93F2E9CF94F2E8
:10094000080EE12600C0BBF201C0BCF202C0BDF23D
:1009500003500E0DF3CF04F0F4CF05F0066A0050FB
:10096000042601500522025006220201BD51800FCB
:10097000F36E0650800FF35C07E105500201BC5D89
:1009800003E104500201BB5DD8B0C9D0BBC207F07F
:10099000BCC208F0BDC209F0080E0726000E0822EE
:1009A000000E092207C0E9FF08C0F3FF09504AEC16
:1009B0003EF0E8380F0B076E0706086A07BE0868A6
:1009C000570E0726070E082207C0E9FF08C0EAFFF6
:1009D000EFCF07F0075037E0BBC207F0BCC208F00A
:1009E000BDC209F0080E0726000E0822000E0922DB
:1009F00007C0E9FF08C0F3FF09504AEC3EF0E838B1
:100A00000F0B076EE56EA3EC3BF0E12ABBC207F0CB
:100A1000BCC208F0BDC209F0080E0726000E08226D
:100A2000000E092207C0E9FF08C0F3FF09504AEC95
:100A30003EF0E886E56E07C0E9FF08C0F3FF095005
:100A4000ADEC3EF036D0BBC207F0BCC208F0BDC270
:100A500009F0080E0726000E0822000E092207C022
:100A6000E9FF08C0F3FF09504AEC3EF0E8380F0BED
:100A7000076EE56ECDEC29F0E12ABBC207F0BCC2DF
:100A800008F0BDC209F0080E0726000E0822000E6D
:100A9000092207C0E9FF08C0F3FF09504AEC3EF005
:100AA000E896E56E07C0E9FF08C0F3FF0950ADEC1A
:100AB0003EF0BBC207F0BCC208F0BDC209F00D0E8B
:100AC0000726000E0822000E0922000EE56E07C060
:100AD000E9FF08C0F3FF0950ADEC3EF0BBC207F0E0
:100AE000BCC208F0BDC209F00A0E0726000E08229B
:100AF000000E0922000EE56E000EF46E07C0E9FF3D
:100B000008C0F3FF095096EC3EF00E0E0201BB2721
:100B1000000E0201BC23000E0201BD2326D70450A3
:100B2000F20F076EFF0E0520086EFF0E0620096EFD
:100B300003C0F2F203C0F1F28EEC28F00A6EF3CF9C
:100B40000BF0F4CF0CF0E9CF0DF0D5A604D0010ED8
:100B50000E6E0F6A0FD0070ED514106E020E0E6EB9
:100B6000000E0F6E105006E0E86CD8900E360F366F
:100B7000010FFCE30F50E56E0E50E56E270EE56E9B
:100B8000100EE56E8FEC2DF00E6EF3CF0FF0040E0D
:100B9000E126E86A0FBEFF0E106E116EE56E105072
:100BA000E56E0F50E56E0E50E56E0D50E56E0C5083
:100BB000E56E0B50E56E0A50E56EF3EC2AF00A6E16
:100BC000F3CF0BF0F4CF0CF0E9CF0DF0080EE126D7
:100BD000020191510A5C0201956F020192510B587A
:100BE0000201966F020193510C580201976F0201A6
:100BF00094510D580201986F79C70AF07AC70BF02B
:100C0000E86A07017ABFFF0E0C6E0D6EE56E0C50A0
:100C1000E56E0B50E56E0A50E56E02019851E56EE7
:100C200002019751E56E02019651E56E0201955160
:100C3000E56E61EC2AF00A6EF3CF0BF0F4CF0CF006
:100C4000E9CF0DF0080EE1260A500B100C100D1024
:100C5000D8A407EF0AF007C0BBF208C0BCF209C075
:100C6000BDF20201BD51800FF36E0250800FF35CA4
:100C700007E101500201BC5D03E100500201BB5DD0
:100C8000D8A002EF0AF0BBC20AF0BCC20BF0BDC292
:100C90000CF00AC0E9FF0BC0F3FF0C50FCEC3CF079
:100CA0000A6EF3CF0BF0F4CF0CF0E9CF0DF00D503E
:100CB0000201985D0BE10C500201975D07E10B50BA
:100CC0000201965D03E10A500201955D02E3020113
:100CD000F107BBC20AF0BCC20BF0BDC20CF0080E9B
:100CE0000A26000E0B22000E0C220AC0E9FF0BC0E0
:100CF000F3FF0C504AEC3EF0E8380F0B0A6E0A0680
:100D0000D8900A360B6A0ABE0B684B0E0A26070EED
:100D10000B220AC0E9FF0BC0EAFFEECF0AF0EFCFCB
:100D20000BF00AC099F20BC09AF202019B6B020110
:100D30009C6BBBC20AF0BCC20BF0BDC20CF0040E2F
:100D40000A26000E0B22000E0C220AC0E9FF0BC07F
:100D5000F3FF0C50D1EC3DF00A6EF3CF0BF00C6AB0
:100D60000D6A0D5002019C5D0BE10C5002019B5D70
:100D700007E10B5002019A5D03E10A500201995DFF
:100D800002E30201F207BBC20AF0BCC20BF0BDC213
:100D90000CF0060E0A26000E0B22000E0C220AC0D2
:100DA000E9FF0BC0F3FF0C50D1EC3DF00A6EF3CF1E
:100DB0000BF0D8800BAED8900A6A0A360A50D88059
:100DC000E866D8900A6A0A360A5017E0BBC20AF0F1
:100DD000BCC20BF0BDC20CF0060E0A26000E0B22A0
:100DE000000E0C220AC0E9FF0BC0F3FF0C50D1EC3F
:100DF0003DF00A6EF3CF0BF01CD0BBC20CF0BCC2AE
:100E00000DF0BDC20EF0060E0C26000E0D22000ED7
:100E10000E220CC0E9FF0DC0F3FF0E50D1EC3DF0E7
:100E20000C6EF3CF0DF00D1C0B6E0C1C0A6E0A4AF3
:100E30000B2AE86A0BBEFF0E0C6E0D6E0201985174
:100E4000E56E02019751E56E02019651E56E0201D1
:100E50009551E56E0D50E56E0C50E56E0B50E56E4C
:100E60000A50E56E2CEC1FF00A6EF3CF0BF0F4CFB6
:100E70000CF0E9CF0DF0080EE126000EE56E000E35
:100E8000E56E030EE56EE80EE56E0D50E56E0C5056
:100E9000E56E0B50E56E0A50E56EF3EC2AF00201A8
:100EA0009D6FF3CF9EF2F4CF9FF2E9CFA0F2080E30
:100EB000E1260201995102019D5D0A6E02019A51DB
:100EC00002019E590B6E02019B5102019F590C6E4B
:100ED00002019C510201A0590D6E0B50E56E0A50A3
:100EE000E56E07016E51E56E07016D51E56E7CEC14
:100EF00035F00C6EF3CF0DF0040EE12607017051B2
:100F0000E56E07016F51E56E0D50E56E0C50E56E14
:100F10008FEC2DF00C6EF3CF0DF0040EE126BBC26A
:100F20000EF0BCC20FF0BDC210F00A0E0E26000E6D
:100F30000F22000E1022BBC211F0BCC212F0BDC2C3
:100F400013F00A0E1126000E1222000E132211C0F9
:100F5000E9FF12C0F3FF1350D1EC3DF0116EF3CF57
:100F600012F01250E56E1150E56E000EE56E020EA5
:100F7000E56E7CEC35F0116EF3CF12F0040EE12635
:100F8000000EE56E030EE56E1250E56E1150E56E33
:100F90008FEC2DF0116EF3CF12F0040EE1260B5002
:100FA000E56E0A50E56E07017251E56E0701715159
:100FB000E56E7CEC35F0136EF3CF14F0040EE126F1
:100FC000135011261450122207017451E56E0701C7
:100FD0007351E56E1250E56E1150E56E8FEC2DF0F9
:100FE000116EF3CF12F0040EE12611C0E5FF12C01E
:100FF000F4FF0EC0E9FF0FC0F3FF105096EC3EF077
:10100000BBC20EF0BCC20FF0BDC210F00C0E0E261B
:10101000000E0F22000E10220EC0E9FF0FC0F3FFDA
:1010200010504AEC3EF00E6E0F6A0EBE0F680E5066
:101030000A5C0E6E0F500B580F6EE56E0E50E56E8B
:1010400007017651E56E07017551E56E7CEC35F0D0
:101050000E6EF3CF0FF0040EE12607017851E56E16
:1010600007017751E56E0F50E56E0E50E56E8FEC7F
:101070002DF00E6EF3CF0FF0040EE126BBC210F080
:10108000BCC211F0BDC212F00C0E1026000E1122CF
:10109000000E12220AC0E5FF10C0E9FF11C0F3FFE5
:1010A0001250ADEC3EF0BBC20AF0BCC20BF0BDC2A8
:1010B00010F00D0E0A26000E0B22000E10220AC0A0
:1010C000E9FF0BC0F3FF10504AEC3EF00A6ED880E7
:1010D0000AAED8900A6A0A360A50D880E866D890D4
:1010E0000A6A0A360A5018E0BBC20AF0BCC20BF00A
:1010F000BDC210F00D0E0A26000E0B22000E1022AB
:101100000AC0E9FF0BC0F3FF10504AEC3EF00A6E34
:101110000B6A0ABE0B681DD0BBC210F0BCC211F036
:10112000BDC212F00D0E1026000E1122000E12226A
:1011300010C0E9FF11C0F3FF12504AEC3EF0106EF0
:10114000116A10BE1168111C0B6E101C0A6E0A4A3F
:101150000B2A0C500A260D500B22BBC210F0BCC249
:1011600011F0BDC212F00A0E1026000E1122000E60
:10117000122210C0E9FF11C0F3FF1250D1EC3DF074
:10118000106EF3CF11F010500A2611500B220E50A2
:101190000A260F500B22BBC210F0BCC211F0BDC218
:1011A00012F00D0E1026000E1122000E12220B500E
:1011B000800F800F02E1800E0A5C04E37F0E136E45
:1011C000146A0FD0D8800BAED89003E3156A166A64
:1011D00004D00AC015F00BC016F015C013F016C0ED
:1011E00014F013C0E5FF10C0E9FF11C0F3FF125067
:1011F000ADEC3EF0BBC210F0BCC211F0BDC212F0AB
:10120000060E1026000E1122000E122210C0E9FF59
:1012100011C0F3FF1250D1EC3DF0106EF3CF11F07E
:10122000D88011AED8902AE3BBC210F0BCC211F036
:10123000BDC212F00D0E1026000E1122000E122259
:10124000BBC213F0BCC214F0BDC215F00D0E1326C4
:10125000000E1422000E152213C0E9FF14C0F3FF84
:1012600015504AEC3EF0136E136C13C0E5FF10C02E
:10127000E9FF11C0F3FF1250ADEC3EF0BBC210F01D
:10128000BCC211F0BDC212F00D0E1026000E1122CC
:10129000000E122210C0E9FF11C0F3FF12504AECF9
:1012A0003EF0106E116A10BE1168BBC212F0BCC2D3
:1012B00013F0BDC214F00A0E1226000E1322000E07
:1012C000142212C0E9FF13C0F3FF1450D1EC3DF01B
:1012D000126EF3CF13F0BBC214F0BCC215F0BDC246
:1012E00016F0080E1426000E1522000E162214C049
:1012F000E9FF15C0F3FF16504AEC3EF0070B146EE1
:10130000156A1150E56E1050E56E0B50E56E0A50EF
:10131000E56E0F50E56E0E50E56E1350E56E1250FF
:10132000E56E0D50E56E0C50E56E02019C51E56EC8
:1013300002019B51E56E02019A51E56E020199513D
:10134000E56E0201A051E56E02019F51E56E0201BA
:101350009E51E56E02019D51E56E1550E56E1450EB
:10136000E56E02019851E56E02019751E56E0201AA
:101370009651E56E02019551E56E000EE56E6A0E1E
:10138000E56E0C0EE56ED7EC39F01B0EE126BBC204
:101390000AF0BCC20BF0BDC20CF0080E0A26000E0B
:1013A0000B22000E0C220AC0E9FF0BC0F3FF0C5009
:1013B0004AEC3EF0070B0A6EBBC20BF0BCC20CF04D
:1013C000BDC20DF00D0E0B26000E0C22000E0D22DC
:1013D0000BC0E9FF0CC0F3FF0D504AEC3EF00B6E62
:1013E000E56E0A50E56EB3EC3AF0020EE126F20E1D
:1013F0000201BB27FF0E0201BC23FF0E0201BD2329
:1014000031EF06F0010EE56EF8EC2EF0E12A020154
:10141000F151D8A498EF05F00201F251D8A498EF49
:1014200005F000C0BBF201C0BCF202C0BDF204C0B6
:1014300000F005C001F006C002F00201BD51800FAE
:10144000F36E0250800FF35C07E101500201BC5DB6
:1014500003E100500201BB5DD8B03DD0BBC203F038
:10146000BCC204F0BDC205F0080E0326000E042223
:10147000000E052203C0E9FF04C0F3FF05504AEC4B
:101480003EF0E838E844010B036E03501AE1BBC29A
:1014900003F0BCC204F0BDC205F0080E0326000E26
:1014A0000422000E052203C0E9FF04C0F3FF05502B
:1014B0004AEC3EF0E8380F0B036EE56EFBEC25F0CE
:1014C000E12A0E0E0201BB27000E0201BC23000E12
:1014D0000201BD23B2D7E86AE4CF16F0E4CF15F0DD
:1014E000E4CF14F0E4CF13F0E4CF12F0E4CF11F026
:1014F000E4CF10F0E4CF0FF0E4CF0EF0E4CF0DF026
:10150000E4CF0CF0E4CF0BF0E4CF0AF0E4CF09F025
:10151000E4CF08F0E4CF07F0E4CF06F0E4CF05F025
:10152000E4CF04F0E4CF03F0E4CF02F0E4CF01F025
:10153000E4CF00F0E4CFD9FF1200D9CFE5FFE1CF2F
:10154000D9FF00C0E5FF01C0E5FF02C0E5FF03C011
:10155000E5FF04C0E5FF05C0E5FF06C0E5FF07C0E5
:10156000E5FF08C0E5FF09C0E5FF0AC0E5FF0BC0C5
:10157000E5FF0CC0E5FF0DC0E5FF0EC0E5FF0FC0A5
:10158000E5FF10C0E5FF11C0E5FF12C0E5FF13C085
:10159000E5FF14C0E5FF15C0E5FF16C0E5FF17C065
:1015A000E5FF18C0E5FF19C0E5FF1AC0E5FF1BC045
:1015B000E5FF1CC0E5FF1DC0E5FF1EC0E5FF020EF4
:1015C000DBCF00F0030EDBCF01F0040EDBCF02F027
:1015D000050EDBCF03F0060EDBCF04F0070EDBCFEA
:1015E00005F0080EDBCF06F0090EDBCF07F00A0E80
:1015F000DBCF08F0096A0A6A02C00DF00D50800ABC
:101600000CE100C0C4F201C0C5F202C0C6F2020E75
:10161000016EC40E006E800E026E03C0E9FF04C0AE
:10162000F3FF05504AEC3EF00B6E0B50D8B46EEF52
:101630000EF00B50250A02E053EF0EF00C6A0D6A13
:101640000E6A0F6A106A0A0E116E126A136A146A21
:10165000200E156E1668176A2B0E186E032AD8B066
:10166000042AD8B0052A03C0E9FF04C0F3FF0550DF
:101670004AEC3EF0196E250A15E11950E56E02504C
:10168000E56E0150E56E0050E56E10EC2DF0040E95
:10169000E126092AD8B00A2A032AD8B0042AD8B0E9
:1016A000052ABBD71950300A07E1300E156E032A00
:1016B000D8B0042AD8B0052A03C0E9FF04C0F3FF5C
:1016C00005504AEC3EF02D0A07E1010E146E032A84
:1016D000D8B0042AD8B0052A03C0E9FF04C0F3FF3C
:1016E00005504AEC3EF0200A09E1010E176E200E6B
:1016F000186E032AD8B0042AD8B0052A03C0E9FF1F
:1017000004C0F3FF05504AEC3EF02B0A07E1010E3E
:10171000176E032AD8B0042AD8B0052A03C0E9FFFF
:1017200004C0F3FF05504AEC3EF0196E800F4F0FD6
:101730002EE31950800F460F2AE203C019F004C0AF
:101740001AF005C01BF019C0E9FF1AC0F3FF1B50C7
:101750004AEC3EF01C6E800F500F13E31C50800FBC
:10176000460F0FE213500A0DF3CF1DF01D501C263B
:10177000D00E1C24136E192AD8B01A2AD8B01B2AEE
:10178000E2D719C003F01AC004F01BC005F003C073
:10179000E9FF04C0F3FF05504AEC3EF02E0A30E1A9
:1017A000032AD8B0042AD8B0052A166A03C019F053
:1017B00004C01AF005C01BF019C0E9FF1AC0F3FFFE
:1017C0001B504AEC3EF01C6E800F500F13E31C5070
:1017D000800F460F0FE216500A0DF3CF1DF01D507B
:1017E0001C26D00E1C24166E192AD8B01A2AD8B07E
:1017F0001B2AE2D719C003F01AC004F01BC005F081
:1018000003C0E9FF04C0F3FF05504AEC3EF0196E37
:101810006C0A08E1010E0C6E032AD8B0042AD8B075
:10182000052A0AD01950680A07E1010E0E6E032A34
:10183000D8B0042AD8B0052A03C0E9FF04C0F3FFDA
:1018400005504AEC3EF0750A07E1010E106E032ABE
:10185000D8B0042AD8B0052A03C0E9FF04C0F3FFBA
:1018600005504AEC3EF0196E730A05E1010E0D6E4B
:10187000200E156E41D01950780A03E1100E116E3A
:101880003BD01950580A05E1100E116E010E126E70
:1018900033D01950630A02E1116A2ED019506F0A31
:1018A00003E1080E116E28D01950660A03E1010EFB
:1018B0000F6E22D01950640A1FE01950690A1CE00B
:1018C000105005E0FF0E03260422052215D0195002
:1018D000E56E0250E56E0150E56E0050E56E10ECCD
:1018E0002DF0040EE126092AD8B00A2A032AD8B01E
:1018F000042AD8B0052A91D60D5021E00650030FD6
:101900000D6E000E0720196E000E08201A6E0DC015
:1019100006F019C007F01AC008F0FD0E0D26FF0EE4
:1019200019221A220DC0E9FF19C0F3FF1A503BEC2F
:101930003DF00D6EF3CF19F0F4CF1AF000D10F5037
:101940000DE0640E0D6E1D0E196E000E1A6E040E63
:101950000626000E072208221668F1D016680C50E1
:1019600023E00650040F0C6E000E07200F6E000ED1
:1019700008201B6E0CC006F00FC007F01BC008F05B
:10198000FC0E0C26FF0E0F221B220CC0E9FF0FC01D
:10199000F3FF1B50FCEC3CF00C6EF3CF0FF0F4CFD8
:1019A0001BF0E9CF1CF06AD00E5032E00650020F57
:1019B0000E6E000E07201D6E000E08201E6E0EC05B
:1019C00006F01DC007F01EC008F0FE0E0E26FF0E2A
:1019D0001D221E220EC0E9FF1DC0F3FF1E50D1ECD8
:1019E0003DF00E6E0EC00CF0E86A0EBEFF0E0F6EDC
:1019F0001B6E1C6E11500A0A03E11050D8B43ED081
:101A00000C500E6E0EC00CF00F6A1B6A1C6A36D0AA
:101A10000650020F0E6E000E07201D6E000E0820ED
:101A20001E6E0EC006F01DC007F01EC008F0FE0EB0
:101A30000E26FF0E1D221E220EC0E9FF1DC0F3FF61
:101A40001E50D1EC3DF00E6EF3CF1DF00EC00CF029
:101A50001DC00FF0E86A1DBEFF0E1B6E1C6E1150FC
:101A60000A0A02E110500AE00C500E6E0F501D6E73
:101A70000EC00CF01DC00FF01B6A1C6A020E196E1E
:101A8000610E0D6E800E1A6E1150D8B440D01050F9
:101A900013E01150E56E020EE56E610EE56E1C500E
:101AA000E56E1B50E56E0F50E56E0C50E56E30ECA8
:101AB00022F0070EE12612D01150E56E020EE56EFF
:101AC000610EE56E1C50E56E1B50E56E0F50E56E25
:101AD0000C50E56E84EC31F0070EE12617502FE034
:101AE0000DC0E9FF19C0F3FF1A504AEC3EF02D0A71
:101AF00026E0FF0E0D2619221A2218C0E5FF0DC0A0
:101B0000E9FF19C0F3FF1A50ADEC3EF018D00CC03D
:101B1000E5FF0DC0E9FF19C0F3FF1A50ADEC3EF030
:101B20000D50010F0C6E000E19200E6E000E1A20C3
:101B3000E56A0CC0E9FF0EC0F3FFADEC3EF00DC04E
:101B40000CF019C00EF01AC00FF013C010F01050B6
:101B500011E00CC0E9FF0EC0F3FF0F504AEC3EF05D
:101B6000176E175007E00C2AD8B00E2AD8B00F2AEB
:101B70001006EDD710C013F014501FE109C00CF08F
:101B80000AC00EF010C00FF00F5011E01550E56EB6
:101B90000250E56E0150E56E0050E56E10EC2DF040
:101BA000040EE1260C2AD8B00E2A0F06EDD70CC081
:101BB00009F00EC00AF00FC013F016C00CF00DC0F3
:101BC0000DF019C00EF01AC00FF009C010F00AC0D5
:101BD00015F00DC0E9FF0EC0F3FF0F504AEC3EF0C8
:101BE000166E1650D8B440D00CC016F0176A161EE8
:101BF000171E1650171005E00CC016F00C061650F4
:101C000033E00DC0E9FF0EC0F3FF0F504AEC3EF089
:101C1000116E125010E01150E56EA4EC3DF0166EFE
:101C2000E12A165004E0DF0E1114166E02D011C026
:101C300016F016C011F01150E56E0250E56E01501D
:101C4000E56E0050E56E10EC2DF0040EE1260D2A35
:101C5000D8B00E2AD8B00F2A102AD8B0152A13509F
:101C6000D8B4B7D71306B5D710C009F015C00AF01D
:101C700014502DE010C00CF015C00DF013C00EF084
:101C80000E5021E0200EE56E0250E56E0150E56E2B
:101C90000050E56E10EC2DF0040EE1260C2AD8B0B1
:101CA0000D2A0E06EDD70B50E56E0250E56E015081
:101CB000E56E0050E56E10EC2DF0040EE126092AC9
:101CC000D8B00A2A04D00CC009F00DC00AF0032ACB
:101CD000D8B0042AD8B0052A0DEF0BF00AC0F3FFE4
:101CE0000950E4CF1EF0E4CF1DF0E4CF1CF0E4CFA8
:101CF0001BF0E4CF1AF0E4CF19F0E4CF18F0E4CFF2
:101D000017F0E4CF16F0E4CF15F0E4CF14F0E4CFF1
:101D100013F0E4CF12F0E4CF11F0E4CF10F0E4CFF1
:101D20000FF0E4CF0EF0E4CF0DF0E4CF0CF0E4CFF1
:101D30000BF0E4CF0AF0E4CF09F0E4CF08F0E4CFF1
:101D400007F0E4CF06F0E4CF05F0E4CF04F0E4CFF1
:101D500003F0E4CF02F0E4CF01F0E4CF00F0E4CFF1
:101D6000D9FF12003C4E4F20464C4F41543E0000DC
:101D7000D9CFE5FFE1CFD9FF00C0E5FF01C0E5FF06
:101D800002C0E5FF03C0E5FF04C0E5FF6BEC3EF0D9
:101D9000006E005004E07AEC3EF0006E02D0F7EFE7
:101DA00010F000502B0A01E1DDD000502D0A01E1B6
:101DB000F9D00050300A01E1A5D00050310A01E10C
:101DC00094D00050480A01E13ED10050530A01E18D
:101DD00008D100505A0A01E1B3D00050610A01E174
:101DE00048D00050620A01E16CD00050640A01E161
:101DF00054D00050680A01E18DD100506C0A01E115
:101E000093D10050720A01E1C1D10050730A1DE064
:101E10000050770A06E000507A0A01E180D0F7EF1F
:101E200010F0070E0701126F050E0701116F800EEB
:101E30000701136F000EE56E390EE56E8E0EE56E2E
:101E4000ADEC38F0030EE126D2D1070E0701126F78
:101E5000070E0701116F800E0701136F000EE56E6C
:101E6000390EE56E920EE56EADEC38F0030EE1260C
:101E7000BED1070E0701126F090E0701116F800E08
:101E80000701136F000EE56E390EE56E960EE56ED6
:101E9000ADEC38F0030EE126AAD1070E0701126F50
:101EA0000B0E0701116F800E0701136F000EE56E18
:101EB000390EE56E9A0EE56EADEC38F0030EE126B4
:101EC00096D1070E0701126F0D0E0701116F800EDC
:101ED0000701136F000EE56E390EE56E9E0EE56E7E
:101EE000ADEC38F0030EE12682D170EC3DF0000E2F
:101EF000E56E390EE56EA20EE56EADEC38F0030E20
:101F0000E12675D156EC3DF0000EE56E390EE56E1A
:101F1000B20EE56EADEC38F0030EE12668D1070194
:101F2000026B000EE56E000EE56E000EE56E390EDA
:101F3000E56EC20EE56ED7EC39F0050EE12657D1FD
:101F40007F0E0701026F000EE56E7F0EE56E000E3C
:101F5000E56E390EE56EC20EE56ED7EC39F0050E72
:101F6000E12645D1050E07010227D880070102AFFF
:101F7000D89003E37F0E0701026F02C700F0016AE9
:101F8000070102BF01680150E56E0050E56E000ECA
:101F9000E56E390EE56EC20EE56ED7EC39F0050E32
:101FA000E12625D1FB0E07010227D880070102AFE9
:101FB000D89002E30701026B02C700F0016A070133
:101FC00002BF01680150E56E0050E56E000EE56E3F
:101FD000390EE56EC20EE56ED7EC39F0050EE1263E
:101FE00006D1006A016A6BEC3EF0026E02500BE112
:101FF0000150800F010F02E1FE0E005C04E2002A96
:10200000D8B0012AF0D70150800F010F02E1FE0E77
:10201000005C04E37AEC3EF00701026F02C700F0B7
:10202000016A070102BF01680150E56E0050E56ECC
:10203000000EE56E390EE56EC20EE56ED7EC39F096
:10204000050EE126D4D0006A016A6BEC3EF0026E08
:1020500002500BE10150800F010F02E1FE0E005C07
:1020600004E2002AD8B0012AF0D70150800F010FF6
:1020700002E1FE0E005CD8B0BAD024EC3EF0006E57
:10208000016A026A036A6BEC3EF0046E04500BE1D5
:102090000350800F010F02E1FE0E025C04E2022AEF
:1020A000D8B0032AF0D70350800F010F02E1FE0ED3
:1020B000025CD8B09CD024EC3EF00701046F0050C5
:1020C0000701036F04C700F0016A070104BF01683C
:1020D00003C702F0036A070103BF03680150E56EFE
:1020E0000050E56E0350E56E0250E56E000EE56EA1
:1020F000390EE56EC60EE56ED7EC39F0070EE12617
:10210000070E0701126F0F0E0701116F800E0701F6
:10211000136F6DD0070E0701126F0F0E0701116FBD
:10212000800E0701136F63D0006A016A6BEC3EF00A
:10213000026E02500BE10150800F010F02E1FE0E12
:10214000005C04E2002AD8B0012AF0D70150800FC9
:10215000010F02E1FE0E005C04E224EC3EF00701F8
:10216000036F03C700F0016A070103BF0168015054
:10217000E56E0050E56E000EE56E390EE56ECE0E92
:10218000E56ED7EC39F0050EE12631D0006A016A20
:102190006BEC3EF0026E02500BE10150800F010F1C
:1021A00002E1FE0E005C04E2002AD8B0012AF0D75A
:1021B0000150800F010F02E1FE0E005C04E224ECEE
:1021C0003EF00701046F04C700F0016A070104BF75
:1021D00001680150E56E0050E56E000EE56E390EA7
:1021E000E56ED20EE56ED7EC39F0050EE126E4CFB0
:1021F00004F0E4CF03F0E4CF02F0E4CF01F0E4CF49
:1022000000F0E4CFD9FF1200D9CFE5FFE1CFD9FF2D
:1022100000C0E5FF01C0E5FF02C0E5FF03C0E5FF28
:1022200004C0E5FF05C0E5FF06C0E5FF07C0E5FF08
:1022300008C0E5FF09C0E5FF020EDBCF00F0010E8C
:10224000005CD8A084D1050E005CD8B080D1000617
:102250000AC0E5FF0BC0E5FF0B6A00340B36E8341B
:102260000B36FC0B0A6E000EFB6E220EFA6E860E0B
:102270000A260B50FA22D8B0FB2A0A50E4CF0BF002
:10228000E4CF0AF0F96E4BEF11F09CEF11F0F9EF8B
:1022900011F04AEF12F0ECEC27F0006EF3CF01F0F2
:1022A000F4CF02F0E9CF03F0300ECD14046E043801
:1022B0000F0B046E010E056E000E066E045006E054
:1022C000E86CD89005360636010FFCE30650E56E43
:1022D0000550E56E270EE56E100EE56E8FEC2DF0C5
:1022E000046EF3CF05F0040EE126E86A05BEFF0E8A
:1022F000066E076EE56E0650E56E0550E56E0450FD
:10230000E56E0350E56E0250E56E0150E56E00503B
:10231000E56EF3EC2AF0006EF3CF01F0F4CF02F09B
:10232000E9CF03F0080EE12603C0E9FF02C0F4FF85
:1023300001C0F3FF00500FD1A6EC36F0006EF3CFD2
:1023400001F0F4CF02F0E9CF03F0030ECA14046EDB
:10235000056A0450066E06260534076E010E086EE7
:10236000000E096E06500FE007E6E86CD8900836BC
:102370000936010FFCE307D0D89009BED880093296
:102380000832010FFAE30950E56E0850E56E270E9A
:10239000E56E100EE56E8FEC2DF0046EF3CF05F0B8
:1023A000040EE126E86A05BEFF0E066E076EE56EB6
:1023B0000650E56E0550E56E0450E56E0350E56E7F
:1023C0000250E56E0150E56E0050E56EF3EC2AF028
:1023D000006EF3CF01F0F4CF02F0E9CF03F0080E66
:1023E000E12603C0E9FF02C0F4FF01C0F3FF005083
:1023F000B2D04AEC27F0006EF3CF01F0F4CF02F038
:10240000E9CF03F0300EB114046E04380F0B046EE4
:10241000010E056E000E066E045006E0E86CD890C2
:1024200005360636010FFCE30650E56E0550E56EF5
:10243000270EE56E100EE56E8FEC2DF0046EF3CFD7
:1024400005F0040EE126E86A05BEFF0E066E076E73
:10245000E56E0650E56E0550E56E0450E56E0350DE
:10246000E56E0250E56E0150E56E0050E56EF3EC4E
:102470002AF0006EF3CF01F0F4CF02F0E9CF03F0C1
:10248000080EE12603C0E9FF02C0F4FF01C0F3FF1C
:10249000005061D061EC36F0006EF3CF01F0F4CF64
:1024A00002F0E9CF03F0030E7614046E056A0450BF
:1024B000066E06260534076E010E086E000E096EC4
:1024C00006500FE007E6E86CD89008360936010F91
:1024D000FCE307D0D89009BED88009320832010F3A
:1024E000FAE30950E56E0850E56E270EE56E100E12
:1024F000E56E8FEC2DF0046EF3CF05F0040EE126AF
:10250000E86A05BEFF0E066E076EE56E0650E56EC4
:102510000550E56E0450E56E0350E56E0250E56E21
:102520000150E56E0050E56EF3EC2AF0006EF3CF3B
:1025300001F0F4CF02F0E9CF03F0080EE12603C06A
:10254000E9FF02C0F4FF01C0F3FF005004D0E96AC4
:10255000F46AF36AE86AE4CF09F0E4CF08F0E4CF64
:1025600007F0E4CF06F0E4CF05F0E4CF04F0E4CFC9
:1025700003F0E4CF02F0E4CF01F0E4CF00F0E4CFC9
:10258000D9FF1200E8CFE5FFD8CFE5FFE0CFE5FFA8
:10259000F3CFE5FFF4CFE5FFE9CFE5FFEACFE5FFB5
:1025A000FACFE5FFFBCFE5FFD9CFE5FFE1CFD9FFBC
:1025B00000C0E5FF01C0E5FF02C0E5FF03C0E5FF85
:1025C00004C0E5FF05C0E5FF06C0E5FF07C0E5FF65
:1025D00008C0E5FF09C0E5FF0AC0E5FF80CFE4F2CF
:1025E00085CFE5F287CFE6F2F2A0ACD081CF00F044
:1025F000F290100E016E026A030E036E046A04501C
:10260000800F800F02E1070E035CD8B09BD007015A
:1026100063510018056E066A015005160250061631
:1026200005500610D8B487D000C005F0066A0150E6
:1026300005160250061605500610D8B45ED00304E5
:10264000056E570E0524066E076A05BE0768070E5D
:10265000072206C0E9FF07C0EAFFEFCF06F00650E9
:10266000010A21E1000E05BEFF0ED8900534076E69
:10267000086A07BE08684B0E0726070E082207C027
:10268000E9FF08C0EAFFEECF09F0EFCF0AF0092A10
:10269000D8B00A2A07C0E9FF08C0EAFF09C0EEFF68
:1026A0000AC0EFFF1FD00650020A07E10350066E72
:1026B000E56E38EC21F0E12A15D0066A05BE066801
:1026C000330E0526070E062205C0E9FF06C0EAFF05
:1026D000EFCF05F0055006E00350056EE56E30ECD7
:1026E00029F0E12A63C705F0066A0150051202507D
:1026F000061205500701636F1ED00350056E0506D4
:10270000066A05BE0668330E0526070E062205C0BA
:10271000E9FF06C0EAFFEFCF05F0055006E00350E1
:10272000056EE56EA5EC26F0E12A0150056E051E4A
:10273000055007016317032AD8B0042A0150012667
:1027400002365DD7F0A22ED0F09257C700F00050AD
:10275000010A0FE107014B51010F016E000E070145
:102760004C21026E015007014B6F025007014C6F64
:1027700019D00050020A06E1010EE56E38EC21F096
:10278000E12A10D0070133510DE0F1A806D0010E67
:10279000E56E30EC29F0E12A05D0010EE56EA5ECDE
:1027A00026F0E12AF0A42ED0F09458C700F0005093
:1027B000010A0FE107014D51010F016E000E0701E3
:1027C0004E21026E015007014D6F025007014E6FFE
:1027D00019D00050020A06E1020EE56E38EC21F035
:1027E000E12A10D0070134510DE0F1A606D0020E07
:1027F000E56E30EC29F0E12A05D0020EE56EA5EC7D
:1028000026F0E12AF2A406D0F2940201CF2B02E3D3
:102810000201D02B9EA006D09E900201D12B02E394
:102820000201D22B9EA20ED09E920201852B02E3C2
:102830000201862B02E30201872B02E30201882BAF
:102840000201886BA1A206D0A1920201D32B02E360
:102850000201D42BA4A60ED0A4960201892B02E378
:1028600002018A2B02E302018B2B02E302018C2B73
:1028700002018C6BE4CF0AF0E4CF09F0E4CF08F05A
:10288000E4CF07F0E4CF06F0E4CF05F0E4CF04F0A6
:10289000E4CF03F0E4CF02F0E4CF01F0E4CF00F0A6
:1028A000E4CFD9FFE4CFFBFFE4CFFAFFE4CFEAFFA8
:1028B000E4CFE9FFE4CFF4FFE4CFF3FFE4CFE0FFA0
:1028C000E4CFD8FFE4CFE8FF1000D9CFE5FFE1CF98
:1028D000D9FF00C0E5FF01C0E5FF02C0E5FF03C06E
:1028E000E5FF04C0E5FF05C0E5FF06C0E5FF07C042
:1028F000E5FF08C0E5FF09C0E5FF0AC0E5FF0BC022
:10290000E5FF0CC0E5FF0DC0E5FF0EC0E5FF0FC001
:10291000E5FF10C0E5FF11C0E5FF12C0E5FF020EA4
:10292000DBCF00F0030EDBCF01F0040EDBCF02F0B3
:10293000050EDBCF03F0060EDBCF04F0070EDBCF76
:1029400005F0080EDBCF06F0090EDBCF07F00A0E0C
:10295000DBCF08F0D88000AED890096A093609505C
:10296000D880E866D8900A6A0A360A5006E000C0A5
:102970000BF00C6A00BE0C680BD000C00DF00E6AA4
:1029800000BE0E680E1C0C6E0D1C0B6E0B4A0C2A42
:10299000D88001AED8900D6A0D360D50D880E8660B
:1029A000D8900E6A0E360E5006E001C00FF0106A85
:1029B00001BE10680BD001C011F0126A01BE12688E
:1029C000121C106E111C0F6E0F4A102A0A5006E0DE
:1029D00000C00AF0116A00BE116809D0126A00BE78
:1029E0001268121C116E001C0A6E0A4A112A11503C
:1029F000800F800F02E1800E0A5C1CE20E5006E0A0
:102A000001C000F00A6A01BE0A6809D00E6A01BE60
:102A10000E680E1C0A6E011C006E004A0A2A0A503B
:102A2000800F800F02E1800E005C04E20250800FF4
:102A3000FF0F02E2800EB2D00F507F08006E000E32
:102A40001054016EE56E0050E56E0C50E56E0B50B3
:102A5000E56E7CEC35F0006EF3CF01F0040EE1265C
:102A6000000EE56E7F0EE56E0150E56E0050E56EDE
:102A70008FEC2DF0006EF3CF01F0040EE1260F5025
:102A80000026105001220A6A02BE0A680A50E56E4A
:102A90000250E56E0150E56E0050E56E7CEC35F0BD
:102AA000006EF3CF01F0040EE126000EE56E7F0EFE
:102AB000E56E0150E56E0050E56E8FEC2DF0006E76
:102AC000F3CF01F0040EE12600C0D5F201C0D6F22A
:102AD0000B500F5C0B6E0C5010580C6E0A50E56ECC
:102AE0000250E56E0C50E56E0B50E56E7CEC35F057
:102AF000026EF3CF0AF0040EE126000EE56E7F0EA3
:102B0000E56E0A50E56E0250E56E8FEC2DF0026E18
:102B1000F3CF0AF0040EE12602C0D7F20AC0D8F2C1
:102B20000D500BE1095021E000C0D7F201C0D8F2EE
:102B300002C0D5F20AC0D6F218D0095008E102C08E
:102B4000D5F20AC0D6F200C0D7F201C0D8F2020115
:102B5000D61F0201D56D02E10201D62B0201D81F5A
:102B60000201D76D02E10201D82B0201D551006E9E
:102B700000C0E5FF03C0E9FF04C0F3FF0550ADEC62
:102B80003EF00201D751006E00C0E5FF06C0E9FF2C
:102B900007C0F3FF0850ADEC3EF0E86AE4CF12F056
:102BA000E4CF11F0E4CF10F0E4CF0FF0E4CF0EF05B
:102BB000E4CF0DF0E4CF0CF0E4CF0BF0E4CF0AF05B
:102BC000E4CF09F0E4CF08F0E4CF07F0E4CF06F05B
:102BD000E4CF05F0E4CF04F0E4CF03F0E4CF02F05B
:102BE000E4CF01F0E4CF00F0E4CFD9FF1200100EE3
:102BF000006E270E016E010E026E036A046A056AFA
:102C0000066A076A086A096ADCEC2FF0B6EC1BF06A
:102C100070EC3DF0F7EC3BF00A6E0A5012E1BBECB1
:102C20003DF00A6E0A500DE0F1EC18F0050EE56E6D
:102C300080EC2BF00A6EE12A0A50810A02E1ADEC29
:102C400032F06BEC3EF00A6E0A50D8B456D0B8ECB5
:102C50000EF0070E0B6E0F0E0A6E800E0C6E070143
:102C600011510A1808E1070112510B1804E107017C
:102C700013510C1801E00BD007010451E56E070158
:102C80000351E56E47EC3AF0020EE12631D011C750
:102C90000AF012C70BF013C70CF00AC0E9FF0BC013
:102CA000F3FF0C504AEC3EF00A6E07010203F3CF2B
:102CB0000AF011C70BF012C70CF013C70DF00B2A66
:102CC000D8B00C2AD8B00D2A0BC0E9FF0CC0F3FF16
:102CD0000D504AEC3EF00B6E07010203F3CF0BF0F0
:102CE0000B50E56E0A50E56E47EC3AF0020EE12615
:102CF000000EE56EF8EC2EF0E12A0F0EE56ECCEC3E
:102D000023F00A6EE12A0A5022E10E0EE56ECCECA9
:102D100023F00A6EE12A0A500DE1000EE56E380E2E
:102D2000E56EB00EE56ED7EC39F0030EE1260AEC45
:102D30002EF021D0000EE56E380EE56EB40EE56E75
:102D4000D7EC39F0030EE12691EC2CF014D00E0EE6
:102D5000E56ECCEC23F00A6EE12A0A500CE1000E7D
:102D6000E56E380EE56EB80EE56ED7EC39F0030E61
:102D7000E12681EC2EF0010EE56E7AEC17F00A6E7A
:102D8000F3CF0BF0E12A0AC00CF00BC00DF0000EDF
:102D90000B5C02E1150E0A5C0CE3000EE56E380ECA
:102DA000E56EBC0EE56ED7EC39F0030EE126E7ECDC
:102DB0003AF000C00AF001C00BF0002AD8B0012A96
:102DC0000A50100A03E10B50270A01E026D0010E39
:102DD000E56E7DEC3AF00A6EF3CF0BF0E12A0A5073
:102DE000041803E10B50051816E0010EE56E7DECAA
:102DF0003AF0046EF3CF05F0E12A0550E56E045079
:102E0000E56E000EE56E380EE56EC00EE56ED7EC91
:102E100039F0050EE126006A016A02500C5C0A6E68
:102E200003500D580B6E000E0B5C02E1020E0A5CA3
:102E30000CE20C50025C0A6E0D5003580B6E000E33
:102E40000B5C02E1020E0A5C12E30D50E56E0C50C1
:102E5000E56E000EE56E380EE56EC60EE56ED7EC3B
:102E600039F0050EE1260CC002F00DC003F0030E90
:102E7000E56E75EC3BF00A6EF3CF0BF0E12A0A50D9
:102E8000061803E10B50071812E0000EE56E380E2D
:102E9000E56ECE0EE56ED7EC39F0030EE126030E9B
:102EA000E56E75EC3BF0066EF3CF07F0E12A020EFB
:102EB000E56E75EC3BF00A6EF3CF0BF0E12A0A5099
:102EC000081804E10B50091801E1A4D6000EE56EC4
:102ED000380EE56ED20EE56ED7EC39F0030EE12622
:102EE000020EE56E75EC3BF0086EF3CF09F0E12AB7
:102EF00091D61200D9CFE5FFE1CFD9FF00C0E5FFA1
:102F000001C0E5FF02C0E5FF03C0E5FF04C0E5FF27
:102F100005C0E5FF06C0E5FF07C0E5FF08C0E5FF07
:102F200009C0E5FF0AC0E5FF020EDBCF00F0010E8D
:102F3000005C03E3070E005C03E3F368800E38D106
:102F40000004016E1B0E0124026E036A070E0322A9
:102F500002C0E9FF03C0EAFFEFCF04F00450D8A499
:102F60007CD0D6CF04F0056AD7CF06F0076A0650AA
:102F7000096E086A0850041209500512D8900134ED
:102F8000066E076A790E0626020E072206C0E9FFC2
:102F900007C0EAFFEECF06F0EFCF07F00650045E61
:102FA0000750055AD5A604D0010E066E076A0FD049
:102FB000070ED514086E020E066E000E076E08503E
:102FC00006E0E86CD89006360736010FFCE30750A0
:102FD000E56E0650E56E270EE56E100EE56E8FEC81
:102FE0002DF0066EF3CF07F0040EE1260750E56ED4
:102FF0000650E56E0550E56E0450E56E84EC34F045
:10300000046EF3CF05F0040EE126000E055C02E12C
:103010000C0E045CD8A0BAD0EA0E0124046E056A36
:10302000070E052204C0E9FF05C0EAFFEFCF04F058
:103030000050E56E0450E56EEBEC36F0020EE12632
:103040001B0E0124006E046A070E042200C0E9FF73
:1030500004C0EAFF010EEF6E99D0390E0124006E14
:10306000046A070E042200C0E9FF04C0EAFFEFCFA4
:1030700000F00050D8B48AD0390E0124006E046AE2
:10308000070E042200C0E9FF04C0EAFF000EEF6E45
:1030900002C0E9FF03C0EAFF000EEF6ED8900134D2
:1030A000006E210E0024026E036A070E0322D5A6CD
:1030B00004D0010E046E056A0FD0070ED514066EFB
:1030C000020E046E000E056E065006E0E86CD89005
:1030D00004360536010FFCE3E86A05BEFF0E066EF6
:1030E000076E086A3F0E0026070E082200C0E9FF9F
:1030F00008C0EAFFEECF00F0EFCF08F0096A0A6AD5
:103100000A50E56E0950E56E0850E56E0050E56E18
:103110000750E56E0650E56E0550E56E0450E56E0D
:103120002CEC1FF0006EF3CF04F0F4CF05F0E9CFE4
:1031300006F0080EE126700E0026FE0E0422FF0E99
:103140000522FF0E0622000EE56E000EE56E020E51
:10315000E56E470EE56E0650E56E0550E56E0450CF
:10316000E56E0050E56EF3EC2AF0006EF3CF04F04C
:10317000F4CF05F0E9CF06F0080EE12602C0E9FF22
:1031800003C0EAFF00C0EEFF04C0EFFFD890013695
:10319000006A210E0126070E002201C0E9FF00C0CF
:1031A000EAFFEECF01F0EFCF00F000C0F3FF0150D7
:1031B000E4CF0AF0E4CF09F0E4CF08F0E4CF07F061
:1031C000E4CF06F0E4CF05F0E4CF04F0E4CF03F061
:1031D000E4CF02F0E4CF01F0E4CF00F0E4CFD9FF78
:1031E0001200D9CFE5FFE1CFD9FF00C0E5FF01C054
:1031F000E5FF02C0E5FF03C0E5FF04C0E5FF05C031
:10320000E5FF06C0E5FF07C0E5FF08C0E5FF09C010
:10321000E5FF0AC0E5FF0BC0E5FF0CC0E5FF0DC0F0
:10322000E5FF0EC0E5FF0FC0E5FF040EE56ECCEC38
:1032300023F0006EE12A005003E16FEC33F002D07E
:1032400047EC3CF0000EE56EF8EC2EF0E12A010EA2
:10325000E56E7AEC17F0006EF3CF01F0E12A000E74
:10326000015C02E1100E005C02E3E7EC3AF08EEC48
:1032700028F0006EF3CF01F0F4CF02F0E9CF03F0B5
:10328000D5A604D0010E046E056A0FD0070ED51422
:10329000066E020E046E000E056E065006E0E86C27
:1032A000D89004360536010FFCE30550E56E045056
:1032B000E56E270EE56E100EE56E8FEC2DF0046EB8
:1032C000F3CF05F0040EE126E86A05BEFF0E066E98
:1032D000076EE56E0650E56E0550E56E0450E56E2E
:1032E0000350E56E0250E56E0150E56E0050E56E4C
:1032F000F3EC2AF0006EF3CF01F0F4CF02F0E9CF47
:1033000003F0080EE126000EE56E000EE56E030EDA
:10331000E56EE80EE56E0350E56E0250E56E015075
:10332000E56E0050E56EF3EC2AF00701F06FF3CF85
:10333000F1F7F4CFF2F7E9CFF3F7080EE126070132
:10334000F3510701195D0EE10701F2510701185D04
:1033500009E10701F1510701175D04E10701F0518F
:103360000701165DD8B083D0F0C716F7F1C717F77D
:10337000F2C718F7F3C719F7040EE56ECCEC23F08B
:10338000006EE12A016A00BE0168060EE56E80EC5F
:103390002BF0026EE12A036A02BE0368050EE56E99
:1033A00080EC2BF0046EE12A056A04BE0568040E69
:1033B000E56E80EC2BF0066EE12A076A06BE076810
:1033C000030EE56E80EC2BF0086EE12A096A08BE58
:1033D0000968020EE56E80EC2BF00A6EE12A0B6A9A
:1033E0000ABE0B68010EE56E80EC2BF00C6EE12A34
:1033F0000D6A0CBE0D6861EC39F00E6E0F6A0EBEE0
:103400000F680150E56E0050E56E0350E56E025006
:10341000E56E0550E56E0450E56E0750E56E06500A
:10342000E56E0950E56E0850E56E0B50E56E0A50EA
:10343000E56E0D50E56E0C50E56E0F50E56E0E50CA
:10344000E56E0701F351E56E0701F251E56E0701E4
:10345000F151E56E0701F051E56E000EE56E390E93
:10346000E56E200EE56ED7EC39F0170EE126E4CFBD
:103470000FF0E4CF0EF0E4CF0DF0E4CF0CF0E4CF8A
:103480000BF0E4CF0AF0E4CF09F0E4CF08F0E4CF8A
:1034900007F0E4CF06F0E4CF05F0E4CF04F0E4CF8A
:1034A00003F0E4CF02F0E4CF01F0E4CF00F0E4CF8A
:1034B000D9FF1200D9CFE5FFE1CFD9FF00C0E5FF6A
:1034C00001C0E5FF02C0E5FF03C0E5FF04C0E5FF62
:1034D00005C0E5FF06C0E5FF07C0E5FF08C0E5FF42
:1034E00009C0E5FF0AC0E5FF0BC0E5FF0CC0E5FF22
:1034F0000DC0E5FF0EC0E5FF0FC0E5FF10C0E5FF02
:1035000011C0E5FF12C0E5FF13C0E5FF020EDBCFDF
:1035100000F0030EDBCF01F0040EDBCF02F0050E4E
:10352000DBCF03F0060EDBCF04F0070EDBCF05F098
:10353000080EDBCF06F0090EDBCF07F00A0EDBCF5B
:1035400008F00B0EDBCF09F00C0EDBCF0AF00D0EEE
:10355000DBCF0BF00E0EDBCF0CF00F0EDBCF0DF040
:103560000BC00EF00F6A0AC010F0116A09C012F009
:10357000136A0F50E56E0E50E56E1150E56E105057
:10358000E56E1350E56E1250E56E000EE56E6A0EA4
:10359000E56E4E0EE56ED7EC39F0090EE126010E10
:1035A000095C12E3090E095C0FE2010E0A5C0CE3F0
:1035B000070E0A5C09E20B5009E00B500201E75DBF
:1035C00003E2110E0B5C02E3800EA5D0010EE56E46
:1035D0000B50E56E36EC20F0020EE12603C0E5FF4D
:1035E00004C0F4FF05C0F6FF06C0F7FF00C0E9FF06
:1035F00001C0F3FF02505BEC3EF00050040F036E7D
:10360000000E0120046E000E0220056E07C0E5FFCB
:1036100008C0F4FF03C0E9FF04C0F3FF055096ECB7
:103620003EF00050080F036E000E0120046E000EE5
:103630000220056E0950070BF46E03C0E9FF04C0B9
:10364000F3FF05504AEC3EF0F80BF410E56E03C0B2
:10365000E9FF04C0F3FF0550ADEC3EF00050080F49
:10366000036E000E0120046E000E0220056E0A504B
:103670000F0BE838F46E03C0E9FF04C0F3FF0550F8
:103680004AEC3EF00F0BF410E56E03C0E9FF04C0F6
:10369000F3FF0550ADEC3EF00050090F036E000E35
:1036A0000120046E000E0220056E0B500F0BF46E0D
:1036B00003C0E9FF04C0F3FF05504AEC3EF0F00BF5
:1036C000F410E56E03C0E9FF04C0F3FF0550ADEC54
:1036D0003EF0060E0026000E0122000E02220D50C2
:1036E000800F7A0F02E1A30E0C5C05E20CC003F020
:1036F0000DC004F004D0A30E036E060E046E03C0CA
:10370000E5FF04C0F4FF00C0E9FF01C0F3FF025071
:1037100096EC3EF0E86AE4CF13F0E4CF12F0E4CF89
:1037200011F0E4CF10F0E4CF0FF0E4CF0EF0E4CFCF
:103730000DF0E4CF0CF0E4CF0BF0E4CF0AF0E4CFCF
:1037400009F0E4CF08F0E4CF07F0E4CF06F0E4CFCF
:1037500005F0E4CF04F0E4CF03F0E4CF02F0E4CFCF
:1037600001F0E4CF00F0E4CFD9FF1200D9CFE5FF9C
:10377000E1CFD9FF00C0E5FF01C0E5FF02C0E5FFD2
:103780003E0E0201CB6F0201CC6B2F0E0201C96FFE
:103790000201CA6B030E0201C76F0201C86B070E5C
:1037A0000201CD6F0201CE6B000EE56E070EE56ED5
:1037B000000EE56E030EE56E000EE56E3E0EE56E44
:1037C000000EE56E2F0EE56E000EE56E380EE56E0E
:1037D000D60EE56ED7EC39F00B0EE126010E006E29
:1037E000016A0150800F800F02E1100E005C0EE2B2
:1037F0000050026E010EE56E0250E56E36EC20F0D0
:10380000020EE126002AD8B0012AEBD7020EE56E9F
:1038100093EC3CF0E12A100E006E016A0150800F1B
:10382000800F02E1110E005C0EE20050026E000EED
:10383000E56E0250E56E36EC20F0020EE126002A1D
:10384000D8B0012AEBD7100E006E016A0150800F2C
:10385000800F02E1110E005C0EE20050026E000EBD
:10386000E56E0250E56E1EEC1EF0020EE126002A07
:10387000D8B0012AEBD7100EE56E010EE56E4BECC9
:1038800032F0020EE126020EE56ED9EC34F0E12AA8
:10389000030EE56ED9EC34F0E12AEAEC38F0E4CF1F
:1038A00002F0E4CF01F0E4CF00F0E4CFD9FF120042
:1038B00042460A00424C00004252000043460000CB
:1038C0004C25640A000055443A2025640A00454C02
:1038D000000045520000776865656C20636972637B
:1038E000756D663A2025642C20726F746174696F5F
:1038F0006E5F63697263756D663A2025642C20647F
:1039000065677265652F7469636B3A2025642C20A6
:10391000636D2F31357469636B202564200A0000C4
:1039200045543A20256C64202052433A20256420D7
:103930002564202564202564202564202564202515
:103940006420204A756D7065723A2025640A000073
:103950005374617274696E67206175746F6E6F6DF8
:103960006F757320726F7574696E652E2E2E0A0046
:10397000456E64696E67206175746F6E6F6D6F75EB
:103980007320726F7574696E652E2E2E0A00770A89
:103990000000730A0000610A0000640A0000620A65
:1039A0000000526164696F20636F6E74726F6C0AFD
:1039B000000053657269616C20636F6E74726F6C86
:1039C0000A005325640048256325630A00006C251E
:1039D00063007225630048656C6C6F2C20576F7212
:1039E0006C64210A0000E8CFE5FFD8CFE5FFE0CF07
:1039F000E5FFF3CFE5FFF4CFE5FFE9CFE5FFEACF41
:103A0000E5FFFACFE5FFFBCFE5FFD9CFE5FFE1CF3B
:103A1000D9FF00C0E5FF01C0E5FF02C0E5FFF2A24B
:103A20009BD0F292200E0201EE6F9F860701675134
:103A3000D880E866D890006A00360050200DF3CF99
:103A400000F0F4CF01F07B0E0026070E012201509A
:103A50000201B96F00500201B86F800E0201BA6F07
:103A600007016B51D880E866D890006A0036005094
:103A7000200DF3CF00F0F4CF01F0000E0026020E6F
:103A8000012201500201B66F00500201B56F800E95
:103A90000201B76F68C700F069C701F06AC702F09A
:103AA000002AD8B0012AD8B0022A00C0E9FF01C01C
:103AB000F3FF02504AEC3EF0E844E844010B006E8C
:103AC00000502FE007016B51D880E866D890006A5B
:103AD00000360050200DF3CF00F0016A000E0026E2
:103AE000020E01221D0E0026D8B0012A00C0E9FFF7
:103AF00001C0EAFF6CC7EFFF07016B51200DF3CF48
:103B000000F0016A000E0026020E01221D0E0026A2
:103B1000D8B0012A00C0E9FF01C0EAFF6CC7EFFF7F
:103B20006C2BC9CFEFF2B5C200F0B6C201F0B7C23C
:103B300002F000C0E9FF01C0F3FF02504AEC3EF082
:103B4000006E0201B52B02E30201B62B02E3020173
:103B5000B72B00C0C9FF57D09EA655D09E96B8C2BD
:103B600000F0B9C201F0BAC202F0C9CFE5FF00C04F
:103B7000E9FF01C0F3FF0250ADEC3EF00201B82BAB
:103B800002E30201B92B02E30201BA2BB5C200F035
:103B9000B6C201F0B7C202F000C0E9FF01C0F3FFF6
:103BA00002504AEC3EF0006E0201B52B02E3020126
:103BB000B62B02E30201B72B00C0C9FF0201EE07DA
:103BC000EE5121E1020E0701D96F0201F093F0815D
:103BD00007016751D880E866D8900701676B67379F
:103BE0006751200DF3CF00F0F4CF01F07B0E0026DB
:103BF000070E012201500701696F00500701686F2D
:103C0000800E07016A6FE4CF02F0E4CF01F0E4CF49
:103C100000F0E4CFD9FFE4CFFBFFE4CFFAFFE4CF1D
:103C2000EAFFE4CFE9FFE4CFF4FFE4CFF3FFE4CF12
:103C3000E0FFE4CFD8FFE4CFE8FF1000D9CFE5FFE5
:103C4000E1CFD9FF00C0E5FF01C0E5FF02C0E5FFFD
:103C500003C0E5FF020EDBCF00F0030EDBCF01F067
:103C600000500201E75D0EE2110E005C026A0236AE
:103C7000025008E10050E56E49EC25F0036EE12AA0
:103C8000035002E0800EDDD0010E005CD8A0D6D03B
:103C90000250D8A4D3D0000604C0E5FF05C0E5FF5C
:103CA000056A00340536E8340536FC0B046E000E58
:103CB000FB6E3C0EFA6ECE0E04260550FA22D8B0EA
:103CC000FB2A0450E4CF05F0E4CF04F0F96E87EF4F
:103CD0001EF08FEF1EF098EF1EF0A2EF1EF0ACEF7B
:103CE0001EF0B6EF1EF0BEEF1EF0C7EF1EF0D1EFD4
:103CF0001EF0DBEF1EF0E4EF1EF0EEEF1EF0F8EF2B
:103D00001EF001EF1FF00BEF1FF015EF1FF0015039
:103D1000010BF46E8950FE0BF410896E91D00150A6
:103D2000010BE844F46E8950FD0BF410896E88D0C5
:103D30000150010BE844E844F46E8950FB0BF41089
:103D4000896E7ED00150010BE838E840F46E89504E
:103D5000F70BF410896E74D00150010BE838E84479
:103D6000F46E8950DF0BF410896E6AD00150010B9C
:103D7000F46E8E50FE0BF4108E6E62D00150010B6B
:103D8000E844F46E8E50FD0BF4108E6E59D0015045
:103D9000010BE844E844F46E8E50FB0BF4108E6E79
:103DA0004FD00150010BE838E840F46E8E50F70B0D
:103DB000F4108E6E45D00150010BE838F46E8E5031
:103DC000EF0BF4108E6E3CD00150010BE838E84444
:103DD000F46E8E50DF0BF4108E6E32D00150010B5A
:103DE000E840E840F46E8E50BF0BF4108E6E28D081
:103DF0000150010BE838F46E9050EF0BF410906E08
:103E00001FD00150010BE838E844F46E9050DF0BEE
:103E1000F410906E15D00150010BE840E840F46EAC
:103E20009050BF0BF410906E0BD00150010BE84086
:103E3000F46E90507F0BF410906E02D0800E01D083
:103E4000E86AE4CF03F0E4CF02F0E4CF01F0E4CF7E
:103E500000F0E4CFD9FF1200D9CFE5FFE1CFD9FFC1
:103E600000C0E5FF01C0E5FF02C0E5FF03C0E5FFBC
:103E700004C0E5FF05C0E5FF06C0E5FF07C0E5FF9C
:103E8000020EDBCF00F0030EDBCF01F0040EDBCF20
:103E900002F0050EDBCF03F0060EDBCF04F0070EB9
:103EA000DBCF05F0080EDBCF06F0090EDBCF07F005
:103EB00000500201A16F0150A26F0250A36F035086
:103EC000A46F04500201A56F0550A66F0650A76F9E
:103ED0000750A86F0201A1510201A703F3CF00F020
:103EE000F4CF01F000500201AB6F0150AC6F020142
:103EF000A1510201A503F3CF00F0F4CF01F000506F
:103F00000201A96F0150AA6F0201A4510201A50389
:103F1000F3CF00F00201AC5100260050AC6F02015B
:103F2000A3510201A603F3CF00F00201AC51002619
:103F30000050AC6F0201A3510201A503F3CF00F0C2
:103F4000F4CF01F00201AB510026AC510122005028
:103F5000AB6F0150AC6F0201A2510201A603F3CF77
:103F600000F0F4CF01F00201AB510026AC51012268
:103F70000050AB6F0150AC6F0201A2510201A703C8
:103F8000F3CF00F000500201B06F0201A251020114
:103F9000A503F3CF00F0F4CF01F000500201AE6FA3
:103FA0000150AF6F0201A1510201A803F3CF00F04D
:103FB00000500201B46F0201A1510201A603F3CF28
:103FC00000F0F4CF01F000500201B26F0150B36F66
:103FD0000201AD6B0201B16B0201AD510201A925D5
:103FE000006E0201AE510201AA21016E0201AF5121
:103FF0000201AB21026E0201B0510201AC21036E3D
:104000000050A96F0150AA6F0250AB6F0350AC6F04
:104010000201B1510201A925006E0201B251020153
:10402000AA21016E0201B3510201AB21026E02010D
:10403000B4510201AC21036E03C0E9FF02C0F4FFDA
:1040400001C0F3FF0050E4CF07F0E4CF06F0E4CF67
:1040500005F0E4CF04F0E4CF03F0E4CF02F0E4CFC6
:1040600001F0E4CF00F0E4CFD9FF1200D9CFE5FF93
:10407000E1CFD9FF00C0E5FF01C0E5FF02C0E5FFC9
:10408000020EDBCF00F0030EDBCF01F00050020187
:10409000E75D06E2110E005C026A0236025002E0A1
:1040A000800EDDD0010E005CD8A0D6D00250D8A47E
:1040B000D3D0000603C0E5FF04C0E5FF046A003466
:1040C0000436E8340436FC0B036E000EFB6E400E23
:1040D000FA6EEA0E03260450FA22D8B0FB2A0350E7
:1040E000E4CF04F0E4CF03F0F96E95EF20F09DEFFC
:1040F00020F0A6EF20F0B0EF20F0BAEF20F0C4EFF0
:1041000020F0CCEF20F0D5EF20F0DFEF20F0E9EF4A
:1041100020F0F2EF20F0FCEF20F006EF21F00FEF9F
:1041200021F019EF21F023EF21F00150010BF46E83
:104130009250FE0BF410926E91D00150010BE844A6
:10414000F46E9250FD0BF410926E88D00150010B6A
:10415000E844E844F46E9250FB0BF410926E7ED06B
:104160000150010BE838E840F46E9250F70BF41060
:10417000926E74D00150010BE838E844F46E92500E
:10418000DF0BF410926E6AD00150010BF46E975061
:10419000FE0BF410976E62D00150010BE844F46EF0
:1041A0009750FD0BF410976E59D00150010BE84465
:1041B000E844F46E9750FB0BF410976E4FD001500B
:1041C000010BE838E840F46E9750F70BF410976E47
:1041D00045D00150010BE838F46E9750EF0BF41006
:1041E000976E3CD00150010BE838E844F46E9750CC
:1041F000DF0BF410976E32D00150010BE840E8401D
:10420000F46E9750BF0BF410976E28D00150010B3D
:10421000E838F46E9950EF0BF410996E1FD00150EE
:10422000010BE838E844F46E9950DF0BF410996EF6
:1042300015D00150010BE840E840F46E9950BF0BD7
:10424000F410996E0BD00150010BE840F46E9950B8
:104250007F0BF410996E02D0800E01D0E86AE4CF93
:1042600002F0E4CF01F0E4CF00F0E4CFD9FF120078
:10427000D9CFE5FFE1CFD9FF00C0E5FF01C0E5FFE1
:1042800002C0E5FF03C0E5FF04C0E5FF020EDBCF7F
:1042900000F0016A00065D0E0024026E036A070E3C
:1042A000032202C0E9FF03C0EAFFEFCF02F0010ED4
:1042B000025CD8A08FD0110E025CD8B08BD0020661
:1042C00005C0E5FF06C0E5FF066A02340636E8349D
:1042D0000636FC0B056E000EFB6E420EFA6EF60EF5
:1042E00005260650FA22D8B0FB2A0550E4CF06F086
:1042F000E4CF05F0F96E9BEF21F0A0EF21F0A5EFE0
:1043000021F0AAEF21F0AFEF21F0B4EF21F0B9EFE7
:1043100021F0BEEF21F0C3EF21F0C8EF21F0CDEF87
:1043200021F0D2EF21F0D7EF21F0DCEF21F0E1EF27
:1043300021F0E6EF21F0010E0201E415016E4AD0F2
:10434000020E0201E415016E45D0040E0201E415CF
:10435000016E40D0080E0201E415016E3BD0200E24
:104360000201E415016E36D0010E0201E515016E61
:1043700031D0020E0201E515016E2CD0040E0201AF
:10438000E515016E27D0080E0201E515016E22D059
:10439000100E0201E515016E1DD0010E0201E5159A
:1043A000016E18D0020E0201E515016E13D0100E39
:1043B0000201E615016E0ED0200E0201E615016E17
:1043C00009D0400E0201E615016E04D0800E0201F4
:1043D000E615016E01501DE1D8900034016E026AAD
:1043E0004B0E0126070E022201C0E9FF02C0EAFFC0
:1043F000EECF03F0EFCF04F0FF0E0326D8A00406A3
:1044000001C0E9FF02C0EAFF03C0EEFF04C0EFFFF6
:104410001AD0D8900036016A4B0E0026070E0122F2
:1044200000C0E9FF01C0EAFFEECF02F0EFCF03F0DA
:10443000022AD8B0032A00C0E9FF01C0EAFF02C087
:10444000EEFF03C0EFFFE4CF04F0E4CF03F0E4CFCE
:1044500002F0E4CF01F0E4CF00F0E4CFD9FF120086
:10446000D9CFE5FFE1CFD9FF00C0E5FF01C0E5FFEF
:1044700002C0E5FF03C0E5FF04C0E5FF05C0E5FF9E
:1044800006C0E5FF07C0E5FF08C0E5FF09C0E5FF7E
:104490000AC0E5FF0BC0E5FF0CC0E5FF0DC0E5FF5E
:1044A0000EC0E5FF0FC0E5FF020EDBCF00F0030EEC
:1044B000DBCF01F0040EDBCF02F0050EDBCF03F003
:1044C000060EDBCF04F0070EDBCF05F0080EDBCFC6
:1044D00006F0200E076E086A06C009F00A6A0B6A29
:1044E0000C6AE56AE56AE56A0950E56E0350E56E17
:1044F0000250E56E0150E56E0050E56E61EC2AF069
:104500000D6E080EE126300E0D263A0E0D5C02E30C
:10451000270E0D26FF0E0726D8A00806400E0724FA
:104520000E6E020E08200F6E0EC0E9FF0FC0EAFFEC
:104530000DC0EFFF0C50E56E0B50E56E0A50E56EB6
:104540000950E56E0350E56E0250E56E0150E56ED0
:104550000050E56EF3EC2AF0006EF3CF01F0F4CFDB
:1045600002F0E9CF03F0080EE1260050011002101E
:104570000310D8A4B1D707C000F008C001F004C0F0
:1045800002F005C003F000C004F001C005F0002AED
:10459000D8B0012A400E0426020E052204C0E9FF0D
:1045A00005C0EAFFEFCF04F002C0E9FF03C0EAFF55
:1045B00004C0EFFF022AD8B0032A000E015C02E11A
:1045C000200E005CE0E302C0E9FF03C0EAFF000E3A
:1045D000EF6AE4CF0FF0E4CF0EF0E4CF0DF0E4CFBC
:1045E0000CF0E4CF0BF0E4CF0AF0E4CF09F0E4CF15
:1045F00008F0E4CF07F0E4CF06F0E4CF05F0E4CF15
:1046000004F0E4CF03F0E4CF02F0E4CF01F0E4CF14
:1046100000F0E4CFD9FF1200D9CFE5FFE1CFD9FFF9
:1046200000C0E5FF01C0E5FF02C0E5FF03C0E5FFF4
:1046300004C0E5FF05C0E5FF06C0E5FF07C0E5FFD4
:10464000020EDBCF00F0030EDBCF01F00050E56E71
:1046500026EC39F0E12A0150E56ECCEC23F0006E37
:10466000E12A0050F8E0D6CF00F0026AD7CF03F07D
:10467000046A0350066E056A0550001206500212C5
:104680000150E56ECCEC23F0036EE12A0350010AE1
:10469000F7E0D6CF01F0036AD7CF04F0056A0450E3
:1046A000076E066A06500112075003120050015CA3
:1046B000006E02500358016ED5A604D0010E026EA2
:1046C000036A0FD0070ED514046E020E026E000EA0
:1046D000036E045006E0E86CD89002360336010FF2
:1046E000FCE3E86A03BEFF0E046E056E066A076A05
:1046F0000750E56E0650E56E0150E56E0050E56E20
:104700000550E56E0450E56E0350E56E0250E56E0F
:104710002CEC1FF0006EF3CF01F0F4CF02F0E9CFE4
:1047200003F0080EE126700E0026FE0E0122FF0E99
:104730000222FF0E0322000EE56E000EE56E020E51
:10474000E56E470EE56E0350E56E0250E56E0150D2
:10475000E56E0050E56EF3EC2AF0006EF3CF01F049
:10476000F4CF02F0E9CF03F0080EE12601C0F3FF19
:104770000050E4CF07F0E4CF06F0E4CF05F0E4CF3B
:1047800004F0E4CF03F0E4CF02F0E4CF01F0E4CF93
:1047900000F0E4CFD9FF1200D9CFE5FFE1CFD9FF78
:1047A00000C0E5FF01C0E5FF02C0E5FF020EDBCF60
:1047B00000F000500201E75D0FE2110E005C016A9B
:1047C0000136015009E10050E56E49EC25F0026E1A
:1047D000E12A0250010A02E0800E94D0010E005C32
:1047E000D8A08FD00150D8A48CD0000603C0E5FF1C
:1047F00004C0E5FF046A00340436E8340436FC0BD8
:10480000036E000EFB6E480EFA6E220E0326045055
:10481000FA22D8B0FB2A0350E4CF04F0E4CF03F02F
:10482000F96E31EF24F036EF24F03BEF24F040EF47
:1048300024F045EF24F04AEF24F04FEF24F054EF3A
:1048400024F059EF24F05EEF24F063EF24F068EFDA
:1048500024F06DEF24F072EF24F077EF24F07CEF7A
:1048600024F0006A80B0002A00504CD0006A80B268
:10487000002A005047D0006A80B4002A005042D07D
:10488000006A80B6002A00503DD0006A80BA002A33
:10489000005038D0006A85B0002A005033D0006A3A
:1048A00085B2002A00502ED0006A85B4002A00503C
:1048B00029D0006A85B6002A005024D0006A85B845
:1048C000002A00501FD0006A85BA002A00501AD072
:1048D000006A85BC002A005015D0006A87B8002AFB
:1048E000005010D0006A87BA002A00500BD0006A2E
:1048F00087BC002A005006D0006A87BE002A0050FC
:1049000001D0800EE4CF02F0E4CF01F0E4CF00F05C
:10491000E4CFD9FF1200D9CFE5FFE1CFD9FF00C026
:10492000E5FF0701D76B0701D26BC6AE05D0C69E67
:10493000010E0701D26F16D0006AF1BE002A0050A6
:10494000010A0AE1006AF2B6002A0050010A04E1F5
:10495000020E0701D26F06D0F0A604D0909E030E7F
:104960000701D26F250EC614006E250A07E0010E5E
:104970000701D76FC6500701D26F86D0C55007E038
:10498000020E0701D76FC5500701D26F7DD0D0BE90
:1049900007D0030E0701D76FD0500701D26F74D034
:1049A0009DB607D0040E0701D76F9D500701D26F47
:1049B0006BD09C5007E0050E0701D76F9C50070194
:1049C000D26F62D09F50080A07E0060E0701D76F2A
:1049D0009F500701D26F58D0A25007E0070E070181
:1049E000D76FA2500701D26F4FD0A55007E0080E35
:1049F0000701D76FA5500701D26F46D0100EF214F1
:104A0000006E100A07E0090E0701D76FF250070188
:104A1000D26F3AD0F150470B07E00A0E0701D76F6B
:104A2000F1500701D26F30D0F050C00B07E00B0EF1
:104A30000701D76FF0500701D26F26D092A807D098
:104A40000C0E0701D76F92500701D26F1DD093B0A3
:104A500007D00D0E0701D76F93500701D26F14D006
:104A60003E0E9414006E1C0A07E00E0E0701D76F6D
:104A700094500701D26F08D097BE06D00F0E0701E1
:104A8000D76F97500701D26FE4CF00F0E4CFD9FF82
:104A90001200D9CFE5FFE1CFD9FF00C0E5FF01C08B
:104AA000E5FF020EDBCF00F000500201E75D06E2F9
:104AB000110E005C016A0136015002E0800E94D0B4
:104AC000010E005CD8A08FD00150D8A48CD0000675
:104AD00002C0E5FF03C0E5FF036A00340336E83493
:104AE0000336FC0B026E000EFB6E4B0EFA6E060ECA
:104AF00002260350FA22D8B0FB2A0250E4CF03F07A
:104B0000E4CF02F0F96EA3EF25F0A8EF25F0ADEFAA
:104B100025F0B2EF25F0B7EF25F0BCEF25F0C1EF9F
:104B200025F0C6EF25F0CBEF25F0D0EF25F0D5EF3F
:104B300025F0DAEF25F0DFEF25F0E4EF25F0E9EFDF
:104B400025F0EEEF25F0006A92B0002A00504CD01C
:104B5000006A92B2002A005047D0006A92B4002A3C
:104B6000005042D0006A92B6002A00503DD0006A40
:104B700092BA002A005038D0006A97B0002A00503C
:104B800033D0006A97B2002A00502ED0006A97B442
:104B9000002A005029D0006A97B6002A005024D07D
:104BA000006A97B8002A00501FD0006A97BA002AFE
:104BB00000501AD0006A97BC002A005015D0006A35
:104BC00099B8002A005010D0006A99BA002A005003
:104BD0000BD0006A99BC002A005006D0006A99BE2A
:104BE000002A005001D0800EE4CF01F0E4CF00F0A5
:104BF000E4CFD9FF1200D9CFE5FFE1CFD9FF00C044
:104C0000E5FF01C0E5FF02C0E5FF03C0E5FF04C00A
:104C1000E5FF05C0E5FF020EDBCF00F0010E005CF2
:104C2000D870016A0136015006E1070E005C026A85
:104C30000236025002E0800E79D000C003F0046A10
:104C4000FF0E0326D8A004062D0E0326070E04220D
:104C500003C0E9FF04C0EAFF000EEF6E0006570E26
:104C60000024036E046A070E042203C0E9FF04C097
:104C7000EAFF000EEF6E0150D8A457D00250D8A41E
:104C800054D006C0E5FF07C0E5FF076A00340736C9
:104C9000E8340736FC0B066E000EFB6E4C0EFA6E07
:104CA000B80E06260750FA22D8B0FB2A0650E4CFE9
:104CB00007F0E4CF06F0F96E68EF26F06AEF26F011
:104CC0006CEF26F06CEF26F06CEF26F06CEF26F020
:104CD000F0982BD0F09A29D0006A016A030E026E78
:104CE000036A0350800F800F02E1060E025C19E296
:104CF0000250FF0F046EFF0E0320056E2D0E0426DA
:104D0000070E052204C0E9FF05C0EAFFEFCF04F05B
:104D1000056A0450002605500122022AD8B0032A51
:104D2000E0D700500110D8B4F296E86AE4CF05F05D
:104D3000E4CF04F0E4CF03F0E4CF02F0E4CF01F0DD
:104D4000E4CF00F0E4CFD9FF1200D9CFE5FFE1CFE7
:104D5000D9FF00C0E5FF01C0E5FF02C0E5FF03C0C9
:104D6000E5FF04C0E5FF05C0E5FF06C0E5FF07C09D
:104D7000E5FF08C0E5FF09C0E5FF020EDBCF00F04C
:104D80000006D8900034016E790E0124026E036A89
:104D9000020E0322D6CF04F0056A02C0E9FF03C069
:104DA000EAFF04C0EEFF05C0EFFF790E0124026E9A
:104DB000036A020E0322790E0124046E056A020EB4
:104DC000052204C0E9FF05C0EAFFEECF04F0EFCFF3
:104DD00005F0D7CF06F0076A0650096E086A08503A
:104DE00004120950051202C0E9FF03C0EAFF04C023
:104DF000EEFF05C0EFFF3F0E0124026E036A070EAF
:104E00000322790E0124046E056A020E052204C0F5
:104E1000E9FF05C0EAFFEECF04F0EFCF05F0066A28
:104E20006D0E0126020E062201C0E9FF06C0EAFF50
:104E3000EECF01F0EFCF06F00150045E0650055AA8
:104E400002C0E9FF03C0EAFF04C0EEFF05C0EFFFA8
:104E5000016A390E0026070E012200C0E9FF01C0D9
:104E6000EAFF010EEF6EE4CF09F0E4CF08F0E4CFE3
:104E700007F0E4CF06F0E4CF05F0E4CF04F0E4CF90
:104E800003F0E4CF02F0E4CF01F0E4CF00F0E4CF90
:104E9000D9FF1200D9CFE5FFE1CFD9FF00C0E5FF70
:104EA00001C0E5FF02C0E5FF03C0E5FF04C0E5FF68
:104EB00005C0E5FF06C0E5FF07C0E5FF08C0E5FF48
:104EC00009C0E5FF0AC0E5FF0BC0E5FF0CC0E5FF28
:104ED0000DC0E5FF0EC0E5FF0FC0E5FFB2CF00F04B
:104EE000016AB3CF02F0036A0250056E046A0450EF
:104EF000001205500112D3C202F0D4C203F0B2CFA7
:104F000004F0056AB3CF06F0076A0650096E086A16
:104F100008500412095005120150055C02E10050CE
:104F2000045C1EE2D3C206F0D4C207F0086A096A24
:104F300007500D6E06500C6E0A6A0B6A0E6A0F6AF5
:104F400004500A1205500B120E500C120F500D1285
:104F50000DC0E9FF0CC0F4FF0BC0F3FF0A5019D0DD
:104F6000046A056A0350096E0250086E066A076AF1
:104F70000A6A0B6A00500612015007120A50081202
:104F80000B50091209C0E9FF08C0F4FF07C0F3FF86
:104F90000650E4CF0FF0E4CF0EF0E4CF0DF0E4CFF5
:104FA0000CF0E4CF0BF0E4CF0AF0E4CF09F0E4CF4B
:104FB00008F0E4CF07F0E4CF06F0E4CF05F0E4CF4B
:104FC00004F0E4CF03F0E4CF02F0E4CF01F0E4CF4B
:104FD00000F0E4CFD9FF1200D9CFE5FFE1CFD9FF30
:104FE00000C0E5FF01C0E5FF02C0E5FF03C0E5FF2B
:104FF00004C0E5FF05C0E5FF06C0E5FF07C0E5FF0B
:1050000008C0E5FF09C0E5FF0AC0E5FF0BC0E5FFEA
:105010000CC0E5FF0DC0E5FF0EC0E5FF0FC0E5FFCA
:10502000CECF00F0016ACFCF02F0036A0250056EC6
:10503000046A0450001205500112D1C202F0D2C21B
:1050400003F0CECF04F0056ACFCF06F0076A065012
:10505000096E086A08500412095005120150055CD7
:1050600002E10050045C1EE2D1C206F0D2C207F099
:10507000086A096A07500D6E06500C6E0A6A0B6AC0
:105080000E6A0F6A04500A1205500B120E500C12D1
:105090000F500D120DC0E9FF0CC0F4FF0BC0F3FF61
:1050A0000A5019D0046A056A0350096E0250086E4E
:1050B000066A076A0A6A0B6A005006120150071254
:1050C0000A5008120B50091209C0E9FF08C0F4FF8A
:1050D00007C0F3FF0650E4CF0FF0E4CF0EF0E4CFAB
:1050E0000DF0E4CF0CF0E4CF0BF0E4CF0AF0E4CF06
:1050F00009F0E4CF08F0E4CF07F0E4CF06F0E4CF06
:1051000005F0E4CF04F0E4CF03F0E4CF02F0E4CF05
:1051100001F0E4CF00F0E4CFD9FF1200D9CFE5FFD2
:10512000E1CFD9FF00C0E5FF01C0E5FF02C0E5FF08
:1051300003C0E5FF04C0E5FF05C0E5FF06C0E5FFCD
:1051400007C0E5FF08C0E5FF09C0E5FF0AC0E5FFAD
:105150000BC0E5FF0CC0E5FF0DC0E5FF0EC0E5FF8D
:105160000FC0E5FFD6CF00F0016AD7CF02F0036A87
:105170000250056E046A0450001205500112CFC29D
:1051800002F0D0C203F0D6CF04F0056AD7CF06F004
:10519000076A0650096E086A085004120950051281
:1051A0000150055C02E10050045C1EE2CFC206F033
:1051B000D0C207F0086A096A07500D6E06500C6EDF
:1051C0000A6A0B6A0E6A0F6A04500A1205500B1223
:1051D0000E500C120F500D120DC0E9FF0CC0F4FF61
:1051E0000BC0F3FF0A5019D0046A056A0350096E18
:1051F0000250086E066A076A0A6A0B6A00500612B5
:10520000015007120A5008120B50091209C0E9FF99
:1052100008C0F4FF07C0F3FF0650E4CF0FF0E4CF5F
:105220000EF0E4CF0DF0E4CF0CF0E4CF0BF0E4CFC0
:105230000AF0E4CF09F0E4CF08F0E4CF07F0E4CFC0
:1052400006F0E4CF05F0E4CF04F0E4CF03F0E4CFC0
:1052500002F0E4CF01F0E4CF00F0E4CFD9FF120078
:10526000D9CFE5FFE1CFD9FF00C0E5FF01C0E5FFE1
:1052700002C0E5FF03C0E5FF04C0E5FF05C0E5FF90
:1052800006C0E5FF07C0E5FF08C0E5FF09C0E5FF70
:10529000020EDBCF00F00004016ED8900134026EE4
:1052A0006D0E0224036E046A020E0422D6CF05F0AE
:1052B000066A03C0E9FF04C0EAFF05C0EEFF06C0AE
:1052C000EFFF6D0E0224036E046A020E0422056ACB
:1052D0006D0E0226020E052202C0E9FF05C0EAFF9C
:1052E000EECF02F0EFCF05F0D7CF06F0076A0650F9
:1052F000096E086A085002120950051203C0E9FF3E
:1053000004C0EAFF02C0EEFF05C0EFFF010E005C23
:105310002DE3070E005C2AE20AC0E5FF0BC0E5FFA3
:105320000B6A01340B36E8340B36FC0B0A6E000EA8
:10533000FB6E530EFA6E4E0E0A260B50FA22D8B0B0
:10534000FB2A0A50E4CF0BF0E4CF0AF0F96EB3EF7A
:1053500029F0B5EF29F0B6EF29F0B6EF29F0B6EF56
:1053600029F0B6EF29F0F19801D0F196E4CF09F0D9
:10537000E4CF08F0E4CF07F0E4CF06F0E4CF05F087
:10538000E4CF04F0E4CF03F0E4CF02F0E4CF01F087
:10539000E4CF00F0E4CFD9FF1200D9CFE5FFE1CF91
:1053A000D9FF00C0E5FF01C0E5FF02C0E5FF03C073
:1053B000E5FF04C0E5FF05C0E5FF020EDBCF00F00E
:1053C000010E005CD870016A0136015019E1070E28
:1053D000005C026A0236025013E100C003F0046A66
:1053E000FF0E0326D8A004062D0E0326070E042266
:1053F00003C0E9FF04C0EAFFEFCF05F0055002E06B
:10540000800E50D003C0E9FF04C0EAFF010EEF6E2A
:105410000006D8900034036E046A4B0E0326070E74
:10542000042203C0E9FF04C0EAFF000EEE6E000E86
:10543000EF6E015036E1025034E106C0E5FF07C0CF
:10544000E5FF076A00340736E8340736FC0B066EC2
:10545000000EFB6E540EFA6E700E06260750FA22EE
:10546000D8B0FB2A0650E4CF07F0E4CF06F0F96E7F
:1054700044EF2AF049EF2AF04EEF2AF04EEF2AF0DF
:105480004EEF2AF04EEF2AF0F188F09EF092F0886D
:1054900008D0F186F192F094F08A03D0F190F29066
:1054A000F286E86AE4CF05F0E4CF04F0E4CF03F03D
:1054B000E4CF02F0E4CF01F0E4CF00F0E4CFD9FF75
:1054C0001200D9CFE5FFE1CFD9FF00C0E5FF01C051
:1054D000E5FF02C0E5FF03C0E5FF04C0E5FF05C02E
:1054E000E5FF06C0E5FF07C0E5FF08C0E5FF09C00E
:1054F000E5FF0AC0E5FF020EDBCF00F0030EDBCFB5
:1055000001F0040EDBCF02F0050EDBCF03F0060E38
:10551000DBCF04F0070EDBCF05F0080EDBCF06F083
:10552000090EDBCF07F0086A096A0744010B0A6E0F
:105530000AB01BD00450042605360636073607503D
:10554000035C08E10650025C05E10550015C02E1E4
:105550000450005C06E2D89007320632053204326D
:1055600004D0092A09C008F0E0D70750035C08E11D
:105570000650025C05E10550015C02E10450005C4C
:1055800008E30450005E0550015A0650025A0750C5
:10559000035AD890073206320532043208C009F0A7
:1055A00008060950E2E103C0E9FF02C0F4FF01C0B0
:1055B000F3FF0050E4CF0AF0E4CF09F0E4CF08F0A5
:1055C000E4CF07F0E4CF06F0E4CF05F0E4CF04F039
:1055D000E4CF03F0E4CF02F0E4CF01F0E4CF00F039
:1055E000E4CFD9FF1200D9CFE5FFE1CFD9FF00C04A
:1055F000E5FF01C0E5FF02C0E5FF03C0E5FF04C011
:10560000E5FF05C0E5FF06C0E5FF07C0E5FF08C0F0
:10561000E5FF09C0E5FF0AC0E5FF0BC0E5FF0CC0D0
:10562000E5FF0DC0E5FF020EDBCF00F0030EDBCF80
:1056300001F0040EDBCF02F0050EDBCF03F0060E07
:10564000DBCF04F0070EDBCF05F0080EDBCF06F052
:10565000090EDBCF07F0086A096A0A6A0B6A200E96
:105660000C6E0344010B0D6E010E0D16005000264A
:105670000136023603360850082609360A360B363C
:105680000D50D8A4088007500B5C08E106500A5C56
:1056900005E10550095C02E10450085C09E304508F
:1056A000085E0550095A06500A5A07500B5A0080E6
:1056B0000C2ED7D703C0E9FF02C0F4FF01C0F3FFEF
:1056C0000050E4CF0DF0E4CF0CF0E4CF0BF0E4CFCA
:1056D0000AF0E4CF09F0E4CF08F0E4CF07F0E4CF1C
:1056E00006F0E4CF05F0E4CF04F0E4CF03F0E4CF1C
:1056F00002F0E4CF01F0E4CF00F0E4CFD9FF1200D4
:10570000D9CFE5FFE1CFD9FF00C0E5FF01C0E5FF3C
:1057100002C0E5FF03C0E5FF04C0E5FF05C0E5FFEB
:10572000020EDBCF00F0010E005CD8A065D0070EA2
:10573000005CD8B061D068C701F069C702F06AC7E1
:1057400003F0060E0126000E0222000E03220006C0
:1057500000500126E86A0222E86A032201C0E9FF3C
:1057600002C0F3FF03504AEC3EF0016EFF0A24E151
:1057700068C701F069C702F06AC703F0060E012688
:10578000000E0222000E032200500126E86A0222C7
:10579000E86A032201C0E9FF02C0F3FF03504AECAC
:1057A0003EF0046E040604C0E5FF01C0E9FF02C03C
:1057B000F3FF0350ADEC3EF068C701F069C702F09B
:1057C0006AC703F0060E0126000E0222000E032215
:1057D000046A056A01500026025004220350052283
:1057E00000C0E9FF04C0F3FF05504AEC3EF0006E34
:1057F000810E0026005001D0800EE4CF05F0E4CFEA
:1058000004F0E4CF03F0E4CF02F0E4CF01F0E4CF02
:1058100000F0E4CFD9FF1200D9CFE5FFE1CFD9FFE7
:1058200000C0E5FF01C0E5FF02C0E5FF03C0E5FFE2
:1058300004C0E5FF05C0E5FF06C0E5FF07C0E5FFC2
:1058400008C0E5FF09C0E5FF0AC0E5FF0BC0E5FFA2
:105850000CC0E5FF020EDBCF00F0030EDBCF01F042
:10586000040EDBCF02F0050EDBCF03F0060EDBCF1C
:1058700004F0070EDBCF05F0080EDBCF06F0090EB3
:10588000DBCF07F000C008F001C009F002C00AF049
:1058900006C00BF007C00CF0FF0E0626D8A00706C6
:1058A0000B500C101CE003C0E9FF04C0F3FF0550CF
:1058B0004AEC3EF00B6E032AD8B0042AD8B0052A71
:1058C0000BC0E5FF00C0E9FF01C0F3FF0250ADECE3
:1058D0003EF0002AD8B0012AD8B0022AD9D70AC08F
:1058E000F4FF09C0F3FF0850E4CF0CF0E4CF0BF055
:1058F000E4CF0AF0E4CF09F0E4CF08F0E4CF07F0FA
:10590000E4CF06F0E4CF05F0E4CF04F0E4CF03F0F9
:10591000E4CF02F0E4CF01F0E4CF00F0E4CFD9FF10
:105920001200D9CFE5FFE1CFD9FF00C0E5FF01C0EC
:10593000E5FF02C0E5FF03C0E5FFBA0EE56EBA0E53
:10594000E56E47EC3AF0020EE126010EE56EF8EC4A
:105950002EF0E12A010EE56EF40EE56E10EC3AF041
:10596000020EE126BA0EE56E460EE56E47EC3AF001
:10597000020EE126010EE56EF8EC2EF0E12A010E92
:10598000E56EF40EE56E10EC3AF0020EE12611C75A
:1059900000F012C701F013C702F000C0E9FF01C018
:1059A000F3FF02504AEC3EF0006E07010203F3CF12
:1059B00000F011C701F012C702F013C703F0012A6B
:1059C000D8B0022AD8B0032A01C0E9FF02C0F3FF11
:1059D00003504AEC3EF0016E07010203F3CF01F0E1
:1059E0000150E56E0050E56E47EC3AF0020EE126FC
:1059F000010EE56EF8EC2EF0E12A000EE56E640E65
:105A0000E56E10EC3AF0020EE126E4CF03F0E4CFAD
:105A100002F0E4CF01F0E4CF00F0E4CFD9FF1200B0
:105A2000D9CFE5FFE1CFD9FF00C0E5FF01C0E5FF19
:105A300002C0E5FF03C0E5FF04C0E5FF05C0E5FFC8
:105A400006C0E5FF07C0E5FF020EDBCF00F0030E46
:105A5000DBCF01F0040EDBCF02F0050EDBCF03F04D
:105A600002C006F00650046E800A28E100C0E9FF7B
:105A700001C0F3FF02503BEC3DF0056EF3CF06F0A2
:105A8000F4CF07F003C0E5FF05C0E9FF06C0F3FF50
:105A90000750ADEC3EF0052AD8B0062AD8B0072A48
:105AA00005C0E5FF06C0F4FF07C0F6FF00C0E9FF30
:105AB00001C0F3FF025088EC3EF01ED004AA1CD0B7
:105AC000200E041A045004E10350DFEC3EF014D021
:105AD0000450010A04E1035002EC04F00DD004501C
:105AE0000F0A04E103500AEC04F006D004500E0A39
:105AF00003E10350EBEC3EF0E4CF07F0E4CF06F017
:105B0000E4CF05F0E4CF04F0E4CF03F0E4CF02F0FB
:105B1000E4CF01F0E4CF00F0E4CFD9FF1200D9CFF9
:105B2000E5FFE1CFD9FF00C0E5FF01C0E5FF02C0FE
:105B3000E5FF03C0E5FF04C0E5FF05C0E5FF06C0C3
:105B4000E5FF07C0E5FF020EDBCF00F0030EDBCF61
:105B500001F0040EDBCF02F0050EDBCF03F0D8809E
:105B600001AED890046A0436045007E0011C066EAA
:105B7000001C056E054A062A04D000C005F001C0CD
:105B800006F005C000F006C001F0D88003AED89042
:105B9000056A0536055007E0031C076E021C066EF9
:105BA000064A072A04D002C006F003C007F00750D7
:105BB000E56E0650E56E0150E56E0050E56E84EC32
:105BC00034F0006EF3CF01F0040EE1260550041A04
:105BD00004500AE0011C036E001C026E024A032AF4
:105BE00003C0F3FF025003D001C0F3FF0050E4CF25
:105BF00007F0E4CF06F0E4CF05F0E4CF04F0E4CF03
:105C000003F0E4CF02F0E4CF01F0E4CF00F0E4CF02
:105C1000D9FF1200D9CFE5FFE1CFD9FF00C0E5FFE2
:105C200001C0E5FF02C0E5FF03C0E5FFBA0EE56E67
:105C3000BA0EE56E47EC3AF0020EE126010EE56E73
:105C4000F8EC2EF0E12A010EE56EF40EE56E10EC94
:105C50003AF0020EE126460EE56EBA0EE56E47EC0E
:105C60003AF0020EE126010EE56EF8EC2EF0E12A84
:105C70000A0EE56E8C0EE56E10EC3AF0020EE1268F
:105C800011C700F012C701F013C702F000C0E9FF0E
:105C900001C0F3FF02504AEC3EF0006E0701020320
:105CA000F3CF00F011C701F012C702F013C703F0E1
:105CB000012AD8B0022AD8B0032A01C0E9FF02C0E5
:105CC000F3FF03504AEC3EF0016E07010203F3CFED
:105CD00001F00150E56E0050E56E47EC3AF0020E1F
:105CE000E126010EE56EF8EC2EF0E12AE4CF03F098
:105CF000E4CF02F0E4CF01F0E4CF00F0E4CFD9FF2D
:105D00001200D9CFE5FFE1CFD9FF00C0E5FF01C008
:105D1000E5FF02C0E5FF03C0E5FFBA0EE56EBA0E6F
:105D2000E56E47EC3AF0020EE126010EE56EF8EC66
:105D30002EF0E12A010EE56EF40EE56E10EC3AF05D
:105D4000020EE126460EE56EBA0EE56E47EC3AF01D
:105D5000020EE126010EE56EF8EC2EF0E12A010EAE
:105D6000E56EF40EE56E10EC3AF0020EE12611C776
:105D700000F012C701F013C702F000C0E9FF01C034
:105D8000F3FF02504AEC3EF0006E07010203F3CF2E
:105D900000F011C701F012C702F013C703F0012A87
:105DA000D8B0022AD8B0032A01C0E9FF02C0F3FF2D
:105DB00003504AEC3EF0016E07010203F3CF01F0FD
:105DC0000150E56E0050E56E47EC3AF0020EE12618
:105DD000010EE56EF8EC2EF0E12AE4CF03F0E4CFFB
:105DE00002F0E4CF01F0E4CF00F0E4CFD9FF1200DD
:105DF000D9CFE5FFE1CFD9FF00C0E5FF01C0E5FF46
:105E000002C0E5FF03C0E5FF04C0E5FF05C0E5FFF4
:105E100006C0E5FF020EDBCF00F00701D951020AF0
:105E200002E18BEC24F07F0E0701D015016E070113
:105E3000D06F07016B51200DF3CF01F0F4CF02F0CA
:105E4000000E0126020E02220150800E036E070E84
:105E5000056EBB0E046E800E066E000EE56E200E03
:105E6000E56E0650E56E0550E56E0450E56E035094
:105E7000E56E0250E56E0150E56E0CEC2CF0080E5C
:105E8000E1269D9607016B51D880E866D8900701FE
:105E90006B6B6B370201F0839D86D8C701F0012A36
:105EA00001500701D86F0050010A05E1BBEC3DF03D
:105EB000006E0050FBE0E4CF06F0E4CF05F0E4CF45
:105EC00004F0E4CF03F0E4CF02F0E4CF01F0E4CF3C
:105ED00000F0E4CFD9FF12006EEF2FF0F7EC15F0D1
:105EE00070EF2FF0E806E56E630ED0EC2FF0E45073
:105EF0000BE000D0E56E630ED0EC2FF000D000D0A8
:105F00000000E450E82EF6D71200E806E56E090E10
:105F100072EC2FF0630ED0EC2FF0E4500EE000D0C6
:105F2000E56E090E72EC2FF0630ED0EC2FF000D06E
:105F300000D00000E450E82EF3D71200E806E56E2A
:105F4000630E85EC2FF0630EBDEC2FF0090ED0EC44
:105F50002FF0E45011E000D0E56E630E85EC2FF0D9
:105F6000630EBDEC2FF0090ED0EC2FF000D000D066
:105F70000000E450E82EF0D71200E806E56E090EA6
:105F8000D0EC2FF0E4500BE000D0E56E090ED0EC21
:105F90002FF000D0E450000000D0E82EF6D7120019
:105FA000E8060000E85007E000D000D000D000D0A4
:105FB0000000E82EFAD71200D9CFE5FFE1CFD9FFD4
:105FC00000C0E5FF01C0E5FF02C0E5FF2CEC35F0A5
:105FD0008AEC3DF0010E006E090E005C0AE2000E34
:105FE000E56E0050E56EB3EC3AF0020EE126002AB1
:105FF000F3D7080E006E100E005C0EE2BF0E0024F8
:10600000016E026A070E022201C0E9FF02C0EAFF28
:106010007F0EEF6E002AEFD7010E006E090E005CB6
:106020000AE2010EE56E0050E56E2EEC37F0020E2E
:10603000E126002AF3D7010E006E050E005C07E290
:106040000050E56E1AEC36F0E12A002AF6D7070177
:10605000D86B010E0701D96FC90E0701DA6F020173
:10606000F085F091000EE56EF8EC2EF0E12AA2EC3E
:106070003EF0BBEC3DF0006E0050FBE0B6EC3CF0B7
:10608000E4CF02F0E4CF01F0E4CF00F0E4CFD9FF99
:106090001200D9CFE5FFE1CFD9FF00C0E5FF01C075
:1060A000E5FF02C0E5FF03C0E5FF04C0E5FF05C052
:1060B000E5FF06C0E5FF07C0E5FF020EDBCF00F0FD
:1060C000030EDBCF01F0040EDBCF02F0050EDBCFB9
:1060D00003F0060EDBCF04F0070EDBCF05F0080E51
:1060E000DBCF06F0090EDBCF07F00201ED6B0050AD
:1060F000010A02E1015001E004D0010E0201ED6F3E
:1061000001D0BA6A0250010A02E1035001E003D053
:106110000201ED8301D0B76A0450010A02E1055083
:1061200001E003D00201ED8501D0736A0650010A37
:1061300002E1075001E003D00201ED8701D0706A4F
:10614000E4CF07F0E4CF06F0E4CF05F0E4CF04F0AD
:10615000E4CF03F0E4CF02F0E4CF01F0E4CF00F0AD
:10616000E4CFD9FF1200D9CFE5FFE1CFD9FF00C0BE
:10617000E5FF01C0E5FF02C0E5FF020EDBCF00F046
:10618000030EDBCF01F0040EDBCF02F00F0E001484
:10619000C66E025003E0800E026E01D0026A02C099
:1061A000C7FF040E015C2EE203C0E5FF04C0E5FF5B
:1061B000046A01340436E8340436FC0B036E000E26
:1061C000FB6E610EFA6EDE0E03260450FA22D8B082
:1061D000FB2A0350E4CF04F0E4CF03F0F96EF7EFAD
:1061E00030F0FAEF30F0FDEF30F000EF31F0C6980C
:1061F000C78C08D0C698C79C05D0C688C78C02D06B
:10620000C688C79C0050050A03E19486C79E06D045
:106210000050010A02E1928A01D09496949A9488DF
:10622000978EF19CF288C68AE4CF02F0E4CF01F0A9
:10623000E4CF00F0E4CFD9FF1200D9CFE5FFE1CFE2
:10624000D9FF00C0E5FF020EDBCF00F0010E005CBD
:10625000D8A055D0050E005CD8B051D0000601C0C2
:10626000E5FF02C0E5FF026A00340236E834023678
:10627000FC0B016E000EFB6E620EFA6E940E012690
:106280000250FA22D8B0FB2A0150E4CF02F0E4CF4A
:1062900001F0F96E52EF31F05EEF31F069EF31F05D
:1062A00075EF31F0CD90CD8ECF0ECD14006E300E47
:1062B0000010CD6E9E909D80CD8021D0CA94FC0EA2
:1062C000CA14006E020E0010CA6E9E929D82CA848D
:1062D00016D0B190B18ECF0EB114006E300E0010FA
