:020000040000FA
:10080000AAEF3DF0C96E1200B7EF1BF0006AC2B24A
:06081000002A0050120056
:08081800BFEF12F0D9CFE5FF9C
:10082000E1CFD9FF00C0E5FF01C0E5FF02C0E5FF51
:1008300003C0E5FF04C0E5FF05C0E5FF06C0E5FF16
:1008400007C0E5FF08C0E5FF09C0E5FF0AC0E5FFF6
:100850000BC0E5FF0CC0E5FF0DC0E5FF0EC0E5FFD6
:100860000FC0E5FF10C0E5FF11C0E5FF12C0E5FFB6
:1008700013C0E5FF14C0E5FF15C0E5FF16C0E5FF96
:10088000020EDBCF00F0030EDBCF01F0040EDBCF56
:1008900002F0050EDBCF03F0010E035C03E3070E4D
:1008A000035C03E3800E6CEF0AF03CEC28F0046E6E
:1008B000F3CF05F0F4CF06F0E9CF07F0D5A604D0CA
:1008C000010E086E096A0FD0070ED5140A6E020ECB
:1008D000086E000E096E0A5006E0E86CD8900836E3
:1008E0000936010FFCE30950E56E0850E56E270E4E
:1008F000E56E100EE56E3DEC2DF0086EF3CF09F0BD
:10090000040EE126E86A09BEFF0E0A6E0B6EE56E64
:100910000A50E56E0950E56E0850E56E0750E56E29
:100920000650E56E0550E56E0450E56EA1EC2AF028
:100930000201956FF3CF96F2F4CF97F2E9CF98F2D8
:10094000080EE12600C0BCF201C0BDF202C0BEF23A
:1009500003500E0DF3CF04F0F4CF05F0066A0050FB
:10096000042601500522025006220201BE51800FCA
:10097000F36E0650800FF35C07E105500201BD5D88
:1009800003E104500201BC5DD8B0C9D0BCC207F07D
:10099000BDC208F0BEC209F0080E0726000E0822EC
:1009A000000E092207C0E9FF08C0F3FF0950F8EC68
:1009B0003DF0E8380F0B076E0706086A07BE0868A7
:1009C000580E0726070E082207C0E9FF08C0EAFFF5
:1009D000EFCF07F0075037E0BCC207F0BDC208F008
:1009E000BEC209F0080E0726000E0822000E0922DA
:1009F00007C0E9FF08C0F3FF0950F8EC3DF0E83804
:100A00000F0B076EE56E51EC3BF0E12ABCC207F01C
:100A1000BDC208F0BEC209F0080E0726000E08226B
:100A2000000E092207C0E9FF08C0F3FF0950F8ECE7
:100A30003DF0E886E56E07C0E9FF08C0F3FF095006
:100A40005BEC3EF036D0BCC207F0BDC208F0BEC2BF
:100A500009F0080E0726000E0822000E092207C022
:100A6000E9FF08C0F3FF0950F8EC3DF0E8380F0B40
:100A7000076EE56E7BEC29F0E12ABCC207F0BDC22F
:100A800008F0BEC209F0080E0726000E0822000E6C
:100A9000092207C0E9FF08C0F3FF0950F8EC3DF058
:100AA000E896E56E07C0E9FF08C0F3FF09505BEC6C
:100AB0003EF0BCC207F0BDC208F0BEC209F00D0E88
:100AC0000726000E0822000E0922000EE56E07C060
:100AD000E9FF08C0F3FF09505BEC3EF0BCC207F031
:100AE000BDC208F0BEC209F00A0E0726000E082299
:100AF000000E0922000EE56E000EF46E07C0E9FF3D
:100B000008C0F3FF095044EC3EF00E0E0201BC2772
:100B1000000E0201BD23000E0201BE2326D70450A1
:100B2000F20F076EFF0E0520086EFF0E0620096EFD
:100B300003C0F3F203C0F2F23CEC28F00A6EF3CFEC
:100B40000BF0F4CF0CF0E9CF0DF0D5A604D0010ED8
:100B50000E6E0F6A0FD0070ED514106E020E0E6EB9
:100B6000000E0F6E105006E0E86CD8900E360F366F
:100B7000010FFCE30F50E56E0E50E56E270EE56E9B
:100B8000100EE56E3DEC2DF00E6EF3CF0FF0040E5F
:100B9000E126E86A0FBEFF0E106E116EE56E105072
:100BA000E56E0F50E56E0E50E56E0D50E56E0C5083
:100BB000E56E0B50E56E0A50E56EA1EC2AF00A6E68
:100BC000F3CF0BF0F4CF0CF0E9CF0DF0080EE126D7
:100BD000020195510A5C0201996F020196510B586E
:100BE00002019A6F020197510C5802019B6F02019A
:100BF00098510D5802019C6F7AC70AF07BC70BF021
:100C0000E86A07017BBFFF0E0C6E0D6EE56E0C509F
:100C1000E56E0B50E56E0A50E56E02019C51E56EE3
:100C200002019B51E56E02019A51E56E0201995154
:100C3000E56E0FEC2AF00A6EF3CF0BF0F4CF0CF058
:100C4000E9CF0DF0080EE1260A500B100C100D1024
:100C5000D8A407EF0AF007C0BCF208C0BDF209C073
:100C6000BEF20201BE51800FF36E0250800FF35CA2
:100C700007E101500201BD5D03E100500201BC5DCE
:100C8000D8A002EF0AF0BCC20AF0BDC20BF0BEC28F
:100C90000CF00AC0E9FF0BC0F3FF0C50AAEC3CF0CB
:100CA0000A6EF3CF0BF0F4CF0CF0E9CF0DF00D503E
:100CB00002019C5D0BE10C5002019B5D07E10B50B2
:100CC00002019A5D03E10A500201995D02E302010B
:100CD000F207BCC20AF0BDC20BF0BEC20CF0080E97
:100CE0000A26000E0B22000E0C220AC0E9FF0BC0E0
:100CF000F3FF0C50F8EC3DF0E8380F0B0A6E0A06D3
:100D0000D8900A360B6A0ABE0B684C0E0A26070EEC
:100D10000B220AC0E9FF0BC0EAFFEECF0AF0EFCFCB
:100D20000BF00AC09DF20BC09EF202019F6B020104
:100D3000A06BBCC20AF0BDC20BF0BEC20CF0040E28
:100D40000A26000E0B22000E0C220AC0E9FF0BC07F
:100D5000F3FF0C507FEC3DF00A6EF3CF0BF00C6A02
:100D60000D6A0D500201A05D0BE10C5002019F5D68
:100D700007E10B5002019E5D03E10A5002019D5DF7
:100D800002E30201F307BCC20AF0BDC20BF0BEC20F
:100D90000CF0060E0A26000E0B22000E0C220AC0D2
:100DA000E9FF0BC0F3FF0C507FEC3DF00A6EF3CF70
:100DB0000BF0D8800BAED8900A6A0A360A50D88059
:100DC000E866D8900A6A0A360A5017E0BCC20AF0F0
:100DD000BDC20BF0BEC20CF0060E0A26000E0B229E
:100DE000000E0C220AC0E9FF0BC0F3FF0C507FEC91
:100DF0003DF00A6EF3CF0BF01CD0BCC20CF0BDC2AC
:100E00000DF0BEC20EF0060E0C26000E0D22000ED6
:100E10000E220CC0E9FF0DC0F3FF0E507FEC3DF039
:100E20000C6EF3CF0DF00D1C0B6E0C1C0A6E0A4AF3
:100E30000B2AE86A0BBEFF0E0C6E0D6E02019C5170
:100E4000E56E02019B51E56E02019A51E56E0201C9
:100E50009951E56E0D50E56E0C50E56E0B50E56E48
:100E60000A50E56EF0EC1DF00A6EF3CF0BF0F4CFF4
:100E70000CF0E9CF0DF0080EE126000EE56E000E35
:100E8000E56E030EE56EE80EE56E0D50E56E0C5056
:100E9000E56E0B50E56E0A50E56EA1EC2AF00201FA
:100EA000A16FF3CFA2F2F4CFA3F2E9CFA4F2080E20
:100EB000E12602019D510201A15D0A6E02019E51CF
:100EC0000201A2590B6E02019F510201A3590C6E3F
:100ED0000201A0510201A4590D6E0B50E56E0A509B
:100EE000E56E07016F51E56E07016E51E56E2AEC64
:100EF00035F00C6EF3CF0DF0040EE12607017151B1
:100F0000E56E07017051E56E0D50E56E0C50E56E13
:100F10003DEC2DF00C6EF3CF0DF0040EE126BCC2BB
:100F20000EF0BDC20FF0BEC210F00A0E0E26000E6B
:100F30000F22000E1022BCC211F0BDC212F0BEC2C0
:100F400013F00A0E1126000E1222000E132211C0F9
:100F5000E9FF12C0F3FF13507FEC3DF0116EF3CFA9
:100F600012F01250E56E1150E56E000EE56E020EA5
:100F7000E56E2AEC35F0116EF3CF12F0040EE12687
:100F8000000EE56E030EE56E1250E56E1150E56E33
:100F90003DEC2DF0116EF3CF12F0040EE1260B5054
:100FA000E56E0A50E56E07017351E56E0701725157
:100FB000E56E2AEC35F0136EF3CF14F0040EE12643
:100FC000135011261450122207017551E56E0701C6
:100FD0007451E56E1250E56E1150E56E3DEC2DF04A
:100FE000116EF3CF12F0040EE12611C0E5FF12C01E
:100FF000F4FF0EC0E9FF0FC0F3FF105044EC3EF0C9
:10100000BCC20EF0BDC20FF0BEC210F00C0E0E2618
:10101000000E0F22000E10220EC0E9FF0FC0F3FFDA
:101020001050F8EC3DF00E6E0F6A0EBE0F680E50B9
:101030000A5C0E6E0F500B580F6EE56E0E50E56E8B
:1010400007017751E56E07017651E56E2AEC35F020
:101050000E6EF3CF0FF0040EE12607017951E56E15
:1010600007017851E56E0F50E56E0E50E56E3DECD0
:101070002DF00E6EF3CF0FF0040EE126BCC210F07F
:10108000BDC211F0BEC212F00C0E1026000E1122CD
:10109000000E12220AC0E5FF10C0E9FF11C0F3FFE5
:1010A00012505BEC3EF0BCC20AF0BDC20BF0BEC2F7
:1010B00010F00D0E0A26000E0B22000E10220AC0A0
:1010C000E9FF0BC0F3FF1050F8EC3DF00A6ED8803A
:1010D0000AAED8900A6A0A360A50D880E866D890D4
:1010E0000A6A0A360A5018E0BCC20AF0BDC20BF008
:1010F000BEC210F00D0E0A26000E0B22000E1022AA
:101100000AC0E9FF0BC0F3FF1050F8EC3DF00A6E87
:101110000B6A0ABE0B681DD0BCC210F0BDC211F034
:10112000BEC212F00D0E1026000E1122000E122269
:1011300010C0E9FF11C0F3FF1250F8EC3DF0106E43
:10114000116A10BE1168111C0B6E101C0A6E0A4A3F
:101150000B2A0C500A260D500B22BCC210F0BDC247
:1011600011F0BEC212F00A0E1026000E1122000E5F
:10117000122210C0E9FF11C0F3FF12507FEC3DF0C6
:10118000106EF3CF11F010500A2611500B220E50A2
:101190000A260F500B22BCC210F0BDC211F0BEC215
:1011A00012F00D0E1026000E1122000E12220B500E
:1011B000800F800F02E1800E0A5C04E37F0E136E45
:1011C000146A0FD0D8800BAED89003E3156A166A64
:1011D00004D00AC015F00BC016F015C013F016C0ED
:1011E00014F013C0E5FF10C0E9FF11C0F3FF125067
:1011F0005BEC3EF0BCC210F0BDC211F0BEC212F0FA
:10120000060E1026000E1122000E122210C0E9FF59
:1012100011C0F3FF12507FEC3DF0106EF3CF11F0D0
:10122000D88011AED8902AE3BCC210F0BDC211F034
:10123000BEC212F00D0E1026000E1122000E122258
:10124000BCC213F0BDC214F0BEC215F00D0E1326C1
:10125000000E1422000E152213C0E9FF14C0F3FF84
:101260001550F8EC3DF0136E136C13C0E5FF10C081
:10127000E9FF11C0F3FF12505BEC3EF0BCC210F06E
:10128000BDC211F0BEC212F00D0E1026000E1122CA
:10129000000E122210C0E9FF11C0F3FF1250F8EC4B
:1012A0003DF0106E116A10BE1168BCC212F0BDC2D2
:1012B00013F0BEC214F00A0E1226000E1322000E06
:1012C000142212C0E9FF13C0F3FF14507FEC3DF06D
:1012D000126EF3CF13F0BCC214F0BDC215F0BEC243
:1012E00016F0080E1426000E1522000E162214C049
:1012F000E9FF15C0F3FF1650F8EC3DF0070B146E34
:10130000156A1150E56E1050E56E0B50E56E0A50EF
:10131000E56E0F50E56E0E50E56E1350E56E1250FF
:10132000E56E0D50E56E0C50E56E0201A051E56EC4
:1013300002019F51E56E02019E51E56E02019D5131
:10134000E56E0201A451E56E0201A351E56E0201B2
:10135000A251E56E0201A151E56E1550E56E1450E3
:10136000E56E02019C51E56E02019B51E56E0201A2
:101370009A51E56E02019951E56E000EE56E690E17
:10138000E56E680EE56E85EC39F01B0EE126BCC2F9
:101390000AF0BDC20BF0BEC20CF0080E0A26000E09
:1013A0000B22000E0C220AC0E9FF0BC0F3FF0C5009
:1013B000F8EC3DF0070B0A6EBCC20BF0BDC20CF09E
:1013C000BEC20DF00D0E0B26000E0C22000E0D22DB
:1013D0000BC0E9FF0CC0F3FF0D50F8EC3DF00B6EB5
:1013E000E56E0A50E56E61EC3AF0020EE126F20E6F
:1013F0000201BC27FF0E0201BD23FF0E0201BE2326
:1014000031EF06F0010EE56EA6EC2EF0E12A0201A6
:10141000F251D8A498EF05F00201F351D8A498EF47
:1014200005F000C0BCF201C0BDF202C0BEF204C0B3
:1014300000F005C001F006C002F00201BE51800FAD
:10144000F36E0250800FF35C07E101500201BD5DB5
:1014500003E100500201BC5DD8B03DD0BCC203F036
:10146000BDC204F0BEC205F0080E0326000E042221
:10147000000E052203C0E9FF04C0F3FF0550F8EC9D
:101480003DF0E838E844010B036E03501AE1BCC29A
:1014900003F0BDC204F0BEC205F0080E0326000E24
:1014A0000422000E052203C0E9FF04C0F3FF05502B
:1014B000F8EC3DF0E8380F0B036EE56EA9EC25F073
:1014C000E12A0E0E0201BC27000E0201BD23000E10
:1014D0000201BE23B2D7E86AE4CF16F0E4CF15F0DC
:1014E000E4CF14F0E4CF13F0E4CF12F0E4CF11F026
:1014F000E4CF10F0E4CF0FF0E4CF0EF0E4CF0DF026
:10150000E4CF0CF0E4CF0BF0E4CF0AF0E4CF09F025
:10151000E4CF08F0E4CF07F0E4CF06F0E4CF05F025
:10152000E4CF04F0E4CF03F0E4CF02F0E4CF01F025
:10153000E4CF00F0E4CFD9FF1200D9CFE5FFE1CF2F
:10154000D9FF00C0E5FF01C0E5FF02C0E5FF03C011
:10155000E5FF04C0E5FF05C0E5FF06C0E5FF07C0E5
:10156000E5FF08C0E5FF09C0E5FF0AC0E5FF0BC0C5
:10157000E5FF0CC0E5FF0DC0E5FF0EC0E5FF0FC0A5
:10158000E5FF10C0E5FF11C0E5FF12C0E5FF13C085
:10159000E5FF14C0E5FF15C0E5FF16C0E5FF17C065
:1015A000E5FF18C0E5FF19C0E5FF1AC0E5FF1BC045
:1015B000E5FF1CC0E5FF1DC0E5FF1EC0E5FF020EF4
:1015C000DBCF00F0030EDBCF01F0040EDBCF02F027
:1015D000050EDBCF03F0060EDBCF04F0070EDBCFEA
:1015E00005F0080EDBCF06F0090EDBCF07F00A0E80
:1015F000DBCF08F0096A0A6A02C00DF00D50800ABC
:101600000CE100C0C5F201C0C6F202C0C7F2020E72
:10161000016EC50E006E800E026E03C0E9FF04C0AD
:10162000F3FF0550F8EC3DF00B6E0B50D8B46EEFA5
:101630000EF00B50250A02E053EF0EF00C6A0D6A13
:101640000E6A0F6A106A0A0E116E126A136A146A21
:10165000200E156E1668176A2B0E186E032AD8B066
:10166000042AD8B0052A03C0E9FF04C0F3FF0550DF
:10167000F8EC3DF0196E250A15E11950E56E02509F
:10168000E56E0150E56E0050E56EBEEC2CF0040EE8
:10169000E126092AD8B00A2A032AD8B0042AD8B0E9
:1016A000052ABBD71950300A07E1300E156E032A00
:1016B000D8B0042AD8B0052A03C0E9FF04C0F3FF5C
:1016C0000550F8EC3DF02D0A07E1010E146E032AD7
:1016D000D8B0042AD8B0052A03C0E9FF04C0F3FF3C
:1016E0000550F8EC3DF0200A09E1010E176E200EBE
:1016F000186E032AD8B0042AD8B0052A03C0E9FF1F
:1017000004C0F3FF0550F8EC3DF02B0A07E1010E91
:10171000176E032AD8B0042AD8B0052A03C0E9FFFF
:1017200004C0F3FF0550F8EC3DF0196E800F4F0F29
:101730002EE31950800F460F2AE203C019F004C0AF
:101740001AF005C01BF019C0E9FF1AC0F3FF1B50C7
:10175000F8EC3DF01C6E800F500F13E31C50800F0F
:10176000460F0FE213500A0DF3CF1DF01D501C263B
:10177000D00E1C24136E192AD8B01A2AD8B01B2AEE
:10178000E2D719C003F01AC004F01BC005F003C073
:10179000E9FF04C0F3FF0550F8EC3DF02E0A30E1FC
:1017A000032AD8B0042AD8B0052A166A03C019F053
:1017B00004C01AF005C01BF019C0E9FF1AC0F3FFFE
:1017C0001B50F8EC3DF01C6E800F500F13E31C50C3
:1017D000800F460F0FE216500A0DF3CF1DF01D507B
:1017E0001C26D00E1C24166E192AD8B01A2AD8B07E
:1017F0001B2AE2D719C003F01AC004F01BC005F081
:1018000003C0E9FF04C0F3FF0550F8EC3DF0196E8A
:101810006C0A08E1010E0C6E032AD8B0042AD8B075
:10182000052A0AD01950680A07E1010E0E6E032A34
:10183000D8B0042AD8B0052A03C0E9FF04C0F3FFDA
:101840000550F8EC3DF0750A07E1010E106E032A11
:10185000D8B0042AD8B0052A03C0E9FF04C0F3FFBA
:101860000550F8EC3DF0196E730A05E1010E0D6E9E
:10187000200E156E41D01950780A03E1100E116E3A
:101880003BD01950580A05E1100E116E010E126E70
:1018900033D01950630A02E1116A2ED019506F0A31
:1018A00003E1080E116E28D01950660A03E1010EFB
:1018B0000F6E22D01950640A1FE01950690A1CE00B
:1018C000105005E0FF0E03260422052215D0195002
:1018D000E56E0250E56E0150E56E0050E56EBEEC1F
:1018E0002CF0040EE126092AD8B00A2A032AD8B01F
:1018F000042AD8B0052A91D60D5021E00650030FD6
:101900000D6E000E0720196E000E08201A6E0DC015
:1019100006F019C007F01AC008F0FD0E0D26FF0EE4
:1019200019221A220DC0E9FF19C0F3FF1A50E9EC81
:101930003CF00D6EF3CF19F0F4CF1AF000D10F5038
:101940000DE0640E0D6E1D0E196E000E1A6E040E63
:101950000626000E072208221668F1D016680C50E1
:1019600023E00650040F0C6E000E07200F6E000ED1
:1019700008201B6E0CC006F00FC007F01BC008F05B
:10198000FC0E0C26FF0E0F221B220CC0E9FF0FC01D
:10199000F3FF1B50AAEC3CF00C6EF3CF0FF0F4CF2A
:1019A0001BF0E9CF1CF06AD00E5032E00650020F57
:1019B0000E6E000E07201D6E000E08201E6E0EC05B
:1019C00006F01DC007F01EC008F0FE0E0E26FF0E2A
:1019D0001D221E220EC0E9FF1DC0F3FF1E507FEC2A
:1019E0003DF00E6E0EC00CF0E86A0EBEFF0E0F6EDC
:1019F0001B6E1C6E11500A0A03E11050D8B43ED081
:101A00000C500E6E0EC00CF00F6A1B6A1C6A36D0AA
:101A10000650020F0E6E000E07201D6E000E0820ED
:101A20001E6E0EC006F01DC007F01EC008F0FE0EB0
:101A30000E26FF0E1D221E220EC0E9FF1DC0F3FF61
:101A40001E507FEC3DF00E6EF3CF1DF00EC00CF07B
:101A50001DC00FF0E86A1DBEFF0E1B6E1C6E1150FC
:101A60000A0A02E110500AE00C500E6E0F501D6E73
:101A70000EC00CF01DC00FF01B6A1C6A020E196E1E
:101A8000610E0D6E800E1A6E1150D8B440D01050F9
:101A900013E01150E56E020EE56E610EE56E1C500E
:101AA000E56E1B50E56E0F50E56E0C50E56EDEECFA
:101AB00021F0070EE12612D01150E56E020EE56E00
:101AC000610EE56E1C50E56E1B50E56E0F50E56E25
:101AD0000C50E56E32EC31F0070EE12617502FE086
:101AE0000DC0E9FF19C0F3FF1A50F8EC3DF02D0AC4
:101AF00026E0FF0E0D2619221A2218C0E5FF0DC0A0
:101B0000E9FF19C0F3FF1A505BEC3EF018D00CC08F
:101B1000E5FF0DC0E9FF19C0F3FF1A505BEC3EF082
:101B20000D50010F0C6E000E19200E6E000E1A20C3
:101B3000E56A0CC0E9FF0EC0F3FF5BEC3EF00DC0A0
:101B40000CF019C00EF01AC00FF013C010F01050B6
:101B500011E00CC0E9FF0EC0F3FF0F50F8EC3DF0B0
:101B6000176E175007E00C2AD8B00E2AD8B00F2AEB
:101B70001006EDD710C013F014501FE109C00CF08F
:101B80000AC00EF010C00FF00F5011E01550E56EB6
:101B90000250E56E0150E56E0050E56EBEEC2CF093
:101BA000040EE1260C2AD8B00E2A0F06EDD70CC081
:101BB00009F00EC00AF00FC013F016C00CF00DC0F3
:101BC0000DF019C00EF01AC00FF009C010F00AC0D5
:101BD00015F00DC0E9FF0EC0F3FF0F50F8EC3DF01B
:101BE000166E1650D8B440D00CC016F0176A161EE8
:101BF000171E1650171005E00CC016F00C061650F4
:101C000033E00DC0E9FF0EC0F3FF0F50F8EC3DF0DC
:101C1000116E125010E01150E56E52EC3DF0166E50
:101C2000E12A165004E0DF0E1114166E02D011C026
:101C300016F016C011F01150E56E0250E56E01501D
:101C4000E56E0050E56EBEEC2CF0040EE1260D2A88
:101C5000D8B00E2AD8B00F2A102AD8B0152A13509F
:101C6000D8B4B7D71306B5D710C009F015C00AF01D
:101C700014502DE010C00CF015C00DF013C00EF084
:101C80000E5021E0200EE56E0250E56E0150E56E2B
:101C90000050E56EBEEC2CF0040EE1260C2AD8B004
:101CA0000D2A0E06EDD70B50E56E0250E56E015081
:101CB000E56E0050E56EBEEC2CF0040EE126092A1C
:101CC000D8B00A2A04D00CC009F00DC00AF0032ACB
:101CD000D8B0042AD8B0052A0DEF0BF00AC0F3FFE4
:101CE0000950E4CF1EF0E4CF1DF0E4CF1CF0E4CFA8
:101CF0001BF0E4CF1AF0E4CF19F0E4CF18F0E4CFF2
:101D000017F0E4CF16F0E4CF15F0E4CF14F0E4CFF1
:101D100013F0E4CF12F0E4CF11F0E4CF10F0E4CFF1
:101D20000FF0E4CF0EF0E4CF0DF0E4CF0CF0E4CFF1
:101D30000BF0E4CF0AF0E4CF09F0E4CF08F0E4CFF1
:101D400007F0E4CF06F0E4CF05F0E4CF04F0E4CFF1
:101D500003F0E4CF02F0E4CF01F0E4CF00F0E4CFF1
:101D6000D9FF12003C4E4F20464C4F41543E0000DC
:101D7000D9CFE5FFE1CFD9FF00C0E5FF01C0E5FF06
:101D800002C0E5FF03C0E5FF04C0E5FF19EC3EF02B
:101D9000006E005004E028EC3EF0006E02D0F4EF3C
:101DA00010F000502B0A01E1BFD000502D0A01E1D4
:101DB000DBD00050300A01E187D00050310A01E148
:101DC00076D00050440A02E1DCEF10F00050480ADF
:101DD00001E11BD10050530A01E1E5D000505A0A3D
:101DE00001E190D00050610A01E13AD00050620A4E
:101DF00001E150D00050640A01E13FD00050680A70
:101E000001E16AD100506C0A01E173D10050720AFD
:101E100001E1A1D10050730A16E00050770A06E0F4
:101E200000507A0A01E15DD0F4EF10F0070E0701CF
:101E3000136F060E0701126F800E0701146F770EE5
:101E40000AEC04F0D1D1070E0701136F080E070149
:101E5000126F800E0701146F730E0AEC04F0C4D1E8
:101E6000070E0701136F0A0E0701126F800E07019C
:101E7000146F610E0AEC04F0B7D1070E0701136F5F
:101E80000C0E0701126F800E0701146F640E0AEC2E
:101E900004F0AAD1070E0701136F0E0E0701126F8F
:101EA000800E0701146F620E0AEC04F09DD11EEC47
:101EB0003DF0000EE56E430EE56E8A0EE56E5BECBE
:101EC00038F0030EE12690D104EC3DF0000EE56EF3
:101ED000430EE56E8E0EE56E5BEC38F0030EE126E8
:101EE00083D10701036B000EE56E000EE56E000E58
:101EF000E56E430EE56E920EE56E85EC39F0050E4B
:101F0000E12672D17F0E0701036F000EE56E7F0E92
:101F1000E56E000EE56E430EE56E920EE56E85EC05
:101F200039F0050EE12660D1050E07010327D880A0
:101F3000070103AFD89003E37F0E0701036F03C7C8
:101F400000F0016A070103BF01680150E56E00500F
:101F5000E56E000EE56E430EE56E920EE56E85ECC5
:101F600039F0050EE12640D1FB0E07010327D8808A
:101F7000070103AFD89002E30701036B03C700F02A
:101F8000016A070103BF01680150E56E0050E56E6C
:101F9000000EE56E430EE56E920EE56E85EC39F0AF
:101FA000050EE12621D1006A016A19EC3EF0026EAD
:101FB00002500BE10150800F010F02E1FE0E005CA8
:101FC00004E2002AD8B0012AF0D70150800F010F97
:101FD00002E1FF0E005C04E228EC3EF00701036F13
:101FE00003C700F0016A070103BF01680150E56EF5
:101FF0000050E56E000EE56E430EE56E920EE56E46
:1020000085EC39F0050EE126EFD0006A016A19EC83
:102010003EF0026E02500BE10150800F010F02E111
:10202000FE0E005C04E2002AD8B0012AF0D701506D
:10203000800F010F02E1FE0E005CD8B0D5D0D2ECCB
:102040003DF0006E016A026A036A19EC3EF0046E0C
:1020500004500BE10350800F010F02E1FE0E025C01
:1020600004E2022AD8B0032AF0D70350800F010FF0
:1020700002E1FE0E025CD8B0B7D0D2EC3DF0070111
:10208000056F00500701046F05C700F0016A0701E2
:1020900005BF016804C702F0036A070104BF0368B3
:1020A0000150E56E0050E56E0350E56E0250E56E9E
:1020B000000EE56E430EE56E960EE56E85EC39F08A
:1020C000070EE126070E0701136F100E0701126FAE
:1020D000800E0701146F88D0070E0701136F100ED2
:1020E0000701126F800E0701146F680E0AEC04F0EE
:1020F0007BD0006A016A19EC3EF0026E02500BE1DF
:102100000150800F010F02E1FE0E005C04E2002A84
:10211000D8B0012AF0D70150800F010F02E1FE0E66
:10212000005C04E2D2EC3DF00701046F04C700F04C
:10213000016A070104BF01680150E56E0050E56EB9
:10214000000EE56E430EE56E9C0EE56E85EC39F0F3
:10215000050EE12649D0006A016A19EC3EF0026ED4
:1021600002500BE10150800F010F02E1FE0E005CF6
:1021700004E2002AD8B0012AF0D70150800F010FE5
:1021800002E1FE0E005C04E2D2EC3DF00701056FB7
:1021900005C700F0016A070105BF01680150E56E3F
:1021A0000050E56E000EE56E430EE56EA00EE56E86
:1021B00085EC39F0050EE126070100510BE0000E19
:1021C000E56E430EE56EA40EE56E5BEC38F0030E93
:1021D000E1260AD0000EE56E430EE56EA80EE56E10
:1021E0005BEC38F0030EE126E4CF04F0E4CF03F01B
:1021F000E4CF02F0E4CF01F0E4CF00F0E4CFD9FF68
:102200001200D9CFE5FFE1CFD9FF00C0E5FF01C043
:10221000E5FF02C0E5FF03C0E5FF04C0E5FF05C020
:10222000E5FF06C0E5FF07C0E5FF08C0E5FF09C000
:10223000E5FF020EDBCF00F0010E005CD8A084D1D8
:10224000050E005CD8B080D100060AC0E5FF0BC0C7
:10225000E5FF0B6A00340B36E8340B36FC0B0A6ED4
:10226000000EFB6E220EFA6E800E0A260B50FA222A
:10227000D8B0FB2A0A50E4CF0BF0E4CF0AF0F96E95
:1022800048EF11F099EF11F0F6EF11F047EF12F06F
:102290009AEC27F0006EF3CF01F0F4CF02F0E9CF13
:1022A00003F0300ECD14046E04380F0B046E010ED3
:1022B000056E000E066E045006E0E86CD8900536F8
:1022C0000636010FFCE30650E56E0550E56E270E5D
:1022D000E56E100EE56E3DEC2DF0046EF3CF05F0CB
:1022E000040EE126E86A05BEFF0E066E076EE56E77
:1022F0000650E56E0550E56E0450E56E0350E56E40
:102300000250E56E0150E56E0050E56EA1EC2AF03A
:10231000006EF3CF01F0F4CF02F0E9CF03F0080E26
:10232000E12603C0E9FF02C0F4FF01C0F3FF005043
:102330000FD154EC36F0006EF3CF01F0F4CF02F081
:10234000E9CF03F0030ECA14046E056A0450066E4A
:1023500006260534076E010E086E000E096E065043
:102360000FE007E6E86CD89008360936010FFCE369
:1023700007D0D89009BED88009320832010FFAE39D
:102380000950E56E0850E56E270EE56E100EE56EFD
:102390003DEC2DF0046EF3CF05F0040EE126E86A63
:1023A00005BEFF0E066E076EE56E0650E56E055023
:1023B000E56E0450E56E0350E56E0250E56E015087
:1023C000E56E0050E56EA1EC2AF0006EF3CF01F04F
:1023D000F4CF02F0E9CF03F0080EE12603C0E9FFD5
:1023E00002C0F4FF01C0F3FF0050B2D0F8EC26F0B9
:1023F000006EF3CF01F0F4CF02F0E9CF03F0300E1E
:10240000B114046E04380F0B046E010E056E000E3D
:10241000066E045006E0E86CD89005360636010FCB
:10242000FCE30650E56E0550E56E270EE56E100ED6
:10243000E56E3DEC2DF0046EF3CF05F0040EE126C1
:10244000E86A05BEFF0E066E076EE56E0650E56E85
:102450000550E56E0450E56E0350E56E0250E56EE2
:102460000150E56E0050E56EA1EC2AF0006EF3CF4E
:1024700001F0F4CF02F0E9CF03F0080EE12603C02B
:10248000E9FF02C0F4FF01C0F3FF005061D00FEC80
:1024900036F0006EF3CF01F0F4CF02F0E9CF03F095
:1024A000030E7614046E056A0450066E0626053483
:1024B000076E010E086E000E096E06500FE007E66B
:1024C000E86CD89008360936010FFCE307D0D890A5
:1024D00009BED88009320832010FFAE30950E56ECF
:1024E0000850E56E270EE56E100EE56E3DEC2DF002
:1024F000046EF3CF05F0040EE126E86A05BEFF0E78
:10250000066E076EE56E0650E56E0550E56E0450EA
:10251000E56E0350E56E0250E56E0150E56E005029
:10252000E56EA1EC2AF0006EF3CF01F0F4CF02F0DB
:10253000E9CF03F0080EE12603C0E9FF02C0F4FF73
:1025400001C0F3FF005004D0E96AF46AF36AE86A54
:10255000E4CF09F0E4CF08F0E4CF07F0E4CF06F0D1
:10256000E4CF05F0E4CF04F0E4CF03F0E4CF02F0D1
:10257000E4CF01F0E4CF00F0E4CFD9FF1200E8CFC0
:10258000E5FFD8CFE5FFE0CFE5FFF3CFE5FFF4CFE0
:10259000E5FFE9CFE5FFEACFE5FFFACFE5FFFBCFA7
:1025A000E5FFD9CFE5FFE1CFD9FF00C0E5FF01C0CE
:1025B000E5FF02C0E5FF03C0E5FF04C0E5FF05C07D
:1025C000E5FF06C0E5FF07C0E5FF08C0E5FF09C05D
:1025D000E5FF0AC0E5FF80CFE5F285CFE6F287CFC1
:1025E000E7F2F2A0ACD081CF00F0F290100E016EB5
:1025F000026A030E036E046A0450800F800F02E12A
:10260000070E035CD8B09BD0070164510018056E1B
:10261000066A015005160250061605500610D8B479
:1026200087D000C005F0066A015005160250061654
:1026300005500610D8B45ED00304056E580E05246C
:10264000066E076A05BE0768070E072206C0E9FF87
:1026500007C0EAFFEFCF06F00650010A21E1000EA5
:1026600005BEFF0ED8900534076E086A07BE0868DD
:102670004C0E0726070E082207C0E9FF08C0EAFF34
:10268000EECF09F0EFCF0AF0092AD8B00A2A07C026
:10269000E9FF08C0EAFF09C0EEFF0AC0EFFF1FD044
:1026A0000650020A07E10350066EE56EFCEC1FF0CF
:1026B000E12A15D0066A05BE0668340E0526070E07
:1026C000062205C0E9FF06C0EAFFEFCF05F005507E
:1026D00006E00350056EE56EDEEC28F0E12A64C7E3
:1026E00005F0066A01500512025006120550070156
:1026F000646F1ED00350056E0506066A05BE0668A7
:10270000340E0526070E062205C0E9FF06C0EAFFC3
:10271000EFCF05F0055006E00350056EE56E53EC73
:1027200026F0E12A0150056E051E055007016417C9
:10273000032AD8B0042A0150012602365DD7F0A240
:102740002ED0F09258C700F00050010A0FE10701A7
:102750004C51010F016E000E07014D21026E015018
:1027600007014C6F025007014D6F19D00050020A4B
:1027700006E1010EE56EFCEC1FF0E12A10D0070126
:1027800034510DE0F1A806D0010EE56EDEEC28F024
:10279000E12A05D0010EE56E53EC26F0E12AF0A403
:1027A0002ED0F09459C700F00050010A0FE1070144
:1027B0004E51010F016E000E07014F21026E0150B4
:1027C00007014E6F025007014F6F19D00050020AE7
:1027D00006E1020EE56EFCEC1FF0E12A10D00701C5
:1027E00035510DE0F1A606D0020EE56EDEEC28F0C4
:1027F000E12A05D0020EE56E53EC26F0E12AF2A4A0
:1028000006D0F2940201D02B02E30201D12B9EA04C
:1028100006D09E900201D22B02E30201D32B9EA28E
:102820000ED09E920201892B02E302018A2B02E361
:1028300002018B2B02E302018C2B02018C6BA1A203
:1028400006D0A1920201D42B02E30201D52BA4A64B
:102850000ED0A49602018D2B02E302018E2B02E31F
:1028600002018F2B02E30201902B0201906BE4CF57
:102870000AF0E4CF09F0E4CF08F0E4CF07F0E4CFAA
:1028800006F0E4CF05F0E4CF04F0E4CF03F0E4CFAA
:1028900002F0E4CF01F0E4CF00F0E4CFD9FFE4CFC1
:1028A000FBFFE4CFFAFFE4CFEAFFE4CFE9FFE4CF98
:1028B000F4FFE4CFF3FFE4CFE0FFE4CFD8FFE4CFB1
:1028C000E8FF1000D9CFE5FFE1CFD9FF00C0E5FF59
:1028D00001C0E5FF02C0E5FF03C0E5FF04C0E5FF5E
:1028E00005C0E5FF06C0E5FF07C0E5FF08C0E5FF3E
:1028F00009C0E5FF0AC0E5FF0BC0E5FF0CC0E5FF1E
:102900000DC0E5FF0EC0E5FF0FC0E5FF10C0E5FFFD
:1029100011C0E5FF12C0E5FF020EDBCF00F0030E91
:10292000DBCF01F0040EDBCF02F0050EDBCF03F0AE
:10293000060EDBCF04F0070EDBCF05F0080EDBCF71
:1029400006F0090EDBCF07F00A0EDBCF08F0D880C7
:1029500000AED890096A09360950D880E866D89048
:102960000A6A0A360A5006E000C00BF00C6A00BE84
:102970000C680BD000C00DF00E6A00BE0E680E1C75
:102980000C6E0D1C0B6E0B4A0C2AD88001AED89031
:102990000D6A0D360D50D880E866D8900E6A0E3656
:1029A0000E5006E001C00FF0106A01BE10680BD097
:1029B00001C011F0126A01BE1268121C106E111CC7
:1029C0000F6E0F4A102A0A5006E000C00AF0116A82
:1029D00000BE116809D0126A00BE1268121C116E86
:1029E000001C0A6E0A4A112A1150800F800F02E162
:1029F000800E0A5C1CE20E5006E001C000F00A6A7C
:102A000001BE0A6809D00E6A01BE0E680E1C0A6E6D
:102A1000011C006E004A0A2A0A50800F800F02E152
:102A2000800E005C04E20250800FFF0F02E2800E75
:102A3000B2D00F507F08006E000E1054016EE56E8C
:102A40000050E56E0C50E56E0B50E56E2AEC35F04B
:102A5000006EF3CF01F0040EE126000EE56E7F0E4E
:102A6000E56E0150E56E0050E56E3DEC2DF0006E18
:102A7000F3CF01F0040EE1260F5000261050012282
:102A80000A6A02BE0A680A50E56E0250E56E0150FD
:102A9000E56E0050E56E2AEC35F0006EF3CF01F0E4
:102AA000040EE126000EE56E7F0EE56E0150E56E28
:102AB0000050E56E3DEC2DF0006EF3CF01F0040EFA
:102AC000E12600C0D6F201C0D7F20B500F5C0B6EAE
:102AD0000C5010580C6E0A50E56E0250E56E0C500A
:102AE000E56E0B50E56E2AEC35F0026EF3CF0AF07E
:102AF000040EE126000EE56E7F0EE56E0A50E56ECF
:102B00000250E56E3DEC2DF0026EF3CF0AF0040E9C
:102B1000E12602C0D8F20AC0D9F20D500BE10950EB
:102B200021E000C0D8F201C0D9F202C0D6F20AC03A
:102B3000D7F218D0095008E102C0D6F20AC0D7F285
:102B400000C0D8F201C0D9F20201D71F0201D66D30
:102B500002E10201D72B0201D91F0201D86D02E167
:102B60000201D92B0201D651006E00C0E5FF03C05F
:102B7000E9FF04C0F3FF05505BEC3EF00201D851C1
:102B8000006E00C0E5FF06C0E9FF07C0F3FF085074
:102B90005BEC3EF0E86AE4CF12F0E4CF11F0E4CF52
:102BA00010F0E4CF0FF0E4CF0EF0E4CF0DF0E4CF5F
:102BB0000CF0E4CF0BF0E4CF0AF0E4CF09F0E4CF5F
:102BC00008F0E4CF07F0E4CF06F0E4CF05F0E4CF5F
:102BD00004F0E4CF03F0E4CF02F0E4CF01F0E4CF5F
:102BE00000F0E4CFD9FF1200100E006E270E016E28
:102BF000010E026E036A046A056A066A076A086AB9
:102C0000096A8AEC2FF0F4EC20F01EEC3DF0A5EC04
:102C10003BF00A6E0A5012E169EC3DF00A6E0A5070
:102C20000DE0EEEC18F0050EE56E2EEC2BF00A6EC2
:102C3000E12A0A50810A02E15BEC32F019EC3EF025
:102C40000A6E0A50D8B456D0B8EC0EF0070E0B6ED0
:102C5000100E0A6E800E0C6E070112510A1808E160
:102C6000070113510B1804E1070114510C1801E07E
:102C70000BD007010551E56E07010451E56EF5EC37
:102C800039F0020EE12631D012C70AF013C70BF05B
:102C900014C70CF00AC0E9FF0BC0F3FF0C50F8ECAE
:102CA0003DF00A6E07010303F3CF0AF012C70BF0E1
:102CB00013C70CF014C70DF00B2AD8B00C2AD8B0EB
:102CC0000D2A0BC0E9FF0CC0F3FF0D50F8EC3DF0EE
:102CD0000B6E07010303F3CF0BF00B50E56E0A50A8
:102CE000E56EF5EC39F0020EE126000EE56EA6EC7D
:102CF0002EF0E12A0F0EE56E7AEC23F00A6EE12A3F
:102D00000A5022E10E0EE56E7AEC23F00A6EE12AFB
:102D10000A500DE1000EE56E420EE56EF80EE56E0E
:102D200085EC39F0030EE126B8EC2DF021D0000E31
:102D3000E56E420EE56EFC0EE56E85EC39F0030E95
:102D4000E1263FEC2CF014D00E0EE56E7AEC23F069
:102D50000A6EE12A0A500CE1000EE56E430EE56EA4
:102D6000000EE56E85EC39F0030EE1262FEC2EF017
:102D7000010EE56E77EC17F00A6EF3CF0BF0E12A47
:102D80000AC00CF00BC00DF0000E0B5C02E1150E3A
:102D90000A5C0CE3000EE56E430EE56E040EE56E74
:102DA00085EC39F0030EE12695EC3AF000C00AF00C
:102DB00001C00BF0002AD8B0012A0A50100A03E122
:102DC0000B50270A01E026D0010EE56E2BEC3AF0FD
:102DD0000A6EF3CF0BF0E12A0A50041803E10B50FE
:102DE000051816E0010EE56E2BEC3AF0046EF3CFF9
:102DF00005F0E12A0550E56E0450E56E000EE56E23
:102E0000430EE56E080EE56E85EC39F0050EE12601
:102E1000006A016A02500C5C0A6E03500D580B6E7A
:102E2000000E0B5C02E1020E0A5C0CE20C50025C2C
:102E30000A6E0D5003580B6E000E0B5C02E1020E81
:102E40000A5C12E30D50E56E0C50E56E000EE56E67
:102E5000430EE56E0E0EE56E85EC39F0050EE126AB
:102E60000CC002F00DC003F0030EE56E23EC3BF046
:102E70000A6EF3CF0BF0E12A0A50061803E10B505B
:102E8000071812E0000EE56E430EE56E140EE56EB7
:102E900085EC39F0030EE126030EE56E23EC3BF0E2
:102EA000066EF3CF07F0E12A020EE56E23EC3BF04D
:102EB0000A6EF3CF0BF0E12A0A50081804E10B5018
:102EC000091801E1A4D6000EE56E430EE56E180E5A
:102ED000E56E85EC39F0030EE126020EE56E23EC7B
:102EE0003BF0086EF3CF09F0E12A91D61200D9CF5A
:102EF000E5FFE1CFD9FF00C0E5FF01C0E5FF02C05B
:102F0000E5FF03C0E5FF04C0E5FF05C0E5FF06C01F
:102F1000E5FF07C0E5FF08C0E5FF09C0E5FF0AC0FF
:102F2000E5FF020EDBCF00F0010E005C03E3070EAD
:102F3000005C03E3F368800E38D10004016E1C0EC0
:102F40000124026E036A070E032202C0E9FF03C0D8
:102F5000EAFFEFCF04F00450D8A47CD0D6CF04F021
:102F6000056AD7CF06F0076A0650096E086A08504E
:102F7000041209500512D8900134066E076A790EC2
:102F80000626020E072206C0E9FF07C0EAFFEECFC1
:102F900006F0EFCF07F00650045E0750055AD5A69D
:102FA00004D0010E066E076A0FD0070ED514086E06
:102FB000020E066E000E076E085006E0E86CD89010
:102FC00006360736010FFCE30750E56E0650E56E46
:102FD000270EE56E100EE56E3DEC2DF0066EF3CF7C
:102FE00007F0040EE1260750E56E0650E56E055029
:102FF000E56E0450E56E32EC34F0046EF3CF05F06C
:10300000040EE126000E055C02E10C0E045CD8A063
:10301000BAD0EB0E0124046E056A070E052204C027
:10302000E9FF05C0EAFFEFCF04F00050E56E045061
:10303000E56E99EC36F0020EE1261C0E0124006EBE
:10304000046A070E042200C0E9FF04C0EAFF010E73
:10305000EF6E99D03A0E0124006E046A070E042226
:1030600000C0E9FF04C0EAFFEFCF00F00050D8B481
:103070008AD03A0E0124006E046A070E042200C0B2
:10308000E9FF04C0EAFF000EEF6E02C0E9FF03C0D3
:10309000EAFF000EEF6ED8900134006E220E00247D
:1030A000026E036A070E0322D5A604D0010E046E39
:1030B000056A0FD0070ED514066E020E046E000EC0
:1030C000056E065006E0E86CD89004360536010F10
:1030D000FCE3E86A05BEFF0E066E076E086A400E46
:1030E0000026070E082200C0E9FF08C0EAFFEECF65
:1030F00000F0EFCF08F0096A0A6A0A50E56E09503D
:10310000E56E0850E56E0050E56E0750E56E06501E
:10311000E56E0550E56E0450E56EF0EC1DF0006EB6
:10312000F3CF04F0F4CF05F0E9CF06F0080EE12666
:10313000700E0026FE0E0422FF0E0522FF0E062250
:10314000000EE56E000EE56E020EE56E470EE56EB2
:103150000650E56E0550E56E0450E56E0050E56ED4
:10316000A1EC2AF0006EF3CF04F0F4CF05F0E9CF24
:1031700006F0080EE12602C0E9FF03C0EAFF00C026
:10318000EEFF04C0EFFFD8900136006A220E012640
:10319000070E002201C0E9FF00C0EAFFEECF01F0F8
:1031A000EFCF00F000C0F3FF0150E4CF0AF0E4CF0E
:1031B00009F0E4CF08F0E4CF07F0E4CF06F0E4CF65
:1031C00005F0E4CF04F0E4CF03F0E4CF02F0E4CF65
:1031D00001F0E4CF00F0E4CFD9FF1200D9CFE5FF32
:1031E000E1CFD9FF00C0E5FF01C0E5FF02C0E5FF68
:1031F00003C0E5FF04C0E5FF05C0E5FF06C0E5FF2D
:1032000007C0E5FF08C0E5FF09C0E5FF0AC0E5FF0C
:103210000BC0E5FF0CC0E5FF0DC0E5FF0EC0E5FFEC
:103220000FC0E5FF040EE56E7AEC23F0006EE12A94
:10323000005003E11DEC33F002D0F5EC3BF0000E42
:10324000E56EA6EC2EF0E12A010EE56E77EC17F0A4
:10325000006EF3CF01F0E12A000E015C02E1100ED6
:10326000005C02E395EC3AF03CEC28F0006EF3CF02
:1032700001F0F4CF02F0E9CF03F0D5A604D0010E9F
:10328000046E056A0FD0070ED514066E020E046E8A
:10329000000E056E065006E0E86CD8900436053640
:1032A000010FFCE30550E56E0450E56E270EE56E58
:1032B000100EE56E3DEC2DF0046EF3CF05F0040E1C
:1032C000E126E86A05BEFF0E066E076EE56E065043
:1032D000E56E0550E56E0450E56E0350E56E025054
:1032E000E56E0150E56E0050E56EA1EC2AF0006E2F
:1032F000F3CF01F0F4CF02F0E9CF03F0080EE1269E
:10330000000EE56E000EE56E030EE56EE80EE56E4E
:103310000350E56E0250E56E0150E56E0050E56E1B
:10332000A1EC2AF00201856FF3CF86F2F4CF87F289
:10333000E9CF88F2080EE1260201885107011A5DE3
:103340000EE1020187510701195D09E10201865171
:103350000701185D04E1020185510701175DD8B02E
:1033600087D085C217F786C218F787C219F788C2B7
:103370001AF707010051D8B47BD0040EE56E7AEC41
:1033800023F0006EE12A016A00BE0168060EE56EB8
:103390002EEC2BF0026EE12A036A02BE0368050ED2
:1033A000E56E2EEC2BF0046EE12A056A04BE05687A
:1033B000040EE56E2EEC2BF0066EE12A076A06BEBF
:1033C0000768030EE56E2EEC2BF0086EE12A096A01
:1033D00008BE0968020EE56E2EEC2BF00A6EE12A9B
:1033E0000B6A0ABE0B68010EE56E2EEC2BF00C6E1C
:1033F000E12A0D6A0CBE0D680FEC39F00E6E0F6AF3
:103400000EBE0F680150E56E0050E56E0350E56E8C
:103410000250E56E0550E56E0450E56E0750E56E0E
:103420000650E56E0950E56E0850E56E0B50E56EEE
:103430000A50E56E0D50E56E0C50E56E0F50E56ECE
:103440000E50E56E02018851E56E02018751E56E6E
:1034500002018651E56E02018551E56E000EE56EB2
:10346000430EE56E1C0EE56E85EC39F0170EE12675
:10347000E4CF0FF0E4CF0EF0E4CF0DF0E4CF0CF08A
:10348000E4CF0BF0E4CF0AF0E4CF09F0E4CF08F08A
:10349000E4CF07F0E4CF06F0E4CF05F0E4CF04F08A
:1034A000E4CF03F0E4CF02F0E4CF01F0E4CF00F08A
:1034B000E4CFD9FF1200D9CFE5FFE1CFD9FF00C09B
:1034C000E5FF01C0E5FF02C0E5FF03C0E5FF04C062
:1034D000E5FF05C0E5FF06C0E5FF07C0E5FF08C042
:1034E000E5FF09C0E5FF0AC0E5FF0BC0E5FF0CC022
:1034F000E5FF0DC0E5FF0EC0E5FF0FC0E5FF10C002
:10350000E5FF11C0E5FF12C0E5FF13C0E5FF020EA5
:10351000DBCF00F0030EDBCF01F0040EDBCF02F0B7
:10352000050EDBCF03F0060EDBCF04F0070EDBCF7A
:1035300005F0080EDBCF06F0090EDBCF07F00A0E10
:10354000DBCF08F00B0EDBCF09F00C0EDBCF0AF05F
:103550000D0EDBCF0BF00E0EDBCF0CF00F0EDBCF22
:103560000DF00BC00EF00F6A0AC010F0116A09C00E
:1035700012F0136A0F50E56E0E50E56E1150E56EB5
:103580001050E56E1350E56E1250E56E000EE56EBC
:10359000690EE56EAA0EE56E85EC39F0090EE1269E
:1035A000010E095C12E3090E095C0FE2010E0A5CD0
:1035B0000CE3070E0A5C09E20B5009E00B50020114
:1035C000E85D03E2110E0B5C02E3800EA5D0010E54
:1035D000E56E0B50E56EFAEC1EF0020EE12603C01C
:1035E000E5FF04C0F4FF05C0F6FF06C0F7FF00C00A
:1035F000E9FF01C0F3FF025009EC3EF00050040F58
:10360000036E000E0120046E000E0220056E07C03E
:10361000E5FF08C0F4FF03C0E9FF04C0F3FF055055
:1036200044EC3EF00050080F036E000E0120046EC3
:10363000000E0220056E0950070BF46E03C0E9FF6F
:1036400004C0F3FF0550F8EC3DF0F80BF410E56E04
:1036500003C0E9FF04C0F3FF05505BEC3EF00050EF
:10366000080F036E000E0120046E000E0220056E8E
:103670000A500F0BE838F46E03C0E9FF04C0F3FFF3
:103680000550F8EC3DF00F0BF410E56E03C0E9FFB8
:1036900004C0F3FF05505BEC3EF00050090F036ED1
:1036A000000E0120046E000E0220056E0B500F0B61
:1036B000F46E03C0E9FF04C0F3FF0550F8EC3DF0E1
:1036C000F00BF410E56E03C0E9FF04C0F3FF0550F2
:1036D0005BEC3EF0060E0026000E0122000E0222D8
:1036E0000D50800F7A0F02E1A30E0C5C05E20CC0B6
:1036F00003F00DC004F004D0A30E036E060E046E9A
:1037000003C0E5FF04C0F4FF00C0E9FF01C0F3FF00
:10371000025044EC3EF0E86AE4CF13F0E4CF12F03C
:10372000E4CF11F0E4CF10F0E4CF0FF0E4CF0EF0CF
:10373000E4CF0DF0E4CF0CF0E4CF0BF0E4CF0AF0CF
:10374000E4CF09F0E4CF08F0E4CF07F0E4CF06F0CF
:10375000E4CF05F0E4CF04F0E4CF03F0E4CF02F0CF
:10376000E4CF01F0E4CF00F0E4CFD9FF1200E8CFBE
:10377000E5FFD8CFE5FFE0CFE5FFF3CFE5FFF4CFDE
:10378000E5FFE9CFE5FFEACFE5FFFACFE5FFFBCFA5
:10379000E5FFD9CFE5FFE1CFD9FF00C0E5FF01C0CC
:1037A000E5FF02C0E5FFF2A29BD0F292200E0201DB
:1037B000EF6F9F8607016851D880E866D890006A4D
:1037C00000360050200DF3CF00F0F4CF01F07C0E56
:1037D0000026070E012201500201BA6F00500201BB
:1037E000B96F800E0201BB6F07016C51D880E8668B
:1037F000D890006A00360050200DF3CF00F0F4CFCF
:1038000001F0000E0026020E012201500701F26FA6
:1038100000500701F16F800E0701F36F69C700F0D8
:103820006AC701F06BC702F0002AD8B0012AD8B0ED
:10383000022A00C0E9FF01C0F3FF0250F8EC3DF09E
:10384000E844E844010B006E00502FE007016C5182
:10385000D880E866D890006A00360050200DF3CF7B
:1038600000F0016A000E0026020E01221D0E002645
:10387000D8B0012A00C0E9FF01C0EAFF6DC7EFFF21
:1038800007016C51200DF3CF00F0016A000E0026F5
:10389000020E01221D0E0026D8B0012A00C0E9FF49
:1038A00001C0EAFF6DC7EFFF6D2BC9CFF0F2F1C782
:1038B00000F0F2C701F0F3C702F000C0E9FF01C059
:1038C000F3FF0250F8EC3DF0006E0701F12B02E32C
:1038D0000701F22B02E30701F32B00C0C9FF57D009
:1038E0009EA655D09E96B9C200F0BAC201F0BBC2E6
:1038F00002F0C9CFE5FF00C0E9FF01C0F3FF0250AD
:103900005BEC3EF00201B92B02E30201BA2B02E3A9
:103910000201BB2BF1C700F0F2C701F0F3C702F0C0
:1039200000C0E9FF01C0F3FF0250F8EC3DF0006E6B
:103930000701F12B02E30701F22B02E30701F32B4E
:1039400000C0C9FF0201EF07EF5121E1020E07019C
:10395000DA6F0201F193F18107016851D880E866BE
:10396000D8900701686B68376851200DF3CF00F0DD
:10397000F4CF01F07C0E0026070E01220150070152
:103980006A6F00500701696F800E07016B6FE4CF0B
:1039900002F0E4CF01F0E4CF00F0E4CFD9FFE4CFB0
:1039A000FBFFE4CFFAFFE4CFEAFFE4CFE9FFE4CF87
:1039B000F4FFE4CFF3FFE4CFE0FFE4CFD8FFE4CFA0
:1039C000E8FF1000D9CFE5FFE1CFD9FF00C0E5FF48
:1039D00001C0E5FF02C0E5FF03C0E5FF020EDBCF3B
:1039E00000F0030EDBCF01F000500201E85D0EE2B3
:1039F000110E005C026A0236025008E10050E56ECA
:103A0000F7EC24F0036EE12A035002E0800EDDD0D3
:103A1000010E005CD8A0D6D00250D8A4D3D00006A6
:103A200004C0E5FF05C0E5FF056A00340536E8344B
:103A30000536FC0B046E000EFB6E3A0EFA6E560E47
:103A400004260550FA22D8B0FB2A0450E4CF05F032
:103A5000E4CF04F0F96E4BEF1DF053EF1DF05CEF77
:103A60001DF066EF1DF070EF1DF07AEF1DF082EF94
:103A70001DF08BEF1DF095EF1DF09FEF1DF0A8EFEF
:103A80001DF0B2EF1DF0BCEF1DF0C5EF1DF0CFEF44
:103A90001DF0D9EF1DF00150010BF46E8950FE0BA3
:103AA000F410896E91D00150010BE844F46E8950F6
:103AB000FD0BF410896E88D00150010BE844E844F6
:103AC000F46E8950FB0BF410896E7ED00150010B0F
:103AD000E838E840F46E8950F70BF410896E74D022
:103AE0000150010BE838E844F46E8950DF0BF41004
:103AF000896E6AD00150010BF46E8E50FE0BF410EB
:103B00008E6E62D00150010BE844F46E8E50FD0BB6
:103B1000F4108E6E59D00150010BE844E844F46E65
:103B20008E50FB0BF4108E6E4FD00150010BE83815
:103B3000E840F46E8E50F70BF4108E6E45D00150B5
:103B4000010BE838F46E8E50EF0BF4108E6E3CD003
:103B50000150010BE838E844F46E8E50DF0BF4108E
:103B60008E6E32D00150010BE840E840F46E8E506A
:103B7000BF0BF4108E6E28D00150010BE838F46EA4
:103B80009050EF0BF410906E1FD00150010BE838ED
:103B9000E844F46E9050DF0BF410906E15D0015095
:103BA000010BE840E840F46E9050BF0BF410906EAB
:103BB0000BD00150010BE840F46E90507F0BF410D5
:103BC000906E02D0800E01D0E86AE4CF03F0E4CF1B
:103BD00002F0E4CF01F0E4CF00F0E4CFD9FF12000F
:103BE000D9CFE5FFE1CFD9FF00C0E5FF01C0E5FF78
:103BF00002C0E5FF03C0E5FF04C0E5FF05C0E5FF27
:103C000006C0E5FF07C0E5FF020EDBCF00F0030EA4
:103C1000DBCF01F0040EDBCF02F0050EDBCF03F0AB
:103C2000060EDBCF04F0070EDBCF05F0080EDBCF6E
:103C300006F0090EDBCF07F000500201A56F01501E
:103C4000A66F0250A76F0350A86F04500201A96F1E
:103C50000550AA6F0650AB6F0750AC6F0201A5511B
:103C60000201AB03F3CF00F0F4CF01F000500201EA
:103C7000AF6F0150B06F0201A5510201A903F3CF4C
:103C800000F0F4CF01F000500201AD6F0150AE6FB3
:103C90000201A8510201A903F3CF00F00201B051C3
:103CA00000260050B06F0201A7510201AA03F3CF12
:103CB00000F00201B05100260050B06F0201A75180
:103CC0000201A903F3CF00F0F4CF01F00201AF51DC
:103CD0000026B05101220050AF6F0150B06F0201B9
:103CE000A6510201AA03F3CF00F0F4CF01F00201C4
:103CF000AF510026B05101220050AF6F0150B06F9C
:103D00000201A6510201AB03F3CF00F00050020103
:103D1000B46F0201A6510201A903F3CF00F0F4CF62
:103D200001F000500201B26F0150B36F0201A551C2
:103D30000201AC03F3CF00F000500201B86F0201A2
:103D4000A5510201AA03F3CF00F0F4CF01F0005017
:103D50000201B66F0150B76F0201B16B0201B56B82
:103D60000201B1510201AD25006E0201B251020102
:103D7000AE21016E0201B3510201AF21026E0201B8
:103D8000B4510201B021036E0050AD6F0150AE6F0F
:103D90000250AF6F0350B06F0201B5510201AD2563
:103DA000006E0201B6510201AE21016E0201B7514F
:103DB0000201AF21026E0201B8510201B021036E6F
:103DC00003C0E9FF02C0F4FF01C0F3FF0050E4CFDD
:103DD00007F0E4CF06F0E4CF05F0E4CF04F0E4CF41
:103DE00003F0E4CF02F0E4CF01F0E4CF00F0E4CF41
:103DF000D9FF1200D9CFE5FFE1CFD9FF00C0E5FF21
:103E000001C0E5FF02C0E5FF020EDBCF00F0030EAC
:103E1000DBCF01F000500201E85D06E2110E005C0C
:103E2000026A0236025002E0800EDDD0010E005C14
:103E3000D8A0D6D00250D8A4D3D0000603C0E5FF46
:103E400004C0E5FF046A00340436E8340436FC0B91
:103E5000036E000EFB6E3E0EFA6E720E03260450C9
:103E6000FA22D8B0FB2A0350E4CF04F0E4CF03F0E9
:103E7000F96E59EF1FF061EF1FF06AEF1FF074EF5A
:103E80001FF07EEF1FF088EF1FF090EF1FF099EF0B
:103E90001FF0A3EF1FF0ADEF1FF0B6EF1FF0C0EF64
:103EA0001FF0CAEF1FF0D3EF1FF0DDEF1FF0E7EFB9
:103EB0001FF00150010BF46E9250FE0BF410926E45
:103EC00091D00150010BE844F46E9250FD0BF410B8
:103ED000926E88D00150010BE844E844F46E925091
:103EE000FB0BF410926E7ED00150010BE838E840D5
:103EF000F46E9250F70BF410926E74D00150010BD7
:103F0000E838E844F46E9250DF0BF410926E6AD0F9
:103F10000150010BF46E9750FE0BF410976E62D0B7
:103F20000150010BE844F46E9750FD0BF410976EAE
:103F300059D00150010BE844E844F46E9750FB0B54
:103F4000F410976E4FD00150010BE838E840F46E42
:103F50009750F70BF410976E45D00150010BE838DD
:103F6000F46E9750EF0BF410976E3CD00150010B9C
:103F7000E838E844F46E9750DF0BF410976E32D0B7
:103F80000150010BE840E840F46E9750BF0BF4106D
:103F9000976E28D00150010BE838F46E9950EF0B62
:103FA000F410996E1FD00150010BE838E844F46E0C
:103FB0009950DF0BF410996E15D00150010BE840B9
:103FC000E840F46E9950BF0BF410996E0BD001507D
:103FD000010BE840F46E99507F0BF410996E02D0FB
:103FE000800E01D0E86AE4CF02F0E4CF01F0E4CF24
:103FF00000F0E4CFD9FF1200D9CFE5FFE1CFD9FF20
:1040000000C0E5FF01C0E5FF02C0E5FF03C0E5FF1A
:1040100004C0E5FF020EDBCF00F0016A00065E0E71
:104020000024026E036A070E032202C0E9FF03C0E8
:10403000EAFFEFCF02F0010E025CD8A08FD0110E84
:10404000025CD8B08BD0020605C0E5FF06C0E5FFD4
:10405000066A02340636E8340636FC0B056E000E9E
:10406000FB6E400EFA6E7E0E05260650FA22D8B080
:10407000FB2A0550E4CF06F0E4CF05F0F96E5FEFC0
:1040800020F064EF20F069EF20F06EEF20F073EF86
:1040900020F078EF20F07DEF20F082EF20F087EF26
:1040A00020F08CEF20F091EF20F096EF20F09BEFC6
:1040B00020F0A0EF20F0A5EF20F0AAEF20F0010EF5
:1040C0000201E515016E4AD0020E0201E515016EEE
:1040D00045D0040E0201E515016E40D0080E020124
:1040E000E515016E3BD0200E0201E515016E36D0BC
:1040F000010E0201E615016E31D0020E0201E61535
:10410000016E2CD0040E0201E615016E27D0080EB8
:104110000201E615016E22D0100E0201E615016EB5
:104120001DD0010E0201E615016E18D0020E02012B
:10413000E615016E13D0100E0201E715016E0ED0C8
:10414000200E0201E715016E09D0400E0201E715AD
:10415000016E04D0800E0201E715016E01501DE1D1
:10416000D8900034016E026A4C0E0126070E02221E
:1041700001C0E9FF02C0EAFFEECF03F0EFCF04F089
:10418000FF0E0326D8A0040601C0E9FF02C0EAFF23
:1041900003C0EEFF04C0EFFF1AD0D8900036016ACA
:1041A0004C0E0026070E012200C0E9FF01C0EAFF05
:1041B000EECF02F0EFCF03F0022AD8B0032A00C0FE
:1041C000E9FF01C0EAFF02C0EEFF03C0EFFFE4CF4A
:1041D00004F0E4CF03F0E4CF02F0E4CF01F0E4CF49
:1041E00000F0E4CFD9FF1200D9CFE5FFE1CFD9FF2E
:1041F00000C0E5FF01C0E5FF02C0E5FF3E0E020181
:10420000CC6F0201CD6B2F0E0201CA6F0201CB6B86
:10421000030E0201C86F0201C96B070E0201CE6FC7
:104220000201CF6B010E006E016A0150800F800FFA
:1042300002E1100E005C0EE20050026E010EE56E0F
:104240000250E56EFAEC1EF0020EE126002AD8B00C
:10425000012AEBD7020EE56E41EC3CF0E12A100E8C
:10426000006E016A0150800F800F02E1110E005CA8
:104270000EE20050026E000EE56E0250E56EFAECA2
:104280001EF0020EE126002AD8B0012AEBD7100E4C
:10429000006E016A0150800F800F02E1110E005C78
:1042A0000EE20050026E000EE56E0250E56EE2EC8A
:1042B0001CF0020EE126002AD8B0012AEBD7100E1E
:1042C000E56E010EE56EF9EC31F0020EE126020E0C
:1042D000E56E87EC34F0E12A030EE56E87EC34F0EE
:1042E000E12A98EC38F0E4CF02F0E4CF01F0E4CF1B
:1042F00000F0E4CFD9FF120042460000424C00001B
:1043000042520000434600004C69256400005544B9
:1043100025640000454C00004552000045543A20F9
:10432000256C64202052433A2025642025642025F2
:104330006420256420256420256420256420204AEB
:10434000756D7065723A2025640A000053746172BD
:1043500074696E67206175746F6E6F6D6F75732011
:10436000726F7574696E652E2E2E0A00456E646933
:104370006E67206175746F6E6F6D6F757320726FED
:104380007574696E652E2E2E0A00726300007363C9
:104390000000532564004825632563006C256300F5
:1043A00072256300443100004430000048656C6CA5
:1043B0006F2C20576F726C64210A0000D9CFE5FF83
:1043C000E1CFD9FF00C0E5FF01C0E5FF02C0E5FF76
:1043D00003C0E5FF04C0E5FF05C0E5FF06C0E5FF3B
:1043E00007C0E5FF08C0E5FF09C0E5FF0AC0E5FF1B
:1043F0000BC0E5FF0CC0E5FF0DC0E5FF0EC0E5FFFB
:104400000FC0E5FF020EDBCF00F0030EDBCF01F0A3
:10441000040EDBCF02F0050EDBCF03F0060EDBCF80
:1044200004F0070EDBCF05F0080EDBCF06F0200E00
:10443000076E086A06C009F00A6A0B6A0C6AE56A28
:10444000E56AE56A0950E56E0350E56E0250E56ED7
:104450000150E56E0050E56E0FEC2AF00D6E080E6F
:10446000E126300E0D263A0E0D5C02E3270E0D26D6
:10447000FF0E0726D8A00806400E07240E6E020E77
:1044800008200F6E0EC0E9FF0FC0EAFF0DC0EFFF5E
:104490000C50E56E0B50E56E0A50E56E0950E56E66
:1044A0000350E56E0250E56E0150E56E0050E56E7A
:1044B000A1EC2AF0006EF3CF01F0F4CF02F0E9CFC7
:1044C00003F0080EE1260050011002100310D8A4DA
:1044D000B1D707C000F008C001F004C002F005C069
:1044E00003F000C004F001C005F0002AD8B0012A92
:1044F000400E0426020E052204C0E9FF05C0EAFFB3
:10450000EFCF04F002C0E9FF03C0EAFF04C0EFFFF1
:10451000022AD8B0032A000E015C02E1200E005CE2
:10452000E0E302C0E9FF03C0EAFF000EEF6AE4CF58
:104530000FF0E4CF0EF0E4CF0DF0E4CF0CF0E4CFB9
:104540000BF0E4CF0AF0E4CF09F0E4CF08F0E4CFB9
:1045500007F0E4CF06F0E4CF05F0E4CF04F0E4CFB9
:1045600003F0E4CF02F0E4CF01F0E4CF00F0E4CFB9
:10457000D9FF1200D9CFE5FFE1CFD9FF00C0E5FF99
:1045800001C0E5FF02C0E5FF03C0E5FF04C0E5FF91
:1045900005C0E5FF06C0E5FF07C0E5FF020EDBCF63
:1045A00000F0030EDBCF01F00050E56ED4EC38F0E4
:1045B000E12A0150E56E7AEC23F0006EE12A00500A
:1045C000F8E0D6CF00F0026AD7CF03F0046A0350B8
:1045D000066E056A05500012065002120150E56E83
:1045E0007AEC23F0036EE12A0350010AF7E0D6CFFC
:1045F00001F0036AD7CF04F0056A0450076E066A1B
:1046000006500112075003120050015C006E025068
:104610000358016ED5A604D0010E026E036A0FD0B6
:10462000070ED514046E020E026E000E036E0450C7
:1046300006E0E86CD89002360336010FFCE3E86A26
:1046400003BEFF0E046E056E066A076A0750E56E2C
:104650000650E56E0150E56E0050E56E0550E56EC2
:104660000450E56E0350E56E0250E56EF0EC1DF06F
:10467000006EF3CF01F0F4CF02F0E9CF03F0080EA3
:10468000E126700E0026FE0E0122FF0E0222FF0E12
:104690000322000EE56E000EE56E020EE56E470E7B
:1046A000E56E0350E56E0250E56E0150E56E005078
:1046B000E56EA1EC2AF0006EF3CF01F0F4CF02F02A
:1046C000E9CF03F0080EE12601C0F3FF0050E4CF6C
:1046D00007F0E4CF06F0E4CF05F0E4CF04F0E4CF38
:1046E00003F0E4CF02F0E4CF01F0E4CF00F0E4CF38
:1046F000D9FF1200D9CFE5FFE1CFD9FF00C0E5FF18
:1047000001C0E5FF02C0E5FF020EDBCF00F0005064
:104710000201E85D0FE2110E005C016A01360150F2
:1047200009E10050E56EF7EC24F0026EE12A025038
:10473000010A02E0800E94D0010E005CD8A08FD058
:104740000150D8A48CD0000603C0E5FF04C0E5FFEB
:10475000046A00340436E8340436FC0B036E000EA1
:10476000FB6E470EFA6E7E0E03260450FA22D8B076
:10477000FB2A0350E4CF04F0E4CF03F0F96EDFEF3F
:1047800023F0E4EF23F0E9EF23F0EEEF23F0F3EF73
:1047900023F0F8EF23F0FDEF23F002EF24F007EF12
:1047A00024F00CEF24F011EF24F016EF24F01BEFAF
:1047B00024F020EF24F025EF24F02AEF24F0006A03
:1047C00080B0002A00504CD0006A80B2002A00500D
:1047D00047D0006A80B4002A005042D0006A80B6F8
:1047E000002A00503DD0006A80BA002A005038D01C
:1047F000006A85B0002A005033D0006A85B2002AD2
:1048000000502ED0006A85B4002A005029D0006ADA
:1048100085B6002A005024D0006A85B8002A0050CE
:104820001FD0006A85BA002A00501AD0006A85BCE1
:10483000002A005015D0006A87B8002A005010D016
:10484000006A87BA002A00500BD0006A87BC002A91
:10485000005006D0006A87BE002A005001D0800EAA
:10486000E4CF02F0E4CF01F0E4CF00F0E4CFD9FFD1
:104870001200D9CFE5FFE1CFD9FF00C0E5FF070166
:10488000D86B0701D36BC6AE05D0C69E010E0701DB
:10489000D36F16D0006AF1BE002A0050010A0AE167
:1048A000006AF2B6002A0050010A04E1020E070174
:1048B000D36F06D0F0A604D0909E030E0701D36FED
:1048C000250EC614006E250A07E0010E0701D86FF9
:1048D000C6500701D36F86D0C55007E0020E07010E
:1048E000D86FC5500701D36F7DD0D0BE07D0030E5F
:1048F0000701D86FD0500701D36F74D09DB607D091
:10490000040E0701D86F9D500701D36F6BD09C50E8
:1049100007E0050E0701D86F9C500701D36F62D0E6
:104920009F50080A07E0060E0701D86F9F50070145
:10493000D36F58D0A25007E0070E0701D86FA250DE
:104940000701D36F4FD0A55007E0080E0701D86FBD
:10495000A5500701D36F46D0100EF214006E100A56
:1049600007E0090E0701D86FF2500701D36F3AD064
:10497000F150470B07E00A0E0701D86FF15007010D
:10498000D36F30D0F050C00B07E00B0E0701D86F8B
:10499000F0500701D36F26D092A807D00C0E070164
:1049A000D86F92500701D36F1DD093B007D00D0E72
:1049B0000701D86F93500701D36F14D03E0E9414A3
:1049C000006E1C0A07E00E0E0701D86F9450070115
:1049D000D36F08D097BE06D00F0E0701D86F97503F
:1049E0000701D36FE4CF00F0E4CFD9FF1200D9CF95
:1049F000E5FFE1CFD9FF00C0E5FF01C0E5FF020EF2
:104A0000DBCF00F000500201E85D06E2110E005C11
:104A1000016A0136015002E0800E94D0010E005C64
:104A2000D8A08FD00150D8A48CD0000602C0E5FFDA
:104A300003C0E5FF036A00340336E8340336FC0B99
:104A4000026E000EFB6E4A0EFA6E620E02260350D4
:104A5000FA22D8B0FB2A0250E4CF03F0E4CF02F0F0
:104A6000F96E51EF25F056EF25F05BEF25F060EF82
:104A700025F065EF25F06AEF25F06FEF25F074EF74
:104A800025F079EF25F07EEF25F083EF25F088EF14
:104A900025F08DEF25F092EF25F097EF25F09CEFB4
:104AA00025F0006A92B0002A00504CD0006A92B201
:104AB000002A005047D0006A92B4002A005042D029
:104AC000006A92B6002A00503DD0006A92BA002ACD
:104AD000005038D0006A97B0002A005033D0006AE6
:104AE00097B2002A00502ED0006A97B4002A0050D6
:104AF00029D0006A97B6002A005024D0006A97B8DF
:104B0000002A00501FD0006A97BA002A00501AD01D
:104B1000006A97BC002A005015D0006A99B8002A94
:104B2000005010D0006A99BA002A00500BD0006AD9
:104B300099BC002A005006D0006A99BE002A005095
:104B400001D0800EE4CF01F0E4CF00F0E4CFD9FF34
:104B50001200D9CFE5FFE1CFD9FF00C0E5FF01C0CA
:104B6000E5FF02C0E5FF03C0E5FF04C0E5FF05C0A7
:104B7000E5FF020EDBCF00F0010E005CD870016A89
:104B80000136015006E1070E005C026A023602504F
:104B900002E0800E79D000C003F0046AFF0E032605
:104BA000D8A004062E0E0326070E042203C0E9FF38
:104BB00004C0EAFF000EEF6E0006580E0024036EDC
:104BC000046A070E042203C0E9FF04C0EAFF000ED6
:104BD000EF6E0150D8A457D00250D8A454D006C0CC
:104BE000E5FF07C0E5FF076A00340736E8340736FB
:104BF000FC0B066E000EFB6E4C0EFA6E140E0626B3
:104C00000750FA22D8B0FB2A0650E4CF07F0E4CFD1
:104C100006F0F96E16EF26F018EF26F01AEF26F0E0
:104C20001AEF26F01AEF26F01AEF26F0F0982BD0A4
:104C3000F09A29D0006A016A030E026E036A0350DB
:104C4000800F800F02E1060E025C19E20250FF0F96
:104C5000046EFF0E0320056E2E0E0426070E05229D
:104C600004C0E9FF05C0EAFFEFCF04F0056A045075
:104C7000002605500122022AD8B0032AE0D70050AE
:104C80000110D8B4F296E86AE4CF05F0E4CF04F05E
:104C9000E4CF03F0E4CF02F0E4CF01F0E4CF00F082
:104CA000E4CFD9FF1200D9CFE5FFE1CFD9FF00C093
:104CB000E5FF01C0E5FF02C0E5FF03C0E5FF04C05A
:104CC000E5FF05C0E5FF06C0E5FF07C0E5FF08C03A
:104CD000E5FF09C0E5FF020EDBCF00F00006D8902B
:104CE0000034016E790E0124026E036A020E032263
:104CF000D6CF04F0056A02C0E9FF03C0EAFF04C092
:104D0000EEFF05C0EFFF790E0124026E036A020E6A
:104D10000322790E0124046E056A020E052204C0E6
:104D2000E9FF05C0EAFFEECF04F0EFCF05F0D7CFE3
:104D300006F0076A0650096E086A08500412095006
:104D4000051202C0E9FF03C0EAFF04C0EEFF05C080
:104D5000EFFF400E0124026E036A070E0322790E54
:104D60000124046E056A020E052204C0E9FF05C095
:104D7000EAFFEECF04F0EFCF05F0066A6D0E0126D4
:104D8000020E062201C0E9FF06C0EAFFEECF01F0E5
:104D9000EFCF06F00150045E0650055A02C0E9FF4D
:104DA00003C0EAFF04C0EEFF05C0EFFF016A3A0E40
:104DB0000026070E012200C0E9FF01C0EAFF010E34
:104DC000EF6EE4CF09F0E4CF08F0E4CF07F0E4CFD2
:104DD00006F0E4CF05F0E4CF04F0E4CF03F0E4CF35
:104DE00002F0E4CF01F0E4CF00F0E4CFD9FF1200ED
:104DF000D9CFE5FFE1CFD9FF00C0E5FF01C0E5FF56
:104E000002C0E5FF03C0E5FF04C0E5FF05C0E5FF04
:104E100006C0E5FF07C0E5FF08C0E5FF09C0E5FFE4
:104E20000AC0E5FF0BC0E5FF0CC0E5FF0DC0E5FFC4
:104E30000EC0E5FF0FC0E5FFB2CF00F0016AB3CFAF
:104E400002F0036A0250056E046A04500012055015
:104E50000112D4C202F0D5C203F0B2CF04F0056A49
:104E6000B3CF06F0076A0650096E086A08500412AC
:104E7000095005120150055C02E10050045C1EE27D
:104E8000D4C206F0D5C207F0086A096A07500D6E51
:104E900006500C6E0A6A0B6A0E6A0F6A04500A12F8
:104EA00005500B120E500C120F500D120DC0E9FFE1
:104EB0000CC0F4FF0BC0F3FF0A5019D0046A056A56
:104EC0000350096E0250086E066A076A0A6A0B6A86
:104ED00000500612015007120A5008120B50091216
:104EE00009C0E9FF08C0F4FF07C0F3FF0650E4CF94
:104EF0000FF0E4CF0EF0E4CF0DF0E4CF0CF0E4CFF0
:104F00000BF0E4CF0AF0E4CF09F0E4CF08F0E4CFEF
:104F100007F0E4CF06F0E4CF05F0E4CF04F0E4CFEF
:104F200003F0E4CF02F0E4CF01F0E4CF00F0E4CFEF
:104F3000D9FF1200D9CFE5FFE1CFD9FF00C0E5FFCF
:104F400001C0E5FF02C0E5FF03C0E5FF04C0E5FFC7
:104F500005C0E5FF06C0E5FF07C0E5FF08C0E5FFA7
:104F600009C0E5FF0AC0E5FF0BC0E5FF0CC0E5FF87
:104F70000DC0E5FF0EC0E5FF0FC0E5FFCECF00F08E
:104F8000016ACFCF02F0036A0250056E046A045032
:104F9000001205500112D2C202F0D3C203F0CECFEC
:104FA00004F0056ACFCF06F0076A0650096E086A5A
:104FB00008500412095005120150055C02E100502E
:104FC000045C1EE2D2C206F0D3C207F0086A096A86
:104FD00007500D6E06500C6E0A6A0B6A0E6A0F6A55
:104FE00004500A1205500B120E500C120F500D12E5
:104FF0000DC0E9FF0CC0F4FF0BC0F3FF0A5019D03D
:10500000046A056A0350096E0250086E066A076A50
:105010000A6A0B6A00500612015007120A50081261
:105020000B50091209C0E9FF08C0F4FF07C0F3FFE5
:105030000650E4CF0FF0E4CF0EF0E4CF0DF0E4CF54
:105040000CF0E4CF0BF0E4CF0AF0E4CF09F0E4CFAA
:1050500008F0E4CF07F0E4CF06F0E4CF05F0E4CFAA
:1050600004F0E4CF03F0E4CF02F0E4CF01F0E4CFAA
:1050700000F0E4CFD9FF1200D9CFE5FFE1CFD9FF8F
:1050800000C0E5FF01C0E5FF02C0E5FF03C0E5FF8A
:1050900004C0E5FF05C0E5FF06C0E5FF07C0E5FF6A
:1050A00008C0E5FF09C0E5FF0AC0E5FF0BC0E5FF4A
:1050B0000CC0E5FF0DC0E5FF0EC0E5FF0FC0E5FF2A
:1050C000D6CF00F0016AD7CF02F0036A0250056E16
:1050D000046A0450001205500112D0C202F0D1C27D
:1050E00003F0D6CF04F0056AD7CF06F0076A065062
:1050F000096E086A08500412095005120150055C37
:1051000002E10050045C1EE2D0C206F0D1C207F0FA
:10511000086A096A07500D6E06500C6E0A6A0B6A1F
:105120000E6A0F6A04500A1205500B120E500C1230
:105130000F500D120DC0E9FF0CC0F4FF0BC0F3FFC0
:105140000A5019D0046A056A0350096E0250086EAD
:10515000066A076A0A6A0B6A0050061201500712B3
:105160000A5008120B50091209C0E9FF08C0F4FFE9
:1051700007C0F3FF0650E4CF0FF0E4CF0EF0E4CF0A
:105180000DF0E4CF0CF0E4CF0BF0E4CF0AF0E4CF65
:1051900009F0E4CF08F0E4CF07F0E4CF06F0E4CF65
:1051A00005F0E4CF04F0E4CF03F0E4CF02F0E4CF65
:1051B00001F0E4CF00F0E4CFD9FF1200D9CFE5FF32
:1051C000E1CFD9FF00C0E5FF01C0E5FF02C0E5FF68
:1051D00003C0E5FF04C0E5FF05C0E5FF06C0E5FF2D
:1051E00007C0E5FF08C0E5FF09C0E5FF020EDBCF01
:1051F00000F00004016ED8900134026E6D0E02249E
:10520000036E046A020E0422D6CF05F0066A03C0BC
:10521000E9FF04C0EAFF05C0EEFF06C0EFFF6D0E18
:105220000224036E046A020E0422056A6D0E022631
:10523000020E052202C0E9FF05C0EAFFEECF02F030
:10524000EFCF05F0D7CF06F0076A0650096E086A5F
:10525000085002120950051203C0E9FF04C0EAFF1A
:1052600002C0EEFF05C0EFFF010E005C2DE3070E4C
:10527000005C2AE20AC0E5FF0BC0E5FF0B6A0134BF
:105280000B36E8340B36FC0B0A6E000EFB6E520E2A
:10529000FA6EAA0E0A260B50FA22D8B0FB2A0A5040
:1052A000E4CF0BF0E4CF0AF0F96E61EF29F063EF81
:1052B00029F064EF29F064EF29F064EF29F064EF3E
:1052C00029F0F19801D0F196E4CF09F0E4CF08F08D
:1052D000E4CF07F0E4CF06F0E4CF05F0E4CF04F02C
:1052E000E4CF03F0E4CF02F0E4CF01F0E4CF00F02C
:1052F000E4CFD9FF1200D9CFE5FFE1CFD9FF00C03D
:10530000E5FF01C0E5FF02C0E5FF03C0E5FF04C003
:10531000E5FF05C0E5FF020EDBCF00F0010E005CEB
:10532000D870016A0136015019E1070E005C026A6B
:105330000236025013E100C003F0046AFF0E032698
:10534000D8A004062E0E0326070E042203C0E9FF90
:1053500004C0EAFFEFCF05F0055002E0800E50D008
:1053600003C0E9FF04C0EAFF010EEF6E0006D8900B
:105370000034036E046A4C0E0326070E042203C099
:10538000E9FF04C0EAFF000EEE6E000EEF6E015062
:1053900036E1025034E106C0E5FF07C0E5FF076AC9
:1053A00000340736E8340736FC0B066E000EFB6E41
:1053B000530EFA6ECC0E06260750FA22D8B0FB2AFE
:1053C0000650E4CF07F0E4CF06F0F96EF2EF29F0D3
:1053D000F7EF29F0FCEF29F0FCEF29F0FCEF29F0C2
:1053E000FCEF29F0F188F09EF092F08808D0F18669
:1053F000F192F094F08A03D0F190F290F286E86A8C
:10540000E4CF05F0E4CF04F0E4CF03F0E4CF02F002
:10541000E4CF01F0E4CF00F0E4CFD9FF1200D9CF00
:10542000E5FFE1CFD9FF00C0E5FF01C0E5FF02C005
:10543000E5FF03C0E5FF04C0E5FF05C0E5FF06C0CA
:10544000E5FF07C0E5FF08C0E5FF09C0E5FF0AC0AA
:10545000E5FF020EDBCF00F0030EDBCF01F0040E00
:10546000DBCF02F0050EDBCF03F0060EDBCF04F03E
:10547000070EDBCF05F0080EDBCF06F0090EDBCF01
:1054800007F0086A096A0744010B0A6E0AB01BD0CC
:10549000045004260536063607360750035C08E13B
:1054A0000650025C05E10550015C02E10450005C1D
:1054B00006E2D890073206320532043204D0092AB7
:1054C00009C008F0E0D70750035C08E10650025C11
:1054D00005E10550015C02E10450005C08E3045062
:1054E000005E0550015A0650025A0750035AD890E0
:1054F000073206320532043208C009F008060950A6
:10550000E2E103C0E9FF02C0F4FF01C0F3FF005075
:10551000E4CF0AF0E4CF09F0E4CF08F0E4CF07F0DD
:10552000E4CF06F0E4CF05F0E4CF04F0E4CF03F0DD
:10553000E4CF02F0E4CF01F0E4CF00F0E4CFD9FFF4
:105540001200D9CFE5FFE1CFD9FF00C0E5FF01C0D0
:10555000E5FF02C0E5FF03C0E5FF04C0E5FF05C0AD
:10556000E5FF06C0E5FF07C0E5FF08C0E5FF09C08D
:10557000E5FF0AC0E5FF0BC0E5FF0CC0E5FF0DC06D
:10558000E5FF020EDBCF00F0030EDBCF01F0040ECF
:10559000DBCF02F0050EDBCF03F0060EDBCF04F00D
:1055A000070EDBCF05F0080EDBCF06F0090EDBCFD0
:1055B00007F0086A096A0A6A0B6A200E0C6E034437
:1055C000010B0D6E010E0D1600500026013602363D
:1055D00003360850082609360A360B360D50D8A473
:1055E000088007500B5C08E106500A5C05E1055095
:1055F000095C02E10450085C09E30450085E0550B0
:10560000095A06500A5A07500B5A00800C2ED7D759
:1056100003C0E9FF02C0F4FF01C0F3FF0050E4CF74
:105620000DF0E4CF0CF0E4CF0BF0E4CF0AF0E4CFC0
:1056300009F0E4CF08F0E4CF07F0E4CF06F0E4CFC0
:1056400005F0E4CF04F0E4CF03F0E4CF02F0E4CFC0
:1056500001F0E4CF00F0E4CFD9FF1200D9CFE5FF8D
:10566000E1CFD9FF00C0E5FF01C0E5FF02C0E5FFC3
:1056700003C0E5FF04C0E5FF05C0E5FF020EDBCF78
:1056800000F0010E005CD8A065D0070E005CD8B019
:1056900061D069C701F06AC702F06BC703F0060E5C
:1056A0000126000E0222000E0322000600500126F1
:1056B000E86A0222E86A032201C0E9FF02C0F3FFA0
:1056C0000350F8EC3DF0016EFF0A24E169C701F0D8
:1056D0006AC702F06BC703F0060E0126000E022215
:1056E000000E032200500126E86A0222E86A032223
:1056F00001C0E9FF02C0F3FF0350F8EC3DF0046E77
:10570000040604C0E5FF01C0E9FF02C0F3FF035037
:105710005BEC3EF069C701F06AC702F06BC703F0AB
:10572000060E0126000E0222000E0322046A056AFC
:1057300001500026025004220350052200C0E9FF58
:1057400004C0F3FF0550F8EC3DF0006E810E00261A
:10575000005001D0800EE4CF05F0E4CF04F0E4CF98
:1057600003F0E4CF02F0E4CF01F0E4CF00F0E4CFA7
:10577000D9FF1200D9CFE5FFE1CFD9FF00C0E5FF87
:1057800001C0E5FF02C0E5FF03C0E5FF04C0E5FF7F
:1057900005C0E5FF06C0E5FF07C0E5FF08C0E5FF5F
:1057A00009C0E5FF0AC0E5FF0BC0E5FF0CC0E5FF3F
:1057B000020EDBCF00F0030EDBCF01F0040EDBCFD7
:1057C00002F0050EDBCF03F0060EDBCF04F0070E70
:1057D000DBCF05F0080EDBCF06F0090EDBCF07F0BC
:1057E00000C008F001C009F002C00AF006C00BF0CA
:1057F00007C00CF0FF0E0626D8A007060B500C10B1
:105800001CE003C0E9FF04C0F3FF0550F8EC3DF0D5
:105810000B6E032AD8B0042AD8B0052A0BC0E5FFC6
:1058200000C0E9FF01C0F3FF02505BEC3EF0002A2C
:10583000D8B0012AD8B0022AD9D70AC0F4FF09C0CB
:10584000F3FF0850E4CF0CF0E4CF0BF0E4CF0AF004
:10585000E4CF09F0E4CF08F0E4CF07F0E4CF06F09E
:10586000E4CF05F0E4CF04F0E4CF03F0E4CF02F09E
:10587000E4CF01F0E4CF00F0E4CFD9FF1200D9CF9C
:10588000E5FFE1CFD9FF00C0E5FF01C0E5FF02C0A1
:10589000E5FF03C0E5FFBA0EE56EBA0EE56EF5EC66
:1058A00039F0020EE126010EE56EA6EC2EF0E12A9B
:1058B000010EE56EF40EE56EBEEC39F0020EE12647
:1058C000BA0EE56E460EE56EF5EC39F0020EE126F5
:1058D000010EE56EA6EC2EF0E12A010EE56EF40E47
:1058E000E56EBEEC39F0020EE12612C700F013C7D8
:1058F00001F014C702F000C0E9FF01C0F3FF02503D
:10590000F8EC3DF0006E07010303F3CF00F012C77F
:1059100001F013C702F014C703F0012AD8B0022A1D
:10592000D8B0032A01C0E9FF02C0F3FF0350F8EC2E
:105930003DF0016E07010303F3CF01F00150E56E66
:105940000050E56EF5EC39F0020EE126010EE56E31
:10595000A6EC2EF0E12A000EE56E640EE56EBEECBC
:1059600039F0020EE126E4CF03F0E4CF02F0E4CFF9
:1059700001F0E4CF00F0E4CFD9FF1200D9CFE5FF6A
:10598000E1CFD9FF00C0E5FF01C0E5FF02C0E5FFA0
:1059900003C0E5FF04C0E5FF05C0E5FF06C0E5FF65
:1059A00007C0E5FF020EDBCF00F0030EDBCF01F0F6
:1059B000040EDBCF02F0050EDBCF03F002C006F0D1
:1059C0000650046E800A28E100C0E9FF01C0F3FF21
:1059D0000250E9EC3CF0056EF3CF06F0F4CF07F08F
:1059E00003C0E5FF05C0E9FF06C0F3FF07505BEC0D
:1059F0003EF0052AD8B0062AD8B0072A05C0E5FF30
:105A000006C0F4FF07C0F6FF00C0E9FF01C0F3FFC6
:105A1000025036EC3EF01ED004AA1CD0200E041A10
:105A2000045004E103508DEC3EF014D00450010A00
:105A300004E1035002EC04F00DD004500F0A04E11D
:105A400003500AEC04F006D004500E0A03E10350A0
:105A500099EC3EF0E4CF07F0E4CF06F0E4CF05F098
:105A6000E4CF04F0E4CF03F0E4CF02F0E4CF01F0A0
:105A7000E4CF00F0E4CFD9FF1200D9CFE5FFE1CFAA
:105A8000D9FF00C0E5FF01C0E5FF02C0E5FF03C08C
:105A9000E5FF04C0E5FF05C0E5FF06C0E5FF07C060
:105AA000E5FF020EDBCF00F0030EDBCF01F0040EAA
:105AB000DBCF02F0050EDBCF03F0D88001AED8902B
:105AC000046A0436045007E0011C066E001C056ED3
:105AD000054A062A04D000C005F001C006F005C042
:105AE00000F006C001F0D88003AED890056A0536F4
:105AF000055007E0031C076E021C066E064A072AC3
:105B000004D002C006F003C007F00750E56E06504F
:105B1000E56E0150E56E0050E56E32EC34F0006E3B
:105B2000F3CF01F0040EE1260550041A04500AE0F8
:105B3000011C036E001C026E024A032A03C0F3FF1D
:105B4000025003D001C0F3FF0050E4CF07F0E4CFD0
:105B500006F0E4CF05F0E4CF04F0E4CF03F0E4CFA7
:105B600002F0E4CF01F0E4CF00F0E4CFD9FF12005F
:105B7000D9CFE5FFE1CFD9FF00C0E5FF01C0E5FFC8
:105B800002C0E5FF03C0E5FFBA0EE56EBA0EE56E92
:105B9000F5EC39F0020EE126010EE56EA6EC2EF0D2
:105BA000E12A010EE56EF40EE56EBEEC39F0020E50
:105BB000E126460EE56EBA0EE56EF5EC39F0020E02
:105BC000E126010EE56EA6EC2EF0E12A0A0EE56E46
:105BD0008C0EE56EBEEC39F0020EE12612C700F025
:105BE00013C701F014C702F000C0E9FF01C0F3FFC2
:105BF0000250F8EC3DF0006E07010303F3CF00F014
:105C000012C701F013C702F014C703F0012AD8B07D
:105C1000022AD8B0032A01C0E9FF02C0F3FF0350F3
:105C2000F8EC3DF0016E07010303F3CF01F00150E2
:105C3000E56E0050E56EF5EC39F0020EE126010E3E
:105C4000E56EA6EC2EF0E12AE4CF03F0E4CF02F0FB
:105C5000E4CF01F0E4CF00F0E4CFD9FF1200D9CFB8
:105C6000E5FFE1CFD9FF00C0E5FF01C0E5FF02C0BD
:105C7000E5FF03C0E5FFBA0EE56EBA0EE56EF5EC82
:105C800039F0020EE126010EE56EA6EC2EF0E12AB7
:105C9000010EE56EF40EE56EBEEC39F0020EE12663
:105CA000460EE56EBA0EE56EF5EC39F0020EE12611
:105CB000010EE56EA6EC2EF0E12A010EE56EF40E63
:105CC000E56EBEEC39F0020EE12612C700F013C7F4
:105CD00001F014C702F000C0E9FF01C0F3FF025059
:105CE000F8EC3DF0006E07010303F3CF00F012C79C
:105CF00001F013C702F014C703F0012AD8B0022A3A
:105D0000D8B0032A01C0E9FF02C0F3FF0350F8EC4A
:105D10003DF0016E07010303F3CF01F00150E56E82
:105D20000050E56EF5EC39F0020EE126010EE56E4D
:105D3000A6EC2EF0E12AE4CF03F0E4CF02F0E4CFAA
:105D400001F0E4CF00F0E4CFD9FF1200D9CFE5FF96
:105D5000E1CFD9FF00C0E5FF01C0E5FF02C0E5FFCC
:105D600003C0E5FF04C0E5FF05C0E5FF06C0E5FF91
:105D7000020EDBCF00F00701DA51020A02E139EC32
:105D800024F07F0E0701D115016E0701D16F0701C5
:105D90006C51200DF3CF01F0F4CF02F0000E01267C
:105DA000020E02220150800E036E070E056EBC0E1D
:105DB000046E800E066E000EE56E200EE56E065037
:105DC000E56E0550E56E0450E56E0350E56E025039
:105DD000E56E0150E56EBAEC2BF0080EE1269D96BB
:105DE00007016C51D880E866D89007016C6B6C375E
:105DF0000201F1839D86D9C701F0012A01500701F4
:105E0000D96F0050010A05E169EC3DF0006E0050C9
:105E1000FBE0E4CF06F0E4CF05F0E4CF04F0E4CFFC
:105E200003F0E4CF02F0E4CF01F0E4CF00F0E4CFE0
:105E3000D9FF12001CEF2FF0F4EC15F01EEF2FF03D
:105E4000E806E56E630E7EEC2FF0E4500BE000D028
:105E5000E56E630E7EEC2FF000D000D00000E45021
:105E6000E82EF6D71200E806E56E090E20EC2FF0BA
:105E7000630E7EEC2FF0E4500EE000D0E56E090ECC
:105E800020EC2FF0630E7EEC2FF000D000D000004D
:105E9000E450E82EF3D71200E806E56E630E33EC0B
:105EA0002FF0630E6BEC2FF0090E7EEC2FF0E45018
:105EB00011E000D0E56E630E33EC2FF0630E6BEC57
:105EC0002FF0090E7EEC2FF000D000D00000E4503F
:105ED000E82EF0D71200E806E56E090E7EEC2FF0F2
:105EE000E4500BE000D0E56E090E7EEC2FF000D000
:105EF000E450000000D0E82EF6D71200E8060000BB
:105F0000E85007E000D000D000D000D00000E82E1C
:105F1000FAD71200D9CFE5FFE1CFD9FF00C0E5FFE6
:105F200001C0E5FF02C0E5FFDAEC34F038EC3DF0EB
:105F3000010E006E090E005C0AE2000EE56E0050D4
:105F4000E56E61EC3AF0020EE126002AF3D7080E66
:105F5000006E100E005C0EE2C00E0024016E026A9C
:105F6000070E022201C0E9FF02C0EAFF7F0EEF6EBA
:105F7000002AEFD7010E006E090E005C0AE2010E46
:105F8000E56E0050E56EDCEC36F0020EE126002AEC
:105F9000F3D7010E006E050E005C07E20050E56EBF
:105FA000C8EC35F0E12A002AF6D70701D96B010EBB
:105FB0000701DA6FC90E0701DB6F0201F185F1916C
:105FC000000EE56EA6EC2EF0E12A50EC3EF069ECF6
:105FD0003DF0006E0050FBE064EC3CF0E4CF02F0DA
:105FE000E4CF01F0E4CF00F0E4CFD9FF1200D9CF25
:105FF000E5FFE1CFD9FF00C0E5FF01C0E5FF02C02A
:10600000E5FF03C0E5FF04C0E5FF05C0E5FF06C0EE
:10601000E5FF07C0E5FF020EDBCF00F0030EDBCF8C
:1060200001F0040EDBCF02F0050EDBCF03F0060E0D
:10603000DBCF04F0070EDBCF05F0080EDBCF06F058
:10604000090EDBCF07F00201EE6B0050010A02E1FE
:10605000015001E004D0010E0201EE6F01D0BA6AD6
:106060000250010A02E1035001E003D00201EE8375
:1060700001D0B76A0450010A02E1055001E003D0E3
:106080000201EE8501D0736A0650010A02E1075051
:1060900001E003D00201EE8701D0706AE4CF07F07F
:1060A000E4CF06F0E4CF05F0E4CF04F0E4CF03F052
:1060B000E4CF02F0E4CF01F0E4CF00F0E4CFD9FF69
:1060C0001200D9CFE5FFE1CFD9FF00C0E5FF01C045
:1060D000E5FF02C0E5FF020EDBCF00F0030EDBCFD1
:1060E00001F0040EDBCF02F00F0E0014C66E02505A
:1060F00003E0800E026E01D0026A02C0C7FF040EE8
:10610000015C2EE203C0E5FF04C0E5FF046A013430
:106110000436E8340436FC0B036E000EFB6E610E91
:10612000FA6E3A0E03260450FA22D8B0FB2A035026
:10613000E4CF04F0E4CF03F0F96EA5EF30F0A8EF60
:1061400030F0ABEF30F0AEEF30F0C698C78C08D02F
:10615000C698C79C05D0C688C78C02D0C688C79C85
:106160000050050A03E19486C79E06D00050010A3C
:1061700002E1928A01D09496949A9488978EF19C29
:10618000F288C68AE4CF02F0E4CF01F0E4CF00F059
:10619000E4CFD9FF1200D9CFE5FFE1CFD9FF00C08E
:1061A000E5FF020EDBCF00F0010E005CD8A055D059
:1061B000050E005CD8B051D0000601C0E5FF02C05A
:1061C000E5FF026A00340236E8340236FC0B016E49
:1061D000000EFB6E610EFA6EF00E01260250FA22DE
:1061E000D8B0FB2A0150E4CF02F0E4CF01F0F96E01
:1061F00000EF31F00CEF31F017EF31F023EF31F019
:10620000CD90CD8ECF0ECD14006E300E0010CD6E21
:106210009E909D80CD8021D0CA94FC0ECA14006E41
:10622000020E0010CA6E9E929D82CA8416D0B19052
:10623000B18ECF0EB114006E300E0010B16EA1926F
:10624000A082B1800AD07694FC0E7614006E020E05
:106250000010766EA496A3867684E4CF00F0E4CF97
:10626000D9FF1200D9CFE5FFE1CFD9FF00C0E5FF8C
:1062700001C0E5FF02C0E5FF03C0E5FF04C0E5FF84
:1062800005C0E5FF06C0E5FF020EDBCF00F0030E00
:10629000DBCF01F0040EDBCF02F0050EDBCF03F005
:1062A000060EDBCF04F0070EDBCF05F0080EDBCFC8
:1062B00006F0D88003AED89016E306500A0A13E120
:1062C00004C0E9FF05C0EAFF2D0EEF6E042AD8B026
:1062D000052A031E021E011E006C05E1012A03E1CE
