:020000040000FA
:10080000CAEF2AF0C96E120075EF0EF0006AC2B28C
:06081000002A0050120056
:08081800E7EF09F0D9CFE5FF7D
:10082000E1CFD9FF00C0E5FF01C0E5FF02C0E5FF51
:1008300003C0E5FF04C0E5FF05C0E5FF06C0E5FF16
:1008400007C0E5FF08C0E5FF09C0E5FF0AC0E5FFF6
:100850000BC0E5FF0CC0E5FF0DC0E5FF0EC0E5FFD6
:100860000FC0E5FF10C0E5FF11C0E5FF12C0E5FFB6
:1008700013C0E5FF14C0E5FF15C0E5FF16C0E5FF96
:1008800017C0E5FF18C0E5FF19C0E5FF1AC0E5FF76
:100890001BC0E5FF1CC0E5FF1DC0E5FF1EC0E5FF56
:1008A000020EDBCF00F0030EDBCF01F0040EDBCF36
:1008B00002F0050EDBCF03F0060EDBCF04F0070ECF
:1008C000DBCF05F0080EDBCF06F0090EDBCF07F01B
:1008D0000A0EDBCF08F0096A0A6A02C00DF00D505B
:1008E000800A0CE100C074F201C075F202C076F219
:1008F000020E016E740E006E800E026E03C0E9FFE0
:1009000004C0F3FF055004EC2BF00B6E0B50D8B471
:10091000DFEF07F00B50250A02E0C4EF07F00C6A86
:100920000D6A0E6A0F6A106A0A0E116E126A136A55
:10093000146A200E156E1668176A2B0E186E032A9D
:10094000D8B0042AD8B0052A03C0E9FF04C0F3FFD9
:10095000055004EC2BF0196E250A15E11950E56ECF
:100960000250E56E0150E56E0050E56E8BEC1BF019
:10097000040EE126092AD8B00A2A032AD8B0042A8C
:10098000D8B0052ABBD71950300A07E1300E156ED2
:10099000032AD8B0042AD8B0052A03C0E9FF04C04E
:1009A000F3FF055004EC2BF02D0A07E1010E146E45
:1009B000032AD8B0042AD8B0052A03C0E9FF04C02E
:1009C000F3FF055004EC2BF0200A09E1010E176E2D
:1009D000200E186E032AD8B0042AD8B0052A03C006
:1009E000E9FF04C0F3FF055004EC2BF02B0A07E1EC
:1009F000010E176E032AD8B0042AD8B0052A03C006
:100A0000E9FF04C0F3FF055004EC2BF0196E800FD2
:100A10004F0F2EE31950800F460F2AE203C019F042
:100A200004C01AF005C01BF019C0E9FF1AC0F3FF9B
:100A30001B5004EC2BF01C6E800F500F13E31C5066
:100A4000800F460F0FE213500A0DF3CF1DF01D501B
:100A50001C26D00E1C24136E192AD8B01A2AD8B01E
:100A60001B2AE2D719C003F01AC004F01BC005F01E
:100A700003C0E9FF04C0F3FF055004EC2BF02E0A7D
:100A800030E1032AD8B0042AD8B0052A166A03C078
:100A900019F004C01AF005C01BF019C0E9FF1AC014
:100AA000F3FF1B5004EC2BF01C6E800F500F13E370
:100AB0001C50800F460F0FE216500A0DF3CF1DF0A9
:100AC0001D501C26D00E1C24166E192AD8B01A2AC6
:100AD000D8B01B2AE2D719C003F01AC004F01BC01B
:100AE00005F003C0E9FF04C0F3FF055004EC2BF050
:100AF000196E6C0A08E1010E0C6E032AD8B0042AA4
:100B0000D8B0052A0AD01950680A07E1010E0E6E06
:100B1000032AD8B0042AD8B0052A03C0E9FF04C0CC
:100B2000F3FF055004EC2BF0750A07E1010E106E7F
:100B3000032AD8B0042AD8B0052A03C0E9FF04C0AC
:100B4000F3FF055004EC2BF0196E730A05E1010E5A
:100B50000D6E200E156E41D01950780A03E1100E6B
:100B6000116E3BD01950580A05E1100E116E010E9E
:100B7000126E33D01950630A02E1116A2ED0195057
:100B80006F0A03E1080E116E28D01950660A03E1BE
:100B9000010E0F6E22D01950640A1FE01950690A25
:100BA0001CE0105005E0FF0E03260422052215D09C
:100BB0001950E56E0250E56E0150E56E0050E56E8D
:100BC0008BEC1BF0040EE126092AD8B00A2A032A6E
:100BD000D8B0042AD8B0052A91D60D5021E006508D
:100BE000030F0D6E000E0720196E000E08201A6EFE
:100BF0000DC006F019C007F01AC008F0FD0E0D2652
:100C0000FF0E19221A220DC0E9FF19C0F3FF1A5076
:100C100009EC2AF00D6EF3CF19F0F4CF1AF000D1E1
:100C20000F500DE0460E0D6E100E196E000E1A6E6E
:100C3000040E0626000E072208221668F1D0166858
:100C40000C5023E00650040F0C6E000E07200F6EB0
:100C5000000E08201B6E0CC006F00FC007F01BC072
:100C600008F0FC0E0C26FF0E0F221B220CC0E9FF21
:100C70000FC0F3FF1B50CAEC29F00C6EF3CF0FF03E
:100C8000F4CF1BF0E9CF1CF06AD00E5032E00650D2
:100C9000020F0E6E000E07201D6E000E08201E6E45
:100CA0000EC006F01DC007F01EC008F0FE0E0E2696
:100CB000FF0E1D221E220EC0E9FF1DC0F3FF1E50B5
:100CC0009FEC2AF00E6E0EC00CF0E86A0EBEFF0E0E
:100CD0000F6E1B6E1C6E11500A0A03E11050D8B43F
:100CE0003ED00C500E6E0EC00CF00F6A1B6A1C6AD0
:100CF00036D00650020F0E6E000E07201D6E000E3D
:100D000008201E6E0EC006F01DC007F01EC008F0C1
:100D1000FE0E0E26FF0E1D221E220EC0E9FF1DC074
:100D2000F3FF1E509FEC2AF00E6EF3CF1DF00EC0A5
:100D30000CF01DC00FF0E86A1DBEFF0E1B6E1C6E8E
:100D400011500A0A02E110500AE00C500E6E0F50CA
:100D50001D6E0EC00CF01DC00FF01B6A1C6A070E42
:100D6000196EE10E0D6E800E1A6E1150D8B440D07F
:100D7000105013E01150E56E070EE56EE10EE56EC2
:100D80001C50E56E1B50E56E0F50E56E0C50E56E85
:100D9000A8EC12F0070EE12612D01150E56E070EF6
:100DA000E56EE10EE56E1C50E56E1B50E56E0F50D2
:100DB000E56E0C50E56E33EC21F0070EE12617507E
:100DC0002FE00DC0E9FF19C0F3FF1A5004EC2BF01F
:100DD0002D0A26E0FF0E0D2619221A2218C0E5FF63
:100DE0000DC0E9FF19C0F3FF1A504BEC2BF018D0DF
:100DF0000CC0E5FF0DC0E9FF19C0F3FF1A504BEC22
:100E00002BF00D50010F0C6E000E19200E6E000E0F
:100E10001A20E56A0CC0E9FF0EC0F3FF4BEC2BF083
:100E20000DC00CF019C00EF01AC00FF013C010F076
:100E3000105011E00CC0E9FF0EC0F3FF0F5004EC9E
:100E40002BF0176E175007E00C2AD8B00E2AD8B036
:100E50000F2A1006EDD710C013F014501FE109C07F
:100E60000CF00AC00EF010C00FF00F5011E015503A
:100E7000E56E0250E56E0150E56E0050E56E8BECBC
:100E80001BF0040EE1260C2AD8B00E2A0F06EDD76F
:100E90000CC009F00EC00AF00FC013F016C00CF021
:100EA0000DC00DF019C00EF01AC00FF009C010F0FF
:100EB0000AC015F00DC0E9FF0EC0F3FF0F5004EC9F
:100EC0002BF0166E1650D8B440D00CC016F0176A2E
:100ED000161E171E1650171005E00CC016F00C0653
:100EE000165033E00DC0E9FF0EC0F3FF0F5004ECC5
:100EF0002BF0116E125010E01150E56E72EC2AF0DA
:100F0000166EE12A165004E0DF0E1114166E02D0A0
:100F100011C016F016C011F01150E56E0250E56ECA
:100F20000150E56E0050E56E8BEC1BF0040EE126DF
:100F30000D2AD8B00E2AD8B00F2A102AD8B0152AF8
:100F40001350D8B4B7D71306B5D710C009F015C0E1
:100F50000AF014502DE010C00CF015C00DF013C0B5
:100F60000EF00E5021E0200EE56E0250E56E0150AD
:100F7000E56E0050E56E8BEC1BF0040EE1260C2AAA
:100F8000D8B00D2A0E06EDD70B50E56E0250E56E77
:100F90000150E56E0050E56E8BEC1BF0040EE1266F
:100FA000092AD8B00A2A04D00CC009F00DC00AF0F2
:100FB000032AD8B0042AD8B0052A7EEF04F00AC06C
:100FC000F3FF0950E4CF1EF0E4CF1DF0E4CF1CF096
:100FD000E4CF1BF0E4CF1AF0E4CF19F0E4CF18F01F
:100FE000E4CF17F0E4CF16F0E4CF15F0E4CF14F01F
:100FF000E4CF13F0E4CF12F0E4CF11F0E4CF10F01F
:10100000E4CF0FF0E4CF0EF0E4CF0DF0E4CF0CF01E
:10101000E4CF0BF0E4CF0AF0E4CF09F0E4CF08F01E
:10102000E4CF07F0E4CF06F0E4CF05F0E4CF04F01E
:10103000E4CF03F0E4CF02F0E4CF01F0E4CF00F01E
:10104000E4CFD9FF12003C4E4F20464C4F41543E56
:101050000000D9CFE5FFE1CFD9FF00C0E5FF01C017
:10106000E5FF02C0E5FF03C0E5FF04C0E5FF05C0E2
:10107000E5FF06C0E5FF07C0E5FF08C0E5FF09C0C2
:10108000E5FF020EDBCF00F0010E005CD8A084D19A
:10109000050E005CD8B080D100060AC0E5FF0BC089
:1010A000E5FF0B6A00340B36E8340B36FC0B0A6E96
:1010B000000EFB6E100EFA6ED00E0A260B50FA22AE
:1010C000D8B0FB2A0A50E4CF0BF0E4CF0AF0F96E57
:1010D00070EF08F0C1EF08F01EEF09F06FEF09F0B4
:1010E000FAEC16F0006EF3CF01F0F4CF02F0E9CF86
:1010F00003F0300ECD14046E04380F0B046E010E95
:10110000056E000E066E045006E0E86CD8900536B9
:101110000636010FFCE30650E56E0550E56E270E1E
:10112000E56E100EE56E0AEC1CF0046EF3CF05F0D0
:10113000040EE126E86A05BEFF0E066E076EE56E38
:101140000650E56E0550E56E0450E56E0350E56E01
:101150000250E56E0150E56E0050E56E6DEC19F041
:10116000006EF3CF01F0F4CF02F0E9CF03F0080EE8
:10117000E12603C0E9FF02C0F4FF01C0F3FF005005
:101180000FD144EC25F0006EF3CF01F0F4CF02F064
:10119000E9CF03F0030ECA14046E056A0450066E0C
:1011A00006260534076E010E086E000E096E065005
:1011B0000FE007E6E86CD89008360936010FFCE32B
:1011C00007D0D89009BED88009320832010FFAE35F
:1011D0000950E56E0850E56E270EE56E100EE56EBF
:1011E0000AEC1CF0046EF3CF05F0040EE126E86A69
:1011F00005BEFF0E066E076EE56E0650E56E0550E5
:10120000E56E0450E56E0350E56E0250E56E015048
:10121000E56E0050E56E6DEC19F0006EF3CF01F055
:10122000F4CF02F0E9CF03F0080EE12603C0E9FF96
:1012300002C0F4FF01C0F3FF0050B2D058EC16F02A
:10124000006EF3CF01F0F4CF02F0E9CF03F0300EDF
:10125000B114046E04380F0B046E010E056E000EFF
:10126000066E045006E0E86CD89005360636010F8D
:10127000FCE30650E56E0550E56E270EE56E100E98
:10128000E56E0AEC1CF0046EF3CF05F0040EE126C7
:10129000E86A05BEFF0E066E076EE56E0650E56E47
:1012A0000550E56E0450E56E0350E56E0250E56EA4
:1012B0000150E56E0050E56E6DEC19F0006EF3CF55
:1012C00001F0F4CF02F0E9CF03F0080EE12603C0ED
:1012D000E9FF02C0F4FF01C0F3FF005061D0FFEC52
:1012E00024F0006EF3CF01F0F4CF02F0E9CF03F069
:1012F000030E7614046E056A0450066E0626053445
:10130000076E010E086E000E096E06500FE007E62C
:10131000E86CD89008360936010FFCE307D0D89066
:1013200009BED88009320832010FFAE30950E56E90
:101330000850E56E270EE56E100EE56E0AEC1CF007
:10134000046EF3CF05F0040EE126E86A05BEFF0E39
:10135000066E076EE56E0650E56E0550E56E0450AC
:10136000E56E0350E56E0250E56E0150E56E0050EB
:10137000E56E6DEC19F0006EF3CF01F0F4CF02F0E2
:10138000E9CF03F0080EE12603C0E9FF02C0F4FF35
:1013900001C0F3FF005004D0E96AF46AF36AE86A16
:1013A000E4CF09F0E4CF08F0E4CF07F0E4CF06F093
:1013B000E4CF05F0E4CF04F0E4CF03F0E4CF02F093
:1013C000E4CF01F0E4CF00F0E4CFD9FF1200E8CF82
:1013D000E5FFD8CFE5FFE0CFE5FFF3CFE5FFF4CFA2
:1013E000E5FFE9CFE5FFEACFE5FFFACFE5FFFBCF69
:1013F000E5FFD9CFE5FFE1CFD9FF00C0E5FF01C090
:10140000E5FF02C0E5FF03C0E5FF04C0E5FF05C03E
:10141000E5FF06C0E5FF07C0E5FF08C0E5FF09C01E
:10142000E5FF0AC0E5FF80CF93F285CF94F287CF26
:1014300095F2F2A0ACD081CF00F0F290100E016EC8
:10144000026A030E036E046A0450800F800F02E1EB
:10145000070E035CD8B09BD007015F510018056EE2
:10146000066A015005160250061605500610D8B43B
:1014700087D000C005F0066A015005160250061616
:1014800005500610D8B45ED00304056E530E052433
:10149000066E076A05BE0768070E072206C0E9FF49
:1014A00007C0EAFFEFCF06F00650010A21E1000E67
:1014B00005BEFF0ED8900534076E086A07BE08689F
:1014C000470E0726070E082207C0E9FF08C0EAFFFB
:1014D000EECF09F0EFCF0AF0092AD8B00A2A07C0E8
:1014E000E9FF08C0EAFF09C0EEFF0AC0EFFF1FD006
:1014F0000650020A07E10350066EE56EB0EC11F0EB
:10150000E12A15D0066A05BE06682F0E0526070ECD
:10151000062205C0E9FF06C0EAFFEFCF05F005503F
:1015200006E00350056EE56E3EEC18F0E12A5FC759
:1015300005F0066A01500512025006120550070117
:101540005F6F1ED00350056E0506066A05BE06686D
:101550002F0E0526070E062205C0E9FF06C0EAFF8A
:10156000EFCF05F0055006E00350056EE56EB3ECD5
:1015700015F0E12A0150056E051E055007015F17A1
:10158000032AD8B0042A0150012602365DD7F0A202
:101590002ED0F09253C700F00050010A0FE107016E
:1015A0004751010F016E000E07014821026E0150E4
:1015B0000701476F02500701486F19D00050020A17
:1015C00006E1010EE56EB0EC11F0E12A10D0070142
:1015D0002F510DE0F1A806D0010EE56E3EEC18F09B
:1015E000E12A05D0010EE56EB3EC15F0E12AF0A476
:1015F0002ED0F09454C700F00050010A0FE107010B
:101600004951010F016E000E07014A21026E01507F
:101610000701496F025007014A6F19D00050020AB2
:1016200006E1020EE56EB0EC11F0E12A10D00701E0
:1016300030510DE0F1A606D0020EE56E3EEC18F03A
:10164000E12A05D0020EE56EB3EC15F0E12AF2A412
:1016500006D0F29402017B2B02E302017C2B9EA0B8
:1016600006D09E9002017D2B02E302017E2B9EA2FA
:101670000ED09E920201602B02E30201612B02E375
:101680000201622B02E30201632B0201636BA1A240
:1016900006D0A19202017F2B02E30201802BA4A6B7
:1016A0000ED0A4960201642B02E30201652B02E333
:1016B0000201662B02E30201672B0201676BE4CF94
:1016C0000AF0E4CF09F0E4CF08F0E4CF07F0E4CF6C
:1016D00006F0E4CF05F0E4CF04F0E4CF03F0E4CF6C
:1016E00002F0E4CF01F0E4CF00F0E4CFD9FFE4CF83
:1016F000FBFFE4CFFAFFE4CFEAFFE4CFE9FFE4CF5A
:10170000F4FFE4CFF3FFE4CFE0FFE4CFD8FFE4CF72
:10171000E8FF1000D9CFE5FFE1CFD9FF00C0E5FF1A
:1017200001C0E5FF02C0E5FF03C0E5FF04C0E5FF1F
:1017300005C0E5FF06C0E5FF07C0E5FF08C0E5FFFF
:1017400009C0E5FF0AC0E5FF0BC0E5FF0CC0E5FFDF
:101750000DC0E5FF0EC0E5FF0FC0E5FF10C0E5FFBF
:1017600011C0E5FF12C0E5FF020EDBCF00F0030E53
:10177000DBCF01F0040EDBCF02F0050EDBCF03F070
:10178000060EDBCF04F0070EDBCF05F0080EDBCF33
:1017900006F0090EDBCF07F00A0EDBCF08F0D88089
:1017A00000AED890096A09360950D880E866D8900A
:1017B0000A6A0A360A5006E000C00BF00C6A00BE46
:1017C0000C680BD000C00DF00E6A00BE0E680E1C37
:1017D0000C6E0D1C0B6E0B4A0C2AD88001AED890F3
:1017E0000D6A0D360D50D880E866D8900E6A0E3618
:1017F0000E5006E001C00FF0106A01BE10680BD059
:1018000001C011F0126A01BE1268121C106E111C88
:101810000F6E0F4A102A0A5006E000C00AF0116A43
:1018200000BE116809D0126A00BE1268121C116E47
:10183000001C0A6E0A4A112A1150800F800F02E123
:10184000800E0A5C1CE20E5006E001C000F00A6A3D
:1018500001BE0A6809D00E6A01BE0E680E1C0A6E2F
:10186000011C006E004A0A2A0A50800F800F02E114
:10187000800E005C04E20250800FFF0F02E2800E37
:10188000B2D00F507F08006E000E1054016EE56E4E
:101890000050E56E0C50E56E0B50E56E1AEC24F02E
:1018A000006EF3CF01F0040EE126000EE56E7F0E10
:1018B000E56E0150E56E0050E56E0AEC1CF0006E1E
:1018C000F3CF01F0040EE1260F5000261050012244
:1018D0000A6A02BE0A680A50E56E0250E56E0150BF
:1018E000E56E0050E56E1AEC24F0006EF3CF01F0C7
:1018F000040EE126000EE56E7F0EE56E0150E56EEA
:101900000050E56E0AEC1CF0006EF3CF01F0040EFF
:10191000E12600C077F201C078F20B500F5C0B6E2D
:101920000C5010580C6E0A50E56E0250E56E0C50CB
:10193000E56E0B50E56E1AEC24F0026EF3CF0AF060
:10194000040EE126000EE56E7F0EE56E0A50E56E90
:101950000250E56E0AEC1CF0026EF3CF0AF0040EA2
:10196000E12602C079F20AC07AF20D500BE109506B
:1019700021E000C079F201C07AF202C077F20AC019
:1019800078F218D0095008E102C077F20AC078F264
:1019900000C079F201C07AF20201781F0201776D6E
:1019A00002E10201782B02017A1F0201796D02E146
:1019B00002017A2B02017751006E00C0E5FF03C0DF
:1019C000E9FF04C0F3FF05504BEC2BF00201795105
:1019D000006E00C0E5FF06C0E9FF07C0F3FF085036
:1019E0004BEC2BF0E86AE4CF12F0E4CF11F0E4CF37
:1019F00010F0E4CF0FF0E4CF0EF0E4CF0DF0E4CF21
:101A00000CF0E4CF0BF0E4CF0AF0E4CF09F0E4CF20
:101A100008F0E4CF07F0E4CF06F0E4CF05F0E4CF20
:101A200004F0E4CF03F0E4CF02F0E4CF01F0E4CF20
:101A300000F0E4CFD9FF1200D9CFE5FFE1CFD9FF05
:101A400000C0E5FF01C0E5FF02C0E5FF03C0E5FF00
:101A500004C0E5FF05C0E5FF06C0E5FF07C0E5FFE0
:101A600008C0E5FF09C0E5FF0AC0E5FF0BC0E5FFC0
:101A70000CC0E5FF0DC0E5FF0EC0E5FF0FC0E5FFA0
:101A8000100EE56E84EC13F0006EE12A005003E1C5
:101A9000BCEC22F002D015EC29F0000EE56E85ECCE
:101AA0001CF0E12A9CEC17F0006EF3CF01F0F4CFAC
:101AB00002F0E9CF03F0D5A604D0010E046E056A4A
:101AC0000FD0070ED514066E020E046E000E056EC2
:101AD000065006E0E86CD89004360536010FFCE3AA
:101AE0000550E56E0450E56E270EE56E100EE56EAE
:101AF0000AEC1CF0046EF3CF05F0040EE126E86A50
:101B000005BEFF0E066E076EE56E0650E56E0550CB
:101B1000E56E0450E56E0350E56E0250E56E01502F
:101B2000E56E0050E56E6DEC19F0006EF3CF01F03C
:101B3000F4CF02F0E9CF03F0080EE126000EE56EC7
:101B4000000EE56E030EE56EE80EE56E0350E56EE1
:101B50000250E56E0150E56E0050E56E6DEC19F037
:101B60000201586FF3CF59F2F4CF5AF2E9CF5BF28A
:101B7000080EE12602015B5107011E5D0EE1020124
:101B80005A5107011D5D09E10201595107011C5D10
:101B900004E10201585107011B5DD8B083D058C23F
:101BA0001BF759C21CF75AC21DF75BC21EF7100E75
:101BB000E56E84EC13F0006EE12A016A00BE016854
:101BC000060EE56EFAEC19F0026EE12A036A02BE17
:101BD0000368050EE56EFAEC19F0046EE12A056A59
:101BE00004BE0568040EE56EFAEC19F0066EE12AF3
:101BF000076A06BE0768030EE56EFAEC19F0086E78
:101C0000E12A096A08BE0968020EE56EFAEC19F0CD
:101C10000A6EE12A0B6A0ABE0B68010EE56EFAEC49
:101C200019F00C6EE12A0D6A0CBE0D68C8EC26F0A6
:101C30000E6E0F6A0EBE0F680150E56E0050E56E25
:101C40000350E56E0250E56E0550E56E0450E56EFA
:101C50000750E56E0650E56E0950E56E0850E56EDA
:101C60000B50E56E0A50E56E0D50E56E0C50E56EBA
:101C70000F50E56E0E50E56E02015B51E56E0201FC
:101C80005A51E56E02015951E56E02015851E56E57
:101C9000000EE56E360EE56E980EE56E3EEC27F012
:101CA000170EE126E4CF0FF0E4CF0EF0E4CF0DF0F5
:101CB000E4CF0CF0E4CF0BF0E4CF0AF0E4CF09F06E
:101CC000E4CF08F0E4CF07F0E4CF06F0E4CF05F06E
:101CD000E4CF04F0E4CF03F0E4CF02F0E4CF01F06E
:101CE000E4CF00F0E4CFD9FF1200E8CFE5FFD8CF72
:101CF000E5FFE0CFE5FFF3CFE5FFF4CFE5FFE9CF68
:101D0000E5FFEACFE5FFFACFE5FFFBCFE5FFD9CF4F
:101D1000E5FFE1CFD9FF00C0E5FF01C0E5FF02C04C
:101D2000E5FFF2A29BD0F292200E0201906F9F86F7
:101D300007012351D880E866D890006A0036005029
:101D4000200DF3CF00F0F4CF01F0600E0026070E57
:101D50000122015002016C6F005002016B6F800E76
:101D600002016D6F07012751D880E866D890006A9C
:101D700000360050200DF3CF00F0F4CF01F0A00E9C
:101D80000026070E012201500201696F0050020176
:101D9000686F800E02016A6F24C700F025C701F04A
:101DA00026C702F0002AD8B0012AD8B0022A00C003
:101DB000E9FF01C0F3FF025004EC2BF0E844E844D3
:101DC000010B006E00502FE007012751D880E86614
:101DD000D890006A00360050200DF3CF00F0016A61
:101DE000A00E0026070E01221D0E0026D8B0012AE3
:101DF00000C0E9FF01C0EAFF28C7EFFF0701275134
:101E0000200DF3CF00F0016AA00E0026070E01227C
:101E10001D0E0026D8B0012A00C0E9FF01C0EAFF6C
:101E200028C7EFFF282BC9CF91F268C200F069C222
:101E300001F06AC202F000C0E9FF01C0F3FF0250E6
:101E400004EC2BF0006E0201682B02E30201692B07
:101E500002E302016A2B00C0C9FF57D09EA655D0ED
:101E60009E966BC200F06CC201F06DC202F0C9CF49
:101E7000E5FF00C0E9FF01C0F3FF02504BEC2BF07F
:101E800002016B2B02E302016C2B02E302016D2BBA
:101E900068C200F069C201F06AC202F000C0E9FF46
:101EA00001C0F3FF025004EC2BF0006E0201682B1E
:101EB00002E30201692B02E302016A2B00C0C9FFA1
:101EC00002019007905121E1020E02011E6F0201F2
:101ED0009293928107012351D880E866D890070138
:101EE000236B23372351200DF3CF00F0F4CF01F003
:101EF000600E0026070E012201500701256F0050D9
:101F00000701246F800E0701266FE4CF02F0E4CFB3
:101F100001F0E4CF00F0E4CFD9FFE4CFFBFFE4CF42
:101F2000FAFFE4CFEAFFE4CFE9FFE4CFF4FFE4CF28
:101F3000F3FFE4CFE0FFE4CFD8FFE4CFE8FF1000E9
:101F4000D9CFE5FFE1CFD9FF00C0E5FF01C0E5FF34
:101F500002C0E5FF03C0E5FF020EDBCF00F0030E79
:101F6000DBCF01F000500201965D0EE2110E005C25
:101F7000026A0236025008E10050E56E01EC15F0ED
:101F8000036EE12A035002E0800EDDD0010E005CFA
:101F9000D8A0D6D00250D8A4D3D0000604C0E5FF04
:101FA00005C0E5FF056A00340536E8340536FC0B4C
:101FB000046E000EFB6E1F0EFA6ED20E0426055044
:101FC000FA22D8B0FB2A0450E4CF05F0E4CF04F0A5
:101FD000F96E09EF10F011EF10F01AEF10F024EF86
:101FE00010F02EEF10F038EF10F040EF10F049EF46
:101FF00010F053EF10F05DEF10F066EF10F070EF9F
:1020000010F07AEF10F083EF10F08DEF10F097EFF3
:1020100010F00150010BF46E8950FE0BF410896E24
:1020200091D00150010BE844F46E8950FD0BF4107F
:10203000896E88D00150010BE844E844F46E895061
:10204000FB0BF410896E7ED00150010BE838E8409C
:10205000F46E8950F70BF410896E74D00150010BA7
:10206000E838E844F46E8950DF0BF410896E6AD0CA
:102070000150010BF46E8E50FE0BF4108E6E62D088
:102080000150010BE844F46E8E50FD0BF4108E6E7F
:1020900059D00150010BE844E844F46E8E50FB0B1C
:1020A000F4108E6E4FD00150010BE838E840F46E0A
:1020B0008E50F70BF4108E6E45D00150010BE838AE
:1020C000F46E8E50EF0BF4108E6E3CD00150010B6D
:1020D000E838E844F46E8E50DF0BF4108E6E32D088
:1020E0000150010BE840E840F46E8E50BF0BF41035
:1020F0008E6E28D00150010BE838F46E9050EF0B33
:10210000F410906E1FD00150010BE838E844F46ED3
:102110009050DF0BF410906E15D00150010BE84089
:10212000E840F46E9050BF0BF410906E0BD001504D
:10213000010BE840F46E90507F0BF410906E02D0CB
:10214000800E01D0E86AE4CF03F0E4CF02F0E4CFE0
:1021500001F0E4CF00F0E4CFD9FF1200D9CFE5FFC2
:10216000E1CFD9FF00C0E5FF01C0E5FF02C0E5FFF8
:10217000020EDBCF00F0030EDBCF01F000500201B6
:10218000965D06E2110E005C026A0236025002E021
:10219000800EDDD0010E005CD8A0D6D00250D8A4AD
:1021A000D3D0000603C0E5FF04C0E5FF046A003495
:1021B0000436E8340436FC0B036E000EFB6E210E71
:1021C000FA6EDA0E03260450FA22D8B0FB2A035026
:1021D000E4CF04F0E4CF03F0F96E0DEF11F015EF4A
:1021E00011F01EEF11F028EF11F032EF11F03CEF7B
:1021F00011F044EF11F04DEF11F057EF11F061EFD6
:1022000011F06AEF11F074EF11F07EEF11F087EF2B
:1022100011F091EF11F09BEF11F00150010BF46EF2
:102220009250FE0BF410926E91D00150010BE844D5
:10223000F46E9250FD0BF410926E88D00150010B99
:10224000E844E844F46E9250FB0BF410926E7ED09A
:102250000150010BE838E840F46E9250F70BF4108F
:10226000926E74D00150010BE838E844F46E92503D
:10227000DF0BF410926E6AD00150010BF46E975090
:10228000FE0BF410976E62D00150010BE844F46E1F
:102290009750FD0BF410976E59D00150010BE84494
:1022A000E844F46E9750FB0BF410976E4FD001503A
:1022B000010BE838E840F46E9750F70BF410976E76
:1022C00045D00150010BE838F46E9750EF0BF41035
:1022D000976E3CD00150010BE838E844F46E9750FB
:1022E000DF0BF410976E32D00150010BE840E8404C
:1022F000F46E9750BF0BF410976E28D00150010B6D
:10230000E838F46E9950EF0BF410996E1FD001501D
:10231000010BE838E844F46E9950DF0BF410996E25
:1023200015D00150010BE840E840F46E9950BF0B06
:10233000F410996E0BD00150010BE840F46E9950E7
:102340007F0BF410996E02D0800E01D0E86AE4CFC2
:1023500002F0E4CF01F0E4CF00F0E4CFD9FF1200A7
:10236000D9CFE5FFE1CFD9FF00C0E5FF01C0E5FF10
:1023700002C0E5FF03C0E5FF04C0E5FF020EDBCFAE
:1023800000F0016A0006590E0024026E036A070E6F
:10239000032202C0E9FF03C0EAFFEFCF02F0010E03
:1023A000025CD8A08FD0110E025CD8B08BD0020690
:1023B00005C0E5FF06C0E5FF066A02340636E834CC
:1023C0000636FC0B056E000EFB6E230EFA6EE60E53
:1023D00005260650FA22D8B0FB2A0550E4CF06F0B5
:1023E000E4CF05F0F96E13EF12F018EF12F01DEFC5
:1023F00012F022EF12F027EF12F02CEF12F031EF73
:1024000012F036EF12F03BEF12F040EF12F045EF12
:1024100012F04AEF12F04FEF12F054EF12F059EFB2
:1024200012F05EEF12F0010E02019315016E4AD018
:10243000020E02019315016E45D0040E02019315A0
:10244000016E40D0080E02019315016E3BD0200EA4
:1024500002019315016E36D0010E02019415016E32
:1024600031D0020E02019415016E2CD0040E02012F
:102470009415016E27D0080E02019415016E22D02A
:10248000100E02019415016E1DD0010E020194156B
:10249000016E18D0020E02019415016E13D0100EB9
:1024A00002019515016E0ED0200E02019515016EE8
:1024B00009D0400E02019515016E04D0800E020174
:1024C0009515016E01501DE1D8900034016E026A2D
:1024D000470E0126070E022201C0E9FF02C0EAFFF3
:1024E000EECF03F0EFCF04F0FF0E0326D8A00406D2
:1024F00001C0E9FF02C0EAFF03C0EEFF04C0EFFF26
:102500001AD0D8900036016A470E0026070E012225
:1025100000C0E9FF01C0EAFFEECF02F0EFCF03F009
:10252000022AD8B0032A00C0E9FF01C0EAFF02C0B6
:10253000EEFF03C0EFFFE4CF04F0E4CF03F0E4CFFD
:1025400002F0E4CF01F0E4CF00F0E4CFD9FF1200B5
:10255000D9CFE5FFE1CFD9FF00C0E5FF01C0E5FF1E
:1025600002C0E5FF03C0E5FF04C0E5FF05C0E5FFCD
:1025700006C0E5FF07C0E5FF08C0E5FF09C0E5FFAD
:102580000AC0E5FF0BC0E5FF0CC0E5FF0DC0E5FF8D
:102590000EC0E5FF0FC0E5FF020EDBCF00F0030E1B
:1025A000DBCF01F0040EDBCF02F0050EDBCF03F032
:1025B000060EDBCF04F0070EDBCF05F0080EDBCFF5
:1025C00006F0200E076E086A06C009F00A6A0B6A58
:1025D0000C6AE56AE56AE56A0950E56E0350E56E46
:1025E0000250E56E0150E56E0050E56EDBEC18F030
:1025F0000D6E080EE126300E0D263A0E0D5C02E33C
:10260000270E0D26FF0E0726D8A00806200E072449
:102610000E6E020E08200F6E0EC0E9FF0FC0EAFF1B
:102620000DC0EFFF0C50E56E0B50E56E0A50E56EE5
:102630000950E56E0350E56E0250E56E0150E56EFF
:102640000050E56E6DEC19F0006EF3CF01F0F4CFA1
:1026500002F0E9CF03F0080EE1260050011002104D
:102660000310D8A4B1D707C000F008C001F004C01F
:1026700002F005C003F000C004F001C005F0002A1C
:10268000D8B0012A200E0426020E052204C0E9FF5C
:1026900005C0EAFFEFCF04F002C0E9FF03C0EAFF84
:1026A00004C0EFFF022AD8B0032A000E015C02E149
:1026B000200E005CE0E302C0E9FF03C0EAFF000E69
:1026C000EF6AE4CF0FF0E4CF0EF0E4CF0DF0E4CFEB
:1026D0000CF0E4CF0BF0E4CF0AF0E4CF09F0E4CF44
:1026E00008F0E4CF07F0E4CF06F0E4CF05F0E4CF44
:1026F00004F0E4CF03F0E4CF02F0E4CF01F0E4CF44
:1027000000F0E4CFD9FF1200D9CFE5FFE1CFD9FF28
:1027100000C0E5FF01C0E5FF02C0E5FF020EDBCF10
:1027200000F000500201965D0FE2110E005C016A9C
:102730000136015009E10050E56E01EC15F0026E22
:10274000E12A0250010A02E0800E94D0010E005CE2
:10275000D8A08FD00150D8A48CD0000603C0E5FFCC
:1027600004C0E5FF046A00340436E8340436FC0B88
:10277000036E000EFB6E270EFA6E920E03260450B7
:10278000FA22D8B0FB2A0350E4CF04F0E4CF03F0E0
:10279000F96EE9EF13F0EEEF13F0F3EF13F0F8EF4B
:1027A00013F0FDEF13F002EF14F007EF14F00CEF4D
:1027B00014F011EF14F016EF14F01BEF14F020EFEB
:1027C00014F025EF14F02AEF14F02FEF14F034EF8B
:1027D00014F0006A80B0002A00504CD0006A80B229
:1027E000002A005047D0006A80B4002A005042D02E
:1027F000006A80B6002A00503DD0006A80BA002AE4
:10280000005038D0006A85B0002A005033D0006AEA
:1028100085B2002A00502ED0006A85B4002A0050EC
:1028200029D0006A85B6002A005024D0006A85B8F5
:10283000002A00501FD0006A85BA002A00501AD022
:10284000006A85BC002A005015D0006A87B8002AAB
:10285000005010D0006A87BA002A00500BD0006ADE
:1028600087BC002A005006D0006A87BE002A0050AC
:1028700001D0800EE4CF02F0E4CF01F0E4CF00F00D
:10288000E4CFD9FF1200D9CFE5FFE1CFD9FF00C0D7
:10289000E5FF02011C6B0201176BC6AE05D0C69E98
:1028A000010E0201176F16D0006AF1BE002A005017
:1028B000010A0AE1006AF2B6002A0050010A04E1A6
:1028C000020E0201176F06D0F0A604D0909E030EF0
:1028D0000201176F250EC614006E250A07E0010ECF
:1028E00002011C6FC6500201176F86D0C55007E069
:1028F000020E02011C6FC5500201176F7DD0D0BEC1
:1029000007D0030E02011C6FD0500201176F74D064
:102910009DB607D0040E02011C6F9D500201176F77
:102920006BD09C5007E0050E02011C6F9C50020109
:10293000176F62D09F50080A07E0060E02011C6F55
:102940009F500201176F58D0A25007E0070E0201F6
:102950001C6FA2500201176F4FD0A55007E0080E60
:1029600002011C6FA5500201176F46D0100EF21421
:10297000006E100A07E0090E02011C6FF2500201FE
:10298000176F3AD0F150470B07E00A0E02011C6F97
:10299000F1500201176F30D0F050C00B07E00B0E62
:1029A00002011C6FF0500201176F26D092A807D0C9
:1029B0000C0E02011C6F92500201176F1DD093B0D4
:1029C00007D00D0E02011C6F93500201176F14D037
:1029D0003E0E9414006E1C0A07E00E0E02011C6FDE
:1029E00094500201176F08D097BE06D00F0E020157
:1029F0001C6F97500201176FE4CF00F0E4CFD9FFAE
:102A00001200D9CFE5FFE1CFD9FF00C0E5FF01C03B
:102A1000E5FF020EDBCF00F000500201965D06E2FA
:102A2000110E005C016A0136015002E0800E94D064
:102A3000010E005CD8A08FD00150D8A48CD0000625
:102A400002C0E5FF03C0E5FF036A00340336E83443
:102A50000336FC0B026E000EFB6E2A0EFA6E760E2B
:102A600002260350FA22D8B0FB2A0250E4CF03F02A
:102A7000E4CF02F0F96E5BEF15F060EF15F065EF53
:102A800015F06AEF15F06FEF15F074EF15F079EFB0
:102A900015F07EEF15F083EF15F088EF15F08DEF50
:102AA00015F092EF15F097EF15F09CEF15F0A1EFF0
:102AB00015F0A6EF15F0006A92B0002A00504CD035
:102AC000006A92B2002A005047D0006A92B4002AED
:102AD000005042D0006A92B6002A00503DD0006AF1
:102AE00092BA002A005038D0006A97B0002A0050ED
:102AF00033D0006A97B2002A00502ED0006A97B4F3
:102B0000002A005029D0006A97B6002A005024D02D
:102B1000006A97B8002A00501FD0006A97BA002AAE
:102B200000501AD0006A97BC002A005015D0006AE5
:102B300099B8002A005010D0006A99BA002A0050B3
:102B40000BD0006A99BC002A005006D0006A99BEDA
:102B5000002A005001D0800EE4CF01F0E4CF00F055
:102B6000E4CFD9FF1200D9CFE5FFE1CFD9FF00C0F4
:102B7000E5FF01C0E5FF02C0E5FF03C0E5FF04C0BB
:102B8000E5FF05C0E5FF06C0E5FF07C0E5FF08C09B
:102B9000E5FF09C0E5FF020EDBCF00F00006D8908C
:102BA0000034016E4C0E0124026E036A020E0322F1
:102BB000D6CF04F0056A02C0E9FF03C0EAFF04C0F3
:102BC000EEFF05C0EFFF4C0E0124026E036A020EF9
:102BD00003224C0E0124046E056A020E052204C075
:102BE000E9FF05C0EAFFEECF04F0EFCF05F0D7CF45
:102BF00006F0076A0650096E086A08500412095068
:102C0000051202C0E9FF03C0EAFF04C0EEFF05C0E1
:102C1000EFFF3B0E0124026E036A070E03224C0EE7
:102C20000124046E056A020E052204C0E9FF05C0F6
:102C3000EAFFEECF04F0EFCF05F0066A400E012662
:102C4000020E062201C0E9FF06C0EAFFEECF01F046
:102C5000EFCF06F00150045E0650055A02C0E9FFAE
:102C600003C0EAFF04C0EEFF05C0EFFF016A350EA6
:102C70000026070E012200C0E9FF01C0EAFF010E95
:102C8000EF6EE4CF09F0E4CF08F0E4CF07F0E4CF33
:102C900006F0E4CF05F0E4CF04F0E4CF03F0E4CF96
:102CA00002F0E4CF01F0E4CF00F0E4CFD9FF12004E
:102CB000D9CFE5FFE1CFD9FF00C0E5FF01C0E5FFB7
:102CC00002C0E5FF03C0E5FF04C0E5FF05C0E5FF66
:102CD00006C0E5FF07C0E5FF08C0E5FF09C0E5FF46
:102CE0000AC0E5FF0BC0E5FF0CC0E5FF0DC0E5FF26
:102CF0000EC0E5FF0FC0E5FFB2CF00F0016AB3CF11
:102D000002F0036A0250056E046A04500012055076
:102D100001127FC202F080C203F0B2CF04F0056A54
:102D2000B3CF06F0076A0650096E086A085004120D
:102D3000095005120150055C02E10050045C1EE2DE
:102D40007FC206F080C207F0086A096A07500D6E5C
:102D500006500C6E0A6A0B6A0E6A0F6A04500A1259
:102D600005500B120E500C120F500D120DC0E9FF42
:102D70000CC0F4FF0BC0F3FF0A5019D0046A056AB7
:102D80000350096E0250086E066A076A0A6A0B6AE7
:102D900000500612015007120A5008120B50091277
:102DA00009C0E9FF08C0F4FF07C0F3FF0650E4CFF5
:102DB0000FF0E4CF0EF0E4CF0DF0E4CF0CF0E4CF51
:102DC0000BF0E4CF0AF0E4CF09F0E4CF08F0E4CF51
:102DD00007F0E4CF06F0E4CF05F0E4CF04F0E4CF51
:102DE00003F0E4CF02F0E4CF01F0E4CF00F0E4CF51
:102DF000D9FF1200D9CFE5FFE1CFD9FF00C0E5FF31
:102E000001C0E5FF02C0E5FF03C0E5FF04C0E5FF28
:102E100005C0E5FF06C0E5FF07C0E5FF08C0E5FF08
:102E200009C0E5FF0AC0E5FF0BC0E5FF0CC0E5FFE8
:102E30000DC0E5FF0EC0E5FF0FC0E5FFCECF00F0EF
:102E4000016ACFCF02F0036A0250056E046A045093
:102E50000012055001127DC202F07EC203F0CECFF7
:102E600004F0056ACFCF06F0076A0650096E086ABB
:102E700008500412095005120150055C02E100508F
:102E8000045C1EE27DC206F07EC207F0086A096A91
:102E900007500D6E06500C6E0A6A0B6A0E6A0F6AB6
:102EA00004500A1205500B120E500C120F500D1246
:102EB0000DC0E9FF0CC0F4FF0BC0F3FF0A5019D09E
:102EC000046A056A0350096E0250086E066A076AB2
:102ED0000A6A0B6A00500612015007120A500812C3
:102EE0000B50091209C0E9FF08C0F4FF07C0F3FF47
:102EF0000650E4CF0FF0E4CF0EF0E4CF0DF0E4CFB6
:102F00000CF0E4CF0BF0E4CF0AF0E4CF09F0E4CF0B
:102F100008F0E4CF07F0E4CF06F0E4CF05F0E4CF0B
:102F200004F0E4CF03F0E4CF02F0E4CF01F0E4CF0B
:102F300000F0E4CFD9FF1200D9CFE5FFE1CFD9FFF0
:102F400000C0E5FF01C0E5FF02C0E5FF03C0E5FFEB
:102F500004C0E5FF05C0E5FF06C0E5FF07C0E5FFCB
:102F600008C0E5FF09C0E5FF0AC0E5FF0BC0E5FFAB
:102F70000CC0E5FF0DC0E5FF0EC0E5FF0FC0E5FF8B
:102F8000D6CF00F0016AD7CF02F0036A0250056E77
:102F9000046A04500012055001127BC202F07CC288
:102FA00003F0D6CF04F0056AD7CF06F0076A0650C3
:102FB000096E086A08500412095005120150055C98
:102FC00002E10050045C1EE27BC206F07CC207F006
:102FD000086A096A07500D6E06500C6E0A6A0B6A81
:102FE0000E6A0F6A04500A1205500B120E500C1292
:102FF0000F500D120DC0E9FF0CC0F4FF0BC0F3FF22
:103000000A5019D0046A056A0350096E0250086E0E
:10301000066A076A0A6A0B6A005006120150071214
:103020000A5008120B50091209C0E9FF08C0F4FF4A
:1030300007C0F3FF0650E4CF0FF0E4CF0EF0E4CF6B
:103040000DF0E4CF0CF0E4CF0BF0E4CF0AF0E4CFC6
:1030500009F0E4CF08F0E4CF07F0E4CF06F0E4CFC6
:1030600005F0E4CF04F0E4CF03F0E4CF02F0E4CFC6
:1030700001F0E4CF00F0E4CFD9FF1200D9CFE5FF93
:10308000E1CFD9FF00C0E5FF01C0E5FF02C0E5FFC9
:1030900003C0E5FF04C0E5FF05C0E5FF06C0E5FF8E
:1030A00007C0E5FF08C0E5FF09C0E5FF020EDBCF62
:1030B00000F00004016ED8900134026E400E02242C
:1030C000036E046A020E0422D6CF05F0066A03C01E
:1030D000E9FF04C0EAFF05C0EEFF06C0EFFF400EA7
:1030E0000224036E046A020E0422056A400E0226C0
:1030F000020E052202C0E9FF05C0EAFFEECF02F092
:10310000EFCF05F0D7CF06F0076A0650096E086AC0
:10311000085002120950051203C0E9FF04C0EAFF7B
:1031200002C0EEFF05C0EFFF010E005C2DE3070EAD
:10313000005C2AE20AC0E5FF0BC0E5FF0B6A013420
:103140000B36E8340B36FC0B0A6E000EFB6E310EAC
:10315000FA6E6A0E0A260B50FA22D8B0FB2A0A50E1
:10316000E4CF0BF0E4CF0AF0F96EC1EF18F0C3EF33
:1031700018F0C4EF18F0C4EF18F0C4EF18F0C4EF63
:1031800018F0F19801D0F196E4CF09F0E4CF08F0FF
:10319000E4CF07F0E4CF06F0E4CF05F0E4CF04F08D
:1031A000E4CF03F0E4CF02F0E4CF01F0E4CF00F08D
:1031B000E4CFD9FF1200D9CFE5FFE1CFD9FF00C09E
:1031C000E5FF01C0E5FF02C0E5FF03C0E5FF04C065
:1031D000E5FF05C0E5FF06C0E5FF07C0E5FF08C045
:1031E000E5FF09C0E5FF0AC0E5FF020EDBCF00F0F6
:1031F000030EDBCF01F0040EDBCF02F0050EDBCFB8
:1032000003F0060EDBCF04F0070EDBCF05F0080E4F
:10321000DBCF06F0090EDBCF07F0086A096A074426
:10322000010B0A6E0AB01BD0045004260536063680
:1032300007360750035C08E10650025C05E10550C3
:10324000015C02E10450005C06E2D89007320632CD
:103250000532043204D0092A09C008F0E0D707502B
:10326000035C08E10650025C05E10550015C02E1E7
:103270000450005C08E30450005E0550015A0650FB
:10328000025A0750035AD8900732063205320432E8
:1032900008C009F008060950E2E103C0E9FF02C0D6
:1032A000F4FF01C0F3FF0050E4CF0AF0E4CF09F0CF
:1032B000E4CF08F0E4CF07F0E4CF06F0E4CF05F068
:1032C000E4CF04F0E4CF03F0E4CF02F0E4CF01F068
:1032D000E4CF00F0E4CFD9FF1200D9CFE5FFE1CF72
:1032E000D9FF00C0E5FF01C0E5FF02C0E5FF03C054
:1032F000E5FF04C0E5FF05C0E5FF06C0E5FF07C028
:10330000E5FF08C0E5FF09C0E5FF0AC0E5FF0BC007
:10331000E5FF0CC0E5FF0DC0E5FF020EDBCF00F0BE
:10332000030EDBCF01F0040EDBCF02F0050EDBCF86
:1033300003F0060EDBCF04F0070EDBCF05F0080E1E
:10334000DBCF06F0090EDBCF07F0086A096A0A6ACC
:103350000B6A200E0C6E0344010B0D6E010E0D1650
:10336000005000260136023603360850082609367A
:103370000A360B360D50D8A4088007500B5C08E1C4
:1033800006500A5C05E10550095C02E10450085C46
:1033900009E30450085E0550095A06500A5A0750BE
:1033A0000B5A00800C2ED7D703C0E9FF02C0F4FFF0
:1033B00001C0F3FF0050E4CF0DF0E4CF0CF0E4CFF8
:1033C0000BF0E4CF0AF0E4CF09F0E4CF08F0E4CF4B
:1033D00007F0E4CF06F0E4CF05F0E4CF04F0E4CF4B
:1033E00003F0E4CF02F0E4CF01F0E4CF00F0E4CF4B
:1033F000D9FF1200D9CFE5FFE1CFD9FF00C0E5FF2B
:1034000001C0E5FF02C0E5FF03C0E5FF04C0E5FF22
:1034100005C0E5FF020EDBCF00F0010E005CD8A076
:1034200065D0070E005CD8B061D024C701F025C775
:1034300002F026C703F0060E0126000E0222000E3F
:103440000322000600500126E86A0222E86A0322ED
:1034500001C0E9FF02C0F3FF035004EC2BF0016E42
:10346000FF0A24E124C701F025C702F026C703F0B4
:10347000060E0126000E0222000E03220050012635
:10348000E86A0222E86A032201C0E9FF02C0F3FFF2
:10349000035004EC2BF0046E040604C0E5FF01C0E9
:1034A000E9FF02C0F3FF03504BEC2BF024C701F0FF
:1034B00025C702F026C703F0060E0126000E0222E1
:1034C000000E0322046A056A0150002602500422FD
:1034D0000350052200C0E9FF04C0F3FF055004ECCF
:1034E0002BF0006E810E0026005001D0800EE4CF3C
:1034F00005F0E4CF04F0E4CF03F0E4CF02F0E4CF32
:1035000001F0E4CF00F0E4CFD9FF1200D9CFE5FFFE
:10351000E1CFD9FF00C0E5FF01C0E5FF02C0E5FF34
:1035200003C0E5FF04C0E5FF05C0E5FF06C0E5FFF9
:1035300007C0E5FF08C0E5FF09C0E5FF0AC0E5FFD9
:103540000BC0E5FF0CC0E5FF020EDBCF00F0030E61
:10355000DBCF01F0040EDBCF02F0050EDBCF03F072
:10356000060EDBCF04F0070EDBCF05F0080EDBCF35
:1035700006F0090EDBCF07F000C008F001C009F02B
:1035800002C00AF006C00BF007C00CF0FF0E0626C2
:10359000D8A007060B500C101CE003C0E9FF04C0C4
:1035A000F3FF055004EC2BF00B6E032AD8B0042A6D
:1035B000D8B0052A0BC0E5FF00C0E9FF01C0F3FF4A
:1035C00002504BEC2BF0002AD8B0012AD8B0022AC6
:1035D000D9D70AC0F4FF09C0F3FF0850E4CF0CF0BC
:1035E000E4CF0BF0E4CF0AF0E4CF09F0E4CF08F029
:1035F000E4CF07F0E4CF06F0E4CF05F0E4CF04F029
:10360000E4CF03F0E4CF02F0E4CF01F0E4CF00F028
:10361000E4CFD9FF1200D9CFE5FFE1CFD9FF00C039
:10362000E5FF01C0E5FF02C0E5FF010E006E016A83
:103630000150800F800F02E1110E005C0EE200507D
:10364000026E010EE56E0250E56EAEEC10F0020E59
:10365000E126002AD8B0012AEBD7040EE56E84ECEF
:1036600029F0E12A8CEC26F0E4CF02F0E4CF01F05F
:10367000E4CF00F0E4CFD9FF120053706565643ADF
:10368000202564204C6566743A20256420526967C1
:1036900068742025640A000045543A20256C642093
:1036A0002052433A20256420256420256420256487
:1036B00020256420256420256420204A756D7065CE
:1036C000723A2025640A00005374617274696E674F
:1036D000206175746F6E6F6D6F757320726F757486
:1036E000696E652E2E2E0A00456E64696E67206134
:1036F00075746F6E6F6D6F757320726F7574696E10
:10370000652E2E2E0A0048656C6C6F2C20576F7248
:103710006C64210A0000D9CFE5FFE1CFD9FF00C0DA
:10372000E5FF01C0E5FF02C0E5FF03C0E5FF04C0FF
:10373000E5FF05C0E5FF06C0E5FF07C0E5FF020E97
:10374000DBCF00F0030EDBCF01F0040EDBCF02F085
:10375000050EDBCF03F002C006F00650046E800AAF
:1037600028E100C0E9FF01C0F3FF025009EC2AF094
:10377000056EF3CF06F0F4CF07F003C0E5FF05C0F8
:10378000E9FF06C0F3FF07504BEC2BF0052AD8B039
:10379000062AD8B0072A05C0E5FF06C0F4FF07C017
:1037A000F6FF00C0E9FF01C0F3FF025032EC2BF03E
:1037B0001ED004AA1CD0200E041A045004E10350A9
:1037C0006DEC2BF014D00450010A04E1035002EC1C
:1037D00004F00DD004500F0A04E103500AEC04F089
:1037E00006D004500E0A03E1035075EC2BF0E4CF31
:1037F00007F0E4CF06F0E4CF05F0E4CF04F0E4CF27
:1038000003F0E4CF02F0E4CF01F0E4CF00F0E4CF26
:10381000D9FF1200D9CFE5FFE1CFD9FF00C0E5FF06
:1038200001C0E5FF02C0E5FF03C0E5FF04C0E5FFFE
:1038300005C0E5FF06C0E5FF07C0E5FF020EDBCFD0
:1038400000F0030EDBCF01F0040EDBCF02F0050E1B
:10385000DBCF03F0D88001AED890046A0436045060
:1038600007E0011C066E001C056E054A062A04D0FE
:1038700000C005F001C006F005C000F006C001F070
:10388000D88003AED890056A0536055007E0031CC2
:10389000076E021C066E064A072A04D002C006F014
:1038A00003C007F00750E56E0650E56E0150E56E67
:1038B0000050E56E75EC23F0006EF3CF01F0040EBE
:1038C000E1260550041A04500AE0011C036E001C96
:1038D000026E024A032A03C0F3FF025003D001C064
:1038E000F3FF0050E4CF07F0E4CF06F0E4CF05F09B
:1038F000E4CF04F0E4CF03F0E4CF02F0E4CF01F032
:10390000E4CF00F0E4CFD9FF1200D9CFE5FFE1CF3B
:10391000D9FF00C0E5FF01C0E5FF02C0E5FF03C01D
:10392000E5FF04C0E5FF05C0E5FF06C0E5FF020EA8
:10393000DBCF00F002011E51020A02E143EC14F059
:103940007F0E02011515016E0201156F0701275147
:10395000200DF3CF01F0F4CF02F0A00E0126070EE8
:1039600002220150800E036E020E056E000E046EE0
:10397000800E066E000EE56E200EE56E0650E56EBA
:103980000550E56E0450E56E0350E56E0250E56E9D
:103990000150E56E86EC1AF0080EE1269D960701AF
:1039A0002751D880E866D8900701276B2737020196
:1039B00092839D861DC201F0012A015002011D6FF4
:1039C0000050010A05E189EC2AF0006E0050FBE08E
:1039D000E4CF06F0E4CF05F0E4CF04F0E4CF03F049
:1039E000E4CF02F0E4CF01F0E4CF00F0E4CFD9FF60
:1039F0001200FBEF1CF026EC1FF0FDEF1CF0E806B8
:103A0000E56E630E5DEC1DF0E4500BE000D0E56E5A
:103A1000630E5DEC1DF000D000D00000E450E82EF5
:103A2000F6D71200E806E56E090EFFEC1CF0630EF7
:103A30005DEC1DF0E4500EE000D0E56E090EFFECE9
:103A40001CF0630E5DEC1DF000D000D00000E450CF
:103A5000E82EF3D71200E806E56E630E12EC1DF0B7
:103A6000630E4AEC1DF0090E5DEC1DF0E45011E010
:103A700000D0E56E630E12EC1DF0630E4AEC1DF0F3
:103A8000090E5DEC1DF000D000D00000E450E82EDF
:103A9000F0D71200E806E56E090E5DEC1DF0E4506B
:103AA0000BE000D0E56E090E5DEC1DF000D0E45097
:103AB000000000D0E82EF6D71200E8060000E8501B
:103AC00007E000D000D000D000D00000E82EFAD7E8
:103AD0001200D9CFE5FFE1CFD9FF00C0E5FF01C05B
:103AE000E5FF02C0E5FF03C0E5FF020EE56E76ECE0
:103AF00028F0006EE12A016A00BE0168010EE56E41
:103B000076EC28F0026EE12A036A02BE0368BA0E60
:103B1000E56EBA0EE56EEFEC28F0020EE126010E1E
:103B2000E56E85EC1CF0E12A010EE56EF40EE56E03
:103B300077EC27F0020EE126460EE56EBA0EE56E32
:103B4000EFEC28F0020EE126010EE56E85EC1CF08C
:103B5000E12A0A0EE56E8C0EE56E77EC27F0020E78
:103B6000E1260050E56E020EE56EE4EC27F0020E51
:103B7000E1260250E56E010EE56EE4EC27F0020E40
:103B8000E126010EE56E85EC1CF0E12A000EE56EE3
:103B9000640EE56E77EC27F0020EE126E4CF03F029
:103BA000E4CF02F0E4CF01F0E4CF00F0E4CFD9FF9E
:103BB0001200D9CFE5FFE1CFD9FF00C0E5FF01C07A
:103BC000E5FF02C0E5FF03C0E5FF020EE56E76ECFF
:103BD00028F0006EE12A016A00BE0168010EE56E60
:103BE00076EC28F0026EE12A036A02BE0368BA0E80
:103BF000E56EBA0EE56EEFEC28F0020EE126010E3E
:103C0000E56E85EC1CF0E12A010EE56EF40EE56E22
:103C100077EC27F0020EE126460EE56EBA0EE56E51
:103C2000EFEC28F0020EE126010EE56E85EC1CF0AB
:103C3000E12A010EE56EF40EE56E77EC27F0020E38
:103C4000E1260050E56E020EE56EE4EC27F0020E70
:103C5000E1260250E56E010EE56EE4EC27F0020E5F
:103C6000E126010EE56E85EC1CF0E12A000EE56E02
:103C7000640EE56E77EC27F0020EE126E4CF03F048
:103C8000E4CF02F0E4CF01F0E4CF00F0E4CFD9FFBD
:103C90001200D9CFE5FFE1CFD9FF00C0E5FF01C099
:103CA000E5FF02C0E5FF03C0E5FF020EE56E76EC1E
:103CB00028F0006EE12A016A00BE0168010EE56E7F
:103CC00076EC28F0026EE12A036A02BE0368BA0E9F
:103CD000E56EBA0EE56EEFEC28F0020EE126010E5D
:103CE000E56E85EC1CF0E12A010EE56EF40EE56E42
:103CF00077EC27F0020EE126BA0EE56E460EE56E71
:103D0000EFEC28F0020EE126010EE56E85EC1CF0CA
:103D1000E12A010EE56EF40EE56E77EC27F0020E57
:103D2000E1260050E56E020EE56EE4EC27F0020E8F
:103D3000E1260250E56E010EE56EE4EC27F0020E7E
:103D4000E126010EE56E85EC1CF0E12A000EE56E21
:103D5000640EE56E77EC27F0020EE126E4CF03F067
:103D6000E4CF02F0E4CF01F0E4CF00F0E4CFD9FFDC
:103D70001200D9CFE5FFE1CFD9FF00C0E5FF01C0B8
:103D8000E5FF02C0E5FFCAEC23F058EC2AF0010E73
:103D9000006E090E005C0AE2000EE56E0050E56E52
:103DA000E4EC27F0020EE126002AF3D7080E006E9D
:103DB000100E005C0EE2040E0024016E026A020E78
:103DC000022201C0E9FF02C0EAFF7F0EEF6E002A67
:103DD000EFD7010E006E090E005C0AE2010EE56EDF
:103DE0000050E56E89EC25F0020EE126002AF3D79B
:103DF000010E006E050E005C07E20050E56EB8ECA7
:103E000024F0E12A002AF6D702011D6B010E0201FF
:103E10001E6FC90E02011F6F020192859291000E62
:103E2000E56E85EC1CF0E12A40EC2BF089EC2AF0E1
:103E3000006E0050FBE061EC29F0E4CF02F0E4CF2B
:103E400001F0E4CF00F0E4CFD9FF1200B9EC1EF08E
:103E50000BEC1BF024EC2AF09FEC28F0006E0050D5
:103E600012E189EC2AF0006E00500DE01CEC0DF020
:103E7000050EE56EFAEC19F0006EE12A0050810A99
:103E800002E165EC20F024EC2AF015EC2BF0006E3A
:103E90000050D8A4FAEC21F00701045107010F03E8
:103EA000F3CF00F00701045107011003F3CF01F035
:103EB0000150E56E0050E56EEFEC28F0020EE126B1
:103EC000000EE56E85EC1CF0E12A3EEC2AF010C7EE
:103ED00000F0016A070110BF01680FC702F0036A12
:103EE00007010FBF036804C704F0056A070104BF98
:103EF00005680150E56E0050E56E0350E56E025016
:103F0000E56E0550E56E0450E56E000EE56E360E6A
:103F1000E56E7A0EE56E3EEC27F0090EE1269CD7A1
:103F20001200D9CFE5FFE1CFD9FF00C0E5FF01C006
:103F3000E5FF02C0E5FF03C0E5FF04C0E5FF05C0E3
:103F4000E5FF06C0E5FF07C0E5FF020EDBCF00F08E
:103F5000030EDBCF01F0040EDBCF02F0050EDBCF4A
:103F600003F0060EDBCF04F0070EDBCF05F0080EE2
:103F7000DBCF06F0090EDBCF07F002018F6B00509C
:103F8000010A02E1015001E004D0010E02018F6F2D
:103F900001D0BA6A0250010A02E1035001E003D0E5
:103FA00002018F8301D0B76A0450010A02E1055073
:103FB00001E003D002018F8501D0736A0650010A27
:103FC00002E1075001E003D002018F8701D0706A3F
:103FD000E4CF07F0E4CF06F0E4CF05F0E4CF04F03F
:103FE000E4CF03F0E4CF02F0E4CF01F0E4CF00F03F
:103FF000E4CFD9FF1200D9CFE5FFE1CFD9FF00C050
:10400000E5FF01C0E5FF02C0E5FF020EDBCF00F0D7
:10401000030EDBCF01F0040EDBCF02F00F0E001415
:10402000C66E025003E0800E026E01D0026A02C02A
:10403000C7FF040E015C2EE203C0E5FF04C0E5FFEC
:10404000046A01340436E8340436FC0B036E000EB7
:10405000FB6E400EFA6E6E0E03260450FA22D8B0A4
:10406000FB2A0350E4CF04F0E4CF03F0F96E3FEFF6
:1040700020F042EF20F045EF20F048EF20F0C69806
:10408000C78C08D0C698C79C05D0C688C78C02D0FC
:10409000C688C79C0050050A03E19486C79E06D0D7
:1040A0000050010A02E1928A01D09496949A948871
:1040B000978EF19CF288C68AE4CF02F0E4CF01F03B
:1040C000E4CF00F0E4CFD9FF1200D9CFE5FFE1CF74
:1040D000D9FF00C0E5FF01C0E5FF02C0E5FF000E0B
:1040E000E56E360EE56EC80EE56E3EEC27F0030E6B
:1040F000E126460EE56E460EE56EEFEC28F0020E68
:10410000E126010EE56E85EC1CF0E12A006A016AE9
:10411000060EE56EFAEC19F0026EE12A0250810AF1
:1041200013E00150800F7F0F02E1900E005C0CE263
:10413000000EE56E320EE56E77EC27F0020EE126FA
:10414000002AD8B0012AE4D7000EE56E020EE56E13
:10415000E4EC27F0020EE126000EE56E010EE56E9E
:10416000E4EC27F0020EE126010EE56E85EC1CF072
:10417000E12A000EE56E360EE56EE80EE56E3EECC9
:1041800027F0030EE126E4CF02F0E4CF01F0E4CF04
:1041900000F0E4CFD9FF1200D9CFE5FFE1CFD9FF7E
:1041A00000C0E5FF020EDBCF00F0010E005CD8A0DE
:1041B00055D0050E005CD8B051D0000601C0E5FF17
:1041C00002C0E5FF026A00340236E8340236FC0B16
:1041D000016E000EFB6E410EFA6EF20E01260250C9
:1041E000FA22D8B0FB2A0150E4CF02F0E4CF01F06C
:1041F000F96E01EF21F00DEF21F018EF21F024EF1F
:1042000021F0CD90CD8ECF0ECD14006E300E00106B
:10421000CD6E9E909D80CD8021D0CA94FC0ECA1494
:10422000006E020E0010CA6E9E929D82CA8416D045
:10423000B190B18ECF0EB114006E300E0010B16E81
:10424000A192A082B1800AD07694FC0E7614006E02
:10425000020E0010766EA496A3867684E4CF00F05A
:10426000E4CFD9FF1200D9CFE5FFE1CFD9FF00C0DD
:10427000E5FF01C0E5FF02C0E5FF03C0E5FF04C0A4
:10428000E5FF05C0E5FF06C0E5FF020EDBCF00F04D
:10429000030EDBCF01F0040EDBCF02F0050EDBCF07
:1042A00003F0060EDBCF04F0070EDBCF05F0080E9F
:1042B000DBCF06F0D88003AED89016E306500A0A8A
:1042C00013E104C0E9FF05C0EAFF2D0EEF6E042ADA
:1042D000D8B0052A031E021E011E006C05E1012A4A
:1042E00003E1022AD8B4032A0650E56E0550E56EB4
:1042F0000450E56E0350E56E0250E56E0150E56E28
:104300000050E56EA8EC12F0070EE126E4CF06F0AF
:10431000E4CF05F0E4CF04F0E4CF03F0E4CF02F003
:10432000E4CF01F0E4CF00F0E4CFD9FF1200D9CF01
:10433000E5FFE1CFD9FF00C0E5FF01C0E5FF020EB8
:10434000DBCF00F0010E0014016E010BE840F46EAB
:1043500096507F0BF410966E020E0014016E010B46
:10436000F46E9850FE0BF410986E040E0014016E5B
:10437000010BE838E840F46E9850F70BF410986E93
:10438000080E0014016E010BE838F46E9850EF0B24
:10439000F410986E100E0014016E010BF46E96501E
:1043A000FE0BF410966E200E0014016E010BE84413
:1043B000F46E9650FD0BF410966E400E0014016ED4
:1043C000010BE844E844F46E9650FB0BF410966E33
:1043D000800E00160050010BE838E840F46E96504D
:1043E000F70BF410966EE4CF01F0E4CF00F0E4CFC9
:1043F000D9FF1200D9CFE5FFE1CFD9FF00C0E5FF1B
:1044000015EC2BF0006E005004E024EC2BF0006E55
:1044100001D04CD00050200A01E13DD00050610A8B
:1044200022E00050640A2BE00050730A10E00050B4
:10443000770A01E03BD00701055107010F6F070123
:1044400006510701106F770E0AEC04F02FD0070118
:10445000075107010F6F070108510701106F730E15
:104460000AEC04F023D00701095107010F6F07017F
:104470000A510701106F610E0AEC04F017D0070112
:104480000B5107010F6F07010C510701106F640EEC
:104490000AEC04F00BD007010D5107010F6F070163
:1044A0000E510701106F200E0AEC04F0E4CF00F06B
:1044B000E4CFD9FF1200D9CFE5FFE1CFD9FF00C08B
:1044C000E5FF020EDBCF00F0010E005CD8A04FD05C
:1044D000050E005CD8B04BD0000601C0E5FF02C05D
:1044E000E5FF026A00340236E8340236FC0B016E46
:1044F000000EFB6E450EFA6E100E01260250FA22D7
:10450000D8B0FB2A0150E4CF02F0E4CF01F0F96EFD
:1045100090EF22F097EF22F0A4EF22F0ABEF22F021
:10452000CF6ACE6A02017D6B02017E6B20D0CC6A1D
:10453000010ECC6E0201606B0201616B0201626BC5
:104540000201636BCB6A13D0B36AB26A02017F6B5C
:104550000201806B0CD0786A010E786E0201646BE8
:104560000201656B0201666B0201676B776AE4CF3B
:1045700000F0E4CFD9FF1200D9CFE5FFE1CFD9FF9A
:1045800000C0E5FF01C0E5FF02C0E5FF03C0E5FF95
:1045900004C0E5FF05C0E5FF06C0E5FF07C0E5FF75
:1045A000040EE56EFAEC19F0006EE12A030EE56EDA
:1045B000FAEC19F0016EE12A016C020E036E890E0D
:1045C000026E800E046E020E066E8A0E056E800E5E
:1045D000076EE56E0650E56E0550E56E0450E56E1B
:1045E0000350E56E0250E56E7F0EE56E0150E56EFC
:1045F0000050E56E8AEC0BF0090EE12602018A51AB
:10460000E56E02018951E56EEFEC28F0020EE1261D
:10461000E4CF07F0E4CF06F0E4CF05F0E4CF04F0F8
:10462000E4CF03F0E4CF02F0E4CF01F0E4CF00F0F8
:10463000E4CFD9FF1200D9CFE5FFE1CFD9FF00C009
:10464000E5FF01C0E5FF020EDBCF00F0030EDBCF7C
:1046500001F0010E005C03E3070E005C02E3800E34
:104660003DD00050E56EFAEC19F0006EE12A00C072
:104670008DF20050810A04E000507F0A04E007D068
:1046800002018C6B07D0010E02018C6F03D0020E69
:1046900002018C6F020E02018C5D10E202018D514D
:1046A00002018E190BE00701202B07012145FE0BAB
:1046B000006E02018C5100240701216F8DC28EF221
:1046C00007012051011809E121C78BF20701216B75
:1046D0000701206B02018B5101D0FE0EE4CF01F0E7
:1046E000E4CF00F0E4CFD9FF1200D9CFE5FFE1CF4E
:1046F000D9FF00C0E5FF01C0E5FF02C0E5FF03C030
:10470000E5FF04C0E5FF05C0E5FF06C0E5FF07C003
:10471000E5FF020EDBCF00F0030EDBCF01F0040E4D
:10472000DBCF02F0050EDBCF03F0046A056A100E42
:10473000066E0144010B076E010E0716005000269D
:1047400001360450042605360750D8A404800350CF
:10475000055C02E10250045C05E30250045E035074
:10476000055A0080062EE5D701C0F3FF0050E4CFC4
:1047700007F0E4CF06F0E4CF05F0E4CF04F0E4CF97
:1047800003F0E4CF02F0E4CF01F0E4CF00F0E4CF97
:10479000D9FF1200D9CFE5FFE1CFD9FF070EB46EE4
:1047A000886A876A866A856A846A836A826A816A95
:1047B000806A916A906A8F6A8E6A8D6A8C6A8B6A47
:1047C0008A6A896AFF0E926E936EBF0E946E956A26
:1047D000700E966E9F0E976EE40E986E0F0E996E89
:1047E000FF0E9A6E0F0EC16E070EC06EF19EB0984E
:1047F0009C8EA26A9F6AA06A9D6AA36AA56A000E3F
:10480000E56E010EE56E050EE56EFBEC1FF0030E86
:10481000E1269F86D08E9E969D869382F06AF288CE
:10482000F09EF098F192F09AF16AF28CF28EE4CF59
:10483000D9FF1200D9CFE5FFE1CFD9FF00C0E5FFD6
:1048400001C0E5FF02C0E5FF03C0E5FF020EDBCFBC
:1048500000F0030EDBCF01F0040EDBCF02F0050EFB
:10486000DBCF03F000500201816F0150826F0250D4
:104870000201836F0350846F02018151020183039F
:10488000F3CF00F0F4CF01F000500201856F01502A
:10489000866F0201815102018403F3CF00F002010F
:1048A000825102018303F3CF01F00150002602017F
:1048B000865100260050866F86C2F3FF8551E4CFF3
:1048C00003F0E4CF02F0E4CF01F0E4CF00F0E4CF56
:1048D000D9FF1200CC0EF66E560EF76E000EF86E73
:1048E0000900F550056E0900F550066E04E10567F4
:1048F00002D0B7EF24F00900F550006E0900F55022
:10490000016E0900F550026E09000900F550E96ECC
:104910000900F550EA6E090009000900F550036E20
:104920000900F550046E09000900F6CF07F0F7CF33
:1049300008F0F8CF09F000C0F6FF01C0F7FF02C091
:10494000F8FF035002E1045007E00900F550EE6E55
:104950000306F8E20406F9D707C0F6FF08C0F7FF20
:1049600009C0F8FF050601E2060676EF24F0120002
:10497000D9CFE5FFE1CFD9FF00C0E5FF020EDBCFC5
:1049800000F0010E005C36E3050E005C33E2000629
:1049900001C0E5FF02C0E5FF026A00340236E834D8
:1049A0000236FC0B016E000EFB6E490EFA6EC60E4F
:1049B00001260250FA22D8B0FB2A0150E4CF02F0BF
:1049C000E4CF01F0F96EEBEF24F0EFEF24F0F3EF1A
:1049D00024F0F7EF24F0CD909E909D900BD0CA94D8
:1049E0009E929D9207D0B190A192A09203D076940E
:1049F000A496A396E4CF00F0E4CFD9FF1200D9CF5C
:104A0000E5FFE1CFD9FF00C0E5FF01C0E5FF02C02F
:104A1000E5FF03C0E5FF04C0E5FF05C0E5FF06C0F4
:104A2000E5FF07C0E5FF78CF00F0016A020166519B
:104A3000056E02016551046E02016451036E026A43
:104A4000066A076A0050021201500312065004124F
:104A50000750051205C0E9FF04C0F4FF03C0F3FFCF
:104A60000250E4CF07F0E4CF06F0E4CF05F0E4CF46
:104A700004F0E4CF03F0E4CF02F0E4CF01F0E4CFA0
:104A800000F0E4CFD9FF1200D9CFE5FFE1CFD9FF85
:104A900000C0E5FF01C0E5FF02C0E5FF03C0E5FF80
:104AA00004C0E5FF05C0E5FF06C0E5FF07C0E5FF60
:104AB000CCCF00F0016A02016251056E0201615122
:104AC000046E02016051036E026A066A076A0050B2
:104AD000021201500312065004120750051205C0BD
:104AE000E9FF04C0F4FF03C0F3FF0250E4CF07F076
:104AF000E4CF06F0E4CF05F0E4CF04F0E4CF03F018
:104B0000E4CF02F0E4CF01F0E4CF00F0E4CFD9FF2E
:104B10001200D9CFE5FFE1CFD9FF00C0E5FF01C00A
:104B2000E5FF02C0E5FF020EDBCF00F0030EDBCF96
:104B300001F0015015E00150010A24E10004016E6A
:104B4000010E026E015005E0E86CD8900236010FAC
:104B5000FDE3025002011611016E0201166F12D020
:104B60000006010E016E005005E0E86CD890013699
:104B7000010FFDE3011C006E0201165100160050EA
:104B80000201166FE4CF02F0E4CF01F0E4CF00F0B1
:104B9000E4CFD9FF1200D9CFE5FFE1CFD9FF00C0A4
:104BA000E5FF020EDBCF00F0010E005C30E3070EE4
:104BB000005C2DE2000601C0E5FF02C0E5FF026ACD
:104BC00000340236E8340236FC0B016E000EFB6E38
:104BD0004B0EFA6EEC0E01260250FA22D8B0FB2AD8
:104BE0000150E4CF02F0E4CF01F0F96E02EF26F0BD
:104BF00004EF26F006EF26F006EF26F006EF26F08B
:104C000006EF26F0F09803D0F09A01D0F296E4CFA8
:104C100000F0E4CFD9FF1200D9CFE5FFE1CFD9FFF3
:104C200000C0E5FF020EDBCF00F0010E005C30E3B8
:104C3000070E005C2DE2000601C0E5FF02C0E5FFA3
:104C4000026A00340236E8340236FC0B016E000EB4
:104C5000FB6E4C0EFA6E6E0E01260250FA22D8B090
:104C6000FB2A0150E4CF02F0E4CF01F0F96E43EFEC
:104C700026F045EF26F047EF26F047EF26F047EF06
:104C800026F047EF26F0F08803D0F08A01D0F286B4
:104C9000E4CF00F0E4CFD9FF1200D9CFE5FFE1CF98
:104CA000D9FF00C0E5FF01C0E5FF02C0E5FF006ECF
:104CB000020EDBCF01F0030EDBCF02F0AC6AAB6A71
:104CC00000B0AC8800A202D0AC8CAB8C00A401D0A8
:104CD000AC8E00A602D0AB8801D0AB8A00A802D06F
:104CE000AC8401D0AC949E9800AC02D09D8A01D0D7
:104CF0009D9A9E9A00AE02D09D8801D09D98015049
:104D0000AF6EAC8AAB8EE4CF02F0E4CF01F0E4CF1B
:104D100000F0E4CFD9FF1200D9CFE5FFE1CFD9FFF2
:104D200000C0E5FF01C0E5FF02C0E5FF24C700F0B9
:104D300025C701F026C702F01F0E0026000E012233
:104D4000000E022200C0E9FF01C0F3FF025004EC94
:104D50002BF0006E016A000EE56E4D0EE56EF80E4A
:104D6000E56E0150E56E0050E56E000EE56E4D0EED
:104D7000E56EDE0EE56E3EEC27F0080EE126E4CF90
:104D800002F0E4CF01F0E4CF00F0E4CFD9FF12004D
:104D9000D9CFE5FFE1CFD9FF00C0E5FF01C0E5FFB6
:104DA00002C0E5FF24C700F025C701F026C702F0C6
:104DB000020E0026000E0122000E022200C0E9FFB2
:104DC00001C0F3FF025004EC2BF0006EE4CF02F0C0
:104DD000E4CF01F0E4CF00F0E4CFD9FF12000A568F
:104DE0004558206D617374657220636F6465207629
:104DF00025640A25730A00004F70656E5665782D8C
:104E0000302E352E3000D9CFE5FFE1CFD9FF00C0DD
:104E1000E5FF01C0E5FF02C0E5FF03C0E5FF020EAC
:104E2000DBCF00F0030EDBCF01F0005001101BE0E0
:104E3000000E015C02E1190E005C05E200C002F008
:104E400001C003F003D0190E026E036A02500A0D6E
:104E5000F3CF03F003502BEC1DF0036A0250005E09
:104E60000350015AE2D7E4CF03F0E4CF02F0E4CFDD
:104E700001F0E4CF00F0E4CFD9FF1200D9CFE5FF75
:104E8000E1CFD9FF00C0E5FF01C0E5FF020ED92444
:104E9000006E000EDA20016E030E0026D8B0012A43
:104EA000800EE56E0150E56E0050E56E040EDBCF1E
:104EB000E5FF030EDBCFE5FF020EDBCFE5FF0201CE
:104EC0007051E56E6F51E56E6E51E56E0EEC04F0BB
:104ED000006EF3CF01F0090EE12601C0F3FF005090
:104EE000E4CF01F0E4CF00F0E4CFD9FF1200D9CF36
:104EF000E5FFE1CFD9FF00C0E5FF01C0E5FF02C03B
:104F0000E5FF03C0E5FF020EDBCF00F0030EDBCFB1
:104F100001F00050011017E0000E015C02E1FF0EED
:104F2000005C05E200C002F001C003F003D0FF0EF8
:104F3000026E036A025012EC1DF0036A0250005E1A
:104F40000350015AE6D7E4CF03F0E4CF02F0E4CFF8
:104F500001F0E4CF00F0E4CFD9FF1200D9CFE5FF94
:104F6000E1CFD9FF00C0E5FF01C0E5FF020EDBCFB6
:104F700000F0010E005C04E300500201965D03E2C4
:104F8000F368800E1AD000060050E56E3BEC29F065
:104F9000E12A0A0E5DEC1DF05EEC2BF006EC04F04D
:104FA000006E0050FBE171EC2BF0006EF3CF01F0CE
:104FB00078EC2BF001C0F3FF0050E4CF01F0E4CF18
:104FC00000F0E4CFD9FF1200D9CFE5FFE1CFD9FF40
:104FD00000C0E5FF01C0E5FF02C0E5FF020EDBCF28
:104FE00000F0030EDBCF01F00150800A01E1012A3D
:104FF000010E005C13E3090E005C10E20006026A79
:10500000040E0026020E02227F0E012600C0E9FFD8
:1050100002C0EAFF01C0EFFFE86A01D0800EE4CFD2
:1050200002F0E4CF01F0E4CF00F0E4CFD9FF1200AA
:10503000010200004601FFFF01FFFF010100000027
:105040000000000000000000000000000000000060
:105050000000000060078000000000000000000069
:105060000000000000000000000000000000000040
:105070000000000000000000000000000000000030
:105080000000000000000000000000000000000020
:10509000D9CFE5FFE1CFD9FF00C0E5FF01C0E5FFB3
:1050A000020EDBCF00F0030EDBCF01F00050010A4F
:1050B00004E00050020A0AE012D00150010BE83867
:1050C000F46EF150EF0BF410F16E09D00150010BAA
:1050D000E838E840F46EF150F70BF410F16EE4CFCD
:1050E00001F0E4CF00F0E4CFD9FF1200D9CFE5FF03
:1050F000E1CFD9FF00C0E5FF01C0E5FF020EDBCF25
:1051000000F0010E005C13E3090E005C10E20006E3
:10511000016A040E0026020E012200C0E9FF01C050
:10512000EAFFEFCF00F0810E0026005001D0800E84
:10513000E4CF01F0E4CF00F0E4CFD9FF1200D9CFE3
:10514000E5FFE1CFD9FF00C0E5FF01C0E5FF02C0E8
:10515000E5FF24C700F025C701F026C702F0002AAA
:10516000D8B0012AD8B0022A00C0E9FF01C0F3FF7D
:10517000025004EC2BF0E844E844010B006EE4CF4D
:1051800002F0E4CF01F0E4CF00F0E4CFD9FF120049
:10519000D9CFE5FFE1CFD9FF02015C5104E1010E57
:1051A00002015C6F19D002015E5105E1010E02019E
:1051B0005E6F030E11D002015D5105E1010E020187
:1051C0005D6F020E09D002015F5105E1010E02017F
:1051D0005F6F040E01D0E86AE4CFD9FF1200D9CF87
:1051E000E5FFE1CFD9FF00C0E5FF01C0E5FF020EFA
:1051F000DBCF00F0030EDBCF01F0016C0150E56E58
:10520000020EE56EE4EC27F0020EE1260050E56E9A
:10521000010EE56EE4EC27F0020EE126E4CF01F08A
:10522000E4CF00F0E4CFD9FF1200D9CFE5FFE1CF02
:10523000D9FF00C0E5FF030EE56EFAEC19F0006E31
:10524000E12A001C0201876F872B020EE56EFAEC43
:1052500019F00201886FE12A02018851E56E02010E
:105260008751E56EEFEC28F0020EE126E4CF00F066
:10527000E4CFD9FF1200D9CFE5FFE1CFD9FF00C0BD
:10528000E5FF01C0E5FF020EDBCF00F0C26A00447B
:10529000E844FC0B016EC212C292C16AC19AC19865
:1052A00002019751C112C08EC084C082C0809E9CF2
:1052B0009D9CC280E4CF01F0E4CF00F0E4CFD9FFA1
:1052C0001200D9CFE5FFE1CFD9FF00C0E5FF07010C
:1052D000225115E1D56A02017B6B02017C6BD59CE2
:1052E000F00ED514006E030E0010D56EF194F28A04
:1052F000F28CF28EF294D58E010E0701226FE4CF6C
:1053000000F0E4CFD9FF1200D9CFE5FFE1CFD9FFFC
:1053100000C0E5FF020EDBCF00F00F0E005C08E2DC
:1053200000C096F200500F080201976FE86A0AD099
:105330000050100A06E100C096F20201976BE86A7D
:1053400001D0800EE4CF00F0E4CFD9FF1200D9CF16
:10535000E5FFE1CFD9FF00C0E5FF01C0E5FF020E88
:10536000DBCF00F00050E56EB8EC24F0E12A000637
:10537000016A5C0E0026020E012200C0E9FF01C096
:10538000EAFF000EEF6EE4CF01F0E4CF00F0E4CFCF
:10539000D9FF1200E8AE0AD0F3CFEAFFEE50EECF0D
:1053A000F3FFEECFF4FFEECFE9FF1200E8BC11D01F
:1053B000E9CFF6FFF3CFF7FFF86E0900F5500900CB
:1053C000F5CFF3FF0900F5CFF4FF0900F5CFE9FFB2
:1053D00012001200D9CFE5FFE1CFD9FF00C0E5FFF1
:1053E000AECF00F00050700A0FE1000EE56E370EF0
:1053F000E56E060EE56E3EEC27F0030EE126000E8C
:10540000E56E85EC1CF0E12AE4CF00F0E4CFD9FF93
:105410001200E8AE08D0F3CFEAFFEE50EECFF3FF74
:10542000EECFF4FF1200E8BC0ED0E9CFF6FFF3CFC9
:10543000F7FFF86E0900F5500900F5CFF3FF0900FA
:10544000F5CFF4FF12001200D9CFE5FFE1CFD9FF6D
:1054500000C0E5FF020EE56EDEEC2AF0E12A010E47
:10546000E56E85EC1CF0E12A9FEC28F0006E005000
:10547000FBE0E4CF00F0E4CFD9FF1200D9CFE5FF85
:10548000E1CFD9FF00C0E5FF020EE56EB5EC2AF0D2
:10549000E12A010EE56E85EC1CF0E12A9FEC28F074
:1054A000006E0050FBE1E4CF00F0E4CFD9FF120022
:1054B000D9CFE5FFE1CFD9FF000EE56E150EE56E01
:1054C0003C0E4DEC26F0020EE126320EFFEC1CF0F5
:1054D00002016E6B02016F6B200E0201706FE4CF50
:1054E000D9FF1200D9CFE5FFE1CFD9FF00C0E5FF1A
:1054F000020EDBCF00F0610E005C05E37B0E005C6A
:1055000002E2010E01D0E86AE4CF00F0E4CFD9FF57
:105510001200D9CFE5FFE1CFD9FF00C0E5FF006A57
:10552000020192B1002A005004E09D96020192917E
:105530009D860050E4CF00F0E4CFD9FF1200E8AE22
:1055400006D0F3CFEAFFEE50EECFF3FF1200E8BC37
:105550000BD0E9CFF6FFF3CFF7FFF86E0900F55057
:105560000900F5CFF3FF12001200D9CFE5FFE1CF1C
:10557000D9FF00C0E5FF020EDBCF00F0001E0201E4
:105580001451001600500201146FE4CF00F0E4CF74
:10559000D9FF120011EEFFF021EEFFF0F86AA68E9F
:1055A000A69CE9680E0EEA6E0068000EED6A0050D7
:1055B000FDE16AEC24F026EC1FF0FFD7D9CFE5FF20
:1055C000E1CFD9FF00C0E5FF020EDBCF00F0020102
:1055D0001451001200500201146FE4CF00F0E4CF28
:1055E000D9FF1200D9CFE5FFE1CFD9FF00C0E5FF19
:1055F0009EAA04D0AECF00F0005001D0E86AE4CFFC
:1056000000F0E4CFD9FF1200E8AE04D0F3CFEAFFF8
:10561000EE501200E8BC08D0E9CFF6FFF3CFF7FF59
:10562000F86E0900F55012001200D9CFE5FFE1CF66
:10563000D9FF00C0E5FF006A9EBA002A0050E4CFFF
:1056400000F0E4CFD9FF1200D9CFE5FFE1CFD9FFB9
:1056500000C0E5FFAECF00F00050E4CF00F0E4CF93
:10566000D9FF1200E8AE09D0F3CFEAFFE4CFEEFF96
:10567000F4CFEEFFF6CFEEFF1200E8AC12001200FE
:10568000D9CFE5FFE1CFD9FF8282808894929298AA
:10569000E4CFD9FF1200E8AE05D0F3CFEAFFE4CFA4
:1056A000EEFF1200E8AC12001200D9CFE5FFE1CF07
:1056B000D9FF02019651E4CFD9FF1200D9CFE5FFFF
:1056C000E1CFD9FFC282E4CFD9FF120001003050F0
:1056D00000000007000060000000ACA2FED7AD6E25
:1056E0001200C4CFF3FFC3501200E8CF7FFF1200B7
:0656F000C2909D9C120017
:00000001FF
