:020000040000FA
:1008000077EF1FF0C96E12008AEF0BF0ACA2FED793
:06081000AD6E12001200A3
:08081800E7EF09F0D9CFE5FF7D
:10082000E1CFD9FF00C0E5FF01C0E5FF02C0E5FF51
:1008300003C0E5FF04C0E5FF05C0E5FF06C0E5FF16
:1008400007C0E5FF08C0E5FF09C0E5FF0AC0E5FFF6
:100850000BC0E5FF0CC0E5FF0DC0E5FF0EC0E5FFD6
:100860000FC0E5FF10C0E5FF11C0E5FF12C0E5FFB6
:1008700013C0E5FF14C0E5FF15C0E5FF16C0E5FF96
:1008800017C0E5FF18C0E5FF19C0E5FF1AC0E5FF76
:100890001BC0E5FF1CC0E5FF1DC0E5FF1EC0E5FF56
:1008A000020EDBCF00F0030EDBCF01F0040EDBCF36
:1008B00002F0050EDBCF03F0060EDBCF04F0070ECF
:1008C000DBCF05F0080EDBCF06F0090EDBCF07F01B
:1008D0000A0EDBCF08F0096A0A6A02C00DF00D505B
:1008E000800A0CE100C050F201C051F202C052F285
:1008F000020E016E500E006E800E026E03C0E9FF04
:1009000004C0F3FF0550B1EC1FF00B6E0B50D8B4D0
:10091000DFEF07F00B50250A02E0C4EF07F00C6A86
:100920000D6A0E6A0F6A106A0A0E116E126A136A55
:10093000146A200E156E1668176A2B0E186E032A9D
:10094000D8B0042AD8B0052A03C0E9FF04C0F3FFD9
:100950000550B1EC1FF0196E250A15E11950E56E2E
:100960000250E56E0150E56E0050E56E9FEC14F00C
:10097000040EE126092AD8B00A2A032AD8B0042A8C
:10098000D8B0052ABBD71950300A07E1300E156ED2
:10099000032AD8B0042AD8B0052A03C0E9FF04C04E
:1009A000F3FF0550B1EC1FF02D0A07E1010E146EA4
:1009B000032AD8B0042AD8B0052A03C0E9FF04C02E
:1009C000F3FF0550B1EC1FF0200A09E1010E176E8C
:1009D000200E186E032AD8B0042AD8B0052A03C006
:1009E000E9FF04C0F3FF0550B1EC1FF02B0A07E14B
:1009F000010E176E032AD8B0042AD8B0052A03C006
:100A0000E9FF04C0F3FF0550B1EC1FF0196E800F31
:100A10004F0F2EE31950800F460F2AE203C019F042
:100A200004C01AF005C01BF019C0E9FF1AC0F3FF9B
:100A30001B50B1EC1FF01C6E800F500F13E31C50C5
:100A4000800F460F0FE213500A0DF3CF1DF01D501B
:100A50001C26D00E1C24136E192AD8B01A2AD8B01E
:100A60001B2AE2D719C003F01AC004F01BC005F01E
:100A700003C0E9FF04C0F3FF0550B1EC1FF02E0ADC
:100A800030E1032AD8B0042AD8B0052A166A03C078
:100A900019F004C01AF005C01BF019C0E9FF1AC014
:100AA000F3FF1B50B1EC1FF01C6E800F500F13E3CF
:100AB0001C50800F460F0FE216500A0DF3CF1DF0A9
:100AC0001D501C26D00E1C24166E192AD8B01A2AC6
:100AD000D8B01B2AE2D719C003F01AC004F01BC01B
:100AE00005F003C0E9FF04C0F3FF0550B1EC1FF0AF
:100AF000196E6C0A08E1010E0C6E032AD8B0042AA4
:100B0000D8B0052A0AD01950680A07E1010E0E6E06
:100B1000032AD8B0042AD8B0052A03C0E9FF04C0CC
:100B2000F3FF0550B1EC1FF0750A07E1010E106EDE
:100B3000032AD8B0042AD8B0052A03C0E9FF04C0AC
:100B4000F3FF0550B1EC1FF0196E730A05E1010EB9
:100B50000D6E200E156E41D01950780A03E1100E6B
:100B6000116E3BD01950580A05E1100E116E010E9E
:100B7000126E33D01950630A02E1116A2ED0195057
:100B80006F0A03E1080E116E28D01950660A03E1BE
:100B9000010E0F6E22D01950640A1FE01950690A25
:100BA0001CE0105005E0FF0E03260422052215D09C
:100BB0001950E56E0250E56E0150E56E0050E56E8D
:100BC0009FEC14F0040EE126092AD8B00A2A032A61
:100BD000D8B0042AD8B0052A91D60D5021E006508D
:100BE000030F0D6E000E0720196E000E08201A6EFE
:100BF0000DC006F019C007F01AC008F0FD0E0D2652
:100C0000FF0E19221A220DC0E9FF19C0F3FF1A5076
:100C1000B6EC1EF00D6EF3CF19F0F4CF1AF000D140
:100C20000F500DE0460E0D6E100E196E000E1A6E6E
:100C3000040E0626000E072208221668F1D0166858
:100C40000C5023E00650040F0C6E000E07200F6EB0
:100C5000000E08201B6E0CC006F00FC007F01BC072
:100C600008F0FC0E0C26FF0E0F221B220CC0E9FF21
:100C70000FC0F3FF1B5096EC1EF00C6EF3CF0FF07D
:100C8000F4CF1BF0E9CF1CF06AD00E5032E00650D2
:100C9000020F0E6E000E07201D6E000E08201E6E45
:100CA0000EC006F01DC007F01EC008F0FE0E0E2696
:100CB000FF0E1D221E220EC0E9FF1DC0F3FF1E50B5
:100CC0004CEC1FF00E6E0EC00CF0E86A0EBEFF0E6C
:100CD0000F6E1B6E1C6E11500A0A03E11050D8B43F
:100CE0003ED00C500E6E0EC00CF00F6A1B6A1C6AD0
:100CF00036D00650020F0E6E000E07201D6E000E3D
:100D000008201E6E0EC006F01DC007F01EC008F0C1
:100D1000FE0E0E26FF0E1D221E220EC0E9FF1DC074
:100D2000F3FF1E504CEC1FF00E6EF3CF1DF00EC003
:100D30000CF01DC00FF0E86A1DBEFF0E1B6E1C6E8E
:100D400011500A0A02E110500AE00C500E6E0F50CA
:100D50001D6E0EC00CF01DC00FF01B6A1C6A070E42
:100D6000196EE20E0D6E800E1A6E1150D8B440D07E
:100D7000105013E01150E56E070EE56EE20EE56EC1
:100D80001C50E56E1B50E56E0F50E56E0C50E56E85
:100D9000ADEC0DF0070EE12612D01150E56E070EF6
:100DA000E56EE20EE56E1C50E56E1B50E56E0F50D1
:100DB000E56E0C50E56E25EC18F0070EE126175095
:100DC0002FE00DC0E9FF19C0F3FF1A50B1EC1FF07E
:100DD0002D0A26E0FF0E0D2619221A2218C0E5FF63
:100DE0000DC0E9FF19C0F3FF1A50DBEC1FF018D05B
:100DF0000CC0E5FF0DC0E9FF19C0F3FF1A50DBEC92
:100E00001FF00D50010F0C6E000E19200E6E000E1B
:100E10001A20E56A0CC0E9FF0EC0F3FFDBEC1FF0FF
:100E20000DC00CF019C00EF01AC00FF013C010F076
:100E3000105011E00CC0E9FF0EC0F3FF0F50B1ECF1
:100E40001FF0176E175007E00C2AD8B00E2AD8B042
:100E50000F2A1006EDD710C013F014501FE109C07F
:100E60000CF00AC00EF010C00FF00F5011E015503A
:100E7000E56E0250E56E0150E56E0050E56E9FECA8
:100E800014F0040EE1260C2AD8B00E2A0F06EDD776
:100E90000CC009F00EC00AF00FC013F016C00CF021
:100EA0000DC00DF019C00EF01AC00FF009C010F0FF
:100EB0000AC015F00DC0E9FF0EC0F3FF0F50B1ECF2
:100EC0001FF0166E1650D8B440D00CC016F0176A3A
:100ED000161E171E1650171005E00CC016F00C0653
:100EE000165033E00DC0E9FF0EC0F3FF0F50B1EC18
:100EF0001FF0116E125010E01150E56E1FEC1FF044
:100F0000166EE12A165004E0DF0E1114166E02D0A0
:100F100011C016F016C011F01150E56E0250E56ECA
:100F20000150E56E0050E56E9FEC14F0040EE126D2
:100F30000D2AD8B00E2AD8B00F2A102AD8B0152AF8
:100F40001350D8B4B7D71306B5D710C009F015C0E1
:100F50000AF014502DE010C00CF015C00DF013C0B5
:100F60000EF00E5021E0200EE56E0250E56E0150AD
:100F7000E56E0050E56E9FEC14F0040EE1260C2A9D
:100F8000D8B00D2A0E06EDD70B50E56E0250E56E77
:100F90000150E56E0050E56E9FEC14F0040EE12662
:100FA000092AD8B00A2A04D00CC009F00DC00AF0F2
:100FB000032AD8B0042AD8B0052A7EEF04F00AC06C
:100FC000F3FF0950E4CF1EF0E4CF1DF0E4CF1CF096
:100FD000E4CF1BF0E4CF1AF0E4CF19F0E4CF18F01F
:100FE000E4CF17F0E4CF16F0E4CF15F0E4CF14F01F
:100FF000E4CF13F0E4CF12F0E4CF11F0E4CF10F01F
:10100000E4CF0FF0E4CF0EF0E4CF0DF0E4CF0CF01E
:10101000E4CF0BF0E4CF0AF0E4CF09F0E4CF08F01E
:10102000E4CF07F0E4CF06F0E4CF05F0E4CF04F01E
:10103000E4CF03F0E4CF02F0E4CF01F0E4CF00F01E
:10104000E4CFD9FF12003C4E4F20464C4F41543E56
:101050000000D9CFE5FFE1CFD9FF00C0E5FF01C017
:10106000E5FF02C0E5FF03C0E5FF04C0E5FF05C0E2
:10107000E5FF06C0E5FF07C0E5FF08C0E5FF09C0C2
:10108000E5FF020EDBCF00F0010E005CD8A084D19A
:10109000050E005CD8B080D100060AC0E5FF0BC089
:1010A000E5FF0B6A00340B36E8340B36FC0B0A6E96
:1010B000000EFB6E100EFA6ED00E0A260B50FA22AE
:1010C000D8B0FB2A0A50E4CF0BF0E4CF0AF0F96E57
:1010D00070EF08F0C1EF08F01EEF09F06FEF09F0B4
:1010E0008EEC10F0006EF3CF01F0F4CF02F0E9CFF8
:1010F00003F0300ECD14046E04380F0B046E010E95
:10110000056E000E066E045006E0E86CD8900536B9
:101110000636010FFCE30650E56E0550E56E270E1E
:10112000E56E100EE56E1EEC15F0046EF3CF05F0C3
:10113000040EE126E86A05BEFF0E066E076EE56E38
:101140000650E56E0550E56E0450E56E0350E56E01
:101150000250E56E0150E56E0050E56E01EC13F0B3
:10116000006EF3CF01F0F4CF02F0E9CF03F0080EE8
:10117000E12603C0E9FF02C0F4FF01C0F3FF005005
:101180000FD1C3EC1AF0006EF3CF01F0F4CF02F0F0
:10119000E9CF03F0030ECA14046E056A0450066E0C
:1011A00006260534076E010E086E000E096E065005
:1011B0000FE007E6E86CD89008360936010FFCE32B
:1011C00007D0D89009BED88009320832010FFAE35F
:1011D0000950E56E0850E56E270EE56E100EE56EBF
:1011E0001EEC15F0046EF3CF05F0040EE126E86A5C
:1011F00005BEFF0E066E076EE56E0650E56E0550E5
:10120000E56E0450E56E0350E56E0250E56E015048
:10121000E56E0050E56E01EC13F0006EF3CF01F0C7
:10122000F4CF02F0E9CF03F0080EE12603C0E9FF96
:1012300002C0F4FF01C0F3FF0050B2D0ECEC0FF09D
:10124000006EF3CF01F0F4CF02F0E9CF03F0300EDF
:10125000B114046E04380F0B046E010E056E000EFF
:10126000066E045006E0E86CD89005360636010F8D
:10127000FCE30650E56E0550E56E270EE56E100E98
:10128000E56E1EEC15F0046EF3CF05F0040EE126BA
:10129000E86A05BEFF0E066E076EE56E0650E56E47
:1012A0000550E56E0450E56E0350E56E0250E56EA4
:1012B0000150E56E0050E56E01EC13F0006EF3CFC7
:1012C00001F0F4CF02F0E9CF03F0080EE12603C0ED
:1012D000E9FF02C0F4FF01C0F3FF005061D07EECD3
:1012E0001AF0006EF3CF01F0F4CF02F0E9CF03F073
:1012F000030E7614046E056A0450066E0626053445
:10130000076E010E086E000E096E06500FE007E62C
:10131000E86CD89008360936010FFCE307D0D89066
:1013200009BED88009320832010FFAE30950E56E90
:101330000850E56E270EE56E100EE56E1EEC15F0FA
:10134000046EF3CF05F0040EE126E86A05BEFF0E39
:10135000066E076EE56E0650E56E0550E56E0450AC
:10136000E56E0350E56E0250E56E0150E56E0050EB
:10137000E56E01EC13F0006EF3CF01F0F4CF02F054
:10138000E9CF03F0080EE12603C0E9FF02C0F4FF35
:1013900001C0F3FF005004D0E96AF46AF36AE86A16
:1013A000E4CF09F0E4CF08F0E4CF07F0E4CF06F093
:1013B000E4CF05F0E4CF04F0E4CF03F0E4CF02F093
:1013C000E4CF01F0E4CF00F0E4CFD9FF1200E8CF82
:1013D000E5FFD8CFE5FFE0CFE5FFF3CFE5FFF4CFA2
:1013E000E5FFE9CFE5FFEACFE5FFFACFE5FFFBCF69
:1013F000E5FFD9CFE5FFE1CFD9FF00C0E5FF01C090
:10140000E5FF02C0E5FF03C0E5FF04C0E5FF05C03E
:10141000E5FF06C0E5FF07C0E5FF08C0E5FF09C01E
:10142000E5FF0AC0E5FF80CF61F285CF62F287CF8A
:1014300063F2F2A0ACD081CF00F0F290100E016EFA
:10144000026A030E036E046A0450800F800F02E1EB
:10145000070E035CD8B09BD0070140510018056E01
:10146000066A015005160250061605500610D8B43B
:1014700087D000C005F0066A015005160250061616
:1014800005500610D8B45ED00304056E340E052452
:10149000066E076A05BE0768070E072206C0E9FF49
:1014A00007C0EAFFEFCF06F00650010A21E1000E67
:1014B00005BEFF0ED8900534076E086A07BE08689F
:1014C000280E0726070E082207C0E9FF08C0EAFF1A
:1014D000EECF09F0EFCF0AF0092AD8B00A2A07C0E8
:1014E000E9FF08C0EAFF09C0EEFF0AC0EFFF1FD006
:1014F0000650020A07E10350066EE56EB5EC0CF0EB
:10150000E12A15D0066A05BE0668100E0526070EEC
:10151000062205C0E9FF06C0EAFFEFCF05F005503F
:1015200006E00350056EE56ED2EC11F0E12A40C7EB
:1015300005F0066A01500512025006120550070117
:10154000406F1ED00350056E0506066A05BE06688C
:10155000100E0526070E062205C0E9FF06C0EAFFA9
:10156000EFCF05F0055006E00350056EE56E47EC41
:101570000FF0E12A0150056E051E055007014017C6
:10158000032AD8B0042A0150012602365DD7F0A202
:101590002ED0F09234C700F00050010A0FE107018D
:1015A0002851010F016E000E07012921026E015022
:1015B0000701286F02500701296F19D00050020A55
:1015C00006E1010EE56EB5EC0CF0E12A10D0070142
:1015D00010510DE0F1A806D0010EE56ED2EC11F02D
:1015E000E12A05D0010EE56E47EC0FF0E12AF0A4E8
:1015F0002ED0F09435C700F00050010A0FE107012A
:101600002A51010F016E000E07012B21026E0150BD
:1016100007012A6F025007012B6F19D00050020AF0
:1016200006E1020EE56EB5EC0CF0E12A10D00701E0
:1016300011510DE0F1A606D0020EE56ED2EC11F0CC
:10164000E12A05D0020EE56E47EC0FF0E12AF2A484
:1016500006D0F2940201532B02E30201542B9EA008
:1016600006D09E900201552B02E30201562B9EA24A
:101670000ED09E9202013C2B02E302013D2B02E3BD
:1016800002013E2B02E302013F2B02013F6BA1A2AC
:1016900006D0A1920201572B02E30201582BA4A607
:1016A0000ED0A4960201402B02E30201412B02E37B
:1016B0000201422B02E30201432B0201436BE4CF00
:1016C0000AF0E4CF09F0E4CF08F0E4CF07F0E4CF6C
:1016D00006F0E4CF05F0E4CF04F0E4CF03F0E4CF6C
:1016E00002F0E4CF01F0E4CF00F0E4CFD9FFE4CF83
:1016F000FBFFE4CFFAFFE4CFEAFFE4CFE9FFE4CF5A
:10170000F4FFE4CFF3FFE4CFE0FFE4CFD8FFE4CF72
:10171000E8FF1000E8CFE5FFD8CFE5FFE0CFE5FF19
:10172000F3CFE5FFF4CFE5FFE9CFE5FFEACFE5FF33
:10173000FACFE5FFFBCFE5FFD9CFE5FFE1CFD9FF3A
:1017400000C0E5FF01C0E5FF02C0E5FFF2A29BD0AB
:10175000F292200E02015E6F9F8607010351D8802E
:10176000E866D890006A00360050200DF3CF00F0F4
:10177000F4CF01F0410E0026070E012201500201B4
:10178000486F00500201476F800E0201496F070148
:101790000751D880E866D890006A00360050200DC6
:1017A000F3CF00F0F4CF01F0810E0026070E0122E6
:1017B00001500201456F00500201446F800E02018A
:1017C000466F04C700F005C701F006C702F0002A03
:1017D000D8B0012AD8B0022A00C0E9FF01C0F3FF47
:1017E0000250B1EC1FF0E844E844010B006E0050D9
:1017F0002FE007010751D880E866D890006A0036CC
:101800000050200DF3CF00F0016A810E0026070E74
:1018100001221D0E0026D8B0012A00C0E9FF01C038
:10182000EAFF08C7EFFF07010751200DF3CF00F0D3
:10183000016A810E0026070E01221D0E0026D8B077
:10184000012A00C0E9FF01C0EAFF08C7EFFF082B2B
:10185000C9CF5FF244C200F045C201F046C202F0B7
:1018600000C0E9FF01C0F3FF0250B1EC1FF0006EB1
:101870000201442B02E30201452B02E30201462B45
:1018800000C0C9FF57D09EA655D09E9647C200F013
:1018900048C201F049C202F0C9CFE5FF00C0E9FF2C
:1018A00001C0F3FF0250DBEC1FF00201472B02E303
:1018B0000201482B02E30201492B44C200F045C259
:1018C00001F046C202F000C0E9FF01C0F3FF025080
:1018D000B1EC1FF0006E0201442B02E30201452B24
:1018E00002E30201462B00C0C9FF02015E075E5100
:1018F00021E1020E0701DF6F0201609360810701A1
:101900000351D880E866D8900701036B0337035171
:10191000200DF3CF00F0F4CF01F0410E0026070EAA
:10192000012201500701056F00500701046F800E6E
:101930000701066FE4CF02F0E4CF01F0E4CF00F03E
:10194000E4CFD9FFE4CFFBFFE4CFFAFFE4CFEAFF17
:10195000E4CFE9FFE4CFF4FFE4CFF3FFE4CFE0FF0F
:10196000E4CFD8FFE4CFE8FF1000D9CFE5FFE1CF07
:10197000D9FF00C0E5FF01C0E5FF02C0E5FF03C0DD
:10198000E5FF04C0E5FF020EDBCF00F0016A0006B0
:101990003A0E0024026E036A070E032202C0E9FF1A
:1019A00003C0EAFFEFCF02F0010E025CD8A08FD097
:1019B000110E025CD8B08BD0020605C0E5FF06C050
:1019C000E5FF066A02340636E8340636FC0B056E7F
:1019D000000EFB6E190EFA6EF00E05260650FA2266
:1019E000D8B0FB2A0550E4CF06F0E4CF05F0F96E3D
:1019F00018EF0DF01DEF0DF022EF0DF027EF0DF0B9
:101A00002CEF0DF031EF0DF036EF0DF03BEF0DF058
:101A100040EF0DF045EF0DF04AEF0DF04FEF0DF0F8
:101A200054EF0DF059EF0DF05EEF0DF063EF0DF098
:101A3000010E02016115016E4AD0020E020161150C
:101A4000016E45D0040E02016115016E40D0080EF2
:101A500002016115016E3BD0200E02016115016E7D
:101A600036D0010E02016215016E31D0020E020164
:101A70006215016E2CD0040E02016215016E27D092
:101A8000080E02016215016E22D0100E02016215CD
:101A9000016E1DD0010E02016215016E18D0020EFA
:101AA00002016215016E13D0100E02016315016E62
:101AB0000ED0200E02016315016E09D0400E020106
:101AC0006315016E04D0800E02016315016E015092
:101AD0001DE1D8900034016E026A280E0126070E1F
:101AE000022201C0E9FF02C0EAFFEECF03F0EFCF10
:101AF00004F0FF0E0326D8A0040601C0E9FF02C0CF
:101B0000EAFF03C0EEFF04C0EFFF1AD0D890003602
:101B1000016A280E0026070E012200C0E9FF01C05D
:101B2000EAFFEECF02F0EFCF03F0022AD8B0032A8B
:101B300000C0E9FF01C0EAFF02C0EEFF03C0EFFFF3
:101B4000E4CF04F0E4CF03F0E4CF02F0E4CF01F0FF
:101B5000E4CF00F0E4CFD9FF1200D9CFE5FFE1CF09
:101B6000D9FF00C0E5FF01C0E5FF02C0E5FF03C0EB
:101B7000E5FF04C0E5FF05C0E5FF06C0E5FF07C0BF
:101B8000E5FF08C0E5FF09C0E5FF0AC0E5FF0BC09F
:101B9000E5FF0CC0E5FF0DC0E5FF0EC0E5FF0FC07F
:101BA000E5FF020EDBCF00F0030EDBCF01F0040EE9
:101BB000DBCF02F0050EDBCF03F0060EDBCF04F027
:101BC000070EDBCF05F0080EDBCF06F0200E076E08
:101BD000086A06C009F00A6A0B6A0C6AE56AE56AD7
:101BE000E56A0950E56E0350E56E0250E56E01505E
:101BF000E56E0050E56E6FEC12F00D6E080EE126FA
:101C0000300E0D263A0E0D5C02E3270E0D26FF0E58
:101C10000726D8A00806000E07240E6E020E082024
:101C20000F6E0EC0E9FF0FC0EAFF0DC0EFFF0C50B2
:101C3000E56E0B50E56E0A50E56E0950E56E0350F7
:101C4000E56E0250E56E0150E56E0050E56E01EC68
:101C500013F0006EF3CF01F0F4CF02F0E9CF03F000
:101C6000080EE1260050011002100310D8A4B1D7CD
:101C700007C000F008C001F004C002F005C003F086
:101C800000C004F001C005F0002AD8B0012A000EFF
:101C90000426020E052204C0E9FF05C0EAFFEFCFCB
:101CA00004F002C0E9FF03C0EAFF04C0EFFF022A0C
:101CB000D8B0032A000E015C02E1200E005CE0E3D4
:101CC00002C0E9FF03C0EAFF000EEF6AE4CF0FF0A5
:101CD000E4CF0EF0E4CF0DF0E4CF0CF0E4CF0BF046
:101CE000E4CF0AF0E4CF09F0E4CF08F0E4CF07F046
:101CF000E4CF06F0E4CF05F0E4CF04F0E4CF03F046
:101D0000E4CF02F0E4CF01F0E4CF00F0E4CFD9FF5C
:101D10001200D9CFE5FFE1CFD9FF00C0E5FF0701F1
:101D2000DD6B0701D86BC6AE05D0C69E010E07015C
:101D3000D86F16D0006AF1BE002A0050010A0AE1ED
:101D4000006AF2B6002A0050010A04E1020E0701FF
:101D5000D86F06D0F0A604D0909E030E0701D86F6E
:101D6000250EC614006E250A07E0010E0701DD6F7F
:101D7000C6500701D86F86D0C55007E0020E070194
:101D8000DD6FC5500701D86F7DD0D0BE07D0030EE0
:101D90000701DD6FD0500701D86F74D09DB607D012
:101DA000040E0701DD6F9D500701D86F6BD09C506A
:101DB00007E0050E0701DD6F9C500701D86F62D068
:101DC0009F50080A07E0060E0701DD6F9F500701CC
:101DD000D86F58D0A25007E0070E0701DD6FA25060
:101DE0000701D86F4FD0A55007E0080E0701DD6F3F
:101DF000A5500701D86F46D0100EF214006E100ADD
:101E000007E0090E0701DD6FF2500701D86F3AD0E5
:101E1000F150470B07E00A0E0701DD6FF150070193
:101E2000D86F30D0F050C00B07E00B0E0701DD6F0C
:101E3000F0500701D86F26D092A807D00C0E0701EA
:101E4000DD6F92500701D86F1DD093B007D00D0EF3
:101E50000701DD6F93500701D86F14D03E0E941424
:101E6000006E1C0A07E00E0E0701DD6F945007019B
:101E7000D86F08D097BE06D00F0E0701DD6F9750C0
:101E80000701D86FE4CF00F0E4CFD9FF1200D9CF1B
:101E9000E5FFE1CFD9FF00C0E5FF01C0E5FF02C0CB
:101EA000E5FF03C0E5FF04C0E5FF05C0E5FF06C090
:101EB000E5FF07C0E5FF08C0E5FF09C0E5FF020E2A
:101EC000DBCF00F00006D8900034016E2C0E012408
:101ED000026E036A020E0322D6CF04F0056A02C026
:101EE000E9FF03C0EAFF04C0EEFF05C0EFFF2C0EC0
:101EF0000124026E036A020E03222C0E0124046EDA
:101F0000056A020E052204C0E9FF05C0EAFFEECF14
:101F100004F0EFCF05F0D7CF06F0076A0650096E40
:101F2000086A085004120950051202C0E9FF03C0F4
:101F3000EAFF04C0EEFF05C0EFFF1C0E0124026E95
:101F4000036A070E03222C0E0124046E056A020E9A
:101F5000052204C0E9FF05C0EAFFEECF04F0EFCF91
:101F600005F0066A200E0126020E062201C0E9FFD6
:101F700006C0EAFFEECF01F0EFCF06F00150045E9D
:101F80000650055A02C0E9FF03C0EAFF04C0EEFF95
:101F900005C0EFFF016A160E0026070E012200C0E1
:101FA000E9FF01C0EAFF010EEF6EE4CF09F0E4CFD4
:101FB00008F0E4CF07F0E4CF06F0E4CF05F0E4CF7B
:101FC00004F0E4CF03F0E4CF02F0E4CF01F0E4CF7B
:101FD00000F0E4CFD9FF1200D9CFE5FFE1CFD9FF60
:101FE00000C0E5FF01C0E5FF02C0E5FF03C0E5FF5B
:101FF00004C0E5FF05C0E5FF06C0E5FF07C0E5FF3B
:1020000008C0E5FF09C0E5FF0AC0E5FF0BC0E5FF1A
:102010000CC0E5FF0DC0E5FF0EC0E5FF0FC0E5FFFA
:10202000B2CF00F0016AB3CF02F0036A0250056E2E
:10203000046A045000120550011257C202F058C23F
:1020400003F0B2CF04F0056AB3CF06F0076A06507A
:10205000096E086A08500412095005120150055C07
:1020600002E10050045C1EE257C206F058C207F0BD
:10207000086A096A07500D6E06500C6E0A6A0B6AF0
:102080000E6A0F6A04500A1205500B120E500C1201
:102090000F500D120DC0E9FF0CC0F4FF0BC0F3FF91
:1020A0000A5019D0046A056A0350096E0250086E7E
:1020B000066A076A0A6A0B6A005006120150071284
:1020C0000A5008120B50091209C0E9FF08C0F4FFBA
:1020D00007C0F3FF0650E4CF0FF0E4CF0EF0E4CFDB
:1020E0000DF0E4CF0CF0E4CF0BF0E4CF0AF0E4CF36
:1020F00009F0E4CF08F0E4CF07F0E4CF06F0E4CF36
:1021000005F0E4CF04F0E4CF03F0E4CF02F0E4CF35
:1021100001F0E4CF00F0E4CFD9FF1200D9CFE5FF02
:10212000E1CFD9FF00C0E5FF01C0E5FF02C0E5FF38
:1021300003C0E5FF04C0E5FF05C0E5FF06C0E5FFFD
:1021400007C0E5FF08C0E5FF09C0E5FF0AC0E5FFDD
:102150000BC0E5FF0CC0E5FF0DC0E5FF0EC0E5FFBD
:102160000FC0E5FFCECF00F0016ACFCF02F0036AC7
:102170000250056E046A045000120550011255C247
:1021800002F056C203F0CECF04F0056ACFCF06F0BE
:10219000076A0650096E086A0850041209500512B1
:1021A0000150055C02E10050045C1EE255C206F0DD
:1021B00056C207F0086A096A07500D6E06500C6E89
:1021C0000A6A0B6A0E6A0F6A04500A1205500B1253
:1021D0000E500C120F500D120DC0E9FF0CC0F4FF91
:1021E0000BC0F3FF0A5019D0046A056A0350096E48
:1021F0000250086E066A076A0A6A0B6A00500612E5
:10220000015007120A5008120B50091209C0E9FFC9
:1022100008C0F4FF07C0F3FF0650E4CF0FF0E4CF8F
:102220000EF0E4CF0DF0E4CF0CF0E4CF0BF0E4CFF0
:102230000AF0E4CF09F0E4CF08F0E4CF07F0E4CFF0
:1022400006F0E4CF05F0E4CF04F0E4CF03F0E4CFF0
:1022500002F0E4CF01F0E4CF00F0E4CFD9FF1200A8
:10226000D9CFE5FFE1CFD9FF00C0E5FF01C0E5FF11
:1022700002C0E5FF03C0E5FF04C0E5FF05C0E5FFC0
:1022800006C0E5FF07C0E5FF08C0E5FF09C0E5FFA0
:102290000AC0E5FF0BC0E5FF0CC0E5FF0DC0E5FF80
:1022A0000EC0E5FF0FC0E5FFD6CF00F0016AD7CF23
:1022B00002F0036A0250056E046A045000120550D1
:1022C000011253C202F054C203F0D6CF04F0056AE3
:1022D000D7CF06F0076A0650096E086A0850041244
:1022E000095005120150055C02E10050045C1EE239
:1022F00053C206F054C207F0086A096A07500D6E0F
:1023000006500C6E0A6A0B6A0E6A0F6A04500A12B3
:1023100005500B120E500C120F500D120DC0E9FF9C
:102320000CC0F4FF0BC0F3FF0A5019D0046A056A11
:102330000350096E0250086E066A076A0A6A0B6A41
:1023400000500612015007120A5008120B500912D1
:1023500009C0E9FF08C0F4FF07C0F3FF0650E4CF4F
:102360000FF0E4CF0EF0E4CF0DF0E4CF0CF0E4CFAB
:102370000BF0E4CF0AF0E4CF09F0E4CF08F0E4CFAB
:1023800007F0E4CF06F0E4CF05F0E4CF04F0E4CFAB
:1023900003F0E4CF02F0E4CF01F0E4CF00F0E4CFAB
:1023A000D9FF1200D9CFE5FFE1CFD9FF00C0E5FF8B
:1023B00001C0E5FF02C0E5FF03C0E5FF04C0E5FF83
:1023C00005C0E5FF06C0E5FF07C0E5FF08C0E5FF63
:1023D00009C0E5FF020EDBCF00F00004016ED890CB
:1023E0000134026E200E0224036E046A020E0422DF
:1023F000D6CF05F0066A03C0E9FF04C0EAFF05C0B6
:10240000EEFF06C0EFFF200E0224036E046A020EE8
:102410000422056A200E0226020E052202C0E9FFF0
:1024200005C0EAFFEECF02F0EFCF05F0D7CF06F000
:10243000076A0650096E086A085002120950051210
:1024400003C0E9FF04C0EAFF02C0EEFF05C0EFFFD2
:10245000010E005C2DE3070E005C2AE20AC0E5FFD6
:102460000BC0E5FF0B6A01340B36E8340B36FC0B6E
:102470000A6E000EFB6E240EFA6E920E0A260B50A8
:10248000FA22D8B0FB2A0A50E4CF0BF0E4CF0AF0CE
:10249000F96E55EF12F057EF12F058EF12F058EFB7
:1024A00012F058EF12F058EF12F0F19801D0F196B7
:1024B000E4CF09F0E4CF08F0E4CF07F0E4CF06F072
:1024C000E4CF05F0E4CF04F0E4CF03F0E4CF02F072
:1024D000E4CF01F0E4CF00F0E4CFD9FF1200D9CF70
:1024E000E5FFE1CFD9FF00C0E5FF01C0E5FF02C075
:1024F000E5FF03C0E5FF04C0E5FF05C0E5FF06C03A
:10250000E5FF07C0E5FF08C0E5FF09C0E5FF0AC019
:10251000E5FF020EDBCF00F0030EDBCF01F0040E6F
:10252000DBCF02F0050EDBCF03F0060EDBCF04F0AD
:10253000070EDBCF05F0080EDBCF06F0090EDBCF70
:1025400007F0086A096A0744010B0A6E0AB01BD03B
:10255000045004260536063607360750035C08E1AA
:102560000650025C05E10550015C02E10450005C8C
:1025700006E2D890073206320532043204D0092A26
:1025800009C008F0E0D70750035C08E10650025C80
:1025900005E10550015C02E10450005C08E30450D1
:1025A000005E0550015A0650025A0750035AD8904F
:1025B000073206320532043208C009F00806095015
:1025C000E2E103C0E9FF02C0F4FF01C0F3FF0050E5
:1025D000E4CF0AF0E4CF09F0E4CF08F0E4CF07F04D
:1025E000E4CF06F0E4CF05F0E4CF04F0E4CF03F04D
:1025F000E4CF02F0E4CF01F0E4CF00F0E4CFD9FF64
:102600001200D9CFE5FFE1CFD9FF00C0E5FF01C03F
:10261000E5FF02C0E5FF03C0E5FF04C0E5FF05C01C
:10262000E5FF06C0E5FF07C0E5FF08C0E5FF09C0FC
:10263000E5FF0AC0E5FF0BC0E5FF0CC0E5FF0DC0DC
:10264000E5FF020EDBCF00F0030EDBCF01F0040E3E
:10265000DBCF02F0050EDBCF03F0060EDBCF04F07C
:10266000070EDBCF05F0080EDBCF06F0090EDBCF3F
:1026700007F0086A096A0A6A0B6A200E0C6E0344A6
:10268000010B0D6E010E0D160050002601360236AC
:1026900003360850082609360A360B360D50D8A4E2
:1026A000088007500B5C08E106500A5C05E1055004
:1026B000095C02E10450085C09E30450085E05501F
:1026C000095A06500A5A07500B5A00800C2ED7D7C9
:1026D00003C0E9FF02C0F4FF01C0F3FF0050E4CFE4
:1026E0000DF0E4CF0CF0E4CF0BF0E4CF0AF0E4CF30
:1026F00009F0E4CF08F0E4CF07F0E4CF06F0E4CF30
:1027000005F0E4CF04F0E4CF03F0E4CF02F0E4CF2F
:1027100001F0E4CF00F0E4CFD9FF1200D9CFE5FFFC
:10272000E1CFD9FF00C0E5FF01C0E5FF02C0E5FF32
:1027300003C0E5FF04C0E5FF05C0E5FF020EDBCFE7
:1027400000F0010E005CD8A065D0070E005CD8B088
:1027500061D004C701F005C702F006C703F0060EFA
:102760000126000E0222000E032200060050012660
:10277000E86A0222E86A032201C0E9FF02C0F3FF0F
:102780000350B1EC1FF0016EFF0A24E104C701F011
:1027900005C702F006C703F0060E0126000E02224E
:1027A000000E032200500126E86A0222E86A032292
:1027B00001C0E9FF02C0F3FF0350B1EC1FF0046E4B
:1027C000040604C0E5FF01C0E9FF02C0F3FF0350A7
:1027D000DBEC1FF004C701F005C702F006C703F0E9
:1027E000060E0126000E0222000E0322046A056A6C
:1027F00001500026025004220350052200C0E9FFC8
:1028000004C0F3FF0550B1EC1FF0006E810E0026EE
:10281000005001D0800EE4CF05F0E4CF04F0E4CF07
:1028200003F0E4CF02F0E4CF01F0E4CF00F0E4CF16
:10283000D9FF1200D9CFE5FFE1CFD9FF00C0E5FFF6
:1028400001C0E5FF02C0E5FF03C0E5FF04C0E5FFEE
:1028500005C0E5FF06C0E5FF07C0E5FF08C0E5FFCE
:1028600009C0E5FF0AC0E5FF0BC0E5FF0CC0E5FFAE
:10287000020EDBCF00F0030EDBCF01F0040EDBCF46
:1028800002F0050EDBCF03F0060EDBCF04F0070EDF
:10289000DBCF05F0080EDBCF06F0090EDBCF07F02B
:1028A00000C008F001C009F002C00AF006C00BF039
:1028B00007C00CF0FF0E0626D8A007060B500C1020
:1028C0001CE003C0E9FF04C0F3FF0550B1EC1FF0AA
:1028D0000B6E032AD8B0042AD8B0052A0BC0E5FF36
:1028E00000C0E9FF01C0F3FF0250DBEC1FF0002A3B
:1028F000D8B0012AD8B0022AD9D70AC0F4FF09C03B
:10290000F3FF0850E4CF0CF0E4CF0BF0E4CF0AF073
:10291000E4CF09F0E4CF08F0E4CF07F0E4CF06F00D
:10292000E4CF05F0E4CF04F0E4CF03F0E4CF02F00D
:10293000E4CF01F0E4CF00F0E4CFD9FF1200D9CF0B
:10294000E5FFE1CFD9FF00C0E5FF01C0E5FF02C010
:10295000E5FF03C0E5FF04C0E5FF05C0E5FF06C0D5
:10296000E5FF07C0E5FF020EDBCF00F0030EDBCF73
:1029700001F0040EDBCF02F0050EDBCF03F002C046
:1029800006F00650046E800A28E100C0E9FF01C08D
:10299000F3FF0250B6EC1EF0056EF3CF06F0F4CF55
:1029A00007F003C0E5FF05C0E9FF06C0F3FF0750CD
:1029B000DBEC1FF0052AD8B0062AD8B0072A05C0DC
:1029C000E5FF06C0F4FF07C0F6FF00C0E9FF01C045
:1029D000F3FF0250C2EC1FF01ED004AA1CD0200E40
:1029E000041A045004E1035006EC04F014D004501F
:1029F000010A04E1035002EC04F00DD004500F0A68
:102A000004E103500AEC04F006D004500E0A03E17E
:102A10000350ECEC1FF0E4CF07F0E4CF06F0E4CF76
:102A200005F0E4CF04F0E4CF03F0E4CF02F0E4CF0C
:102A300001F0E4CF00F0E4CFD9FF1200D9CFE5FFD9
:102A4000E1CFD9FF00C0E5FF01C0E5FF02C0E5FF0F
:102A500003C0E5FF04C0E5FF05C0E5FF06C0E5FFD4
:102A600007C0E5FF020EDBCF00F0030EDBCF01F065
:102A7000040EDBCF02F0050EDBCF03F0D88001AEF1
:102A8000D890046A0436045007E0011C066E001C4E
:102A9000056E054A062A04D000C005F001C006F004
:102AA00005C000F006C001F0D88003AED890056ADA
:102AB0000536055007E0031C076E021C066E064A29
:102AC000072A04D002C006F003C007F00750E56EE5
:102AD0000650E56E0150E56E0050E56E44EC19F0CD
:102AE000006EF3CF01F0040EE1260550041A0450E5
:102AF0000AE0011C036E001C026E024A032A03C096
:102B0000F3FF025003D001C0F3FF0050E4CF07F001
:102B1000E4CF06F0E4CF05F0E4CF04F0E4CF03F017
:102B2000E4CF02F0E4CF01F0E4CF00F0E4CFD9FF2E
:102B30001200D9CFE5FFE1CFD9FF00C0E5FF01C00A
:102B4000E5FF02C0E5FF03C0E5FF04C0E5FF05C0E7
:102B5000E5FF06C0E5FF020EDBCF00F00701DF5105
:102B6000020A02E189EC0EF07F0E0701D615016E14
:102B70000701D66F07010751200DF3CF01F0F4CF05
:102B800002F0810E0126070E02220150800E036E14
:102B9000070E056EC10E046E800E066E000EE56E09
:102BA000200EE56E0650E56E0550E56E0450E56EAC
:102BB0000350E56E0250E56E0150E56E1AEC14F01C
:102BC000080EE1269D9607010751D880E866D89047
:102BD0000701076B0737020160839D86DEC701F09E
:102BE000012A01500701DE6F0050010A05E136ECB1
:102BF0001FF0006E0050FBE0E4CF06F0E4CF05F0DC
:102C0000E4CF04F0E4CF03F0E4CF02F0E4CF01F02E
:102C1000E4CF00F0E4CFD9FF12000FEF16F09FECE5
:102C20001FF011EF16F0E806E56E630E51EC16F09A
:102C3000630E32EC16F0090E45EC16F0E45011E08C
:102C400000D0E56E630E51EC16F0630E32EC16F018
:102C5000090E45EC16F000D000D00000E450E82E3C
:102C6000F0D71200E806E56E090E45EC16F0E450C8
:102C70000BE000D0E56E090E45EC16F000D0E450F4
:102C8000000000D0E82EF6D71200E8060000E85059
:102C900007E000D000D000D000D00000E82EFAD726
:102CA0001200E806E56E090E6AEC16F0630E45ECBC
:102CB00016F0E4500EE000D0E56E090E6AEC16F056
:102CC000630E45EC16F000D000D00000E450E82E72
:102CD000F3D71200E806E56E630E45EC16F0E450FB
:102CE0000BE000D0E56E630E45EC16F000D000D08E
:102CF0000000E450E82EF6D71200D9CFE5FFE1CF6F
:102D0000D9FF00C0E5FF01C0E5FF02C0E5FF99EC77
:102D100019F0D1EC1EF0010E006E090E005C0AE203
:102D2000000EE56E0050E56E2DEC1DF0020EE12662
:102D3000002AF3D7080E006E100E005C0EE2C50EDE
:102D40000024016E026A070E022201C0E9FF02C0E0
:102D5000EAFF7F0EEF6E002AEFD7010E006E090E1C
:102D6000005C0AE2010EE56E0050E56E08EC1BF017
:102D7000020EE126002AF3D7010E006E050E005C5C
:102D800007E20050E56E37EC1AF0E12A002AF6D788
:102D90000701DE6B010E0701DF6FC90E0701E06F4F
:102DA000020160856091000EE56E99EC15F0E12A54
:102DB000D0EC1FF036EC1FF0006E0050FBE02FEC63
:102DC0001EF0E4CF02F0E4CF01F0E4CF00F0E4CF56
:102DD000D9FF1200D9CFE5FFE1CFD9FF00C0E5FF51
:102DE00001C0E5FF02C0E5FF03C0E5FF04C0E5FF49
:102DF00005C0E5FF06C0E5FF07C0E5FF020EDBCF1B
:102E000000F0030EDBCF01F0040EDBCF02F0050E65
:102E1000DBCF03F0060EDBCF04F0070EDBCF05F0AF
:102E2000080EDBCF06F0090EDBCF07F002015D6B69
:102E30000050010A02E1015001E004D0010E02013C
:102E40005D6F01D0BA6A0250010A02E1035001E04D
:102E500003D002015D8301D0B76A0450010A02E188
:102E6000055001E003D002015D8501D0736A065070
:102E7000010A02E1075001E003D002015D8701D0A1
:102E8000706AE4CF07F0E4CF06F0E4CF05F0E4CFBA
:102E900004F0E4CF03F0E4CF02F0E4CF01F0E4CF9C
:102EA00000F0E4CFD9FF1200D9CFE5FFE1CFD9FF81
:102EB00000C0E5FF01C0E5FF02C0E5FF020EDBCF69
:102EC00000F0030EDBCF01F0040EDBCF02F00F0E9B
:102ED0000014C66E025003E0800E026E01D0026A3A
:102EE00002C0C7FF040E015C2EE203C0E5FF04C070
:102EF000E5FF046A01340436E8340436FC0B036E43
:102F0000000EFB6E2F0EFA6E200E03260450FA22DE
:102F1000D8B0FB2A0350E4CF04F0E4CF03F0F96EFD
:102F200098EF17F09BEF17F09EEF17F0A1EF17F057
:102F3000C698C78C08D0C698C79C05D0C688C78CD1
:102F400002D0C688C79C0050050A03E19486C79E3C
:102F500006D00050010A02E1928A01D09496949A18
:102F60009488978EF19CF288C68AE4CF02F0E4CF71
:102F700001F0E4CF00F0E4CFD9FF1200D9CFE5FF94
:102F8000E1CFD9FF00C0E5FF020EDBCF00F0010E5C
:102F9000005CD8A055D0050E005CD8B051D000061A
:102FA00001C0E5FF02C0E5FF026A00340236E834E2
:102FB0000236FC0B016E000EFB6E2F0EFA6ED60E63
:102FC00001260250FA22D8B0FB2A0150E4CF02F0C9
:102FD000E4CF01F0F96EF3EF17F0FFEF17F00AEF0F
:102FE00018F016EF18F0CD90CD8ECF0ECD14006EE8
:102FF000300E0010CD6E9E909D80CD8021D0CA9461
:10300000FC0ECA14006E020E0010CA6E9E929D82C3
:10301000CA8416D0B190B18ECF0EB114006E300EAE
:103020000010B16EA192A082B1800AD07694FC0EFD
:103030007614006E020E0010766EA496A386768437
:10304000E4CF00F0E4CFD9FF1200D9CFE5FFE1CF04
:10305000D9FF00C0E5FF01C0E5FF02C0E5FF03C0E6
:10306000E5FF04C0E5FF05C0E5FF06C0E5FF020E71
:10307000DBCF00F0030EDBCF01F0040EDBCF02F05C
:10308000050EDBCF03F0060EDBCF04F0070EDBCF1F
:1030900005F0080EDBCF06F0D88003AED89016E31B
:1030A00006500A0A13E104C0E9FF05C0EAFF2D0E2D
:1030B000EF6E042AD8B0052A031E021E011E006C02
:1030C00005E1012A03E1022AD8B4032A0650E56E7D
:1030D0000550E56E0450E56E0350E56E0250E56E56
:1030E0000150E56E0050E56EADEC0DF0070EE126E7
:1030F000E4CF06F0E4CF05F0E4CF04F0E4CF03F032
:10310000E4CF02F0E4CF01F0E4CF00F0E4CFD9FF48
:103110001200D9CFE5FFE1CFD9FF00C0E5FF020ED5
:10312000DBCF00F0010E005CD8A04FD0050E005C94
:10313000D8B04BD0000601C0E5FF02C0E5FF026A2F
:1031400000340236E8340236FC0B016E000EFB6ED2
:10315000310EFA6E6C0E01260250FA22D8B0FB2A0C
:103160000150E4CF02F0E4CF01F0F96EBEEF18F0A9
:10317000C5EF18F0D2EF18F0D9EF18F0CF6ACE6A89
:103180000201556B0201566B20D0CC6A010ECC6E49
:1031900002013C6B02013D6B02013E6B02013F6B81
:1031A000CB6A13D0B36AB26A0201576B0201586B43
:1031B0000CD0786A010E786E0201406B0201416BFF
:1031C0000201426B0201436B776AE4CF00F0E4CF67
:1031D000D9FF1200D9CFE5FFE1CFD9FF00C0E5FF4D
:1031E00001C0E5FF020EDBCF00F0030EDBCF01F0E4
:1031F000010E005C03E3070E005C02E3800E3DD08D
:103200000050E56E8EEC13F0006EE12A00C05BF218
:103210000050810A04E000507F0A04E007D0020158
:103220005A6B07D0010E02015A6F03D0020E020141
:103230005A6F020E02015A5D10E202015B51020157
:103240005C190BE00701012B07010245FE0B006E24
:1032500002015A5100240701026F5BC25CF20701B0
:103260000151011809E102C759F20701026B070178
:10327000016B0201595101D0FE0EE4CF01F0E4CF01
:1032800000F0E4CFD9FF1200D9CFE5FFE1CFD9FF9D
:1032900000C0E5FF01C0E5FF02C0E5FF03C0E5FF98
:1032A00004C0E5FF05C0E5FF06C0E5FF07C0E5FF78
:1032B000020EDBCF00F0030EDBCF01F0040EDBCFFC
:1032C00002F0050EDBCF03F0046A056A100E066EED
:1032D0000144010B076E010E07160050002601364F
:1032E0000450042605360750D8A404800350055C1A
:1032F00002E10250045C05E30250045E0350055AEB
:103300000080062EE5D701C0F3FF0050E4CF07F0A0
:10331000E4CF06F0E4CF05F0E4CF04F0E4CF03F00F
:10332000E4CF02F0E4CF01F0E4CF00F0E4CFD9FF26
:103330001200D9CFE5FFE1CFD9FF070EB46E886A3E
:10334000876A866A856A846A836A826A816A806A11
:10335000916A906A8F6A8E6A8D6A8C6A8B6A8A6AB1
:10336000896AFF0E926E936EBF0E946E956A700E10
:10337000966E9F0E976EE40E986E0F0E996EFF0E6E
:103380009A6E0F0EC16E070EC06EF19EB0989C8EA5
:10339000A26A9F6AA06A9D6AA36AA56A000EE56E8A
:1033A000010EE56E050EE56E54EC17F0030EE126F6
:1033B0009F86D08E9E969D869382F06AF288F09EBC
:1033C000F098F192F09AF16AF28CF28EE4CFD9FF84
:1033D0001200CA0EF66E3F0EF76E000EF86E090070
:1033E000F550056E0900F550066E04E1056702D040
:1033F00036EF1AF00900F550006E0900F550016E25
:103400000900F550026E09000900F550E96E090047
:10341000F550EA6E090009000900F550036E090035
:10342000F550046E09000900F6CF07F0F7CF08F059
:10343000F8CF09F000C0F6FF01C0F7FF02C0F8FFA7
:10344000035002E1045007E00900F550EE6E030658
:10345000F8E20406F9D707C0F6FF08C0F7FF09C075
:10346000F8FF050601E20606F5EF19F01200D9CFC4
:10347000E5FFE1CFD9FF00C0E5FF020EDBCF00F092
:10348000010E005C36E3050E005C33E2000601C06D
:10349000E5FF02C0E5FF026A00340236E834023676
:1034A000FC0B016E000EFB6E340EFA6EC40E01268C
:1034B0000250FA22D8B0FB2A0150E4CF02F0E4CF48
:1034C00001F0F96E6AEF1AF06EEF1AF072EF1AF06F
:1034D00076EF1AF0CD909E909D900BD0CA949E925C
:1034E0009D9207D0B190A192A09203D07694A49619
:1034F000A396E4CF00F0E4CFD9FF1200D9CFE5FFC7
:10350000E1CFD9FF00C0E5FF01C0E5FF02C0E5FF44
:1035100003C0E5FF04C0E5FF05C0E5FF06C0E5FF09
:1035200007C0E5FF78CF00F0016A02014251056E45
:1035300002014151046E02014051036E026A066AA3
:10354000076A00500212015003120650041207507D
:10355000051205C0E9FF04C0F4FF03C0F3FF0250E9
:10356000E4CF07F0E4CF06F0E4CF05F0E4CF04F0B9
:10357000E4CF03F0E4CF02F0E4CF01F0E4CF00F0B9
:10358000E4CFD9FF1200D9CFE5FFE1CFD9FF00C0CA
:10359000E5FF01C0E5FF02C0E5FF03C0E5FF04C091
:1035A000E5FF05C0E5FF06C0E5FF07C0E5FFCCCF9E
:1035B00000F0016A02013E51056E02013D51046EA8
:1035C00002013C51036E026A066A076A0050021249
:1035D00001500312065004120750051205C0E9FFFE
:1035E00004C0F4FF03C0F3FF0250E4CF07F0E4CFC0
:1035F00006F0E4CF05F0E4CF04F0E4CF03F0E4CF2D
:1036000002F0E4CF01F0E4CF00F0E4CFD9FF1200E4
:10361000D9CFE5FFE1CFD9FF00C0E5FF01C0E5FF4D
:1036200002C0E5FF020EDBCF00F0030EDBCF01F09E
:10363000015015E00150010A24E10004016E010E61
:10364000026E015005E0E86CD8900236010FFDE3F0
:1036500002500701D711016E0701D76F12D0000683
:10366000010E016E005005E0E86CD8900136010FA4
:10367000FDE3011C006E0701D75100160050070141
:10368000D76FE4CF02F0E4CF01F0E4CF00F0E4CF55
:10369000D9FF1200D9CFE5FFE1CFD9FF00C0E5FF88
:1036A000020EDBCF00F0010E005C30E3070E005C81
:1036B0002DE2000601C0E5FF02C0E5FF026A00340A
:1036C0000236E8340236FC0B016E000EFB6E360E3D
:1036D000FA6EEA0E01260250FA22D8B0FB2A0150F7
:1036E000E4CF02F0E4CF01F0F96E81EF1BF083EF3D
:1036F0001BF085EF1BF085EF1BF085EF1BF085EFCE
:103700001BF0F09803D0F09A01D0F296E4CF00F0CD
:10371000E4CFD9FF1200D9CFE5FFE1CFD9FF00C038
:10372000E5FF020EDBCF00F0010E005C30E3070E78
:10373000005C2DE2000601C0E5FF02C0E5FF026A61
:1037400000340236E8340236FC0B016E000EFB6ECC
:10375000370EFA6E6C0E01260250FA22D8B0FB2A00
:103760000150E4CF02F0E4CF01F0F96EC2EF1BF09C
:10377000C4EF1BF0C6EF1BF0C6EF1BF0C6EF1BF04B
:10378000C6EF1BF0F08803D0F08A01D0F286E4CFB8
:1037900000F0E4CFD9FF1200D9CFE5FFE1CFD9FF88
:1037A00000C0E5FF01C0E5FF02C0E5FF006E020EAC
:1037B000DBCF01F0030EDBCF02F0AC6AAB6A00B0E6
:1037C000AC8800A202D0AC8CAB8C00A401D0AC8E33
:1037D00000A602D0AB8801D0AB8A00A802D0AC848E
:1037E00001D0AC949E9800AC02D09D8A01D09D9AE5
:1037F0009E9A00AE02D09D8801D09D980150AF6E78
:10380000AC8AAB8EE4CF02F0E4CF01F0E4CF00F05D
:10381000E4CFD9FF1200D9CFE5FFE1CFD9FF00C037
:10382000E5FF01C0E5FF02C0E5FF04C700F005C7E2
:1038300001F006C702F01F0E0026000E0122000E46
:10384000022200C0E9FF01C0F3FF0250B1EC1FF0FB
:10385000006E016A000EE56E390EE56E6C0EE56EC7
:103860000150E56E0050E56E000EE56E390EE56E16
:10387000520EE56EBDEC1CF0080EE126E4CF02F01E
:10388000E4CF01F0E4CF00F0E4CFD9FF1200D9CFAC
:10389000E5FFE1CFD9FF00C0E5FF01C0E5FF02C0B1
:1038A000E5FF03C0E5FF020EDBCF00F0030EDBCF28
:1038B00001F0005001101BE0000E015C02E1190E46
:1038C000005C05E200C002F001C003F003D0190E55
:1038D000026E036A02500A0DF3CF03F0035013EC9B
:1038E00016F0036A0250005E0350015AE2D7E4CF9B
:1038F00003F0E4CF02F0E4CF01F0E4CF00F0E4CF36
:10390000D9FF1200D9CFE5FFE1CFD9FF00C0E5FF15
:1039100001C0E5FF02C0E5FF04C700F005C701F0E4
:1039200006C702F0020E0026000E0122000E02223F
:1039300000C0E9FF01C0F3FF0250B1EC1FF0006EC0
:10394000E4CF02F0E4CF01F0E4CF00F0E4CFD9FF00
:1039500012000A564558206D617374657220636FBA
:103960006465207625640A25730A00004F70656E31
:103970005665782D302E352E3000D9CFE5FFE1CFBA
:10398000D9FF00C0E5FF01C0E5FF020ED924006E9B
:10399000000EDA20016E030E0026D8B0012A800E38
:1039A000E56E0150E56E0050E56E040EDBCFE5FFDD
:1039B000030EDBCFE5FF020EDBCFE5FF02014C512A
:1039C000E56E4B51E56E4A51E56E0EEC04F0006E6B
:1039D000F3CF01F0090EE12601C0F3FF0050E4CF60
:1039E00001F0E4CF00F0E4CFD9FF1200D9CFE5FF1A
:1039F000E1CFD9FF00C0E5FF01C0E5FF02C0E5FF50
:103A000003C0E5FF020EDBCF00F0030EDBCF01F0B9
:103A10000050011017E0000E015C02E1FF0E005C97
:103A200005E200C002F001C003F003D0FF0E026EF9
:103A3000036A025051EC16F0036A0250005E035014
:103A4000015AE6D7E4CF03F0E4CF02F0E4CF01F06F
:103A5000E4CF00F0E4CFD9FF1200D9CFE5FFE1CFEA
:103A6000D9FF00C0E5FF01C0E5FF02C0E5FF020E7F
:103A7000DBCF00F0030EDBCF01F00150800A01E143
:103A8000012A010E005C13E3090E005C10E200063F
:103A9000026AC50E0026070E02227F0E012600C014
:103AA000E9FF02C0EAFF01C0EFFFE86A01D0800E23
:103AB000E4CF02F0E4CF01F0E4CF00F0E4CFD9FF8F
:103AC0001200D9CFE5FFE1CFD9FF00C0E5FF01C06B
:103AD000E5FF020EDBCF00F0030EDBCF01F000505C
:103AE000010A04E00050020A0AE012D00150010B62
:103AF000E838F46EF150EF0BF410F16E09D001507C
:103B0000010BE838E840F46EF150F70BF410F16E59
:103B1000E4CF01F0E4CF00F0E4CFD9FF1200D9CF19
:103B2000E5FFE1CFD9FF00C0E5FF01C0E5FF020ED0
:103B3000DBCF00F0010E005C13E3090E005C10E225
:103B40000006016AC50E0026070E012200C0E9FF2B
:103B500001C0EAFFEFCF00F0810E0026005001D037
:103B6000800EE4CF01F0E4CF00F0E4CFD9FF1200E3
:103B7000D9CFE5FFE1CFD9FF00C0E5FF01C0E5FFE8
:103B800002C0E5FF04C700F005C701F006C702F058
:103B9000002AD8B0012AD8B0022A00C0E9FF01C02B
:103BA000F3FF0250B1EC1FF0E844E844010B006E53
:103BB000E4CF02F0E4CF01F0E4CF00F0E4CFD9FF8E
:103BC0001200D9CFE5FFE1CFD9FF00C0E5FFAECFAE
:103BD00000F00050700A0FE1000EE56E3C0EE56E3D
:103BE000000EE56EBDEC1CF0030EE126000EE56E46
:103BF00099EC15F0E12AE4CF00F0E4CFD9FF1200F0
:103C000048656C6C6F2C20576F726C64210A000041
:103C1000D9CFE5FFE1CFD9FF0201385104E1010E10
:103C20000201386F19D002013A5105E1010E02017B
:103C30003A6F030E11D00201395105E1010E020164
:103C4000396F020E09D002013B5105E1010E02015C
:103C50003B6F040E01D0E86AE4CFD9FF1200D9CF40
:103C6000E5FFE1CFD9FF00C0E5FF0701095115E1EC
:103C7000D56A0201536B0201546BD59CF00ED5142A
:103C8000006E030E0010D56EF194F28AF28CF28E63
:103C9000F294D58E010E0701096FE4CF00F0E4CF56
:103CA000D9FF1200D9CFE5FFE1CFD9FF00C0E5FF72
:103CB00001C0E5FF020EDBCF00F00050E56E37ECEF
:103CC0001AF0E12A0006016A380E0026020E0122CF
:103CD00000C0E9FF01C0EAFF000EEF6EE4CF01F083
:103CE000E4CF00F0E4CFD9FF12000000000041074C
:103CF0008000000000000000000000000000000044
:103D000000000000000000000000000000000000B3
:103D100000000000000000000000000000000000A3
:103D2000000000000000000000000000E8AE0AD023
:103D3000F3CFEAFFEE50EECFF3FFEECFF4FFEECF7E
:103D4000E9FF1200E8BC11D0E9CFF6FFF3CFF7FF8F
:103D5000F86E0900F5500900F5CFF3FF0900F5CF23
:103D6000F4FF0900F5CFE9FF12001200E8AE08D019
:103D7000F3CFEAFFEE50EECFF3FFEECFF4FF1200E9
:103D8000E8BC0ED0E9CFF6FFF3CFF7FFF86E0900DD
:103D9000F5500900F5CFF3FF0900F5CFF4FF12004D
:103DA0001200D9CFE5FFE1CFD9FF000EE56E150E69
:103DB000E56E3C0ECCEC1BF0020EE126320E6AECF6
:103DC00016F002014A6B02014B6B200E02014C6F90
:103DD000E4CFD9FF1200D9CFE5FFE1CFD9FF00C072
:103DE000E5FF020EE56E8BEC1FF0E12A010EE56E99
:103DF00099EC15F0E12AB8EC1DF0006E0050FBE0E4
:103E0000E4CF00F0E4CFD9FF1200D9CFE5FFE1CF36
:103E1000D9FF00C0E5FF020EE56E62EC1FF0E12A5B
:103E2000010EE56E99EC15F0E12AB8EC1DF0006E7C
:103E30000050FBE1E4CF00F0E4CFD9FF1200D9CF6E
:103E4000E5FFE1CFD9FF00C0E5FF020EDBCF00F0B8
:103E5000610E005C05E37B0E005C02E2010E01D006
:103E6000E86AE4CF00F0E4CFD9FF1200D9CFE5FF34
:103E7000E1CFD9FF00C0E5FF006A020160B1002A6E
:103E8000005004E09D96020160919D860050E4CFB1
:103E900000F0E4CFD9FF1200E8AE06D0F3CFEAFF7E
:103EA000EE50EECFF3FF1200E8BC0BD0E9CFF6FFE7
:103EB000F3CFF7FFF86E0900F5500900F5CFF3FFD7
:103EC00012001200D9CFE5FFE1CFD9FF00C0E5FF16
:103ED000020EDBCF00F0001E0701D5510016005086
:103EE0000701D56FE4CF00F0E4CFD9FF120011EE47
:103EF000FFF021EEFFF0F86AA68EA69CE9680E0E90
:103F0000EA6E0068000EED6A0050FDE1E9EC19F080
:103F10009FEC1FF0FFD7D9CFE5FFE1CFD9FF00C05D
:103F2000E5FF020EDBCF00F00701D5510012005073
:103F30000701D56FE4CF00F0E4CFD9FF12007DEC8C
:103F400016F0D1EC1EF09EAA02D0E1EC1DF0000E9E
:103F5000E56E7D0EE56EF6EC1CF0020EE126F3D761
:103F60001200E8AE04D0F3CFEAFFEE501200E8BC36
:103F700008D0E9CFF6FFF3CFF7FFF86E0900F55050
:103F800012001200E8AE09D0F3CFEAFFE4CFEEFF53
:103F9000F4CFEEFFF6CFEEFF1200E8AC12001200F5
:103FA000D9CFE5FFE1CFD9FF8282808894929298A1
:103FB000E4CFD9FF1200E8AE05D0F3CFEAFFE4CF9B
:103FC000EEFF1200E8AC120012000100EA3C000013
:0E3FD0000007000041000000E8CF7FFF120054
:00000001FF
