:020000040000FA
:10080000C1EF3AF0C96E12007FEF18F0006AC2B271
:06081000002A0050120056
:0808180073EF12F0D9CFE5FFE8
:10082000E1CFD9FF00C0E5FF01C0E5FF02C0E5FF51
:1008300003C0E5FF04C0E5FF05C0E5FF06C0E5FF16
:1008400007C0E5FF08C0E5FF09C0E5FF0AC0E5FFF6
:100850000BC0E5FF0CC0E5FF0DC0E5FF0EC0E5FFD6
:100860000FC0E5FF10C0E5FF11C0E5FF12C0E5FFB6
:1008700013C0E5FF14C0E5FF15C0E5FF16C0E5FF96
:10088000020EDBCF00F0030EDBCF01F0040EDBCF56
:1008900002F0050EDBCF03F0010E035C03E3070E4D
:1008A000035C03E3800E6CEF0AF059EC28F0046E51
:1008B000F3CF05F0F4CF06F0E9CF07F0D5A604D0CA
:1008C000010E086E096A0FD0070ED5140A6E020ECB
:1008D000086E000E096E0A5006E0E86CD8900836E3
:1008E0000936010FFCE30950E56E0850E56E270E4E
:1008F000E56E100EE56EDBEC2CF0086EF3CF09F020
:10090000040EE126E86A09BEFF0E0A6E0B6EE56E64
:100910000A50E56E0950E56E0850E56E0750E56E29
:100920000650E56E0550E56E0450E56EBEEC2AF00B
:100930000201AF6FF3CFB0F2F4CFB1F2E9CFB2F270
:10094000080EE12600C0D9F201C0DAF202C0DBF2E3
:1009500003500E0DF3CF04F0F4CF05F0066A0050FB
:10096000042601500522025006220201DB51800FAD
:10097000F36E0650800FF35C07E105500201DA5D6B
:1009800003E104500201D95DD8B0C9D0D9C207F043
:10099000DAC208F0DBC209F0080E0726000E0822B2
:1009A000000E092207C0E9FF08C0F3FF0950E9EC77
:1009B0003AF0E8380F0B076E0706086A07BE0868AA
:1009C000460E0726070E082207C0E9FF08C0EAFF07
:1009D000EFCF07F0075037E0D9C207F0DAC208F0CE
:1009E000DBC209F0080E0726000E0822000E0922BD
:1009F00007C0E9FF08C0F3FF0950E9EC3AF0E83816
:100A00000F0B076EE56E4AEC38F0E12AD9C207F009
:100A1000DAC208F0DBC209F0080E0726000E082231
:100A2000000E092207C0E9FF08C0F3FF0950E9ECF6
:100A30003AF0E886E56E07C0E9FF08C0F3FF095009
:100A40002FEC3BF036D0D9C207F0DAC208F0DBC297
:100A500009F0080E0726000E0822000E092207C022
:100A6000E9FF08C0F3FF0950E9EC3AF0E8380F0B52
:100A7000076EE56E98EC29F0E12AD9C207F0DAC2D8
:100A800008F0DBC209F0080E0726000E0822000E4F
:100A9000092207C0E9FF08C0F3FF0950E9EC3AF06A
:100AA000E896E56E07C0E9FF08C0F3FF09502FEC98
:100AB0003BF0D9C207F0DAC208F0DBC209F00D0E34
:100AC0000726000E0822000E0922000EE56E07C060
:100AD000E9FF08C0F3FF09502FEC3BF0D9C207F043
:100AE000DAC208F0DBC209F00A0E0726000E08225F
:100AF000000E0922000EE56E000EF46E07C0E9FF3D
:100B000008C0F3FF095018EC3BF00E0E0201D92784
:100B1000000E0201DA23000E0201DB2326D7045067
:100B2000F20F076EFF0E0520086EFF0E0620096EFD
:100B300003C00AF303C009F359EC28F00A6EF3CF9F
:100B40000BF0F4CF0CF0E9CF0DF0D5A604D0010ED8
:100B50000E6E0F6A0FD0070ED514106E020E0E6EB9
:100B6000000E0F6E105006E0E86CD8900E360F366F
:100B7000010FFCE30F50E56E0E50E56E270EE56E9B
:100B8000100EE56EDBEC2CF00E6EF3CF0FF0040EC2
:100B9000E126E86A0FBEFF0E106E116EE56E105072
:100BA000E56E0F50E56E0E50E56E0D50E56E0C5083
:100BB000E56E0B50E56E0A50E56EBEEC2AF00A6E4B
:100BC000F3CF0BF0F4CF0CF0E9CF0DF0080EE126D7
:100BD0000201AF510A5C0201B36F0201B0510B5820
:100BE0000201B46F0201B1510C580201B56F02014C
:100BF000B2510D580201B66F68C70AF069C70BF011
:100C0000E86A070169BFFF0E0C6E0D6EE56E0C50B1
:100C1000E56E0B50E56E0A50E56E0201B651E56EC9
:100C20000201B551E56E0201B451E56E0201B35106
:100C3000E56E2CEC2AF00A6EF3CF0BF0F4CF0CF03B
:100C4000E9CF0DF0080EE1260A500B100C100D1024
:100C5000D8A407EF0AF007C0D9F208C0DAF209C039
:100C6000DBF20201DB51800FF36E0250800FF35C68
:100C700007E101500201DA5D03E100500201D95D94
:100C8000D8A002EF0AF0D9C20AF0DAC20BF0DBC238
:100C90000CF00AC0E9FF0BC0F3FF0C50CBEC39F0AD
:100CA0000A6EF3CF0BF0F4CF0CF0E9CF0DF00D503E
:100CB0000201B65D0BE10C500201B55D07E10B507E
:100CC0000201B45D03E10A500201B35D02E30301D6
:100CD0000907D9C20AF0DAC20BF0DBC20CF0080E29
:100CE0000A26000E0B22000E0C220AC0E9FF0BC0E0
:100CF000F3FF0C50E9EC3AF0E8380F0B0A6E0A06E5
:100D0000D8900A360B6A0ABE0B683A0E0A26070EFE
:100D10000B220AC0E9FF0BC0EAFFEECF0AF0EFCFCB
:100D20000BF00AC0B7F20BC0B8F20201B96B0201B6
:100D3000BA6BD9C20AF0DAC20BF0DBC20CF0040EB7
:100D40000A26000E0B22000E0C220AC0E9FF0BC07F
:100D5000F3FF0C5081EC3AF00A6EF3CF0BF00C6A03
:100D60000D6A0D500201BA5D0BE10C500201B95D34
:100D700007E10B500201B85D03E10A500201B75DC3
:100D800002E303010A07D9C20AF0DAC20BF0DBC2A0
:100D90000CF0060E0A26000E0B22000E0C220AC0D2
:100DA000E9FF0BC0F3FF0C5081EC3AF00A6EF3CF71
:100DB0000BF0D8800BAED8900A6A0A360A50D88059
:100DC000E866D8900A6A0A360A5017E0D9C20AF0D3
:100DD000DAC20BF0DBC20CF0060E0A26000E0B2264
:100DE000000E0C220AC0E9FF0BC0F3FF0C5081EC8F
:100DF0003AF00A6EF3CF0BF01CD0D9C20CF0DAC275
:100E00000DF0DBC20EF0060E0C26000E0D22000EB9
:100E10000E220CC0E9FF0DC0F3FF0E5081EC3AF03A
:100E20000C6EF3CF0DF00D1C0B6E0C1C0A6E0A4AF3
:100E30000B2AE86A0BBEFF0E0C6E0D6E0201B65156
:100E4000E56E0201B551E56E0201B451E56E020195
:100E5000B351E56E0D50E56E0C50E56E0B50E56E2E
:100E60000A50E56EB8EC1AF00A6EF3CF0BF0F4CF2F
:100E70000CF0E9CF0DF0080EE126000EE56E000E35
:100E8000E56E030EE56EE80EE56E0D50E56E0C5056
:100E9000E56E0B50E56E0A50E56EBEEC2AF00201DD
:100EA000BB6FF3CFBCF2F4CFBDF2E9CFBEF2080EB8
:100EB000E1260201B7510201BB5D0A6E0201B85181
:100EC0000201BC590B6E0201B9510201BD590C6EF1
:100ED0000201BA510201BE590D6E0B50E56E0A5067
:100EE000E56E07015D51E56E07015C51E56E0CECA6
:100EF00033F00C6EF3CF0DF0040EE12607015F51C5
:100F0000E56E07015E51E56E0D50E56E0C50E56E25
:100F1000DBEC2CF00C6EF3CF0DF0040EE126D9C201
:100F20000EF0DAC20FF0DBC210F00A0E0E26000E31
:100F30000F22000E1022D9C211F0DAC212F0DBC269
:100F400013F00A0E1126000E1222000E132211C0F9
:100F5000E9FF12C0F3FF135081EC3AF0116EF3CFAA
:100F600012F01250E56E1150E56E000EE56E020EA5
:100F7000E56E0CEC33F0116EF3CF12F0040EE126A7
:100F8000000EE56E030EE56E1250E56E1150E56E33
:100F9000DBEC2CF0116EF3CF12F0040EE1260B50B7
:100FA000E56E0A50E56E07016151E56E070160517B
:100FB000E56E0CEC33F0136EF3CF14F0040EE12663
:100FC000135011261450122207016351E56E0701D8
:100FD0006251E56E1250E56E1150E56EDBEC2CF0BF
:100FE000116EF3CF12F0040EE12611C0E5FF12C01E
:100FF000F4FF0EC0E9FF0FC0F3FF105018EC3BF0F8
:10100000D9C20EF0DAC20FF0DBC210F00C0E0E26C1
:10101000000E0F22000E10220EC0E9FF0FC0F3FFDA
:101020001050E9EC3AF00E6E0F6A0EBE0F680E50CB
:101030000A5C0E6E0F500B580F6EE56E0E50E56E8B
:1010400007016551E56E07016451E56E0CEC33F064
:101050000E6EF3CF0FF0040EE12607016751E56E27
:1010600007016651E56E0F50E56E0E50E56EDBEC44
:101070002CF00E6EF3CF0FF0040EE126D9C210F063
:10108000DAC211F0DBC212F00C0E1026000E112293
:10109000000E12220AC0E5FF10C0E9FF11C0F3FFE5
:1010A00012502FEC3BF0D9C20AF0DAC20BF0DBC2CF
:1010B00010F00D0E0A26000E0B22000E10220AC0A0
:1010C000E9FF0BC0F3FF1050E9EC3AF00A6ED8804C
:1010D0000AAED8900A6A0A360A50D880E866D890D4
:1010E0000A6A0A360A5018E0D9C20AF0DAC20BF0CE
:1010F000DBC210F00D0E0A26000E0B22000E10228D
:101100000AC0E9FF0BC0F3FF1050E9EC3AF00A6E99
:101110000B6A0ABE0B681DD0D9C210F0DAC211F0FA
:10112000DBC212F00D0E1026000E1122000E12224C
:1011300010C0E9FF11C0F3FF1250E9EC3AF0106E55
:10114000116A10BE1168111C0B6E101C0A6E0A4A3F
:101150000B2A0C500A260D500B22D9C210F0DAC20D
:1011600011F0DBC212F00A0E1026000E1122000E42
:10117000122210C0E9FF11C0F3FF125081EC3AF0C7
:10118000106EF3CF11F010500A2611500B220E50A2
:101190000A260F500B22D9C210F0DAC211F0DBC2BE
:1011A00012F00D0E1026000E1122000E12220B500E
:1011B000800F800F02E1800E0A5C04E37F0E136E45
:1011C000146A0FD0D8800BAED89003E3156A166A64
:1011D00004D00AC015F00BC016F015C013F016C0ED
:1011E00014F013C0E5FF10C0E9FF11C0F3FF125067
:1011F0002FEC3BF0D9C210F0DAC211F0DBC212F0D2
:10120000060E1026000E1122000E122210C0E9FF59
:1012100011C0F3FF125081EC3AF0106EF3CF11F0D1
:10122000D88011AED8902AE3D9C210F0DAC211F0FA
:10123000DBC212F00D0E1026000E1122000E12223B
:10124000D9C213F0DAC214F0DBC215F00D0E13266A
:10125000000E1422000E152213C0E9FF14C0F3FF84
:101260001550E9EC3AF0136E136C13C0E5FF10C093
:10127000E9FF11C0F3FF12502FEC3BF0D9C210F080
:10128000DAC211F0DBC212F00D0E1026000E112290
:10129000000E122210C0E9FF11C0F3FF1250E9EC5A
:1012A0003AF0106E116A10BE1168D9C212F0DAC29B
:1012B00013F0DBC214F00A0E1226000E1322000EE9
:1012C000142212C0E9FF13C0F3FF145081EC3AF06E
:1012D000126EF3CF13F0D9C214F0DAC215F0DBC2EC
:1012E00016F0080E1426000E1522000E162214C049
:1012F000E9FF15C0F3FF1650E9EC3AF0070B146E46
:10130000156A1150E56E1050E56E0B50E56E0A50EF
:10131000E56E0F50E56E0E50E56E1350E56E1250FF
:10132000E56E0D50E56E0C50E56E0201BA51E56EAA
:101330000201B951E56E0201B851E56E0201B751E3
:10134000E56E0201BE51E56E0201BD51E56E02017E
:10135000BC51E56E0201BB51E56E1550E56E1450AF
:10136000E56E0201B651E56E0201B551E56E02016E
:10137000B451E56E0201B351E56E000EE56E650EE7
:10138000E56E2C0EE56EB1EC36F01B0EE126D9C2EF
:101390000AF0DAC20BF0DBC20CF0080E0A26000ECF
:1013A0000B22000E0C220AC0E9FF0BC0F3FF0C5009
:1013B000E9EC3AF0070B0A6ED9C20BF0DAC20CF076
:1013C000DBC20DF00D0E0B26000E0C22000E0D22BE
:1013D0000BC0E9FF0CC0F3FF0D50E9EC3AF00B6EC7
:1013E000E56E0A50E56E8CEC37F0020EE126F20E47
:1013F0000201D927FF0E0201DA23FF0E0201DB23CF
:1014000031EF06F0010EE56E56EC2DF0E12A0301F6
:101410000951D8A498EF05F003010A51D8A498EF18
:1014200005F000C0D9F201C0DAF202C0DBF204C05C
:1014300000F005C001F006C002F00201DB51800F90
:10144000F36E0250800FF35C07E101500201DA5D98
:1014500003E100500201D95DD8B03DD0D9C203F0FC
:10146000DAC204F0DBC205F0080E0326000E0422E7
:10147000000E052203C0E9FF04C0F3FF0550E9ECAC
:101480003AF0E838E844010B036E03501AE1D9C280
:1014900003F0DAC204F0DBC205F0080E0326000EEA
:1014A0000422000E052203C0E9FF04C0F3FF05502B
:1014B000E9EC3AF0E8380F0B036EE56EC6EC25F068
:1014C000E12A0E0E0201D927000E0201DA23000ED6
:1014D0000201DB23B2D7E86AE4CF16F0E4CF15F0BF
:1014E000E4CF14F0E4CF13F0E4CF12F0E4CF11F026
:1014F000E4CF10F0E4CF0FF0E4CF0EF0E4CF0DF026
:10150000E4CF0CF0E4CF0BF0E4CF0AF0E4CF09F025
:10151000E4CF08F0E4CF07F0E4CF06F0E4CF05F025
:10152000E4CF04F0E4CF03F0E4CF02F0E4CF01F025
:10153000E4CF00F0E4CFD9FF1200D9CFE5FFE1CF2F
:10154000D9FF00C0E5FF01C0E5FF02C0E5FF03C011
:10155000E5FF04C0E5FF05C0E5FF06C0E5FF07C0E5
:10156000E5FF08C0E5FF09C0E5FF0AC0E5FF0BC0C5
:10157000E5FF0CC0E5FF0DC0E5FF0EC0E5FF0FC0A5
:10158000E5FF10C0E5FF11C0E5FF12C0E5FF13C085
:10159000E5FF14C0E5FF15C0E5FF16C0E5FF17C065
:1015A000E5FF18C0E5FF19C0E5FF1AC0E5FF1BC045
:1015B000E5FF1CC0E5FF1DC0E5FF1EC0E5FF020EF4
:1015C000DBCF00F0030EDBCF01F0040EDBCF02F027
:1015D000050EDBCF03F0060EDBCF04F0070EDBCFEA
:1015E00005F0080EDBCF06F0090EDBCF07F00A0E80
:1015F000DBCF08F0096A0A6A02C00DF00D50800ABC
:101600000CE100C0E2F201C0E3F202C0E4F2020E1B
:10161000016EE20E006E800E026E03C0E9FF04C090
:10162000F3FF0550E9EC3AF00B6E0B50D8B46EEFB7
:101630000EF00B50250A02E053EF0EF00C6A0D6A13
:101640000E6A0F6A106A0A0E116E126A136A146A21
:10165000200E156E1668176A2B0E186E032AD8B066
:10166000042AD8B0052A03C0E9FF04C0F3FF0550DF
:10167000E9EC3AF0196E250A15E11950E56E0250B1
:10168000E56E0150E56E0050E56E5CEC2CF0040E4A
:10169000E126092AD8B00A2A032AD8B0042AD8B0E9
:1016A000052ABBD71950300A07E1300E156E032A00
:1016B000D8B0042AD8B0052A03C0E9FF04C0F3FF5C
:1016C0000550E9EC3AF02D0A07E1010E146E032AE9
:1016D000D8B0042AD8B0052A03C0E9FF04C0F3FF3C
:1016E0000550E9EC3AF0200A09E1010E176E200ED0
:1016F000186E032AD8B0042AD8B0052A03C0E9FF1F
:1017000004C0F3FF0550E9EC3AF02B0A07E1010EA3
:10171000176E032AD8B0042AD8B0052A03C0E9FFFF
:1017200004C0F3FF0550E9EC3AF0196E800F4F0F3B
:101730002EE31950800F460F2AE203C019F004C0AF
:101740001AF005C01BF019C0E9FF1AC0F3FF1B50C7
:10175000E9EC3AF01C6E800F500F13E31C50800F21
:10176000460F0FE213500A0DF3CF1DF01D501C263B
:10177000D00E1C24136E192AD8B01A2AD8B01B2AEE
:10178000E2D719C003F01AC004F01BC005F003C073
:10179000E9FF04C0F3FF0550E9EC3AF02E0A30E10E
:1017A000032AD8B0042AD8B0052A166A03C019F053
:1017B00004C01AF005C01BF019C0E9FF1AC0F3FFFE
:1017C0001B50E9EC3AF01C6E800F500F13E31C50D5
:1017D000800F460F0FE216500A0DF3CF1DF01D507B
:1017E0001C26D00E1C24166E192AD8B01A2AD8B07E
:1017F0001B2AE2D719C003F01AC004F01BC005F081
:1018000003C0E9FF04C0F3FF0550E9EC3AF0196E9C
:101810006C0A08E1010E0C6E032AD8B0042AD8B075
:10182000052A0AD01950680A07E1010E0E6E032A34
:10183000D8B0042AD8B0052A03C0E9FF04C0F3FFDA
:101840000550E9EC3AF0750A07E1010E106E032A23
:10185000D8B0042AD8B0052A03C0E9FF04C0F3FFBA
:101860000550E9EC3AF0196E730A05E1010E0D6EB0
:10187000200E156E41D01950780A03E1100E116E3A
:101880003BD01950580A05E1100E116E010E126E70
:1018900033D01950630A02E1116A2ED019506F0A31
:1018A00003E1080E116E28D01950660A03E1010EFB
:1018B0000F6E22D01950640A1FE01950690A1CE00B
:1018C000105005E0FF0E03260422052215D0195002
:1018D000E56E0250E56E0150E56E0050E56E5CEC81
:1018E0002CF0040EE126092AD8B00A2A032AD8B01F
:1018F000042AD8B0052A91D60D5021E00650030FD6
:101900000D6E000E0720196E000E08201A6E0DC015
:1019100006F019C007F01AC008F0FD0E0D26FF0EE4
:1019200019221A220DC0E9FF19C0F3FF1A50EBEC7F
:1019300039F00D6EF3CF19F0F4CF1AF000D10F503B
:101940000DE0640E0D6E1D0E196E000E1A6E040E63
:101950000626000E072208221668F1D016680C50E1
:1019600023E00650040F0C6E000E07200F6E000ED1
:1019700008201B6E0CC006F00FC007F01BC008F05B
:10198000FC0E0C26FF0E0F221B220CC0E9FF0FC01D
:10199000F3FF1B50CBEC39F00C6EF3CF0FF0F4CF0C
:1019A0001BF0E9CF1CF06AD00E5032E00650020F57
:1019B0000E6E000E07201D6E000E08201E6E0EC05B
:1019C00006F01DC007F01EC008F0FE0E0E26FF0E2A
:1019D0001D221E220EC0E9FF1DC0F3FF1E5081EC28
:1019E0003AF00E6E0EC00CF0E86A0EBEFF0E0F6EDF
:1019F0001B6E1C6E11500A0A03E11050D8B43ED081
:101A00000C500E6E0EC00CF00F6A1B6A1C6A36D0AA
:101A10000650020F0E6E000E07201D6E000E0820ED
:101A20001E6E0EC006F01DC007F01EC008F0FE0EB0
:101A30000E26FF0E1D221E220EC0E9FF1DC0F3FF61
:101A40001E5081EC3AF00E6EF3CF1DF00EC00CF07C
:101A50001DC00FF0E86A1DBEFF0E1B6E1C6E1150FC
:101A60000A0A02E110500AE00C500E6E0F501D6E73
:101A70000EC00CF01DC00FF01B6A1C6A020E196E1E
:101A8000790E0D6E800E1A6E1150D8B440D01050E1
:101A900013E01150E56E020EE56E790EE56E1C50F6
:101AA000E56E1B50E56E0F50E56E0C50E56E9BEC3D
:101AB0001FF0070EE12612D01150E56E020EE56E02
:101AC000790EE56E1C50E56E1B50E56E0F50E56E0D
:101AD0000C50E56E72EC2FF0070EE12617502FE048
:101AE0000DC0E9FF19C0F3FF1A50E9EC3AF02D0AD6
:101AF00026E0FF0E0D2619221A2218C0E5FF0DC0A0
:101B0000E9FF19C0F3FF1A502FEC3BF018D00CC0BE
:101B1000E5FF0DC0E9FF19C0F3FF1A502FEC3BF0B1
:101B20000D50010F0C6E000E19200E6E000E1A20C3
:101B3000E56A0CC0E9FF0EC0F3FF2FEC3BF00DC0CF
:101B40000CF019C00EF01AC00FF013C010F01050B6
:101B500011E00CC0E9FF0EC0F3FF0F50E9EC3AF0C2
:101B6000176E175007E00C2AD8B00E2AD8B00F2AEB
:101B70001006EDD710C013F014501FE109C00CF08F
:101B80000AC00EF010C00FF00F5011E01550E56EB6
:101B90000250E56E0150E56E0050E56E5CEC2CF0F5
:101BA000040EE1260C2AD8B00E2A0F06EDD70CC081
:101BB00009F00EC00AF00FC013F016C00CF00DC0F3
:101BC0000DF019C00EF01AC00FF009C010F00AC0D5
:101BD00015F00DC0E9FF0EC0F3FF0F50E9EC3AF02D
:101BE000166E1650D8B440D00CC016F0176A161EE8
:101BF000171E1650171005E00CC016F00C061650F4
:101C000033E00DC0E9FF0EC0F3FF0F50E9EC3AF0EE
:101C1000116E125010E01150E56E54EC3AF0166E51
:101C2000E12A165004E0DF0E1114166E02D011C026
:101C300016F016C011F01150E56E0250E56E01501D
:101C4000E56E0050E56E5CEC2CF0040EE1260D2AEA
:101C5000D8B00E2AD8B00F2A102AD8B0152A13509F
:101C6000D8B4B7D71306B5D710C009F015C00AF01D
:101C700014502DE010C00CF015C00DF013C00EF084
:101C80000E5021E0200EE56E0250E56E0150E56E2B
:101C90000050E56E5CEC2CF0040EE1260C2AD8B066
:101CA0000D2A0E06EDD70B50E56E0250E56E015081
:101CB000E56E0050E56E5CEC2CF0040EE126092A7E
:101CC000D8B00A2A04D00CC009F00DC00AF0032ACB
:101CD000D8B0042AD8B0052A0DEF0BF00AC0F3FFE4
:101CE0000950E4CF1EF0E4CF1DF0E4CF1CF0E4CFA8
:101CF0001BF0E4CF1AF0E4CF19F0E4CF18F0E4CFF2
:101D000017F0E4CF16F0E4CF15F0E4CF14F0E4CFF1
:101D100013F0E4CF12F0E4CF11F0E4CF10F0E4CFF1
:101D20000FF0E4CF0EF0E4CF0DF0E4CF0CF0E4CFF1
:101D30000BF0E4CF0AF0E4CF09F0E4CF08F0E4CFF1
:101D400007F0E4CF06F0E4CF05F0E4CF04F0E4CFF1
:101D500003F0E4CF02F0E4CF01F0E4CF00F0E4CFF1
:101D6000D9FF12003C4E4F20464C4F41543E0000DC
:101D7000D9CFE5FFE1CFD9FF00C0E5FF01C0E5FF06
:101D800002C0E5FF03C0E5FF04C0E5FF05C0E5FFB5
:101D900006C0E5FF07C0E5FF08C0E5FF09C0E5FF95
:101DA0000AC0E5FF0BC0E5FF0CC0E5FF0DC0E5FF75
:101DB0000EC0E5FF0FC0E5FF10C0E5FF11C0E5FF55
:101DC00012C0E5FF13C0E5FF14C0E5FF15C0E5FF35
:101DD000030EE56EACEC15F00701006FF3CF01F7D1
:101DE000E12A5CEC24F0000EE56E56EC2DF0E12AC1
:101DF00059EC28F0006EF3CF01F0F4CF02F0E9CFF8
:101E000003F0D5A604D0010E046E056A0FD0070EAC
:101E1000D514066E020E046E000E056E065006E026
:101E2000E86CD89004360536010FFCE30550E56EEA
:101E30000450E56E270EE56E100EE56EDBEC2CF01F
:101E4000046EF3CF05F0040EE126E86A05BEFF0E2E
:101E5000066E076EE56E0650E56E0550E56E0450A1
:101E6000E56E0350E56E0250E56E0150E56E0050E0
:101E7000E56EBEEC2AF0006EF3CF01F0F4CF02F075
:101E8000E9CF03F0080EE126000EE56E000EE56EC8
:101E9000030EE56EE80EE56E0350E56E0250E56E4A
:101EA0000150E56E0050E56EBEEC2AF00701F06FC0
:101EB000F3CFF1F7F4CFF2F7E9CFF3F7080EE1260D
:101EC0000701F3510701055D0EE10701F25107011A
:101ED000045D09E10701F1510701035D04E1070118
:101EE000F0510701025DD8B011D1F0C702F7F1C778
:101EF00003F7F2C704F7F3C705F7070E016EEA0E02
:101F0000006E800E026EE56E0150E56E0050E56ECB
:101F1000030EE56E020EE56E010EE56E50EC21F04B
:101F2000060EE126070EE56E21EC37F0006EF3CFCA
:101F300001F0E12AEEC702F0EFC703F0ECC704F0AE
:101F4000EDC705F0EAC706F0EBC707F0060EE56E31
:101F50004BEC2BF0086EE12A096A08BE0968050EF1
:101F6000E56E4BEC2BF00A6EE12A0B6A0ABE0B6899
:101F7000040EE56E4BEC2BF00C6EE12A0D6A0CBEE4
:101F80000D68030EE56E4BEC2BF00E6EE12A0F6A26
:101F90000EBE0F68020EE56E4BEC2BF0106EE12AC0
:101FA000116A10BE1168010EE56E4BEC2BF0126E3B
:101FB000E12A136A12BE136876EC36F0146E156AC5
:101FC00014BE15680150E56E0050E56E0350E56ED5
:101FD0000250E56E0550E56E0450E56E0750E56E63
:101FE0000650E56E0950E56E0850E56E0B50E56E43
:101FF0000A50E56E0D50E56E0C50E56E0F50E56E23
:102000000E50E56E1150E56E1050E56E1350E56E02
:102010001250E56E1550E56E1450E56E0701F35150
:10202000E56E0701F251E56E0701F151E56E07011A
:10203000F051E56E000EE56E410EE56EE60EE56EC2
:10204000B1EC36F01D0EE126010EE56EB5EC10F098
:10205000006EF3CF01F0F4CF02F0E9CF03F0E12AF4
:10206000020EE56E1CEC38F0046EF3CF05F0E12AA9
:10207000010EE56E1CEC38F0066EF3CF07F0E12A96
:102080000B0EE56EDFEC22F0086EE12A096A08BE4D
:1020900009680A0EE56EDFEC22F00A6EE12A0B6A8F
:1020A0000ABE0B680350E56E0250E56E0150E56E06
:1020B0000050E56E07010151E56E07010051E56E24
:1020C000000EE56E030EE56E0550E56E0450E56EFC
:1020D0000750E56E0650E56E000EE56E020EE56EE9
:1020E000000EE56E010EE56E0950E56E0850E56ED6
:1020F0000B50E56E0A50E56E000EE56E420EE56E81
:10210000220EE56EB1EC36F0170EE126E4CF15F0A5
:10211000E4CF14F0E4CF13F0E4CF12F0E4CF11F0E9
:10212000E4CF10F0E4CF0FF0E4CF0EF0E4CF0DF0E9
:10213000E4CF0CF0E4CF0BF0E4CF0AF0E4CF09F0E9
:10214000E4CF08F0E4CF07F0E4CF06F0E4CF05F0E9
:10215000E4CF04F0E4CF03F0E4CF02F0E4CF01F0E9
:10216000E4CF00F0E4CFD9FF1200D9CFE5FFE1CFF3
:10217000D9FF00C0E5FF01C0E5FF02C0E5FF03C0D5
:10218000E5FF04C0E5FF05C0E5FF06C0E5FF07C0A9
:10219000E5FF08C0E5FF09C0E5FF020EDBCF00F058
:1021A000010E005CD8A084D1050E005CD8B080D1AF
:1021B00000060AC0E5FF0BC0E5FF0B6A00340B36D2
:1021C000E8340B36FC0B0A6E000EFB6E210EFA6E25
:1021D000E80E0A260B50FA22D8B0FB2A0A50E4CFA8
:1021E0000BF0E4CF0AF0F96EFCEF10F04DEF11F0B8
:1021F000AAEF11F0FBEF11F0B7EC27F0006EF3CF70
:1022000001F0F4CF02F0E9CF03F0300ECD14046EEC
:1022100004380F0B046E010E056E000E066E04509E
:1022200006E0E86CD89005360636010FFCE3065050
:10223000E56E0550E56E270EE56E100EE56EDBECE3
:102240002CF0046EF3CF05F0040EE126E86A05BE1B
:10225000FF0E066E076EE56E0650E56E0550E56EE4
:102260000450E56E0350E56E0250E56E0150E56ED8
:102270000050E56EBEEC2AF0006EF3CF01F0F4CF13
:1022800002F0E9CF03F0080EE12603C0E9FF02C027
:10229000F4FF01C0F3FF00500FD136EC34F0006EB4
:1022A000F3CF01F0F4CF02F0E9CF03F0030ECA142C
:1022B000046E056A0450066E06260534076E010E8C
:1022C000086E000E096E06500FE007E6E86CD89025
:1022D00008360936010FFCE307D0D89009BED88034
:1022E00009320832010FFAE30950E56E0850E56E35
:1022F000270EE56E100EE56EDBEC2CF0046EF3CFCE
:1023000005F0040EE126E86A05BEFF0E066E076EB4
:10231000E56E0650E56E0550E56E0450E56E03501F
:10232000E56E0250E56E0150E56E0050E56EBEECC4
:102330002AF0006EF3CF01F0F4CF02F0E9CF03F002
:10234000080EE12603C0E9FF02C0F4FF01C0F3FF5D
:102350000050B2D015EC27F0006EF3CF01F0F4CFAF
:1023600002F0E9CF03F0300EB114046E04380F0B05
:10237000046E010E056E000E066E045006E0E86C59
:10238000D89005360636010FFCE30650E56E055081
:10239000E56E270EE56E100EE56EDBEC2CF0046E9C
:1023A000F3CF05F0040EE126E86A05BEFF0E066EC7
:1023B000076EE56E0650E56E0550E56E0450E56E5D
:1023C0000350E56E0250E56E0150E56E0050E56E7B
:1023D000BEEC2AF0006EF3CF01F0F4CF02F0E9CFAB
:1023E00003F0080EE12603C0E9FF02C0F4FF01C0BC
:1023F000F3FF005061D0F1EC33F0006EF3CF01F049
:10240000F4CF02F0E9CF03F0030E7614046E056AF0
:102410000450066E06260534076E010E086E000E87
:10242000096E06500FE007E6E86CD89008360936CA
:10243000010FFCE307D0D89009BED88009320832DA
:10244000010FFAE30950E56E0850E56E270EE56EC0
:10245000100EE56EDBEC2CF0046EF3CF05F0040EED
:10246000E126E86A05BEFF0E066E076EE56E0650B1
:10247000E56E0550E56E0450E56E0350E56E0250C2
:10248000E56E0150E56E0050E56EBEEC2AF0006E80
:10249000F3CF01F0F4CF02F0E9CF03F0080EE1260C
:1024A00003C0E9FF02C0F4FF01C0F3FF005004D0F5
:1024B000E96AF46AF36AE86AE4CF09F0E4CF08F065
:1024C000E4CF07F0E4CF06F0E4CF05F0E4CF04F06A
:1024D000E4CF03F0E4CF02F0E4CF01F0E4CF00F06A
:1024E000E4CFD9FF1200E8CFE5FFD8CFE5FFE0CF7A
:1024F000E5FFF3CFE5FFF4CFE5FFE9CFE5FFEACF56
:10250000E5FFFACFE5FFFBCFE5FFD9CFE5FFE1CF50
:10251000D9FF00C0E5FF01C0E5FF02C0E5FF03C031
:10252000E5FF04C0E5FF05C0E5FF06C0E5FF07C005
:10253000E5FF08C0E5FF09C0E5FF0AC0E5FF80CF61
:10254000FBF285CFFCF287CFFDF2F2A0ACD081CFB9
:1025500000F0F290100E016E026A030E036E046A20
:102560000450800F800F02E1070E035CD8B09BD0AF
:10257000070152510018056E066A015005160250F7
:10258000061605500610D8B487D000C005F0066ABC
:10259000015005160250061605500610D8B45ED03C
:1025A0000304056E460E0524066E076A05BE07681D
:1025B000070E072206C0E9FF07C0EAFFEFCF06F0CB
:1025C0000650010A21E1000E05BEFF0ED890053429
:1025D000076E086A07BE08683A0E0726070E08222B
:1025E00007C0E9FF08C0EAFFEECF09F0EFCF0AF01D
:1025F000092AD8B00A2A07C0E9FF08C0EAFF09C0C3
:10260000EEFF0AC0EFFF1FD00650020A07E1035099
:10261000066EE56EC1EC1DF0E12A15D0066A05BE16
:102620000668220E0526070E062205C0E9FF06C031
:10263000EAFFEFCF05F0055006E00350056EE56EAA
:10264000FBEC28F0E12A52C705F0066A015005129A
:102650000250061205500701526F1ED00350056E3E
:102660000506066A05BE0668220E0526070E062226
:1026700005C0E9FF06C0EAFFEFCF05F0055006E010
:102680000350056EE56E70EC26F0E12A0150056EF0
:10269000051E055007015217032AD8B0042A01501D
:1026A000012602365DD7F0A22ED0F09246C700F088
:1026B0000050010A0FE107013A51010F016E000EAF
:1026C00007013B21026E015007013A6F02500701DA
:1026D0003B6F19D00050020A06E1010EE56EC1EC15
:1026E0001DF0E12A10D0070122510DE0F1A806D01B
:1026F000010EE56EFBEC28F0E12A05D0010EE56E37
:1027000070EC26F0E12AF0A42ED0F09447C700F038
:102710000050010A0FE107013C51010F016E000E4C
:1027200007013D21026E015007013C6F0250070175
:102730003D6F19D00050020A06E1020EE56EC1ECB1
:102740001DF0E12A10D0070123510DE0F1A606D0BB
:10275000020EE56EFBEC28F0E12A05D0020EE56ED4
:1027600070EC26F0E12AF2A406D0F2940201E52BE7
:1027700002E30201E62B9EA006D09E900201E72B09
:1027800002E30201E82B9EA20ED09E920201A32B2F
:1027900002E30201A42B02E30201A52B02E30201E2
:1027A000A62B0201A66BA1A206D0A1920201E92BE1
:1027B00002E30201EA2BA4A60ED0A4960201A72BE5
:1027C00002E30201A82B02E30201A92B02E30201AA
:1027D000AA2B0201AA6B9EAA02D0AECFFAF2E4CFD6
:1027E0000AF0E4CF09F0E4CF08F0E4CF07F0E4CF3B
:1027F00006F0E4CF05F0E4CF04F0E4CF03F0E4CF3B
:1028000002F0E4CF01F0E4CF00F0E4CFD9FFE4CF51
:10281000FBFFE4CFFAFFE4CFEAFFE4CFE9FFE4CF28
:10282000F4FFE4CFF3FFE4CFE0FFE4CFD8FFE4CF41
:10283000E8FF1000D9CFE5FFE1CFD9FF00C0E5FFE9
:1028400001C0E5FF02C0E5FF03C0E5FF04C0E5FFEE
:1028500005C0E5FF06C0E5FF07C0E5FF08C0E5FFCE
:1028600009C0E5FF0AC0E5FF0BC0E5FF0CC0E5FFAE
:102870000DC0E5FF0EC0E5FF0FC0E5FF10C0E5FF8E
:1028800011C0E5FF12C0E5FF020EDBCF00F0030E22
:10289000DBCF01F0040EDBCF02F0050EDBCF03F03F
:1028A000060EDBCF04F0070EDBCF05F0080EDBCF02
:1028B00006F0090EDBCF07F00A0EDBCF08F0D88058
:1028C00000AED890096A09360950D880E866D890D9
:1028D0000A6A0A360A5006E000C00BF00C6A00BE15
:1028E0000C680BD000C00DF00E6A00BE0E680E1C06
:1028F0000C6E0D1C0B6E0B4A0C2AD88001AED890C2
:102900000D6A0D360D50D880E866D8900E6A0E36E6
:102910000E5006E001C00FF0106A01BE10680BD027
:1029200001C011F0126A01BE1268121C106E111C57
:102930000F6E0F4A102A0A5006E000C00AF0116A12
:1029400000BE116809D0126A00BE1268121C116E16
:10295000001C0A6E0A4A112A1150800F800F02E1F2
:10296000800E0A5C1CE20E5006E001C000F00A6A0C
:1029700001BE0A6809D00E6A01BE0E680E1C0A6EFE
:10298000011C006E004A0A2A0A50800F800F02E1E3
:10299000800E005C04E20250800FFF0F02E2800E06
:1029A000B2D00F507F08006E000E1054016EE56E1D
:1029B0000050E56E0C50E56E0B50E56E0CEC33F0FC
:1029C000006EF3CF01F0040EE126000EE56E7F0EDF
:1029D000E56E0150E56E0050E56EDBEC2CF0006E0C
:1029E000F3CF01F0040EE1260F5000261050012213
:1029F0000A6A02BE0A680A50E56E0250E56E01508E
:102A0000E56E0050E56E0CEC33F0006EF3CF01F094
:102A1000040EE126000EE56E7F0EE56E0150E56EB8
:102A20000050E56EDBEC2CF0006EF3CF01F0040EED
:102A3000E12600C0EBF201C0ECF20B500F5C0B6E14
:102A40000C5010580C6E0A50E56E0250E56E0C509A
:102A5000E56E0B50E56E0CEC33F0026EF3CF0AF02E
:102A6000040EE126000EE56E7F0EE56E0A50E56E5F
:102A70000250E56EDBEC2CF0026EF3CF0AF0040E90
:102A8000E12602C0EDF20AC0EEF20D500BE1095052
:102A900021E000C0EDF201C0EEF202C0EBF20AC08C
:102AA000ECF218D0095008E102C0EBF20AC0ECF2D7
:102AB00000C0EDF201C0EEF20201EC1F0201EB6D6D
:102AC00002E10201EC2B0201EE1F0201ED6D02E1B9
:102AD0000201EE2B0201EB51006E00C0E5FF03C0C6
:102AE000E9FF04C0F3FF05502FEC3BF00201ED516C
:102AF000006E00C0E5FF06C0E9FF07C0F3FF085005
:102B00002FEC3BF0E86AE4CF12F0E4CF11F0E4CF11
:102B100010F0E4CF0FF0E4CF0EF0E4CF0DF0E4CFEF
:102B20000CF0E4CF0BF0E4CF0AF0E4CF09F0E4CFEF
:102B300008F0E4CF07F0E4CF06F0E4CF05F0E4CFEF
:102B400004F0E4CF03F0E4CF02F0E4CF01F0E4CFEF
:102B500000F0E4CFD9FF1200D9CFE5FFE1CFD9FFD4
:102B600000C0E5FF01C0E5FF02C0E5FF03C0E5FFCF
:102B700004C0E5FF05C0E5FF06C0E5FF07C0E5FFAF
:102B800008C0E5FF09C0E5FF0AC0E5FF020EDBCF84
:102B900000F0010E005C03E3070E005C03E3F36842
:102BA000800E38D10004016E0A0E0124026E036A01
:102BB000070E032202C0E9FF03C0EAFFEFCF04F0D3
:102BC0000450D8A47CD0D6CF04F0056AD7CF06F045
:102BD000076A0650096E086A085004120950051267
:102BE000D8900134066E076A910E0626020E07225F
:102BF00006C0E9FF07C0EAFFEECF06F0EFCF07F00F
:102C00000650045E0750055AD5A604D0010E066E84
:102C1000076A0FD0070ED514086E020E066E000E5E
:102C2000076E085006E0E86CD89006360736010FAC
:102C3000FCE30750E56E0650E56E270EE56E100EBC
:102C4000E56EDBEC2CF0066EF3CF07F0040EE12608
:102C50000750E56E0650E56E0550E56E0450E56ED2
:102C600014EC32F0046EF3CF05F0040EE126000EF2
:102C7000055C02E10C0E045CD8A0BAD09D0E0124C4
:102C8000046E056A020E052204C0E9FF05C0EAFFD2
:102C9000EFCF04F00050E56E0450E56E7BEC34F0AD
:102CA000020EE1260A0E0124006E046A070E0422B9
:102CB00000C0E9FF04C0EAFF010EEF6E99D0280EB4
:102CC0000124006E046A070E042200C0E9FF04C05C
:102CD000EAFFEFCF00F00050D8B48AD0280E0124CC
:102CE000006E046A070E042200C0E9FF04C0EAFF78
:102CF000000EEF6E02C0E9FF03C0EAFF000EEF6EA8
:102D0000D8900134006E100E0024026E036A070E84
:102D10000322D5A604D0010E046E056A0FD0070E5B
:102D2000D514066E020E046E000E056E065006E007
:102D3000E86CD89004360536010FFCE3E86A05BE5E
:102D4000FF0E066E076E086A2E0E0026070E08227A
:102D500000C0E9FF08C0EAFFEECF00F0EFCF08F0B7
:102D6000096A0A6A0A50E56E0950E56E0850E56E78
:102D70000050E56E0750E56E0650E56E0550E56EB5
:102D80000450E56EB8EC1AF0006EF3CF04F0F4CF07
:102D900005F0E9CF06F0080EE126700E0026FE0EC3
:102DA0000422FF0E0522FF0E0622000EE56E000E25
:102DB000E56E020EE56E470EE56E0650E56E0550B7
:102DC000E56E0450E56E0050E56EBEEC2AF0006E34
:102DD000F3CF04F0F4CF05F0E9CF06F0080EE126BA
:102DE00002C0E9FF03C0EAFF00C0EEFF04C0EFFF2E
:102DF000D8900136006A100E0126070E002201C08D
:102E0000E9FF00C0EAFFEECF01F0EFCF00F000C015
:102E1000F3FF0150E4CF0AF0E4CF09F0E4CF08F06B
:102E2000E4CF07F0E4CF06F0E4CF05F0E4CF04F000
:102E3000E4CF03F0E4CF02F0E4CF01F0E4CF00F000
:102E4000E4CFD9FF1200D9CFE5FFE1CFD9FF00C011
:102E5000E5FF01C0E5FF02C0E5FF03C0E5FF04C0D8
:102E6000E5FF05C0E5FF06C0E5FF07C0E5FF08C0B8
:102E7000E5FF09C0E5FF0AC0E5FF0BC0E5FF0CC098
:102E8000E5FF0DC0E5FF0EC0E5FF0FC0E5FF10C078
:102E9000E5FF11C0E5FF12C0E5FF13C0E5FF020E1C
:102EA000DBCF00F0030EDBCF01F0040EDBCF02F02E
:102EB000050EDBCF03F0060EDBCF04F0070EDBCFF1
:102EC00005F0080EDBCF06F0090EDBCF07F00A0E87
:102ED000DBCF08F00B0EDBCF09F00C0EDBCF0AF0D6
:102EE0000D0EDBCF0BF00E0EDBCF0CF00F0EDBCF99
:102EF0000DF00BC00EF00F6A0AC010F0116A09C085
:102F000012F0136A0F50E56E0E50E56E1150E56E2B
:102F10001050E56E1350E56E1250E56E000EE56E32
:102F2000650EE56E6E0EE56EB1EC36F0090EE1262B
:102F3000010E095C12E3090E095C0FE2010E0A5C46
:102F40000CE3070E0A5C09E20B5009E00B50030189
:102F5000045D03E2110E0B5C02E3800EA5D0010EAE
:102F6000E56E0B50E56EC2EC1BF0020EE12603C0CD
:102F7000E5FF04C0F4FF05C0F6FF06C0F7FF00C080
:102F8000E9FF01C0F3FF0250FAEC3AF00050040FE1
:102F9000036E000E0120046E000E0220056E07C0B5
:102FA000E5FF08C0F4FF03C0E9FF04C0F3FF0550CC
:102FB00018EC3BF00050080F036E000E0120046E69
:102FC000000E0220056E0950070BF46E03C0E9FFE6
:102FD00004C0F3FF0550E9EC3AF0F80BF410E56E8D
:102FE00003C0E9FF04C0F3FF05502FEC3BF0005095
:102FF000080F036E000E0120046E000E0220056E05
:103000000A500F0BE838F46E03C0E9FF04C0F3FF69
:103010000550E9EC3AF00F0BF410E56E03C0E9FF40
:1030200004C0F3FF05502FEC3BF00050090F036E76
:10303000000E0120046E000E0220056E0B500F0BD7
:10304000F46E03C0E9FF04C0F3FF0550E9EC3AF069
:10305000F00BF410E56E03C0E9FF04C0F3FF055068
:103060002FEC3BF0060E0026000E0122000E02227D
:103070000D50800F7A0F02E1A30E0C5C05E20CC02C
:1030800003F00DC004F004D0A30E036E060E046E10
:1030900003C0E5FF04C0F4FF00C0E9FF01C0F3FF77
:1030A000025018EC3BF0E86AE4CF13F0E4CF12F0E2
:1030B000E4CF11F0E4CF10F0E4CF0FF0E4CF0EF046
:1030C000E4CF0DF0E4CF0CF0E4CF0BF0E4CF0AF046
:1030D000E4CF09F0E4CF08F0E4CF07F0E4CF06F046
:1030E000E4CF05F0E4CF04F0E4CF03F0E4CF02F046
:1030F000E4CF01F0E4CF00F0E4CFD9FF1200E8CF35
:10310000E5FFD8CFE5FFE0CFE5FFF3CFE5FFF4CF54
:10311000E5FFE9CFE5FFEACFE5FFFACFE5FFFBCF1B
:10312000E5FFD9CFE5FFE1CFD9FF00C0E5FF01C042
:10313000E5FF02C0E5FFF2A29BD0F292200E030150
:10314000066F9F8607015651D880E866D890006ABE
:1031500000360050200DF3CF00F0F4CF01F06A0EDE
:103160000026070E012201500201D76F0050020114
:10317000D66F800E0201D86F07015A51D880E866D9
:10318000D890006A00360050200DF3CF00F0F4CF45
:1031900001F0AA0E0026070E012201500201D46F91
:1031A00000500201D36F800E0201D56F57C700F0A7
:1031B00058C701F059C702F0002AD8B0012AD8B088
:1031C000022A00C0E9FF01C0F3FF0250E9EC3AF027
:1031D000E844E844010B006E00502FE007015A510B
:1031E000D880E866D890006A00360050200DF3CFF2
:1031F00000F0016AAA0E0026070E01221D0E00260D
:10320000D8B0012A00C0E9FF01C0EAFF5BC7EFFFA9
:1032100007015A51200DF3CF00F0016AAA0E0026D3
:10322000070E01221D0E0026D8B0012A00C0E9FFBA
:1032300001C0EAFF5BC7EFFF5B2BC9CF07F3D3C227
:1032400000F0D4C201F0D5C202F000C0E9FF01C015
:10325000F3FF0250E9EC3AF0006E0201D32B02E3D7
:103260000201D42B02E30201D52B00C0C9FF57D0C5
:103270009EA655D09E96D6C200F0D7C201F0D8C205
:1032800002F0C9CFE5FF00C0E9FF01C0F3FF025023
:103290002FEC3BF00201D62B02E30201D72B02E315
:1032A0000201D82BD3C200F0D4C201F0D5C202F083
:1032B00000C0E9FF01C0F3FF0250E9EC3AF0006EF4
:1032C0000201D32B02E30201D42B02E30201D52B2E
:1032D00000C0C9FF03010607065121E1020E0201E9
:1032E0001E6F03010893088107015651D880E866D4
:1032F000D8900701566B56375651200DF3CF00F08A
:10330000F4CF01F06A0E0026070E012201500701DA
:10331000586F00500701576F800E0701596FE4CFB7
:1033200002F0E4CF01F0E4CF00F0E4CFD9FFE4CF26
:10333000FBFFE4CFFAFFE4CFEAFFE4CFE9FFE4CFFD
:10334000F4FFE4CFF3FFE4CFE0FFE4CFD8FFE4CF16
:10335000E8FF1000D9CFE5FFE1CFD9FF00C0E5FFBE
:1033600001C0E5FF02C0E5FF03C0E5FF020EDBCFB1
:1033700000F0030EDBCF01F000500301045D0EE20C
:10338000110E005C026A0236025008E10050E56E40
:1033900014EC25F0036EE12A035002E0800EDDD02C
:1033A000010E005CD8A0D6D00250D8A4D3D000061D
:1033B00004C0E5FF05C0E5FF056A00340536E834C2
:1033C0000536FC0B046E000EFB6E330EFA6EE60E35
:1033D00004260550FA22D8B0FB2A0450E4CF05F0A9
:1033E000E4CF04F0F96E13EF1AF01BEF1AF024EF9C
:1033F0001AF02EEF1AF038EF1AF042EF1AF04AEFF7
:103400001AF053EF1AF05DEF1AF067EF1AF070EF51
:103410001AF07AEF1AF084EF1AF08DEF1AF097EFA6
:103420001AF0A1EF1AF00150010BF46E8950FE0B57
:10343000F410896E91D00150010BE844F46E89506C
:10344000FD0BF410896E88D00150010BE844E8446C
:10345000F46E8950FB0BF410896E7ED00150010B85
:10346000E838E840F46E8950F70BF410896E74D098
:103470000150010BE838E844F46E8950DF0BF4107A
:10348000896E6AD00150010BF46E8E50FE0BF41061
:103490008E6E62D00150010BE844F46E8E50FD0B2D
:1034A000F4108E6E59D00150010BE844E844F46EDC
:1034B0008E50FB0BF4108E6E4FD00150010BE8388C
:1034C000E840F46E8E50F70BF4108E6E45D001502C
:1034D000010BE838F46E8E50EF0BF4108E6E3CD07A
:1034E0000150010BE838E844F46E8E50DF0BF41005
:1034F0008E6E32D00150010BE840E840F46E8E50E1
:10350000BF0BF4108E6E28D00150010BE838F46E1A
:103510009050EF0BF410906E1FD00150010BE83863
:10352000E844F46E9050DF0BF410906E15D001500B
:10353000010BE840E840F46E9050BF0BF410906E21
:103540000BD00150010BE840F46E90507F0BF4104B
:10355000906E02D0800E01D0E86AE4CF03F0E4CF91
:1035600002F0E4CF01F0E4CF00F0E4CFD9FF120085
:10357000D9CFE5FFE1CFD9FF00C0E5FF01C0E5FFEE
:1035800002C0E5FF03C0E5FF04C0E5FF05C0E5FF9D
:1035900006C0E5FF07C0E5FF020EDBCF00F0030E1B
:1035A000DBCF01F0040EDBCF02F0050EDBCF03F022
:1035B000060EDBCF04F0070EDBCF05F0080EDBCFE5
:1035C00006F0090EDBCF07F000500201BF6F01507B
:1035D000C06F0250C16F0350C26F04500201C36F2D
:1035E0000550C46F0650C56F0750C66F0201BF512A
:1035F0000201C503F3CF00F0F4CF01F00050020147
:10360000C96F0150CA6F0201BF510201C303F3CF5A
:1036100000F0F4CF01F000500201C76F0150C86FF5
:103620000201C2510201C303F3CF00F00201CA51EB
:1036300000260050CA6F0201C1510201C403F3CF3A
:1036400000F00201CA5100260050CA6F0201C151A8
:103650000201C303F3CF00F0F4CF01F00201C9511E
:103660000026CA5101220050C96F0150CA6F0201E1
:10367000C0510201C403F3CF00F0F4CF01F0020106
:10368000C9510026CA5101220050C96F0150CA6FAA
:103690000201C0510201C503F3CF00F00050020146
:1036A000CE6F0201C0510201C303F3CF00F0F4CF8B
:1036B00001F000500201CC6F0150CD6F0201BF51EB
:1036C0000201C603F3CF00F000500201D26F0201E5
:1036D000BF510201C403F3CF00F0F4CF01F000505A
:1036E0000201D06F0150D16F0201CB6B0201CF6B91
:1036F0000201CB510201C725006E0201CC5102012B
:10370000C821016E0201CD510201C921026E0201E0
:10371000CE510201CA21036E0050C76F0150C86F1D
:103720000250C96F0350CA6F0201CF510201C72571
:10373000006E0201D0510201C821016E0201D15177
:103740000201C921026E0201D2510201CA21036E97
:1037500003C0E9FF02C0F4FF01C0F3FF0050E4CF53
:1037600007F0E4CF06F0E4CF05F0E4CF04F0E4CFB7
:1037700003F0E4CF02F0E4CF01F0E4CF00F0E4CFB7
:10378000D9FF1200D9CFE5FFE1CFD9FF00C0E5FF97
:1037900001C0E5FF02C0E5FF020EDBCF00F0030E23
:1037A000DBCF01F000500301045D06E2110E005C66
:1037B000026A0236025002E0800EDDD0010E005C8B
:1037C000D8A0D6D00250D8A4D3D0000603C0E5FFBD
:1037D00004C0E5FF046A00340436E8340436FC0B08
:1037E000036E000EFB6E380EFA6E020E03260450B6
:1037F000FA22D8B0FB2A0350E4CF04F0E4CF03F060
:10380000F96E21EF1CF029EF1CF032EF1CF03CEFB9
:103810001CF046EF1CF050EF1CF058EF1CF061EF6D
:103820001CF06BEF1CF075EF1CF07EEF1CF088EFC6
:103830001CF092EF1CF09BEF1CF0A5EF1CF0AFEF1B
:103840001CF00150010BF46E9250FE0BF410926EBE
:1038500091D00150010BE844F46E9250FD0BF4102E
:10386000926E88D00150010BE844E844F46E925007
:10387000FB0BF410926E7ED00150010BE838E8404B
:10388000F46E9250F70BF410926E74D00150010B4D
:10389000E838E844F46E9250DF0BF410926E6AD070
:1038A0000150010BF46E9750FE0BF410976E62D02E
:1038B0000150010BE844F46E9750FD0BF410976E25
:1038C00059D00150010BE844E844F46E9750FB0BCB
:1038D000F410976E4FD00150010BE838E840F46EB9
:1038E0009750F70BF410976E45D00150010BE83854
:1038F000F46E9750EF0BF410976E3CD00150010B13
:10390000E838E844F46E9750DF0BF410976E32D02D
:103910000150010BE840E840F46E9750BF0BF410E3
:10392000976E28D00150010BE838F46E9950EF0BD8
:10393000F410996E1FD00150010BE838E844F46E82
:103940009950DF0BF410996E15D00150010BE8402F
:10395000E840F46E9950BF0BF410996E0BD00150F3
:10396000010BE840F46E99507F0BF410996E02D071
:10397000800E01D0E86AE4CF02F0E4CF01F0E4CF9A
:1039800000F0E4CFD9FF1200D9CFE5FFE1CFD9FF96
:1039900000C0E5FF01C0E5FF02C0E5FF06EC3AF01C
:1039A000020E016E5C0E006E800E026EFF0EE56E62
:1039B000B00EE56E000EE56E010EE56E030EE56ECF
:1039C000020EE56E580EE56E000EE56E000EE56E19
:1039D000000EE56E000EE56E0250E56E0150E56EDC
:1039E0000050E56E23EC17F00E0EE126020E016E7C
:1039F0006A0E006E800E026E000EE56E500EE56ED1
:103A0000000EE56E020EE56E040EE56E020EE56E2A
:103A1000580EE56E000EE56E000EE56E000EE56ECA
:103A2000000EE56E0250E56E0150E56E0050E56E49
:103A300023EC17F00E0EE126020E016E5C0E006EF6
:103A4000800E026E020EE56E0250E56E0150E56ECC
:103A50000050E56E0EEC04F0040EE126000EE56E5B
:103A6000030EE56E8CEC37F0020EE126000EE56EDB
:103A7000040EE56E8CEC37F0020EE126010EE56EC9
:103A800056EC2DF0E12A020E016E5C0E006E800EE7
:103A9000026E000EE56E500EE56E000EE56E010E34
:103AA000E56E030EE56E020EE56E580EE56E000E35
:103AB000E56E000EE56E000EE56E000EE56E02503E
:103AC000E56E0150E56E0050E56E23EC17F00E0E2A
:103AD000E126020E016E6A0E006E800E026EFF0E6F
:103AE000E56EB00EE56E000EE56E020EE56E040E9C
:103AF000E56E020EE56E580EE56E000EE56E000EE8
:103B0000E56E000EE56E000EE56E0250E56E0150AA
:103B1000E56E0050E56E23EC17F00E0EE126020E66
:103B2000016E5C0E006E800E026E020EE56E02509B
:103B3000E56E0150E56E0050E56E0EEC04F0040EEB
:103B4000E126000EE56E030EE56E8CEC37F0020EFA
:103B5000E126000EE56E040EE56E8CEC37F0020EE9
:103B6000E126010EE56E56EC2DF0E12A20EC3AF04C
:103B7000E4CF02F0E4CF01F0E4CF00F0E4CFD9FFCE
:103B80001200D9CFE5FFE1CFD9FF00C0E5FF01C0AA
:103B9000E5FF02C0E5FF03C0E5FF04C0E5FF020E3C
:103BA000DBCF00F0016A00064C0E0024026E036AAF
:103BB000070E032202C0E9FF03C0EAFFEFCF02F0C5
:103BC000010E025CD8A08FD0110E025CD8B08BD051
:103BD000020605C0E5FF06C0E5FF066A02340636A8
:103BE000E8340636FC0B056E000EFB6E3C0EFA6EDA
:103BF000080E05260650FA22D8B0FB2A0550E4CF5D
:103C000006F0E4CF05F0F96E24EF1EF029EF1EF068
:103C10002EEF1EF033EF1EF038EF1EF03DEF1EF0DA
:103C200042EF1EF047EF1EF04CEF1EF051EF1EF07A
:103C300056EF1EF05BEF1EF060EF1EF065EF1EF01A
:103C40006AEF1EF06FEF1EF0010E0201FB15016E10
:103C50004AD0020E0201FB15016E45D0040E02018E
:103C6000FB15016E40D0080E0201FB15016E3BD022
:103C7000200E0201FB15016E36D0010E0201FC156B
:103C8000016E31D0020E0201FC15016E2CD0040E23
:103C90000201FC15016E27D0080E0201FC15016E11
:103CA00022D0100E0201FC15016E1DD0010E020182
:103CB000FC15016E18D0020E0201FC15016E13D026
:103CC000100E0201FD15016E0ED0200E0201FD1531
:103CD000016E09D0400E0201FD15016E04D0800E68
:103CE0000201FD15016E01501DE1D8900034016EF6
:103CF000026A3A0E0126070E022201C0E9FF02C045
:103D0000EAFFEECF03F0EFCF04F0FF0E0326D8A0BA
:103D1000040601C0E9FF02C0EAFF03C0EEFF04C0D1
:103D2000EFFF1AD0D8900036016A3A0E0026070E2F
:103D3000012200C0E9FF01C0EAFFEECF02F0EFCFA1
:103D400003F0022AD8B0032A00C0E9FF01C0EAFF4D
:103D500002C0EEFF03C0EFFFE4CF04F0E4CF03F0B6
:103D6000E4CF02F0E4CF01F0E4CF00F0E4CFD9FFDC
:103D70001200D9CFE5FFE1CFD9FF00C0E5FF01C0B8
:103D8000E5FF02C0E5FF03C0E5FF04C0E5FF06EC68
:103D90003AF0040E006E016A020E036E400E026ECF
:103DA000800E046EFF0EE56EC40EE56E000EE56E2D
:103DB000010EE56E030EE56E000EE56EB40EE56EC7
:103DC000000EE56E000EE56E000EE56E000EE56E6F
:103DD0000450E56E0350E56E0250E56E23EC17F0DB
:103DE000026E0E0EE12602500AE0000EE56E420E53
:103DF000E56E5A0EE56EB1EC36F0030EE126020ECA
:103E0000036E4E0E026E800E046E000EE56E3C0ECA
:103E1000E56E000EE56E020EE56E040EE56E000E18
:103E2000E56EB40EE56E000EE56E000EE56E000E5A
:103E3000E56E000EE56E0450E56E0350E56E02502F
:103E4000E56E23EC17F00E0EE126020E036E400E17
:103E5000026E800E046E020EE56E0450E56E035095
:103E6000E56E0250E56E0EEC04F0040EE126000E45
:103E7000E56E030EE56E8CEC37F0020EE126000EC7
:103E8000E56E040EE56E8CEC37F0020EE126010EB5
:103E9000E56E56EC2DF0E12A020E036E400E026E26
:103EA000800E046EFF0EE56EC40EE56E000EE56E2C
:103EB000010EE56E030EE56E000EE56E690EE56E11
:103EC000000EE56E000EE56E000EE56E000EE56E6E
:103ED0000450E56E0350E56E0250E56E23EC17F0DA
:103EE0000E0EE126020E036E400E026E800E046E70
:103EF000010EE56E0450E56E0350E56E0250E56E6E
:103F00000EEC04F0040EE126FF0E0026D8A00106F8
:103F100000500110D8A440D720EC3AF0E4CF04F0D0
:103F2000E4CF03F0E4CF02F0E4CF01F0E4CF00F0FF
:103F3000E4CFD9FF1200D9CFE5FFE1CFD9FF00C010
:103F4000E5FF01C0E5FF02C0E5FF03C0E5FF04C0D7
:103F5000E5FF05C0E5FF06C0E5FF07C0E5FF08C0B7
:103F6000E5FF09C0E5FF0AC0E5FF0BC0E5FF0CC097
:103F7000E5FF0DC0E5FF0EC0E5FF0FC0E5FF020E37
:103F8000DBCF00F0030EDBCF01F0040EDBCF02F03D
:103F9000050EDBCF03F0060EDBCF04F0070EDBCF00
:103FA00005F0080EDBCF06F0200E076E086A06C08B
:103FB00009F00A6A0B6A0C6AE56AE56AE56A095063
:103FC000E56E0350E56E0250E56E0150E56E00505F
:103FD000E56E2CEC2AF00D6E080EE126300E0D2653
:103FE0003A0E0D5C02E3270E0D26FF0E0726D8A021
:103FF0000806200E07240E6E020E08200F6E0EC05B
:10400000E9FF0FC0EAFF0DC0EFFF0C50E56E0B504B
:10401000E56E0A50E56E0950E56E0350E56E0250FC
:10402000E56E0150E56E0050E56EBEEC2AF0006EC4
:10403000F3CF01F0F4CF02F0E9CF03F0080EE12650
:104040000050011002100310D8A4B1D707C000F02F
:1040500008C001F004C002F005C003F000C004F085
:1040600001C005F0002AD8B0012A200E0426020E55
:10407000052204C0E9FF05C0EAFFEFCF04F002C04B
:10408000E9FF03C0EAFF04C0EFFF022AD8B0032A09
:10409000000E015C02E1200E005CE0E302C0E9FFDB
:1040A00003C0EAFF000EEF6AE4CF0FF0E4CF0EF09A
:1040B000E4CF0DF0E4CF0CF0E4CF0BF0E4CF0AF046
:1040C000E4CF09F0E4CF08F0E4CF07F0E4CF06F046
:1040D000E4CF05F0E4CF04F0E4CF03F0E4CF02F046
:1040E000E4CF01F0E4CF00F0E4CFD9FF1200D9CF44
:1040F000E5FFE1CFD9FF00C0E5FF01C0E5FF02C049
:10410000E5FF010E006E016A0150800F800F02E191
:10411000110E005C0EE20050026E010EE56E0250C0
:10412000E56EC2EC1BF0020EE126002AD8B0012A8F
:10413000EBD7080EE56E62EC39F0E12A010EE56E70
:1041400069EC32F0E12A020EE56E69EC32F0E12A08
:10415000090EE56E030EE56E9BEC30F0006E020E6C
:10416000E12600500AE0000EE56E410EE56ED00E2D
:10417000E56EB1EC36F0030EE126010EE56E0BECB8
:104180002FF0E12AFFEC35F0E4CF02F0E4CF01F0AC
:10419000E4CF00F0E4CFD9FF120057616974696E73
:1041A0006720666F72205243207369676E616C20CE
:1041B000746F20626567696E206175746F6E6F6DD4
:1041C0006F757320706572696F642E2E2E0A000061
:1041D000736F6E61725F696E697428292066616908
:1041E0006C65642E0A0045543A20256C64202052E8
:1041F000433A202564202564202564202564202559
:104200006420256420256420204C696E653A2025B1
:1042100078202578202578204C69676874202578D7
:104220002000423A202564202564202053686166DE
:104230007420495B25642C25645D3A202564202583
:10424000642020536F6E61725B25645D3A202564A3
:104250002054313A20256C640A0073686166745FEB
:104260007470735F696E69742829206661696C6572
:10427000642E0A0052756E6E696E6720636F6D70F2
:1042800065746974696F6E206175746F6E6F6D6FA0
:10429000757320726F7574696E652E2E2E0A00007C
:1042A000D9CFE5FFE1CFD9FF00C0E5FF01C0E5FFB1
:1042B00002C0E5FF03C0E5FF04C0E5FF05C0E5FF60
:1042C00006C0E5FF07C0E5FF08C0E5FF09C0E5FF40
:1042D0000AC0E5FF020EDBCF00F0030EDBCF01F0DA
:1042E000040EDBCF02F0050EDBCF03F0060EDBCFB2
:1042F00004F0070EDBCF05F0010E005C12E3005066
:104300000301045D0EE3010E015C0BE301500301A8
:10431000045D07E3010E025C04E302500301045D47
:1043200002E2800E73D003C006F004C007F005C09F
:1043300008F00050D880E866D890096A093609501C
:1043400003E0096A0A6A08D00050E56E21EC37F0F4
:10435000096EF3CF0AF0E12A09C0E5FF0AC0F4FFB5
:1043600006C0E9FF07C0F3FF085018EC3BF003500C
:10437000020F006E000E0420066E000E0520076E70
:104380000150D880E866D890086A0836085003E0E3
:10439000086A096A08D00150E56E21EC37F0086E12
:1043A000F3CF09F0E12A08C0E5FF09C0F4FF00C01F
:1043B000E9FF06C0F3FF075018EC3BF00350040F71
:1043C000036E000E0420016E000E0520006E0250E8
:1043D000D880E866D890046A0436045003E0046A82
:1043E000056A08D00250E56E21EC37F0046EF3CF79
:1043F00005F0E12A04C0E5FF05C0F4FF03C0E9FFB2
:1044000001C0F3FF005018EC3BF0E86AE4CF0AF07B
:10441000E4CF09F0E4CF08F0E4CF07F0E4CF06F0F2
:10442000E4CF05F0E4CF04F0E4CF03F0E4CF02F0F2
:10443000E4CF01F0E4CF00F0E4CFD9FF1200D9CFF0
:10444000E5FFE1CFD9FF00C0E5FF01C0E5FF02C0F5
:10445000E5FF03C0E5FF04C0E5FF05C0E5FF06C0BA
:10446000E5FF07C0E5FF020EDBCF00F0030EDBCF58
:1044700001F00050E56E3BEC36F0E12A0150E56EAC
:10448000DFEC22F0006EE12A0050F8E0D6CF00F019
:10449000026AD7CF03F0046A0350066E056A05501E
:1044A0000012065002120150E56EDFEC22F0036E9E
:1044B000E12A0350010AF7E0D6CF01F0036AD7CF13
:1044C00004F0056A0450076E066A06500112075090
:1044D00003120050015C006E02500358016ED5A615
:1044E00004D0010E026E036A0FD0070ED514046EBD
:1044F000020E026E000E036E045006E0E86CD890C7
:1045000002360336010FFCE3E86A03BEFF0E046EB9
:10451000056E066A076A0750E56E0650E56E0150A3
:10452000E56E0050E56E0550E56E0450E56E0350F3
:10453000E56E0250E56EB8EC1AF0006EF3CF01F0B4
:10454000F4CF02F0E9CF03F0080EE126700E00264A
:10455000FE0E0122FF0E0222FF0E0322000EE56E68
:10456000000EE56E020EE56E470EE56E0350E56E39
:104570000250E56E0150E56E0050E56EBEEC2AF08B
:10458000006EF3CF01F0F4CF02F0E9CF03F0080E94
:10459000E12601C0F3FF0050E4CF07F0E4CF06F0BE
:1045A000E4CF05F0E4CF04F0E4CF03F0E4CF02F071
:1045B000E4CF01F0E4CF00F0E4CFD9FF1200D9CF6F
:1045C000E5FFE1CFD9FF00C0E5FF01C0E5FF02C074
:1045D000E5FF020EDBCF00F000500301045D0FE2A7
:1045E000110E005C016A0136015009E10050E56ED0
:1045F00014EC25F0026EE12A0250010A02E0800E5E
:1046000094D0010E005CD8A08FD00150D8A48CD0DB
:10461000000603C0E5FF04C0E5FF046A0034043669
:10462000E8340436FC0B036E000EFB6E460EFA6E89
:10463000480E03260450FA22D8B0FB2A0350E4CFD8
:1046400004F0E4CF03F0F96E44EF23F049EF23F0D8
:104650004EEF23F053EF23F058EF23F05DEF23F0FC
:1046600062EF23F067EF23F06CEF23F071EF23F09C
:1046700076EF23F07BEF23F080EF23F085EF23F03C
:104680008AEF23F08FEF23F0006A80B0002A0050F9
:104690004CD0006A80B2002A005047D0006A80B433
:1046A000002A005042D0006A80B6002A00503DD057
:1046B000006A80BA002A005038D0006A85B0002A0B
:1046C000005033D0006A85B2002A00502ED0006A14
:1046D00085B4002A005029D0006A85B6002A00500F
:1046E00024D0006A85B8002A00501FD0006A85BA1D
:1046F000002A00501AD0006A85BC002A005015D04C
:10470000006A87B8002A005010D0006A87BA002AD1
:1047100000500BD0006A87BC002A005006D0006A07
:1047200087BE002A005001D0800EE4CF02F0E4CF13
:1047300001F0E4CF00F0E4CFD9FF1200D9CFE5FFBC
:10474000E1CFD9FF00C0E5FF02011C6B0201176B2E
:10475000C6AE05D0C69E010E0201176F16D0006AC4
:10476000F1BE002A0050010A0AE1006AF2B6002AEE
:104770000050010A04E1020E0201176F06D0F0A6F4
:1047800004D0909E030E0201176F250EC614006E12
:10479000250A07E0010E02011C6FC6500201176FC7
:1047A00086D0C55007E0020E02011C6FC550020101
:1047B000176F7DD0D0BE07D0030E02011C6FD05002
:1047C0000201176F74D09DB607D0040E02011C6F52
:1047D0009D500201176F6BD09C5007E0050E02013F
:1047E0001C6F9C500201176F62D09F50080A07E0AF
:1047F000060E02011C6F9F500201176F58D0A25085
:1048000007E0070E02011C6FA2500201176F4FD084
:10481000A55007E0080E02011C6FA5500201176F9A
:1048200046D0100EF214006E100A07E0090E0201C5
:104830001C6FF2500201176F3AD0F150470B07E09E
:104840000A0E02011C6FF1500201176F30D0F050B8
:10485000C00B07E00B0E02011C6FF0500201176F36
:1048600026D092A807D00C0E02011C6F92500201B4
:10487000176F1DD093B007D00D0E02011C6F93501F
:104880000201176F14D03E0E9414006E1C0A07E04C
:104890000E0E02011C6F94500201176F08D097BED4
:1048A00006D00F0E02011C6F97500201176FE4CF64
:1048B00000F0E4CFD9FF1200D9CFE5FFE1CFD9FF57
:1048C00000C0E5FF01C0E5FF02C0E5FF03C0E5FF52
:1048D00004C0E5FF05C0E5FF040EE56E4BEC2BF0D0
:1048E0000201F86FE12A030EE56E4BEC2BF0006E2F
:1048F000E12A001C0201F96FF92B020E016EF60E7F
:10490000006E800E026E020E046EF70E036E800EB5
:10491000056EE56E0450E56E0350E56E0250E56EDF
:104920000150E56E0050E56E7F0EE56E0201F95113
:10493000E56E0201F851E56E1AEC14F0090EE1265D
:1049400007010651800F7F0F20E3030EE56E020181
:10495000F651F6BFE86CE56EEAEC36F00201F6BF00
:10496000E86C0201F66FE450E450030EE56E0201BC
:10497000F751F7BFE86CE56EEAEC36F00201F7BFDD
:10498000E86C0201F76FE450E4500201F61D006E7E
:10499000002A0050E56E030EE56E8CEC37F0020E37
:1049A000E1260201F751E56E040EE56E8CEC37F05E
:1049B000020EE126020EE56E4BEC2BF0006EE12AB2
:1049C000001C0201F56FF52BF551800F940F08E2E2
:1049D00007010651800F6E0F03E20701062B0CD072
:1049E0000201F551800F6B0F07E307010651800F9D
:1049F000E30F02E30701060707010651E56E010E0A
:104A0000E56E8CEC37F0020EE126E4CF05F0E4CF42
:104A100004F0E4CF03F0E4CF02F0E4CF01F0E4CF00
:104A200000F0E4CFD9FF1200D9CFE5FFE1CFD9FFE5
:104A300000C0E5FF01C0E5FF020EDBCF00F0005033
:104A40000301045D06E2110E005C016A01360150AB
:104A500002E0800E94D0010E005CD8A08FD00150EF
:104A6000D8A48CD0000602C0E5FF03C0E5FF036AAE
:104A700000340336E8340336FC0B026E000EFB6E86
:104A80004A0EFA6E9C0E02260350FA22D8B0FB2A78
:104A90000250E4CF03F0E4CF02F0F96E6EEF25F0A0
:104AA00073EF25F078EF25F07DEF25F082EF25F00C
:104AB00087EF25F08CEF25F091EF25F096EF25F0AC
:104AC0009BEF25F0A0EF25F0A5EF25F0AAEF25F04C
:104AD000AFEF25F0B4EF25F0B9EF25F0006A92B002
:104AE000002A00504CD0006A92B2002A005047D0F1
:104AF000006A92B4002A005042D0006A92B6002A9E
:104B000000503DD0006A92BA002A005038D0006AA6
:104B100097B0002A005033D0006A97B2002A0050A4
:104B20002ED0006A97B4002A005029D0006A97B6A8
:104B3000002A005024D0006A97B8002A00501FD0E5
:104B4000006A97BA002A00501AD0006A97BC002A5F
:104B5000005015D0006A99B8002A005010D0006AA1
:104B600099BA002A00500BD0006A99BC002A005064
:104B700006D0006A99BE002A005001D0800EE4CF12
:104B800001F0E4CF00F0E4CFD9FF1200D9CFE5FF68
:104B9000E1CFD9FF00C0E5FF01C0E5FF02C0E5FF9E
:104BA00003C0E5FF04C0E5FF05C0E5FF020EDBCF53
:104BB00000F0010E005CD870016A0136015006E178
:104BC000070E005C026A0236025002E0800E79D0C5
:104BD00000C003F0046AFF0E0326D8A004061C0ED2
:104BE0000326070E042203C0E9FF04C0EAFF000EFB
:104BF000EF6E0006460E0024036E046A070E0422C0
:104C000003C0E9FF04C0EAFF000EEF6E0150D8A414
:104C100057D00250D8A454D006C0E5FF07C0E5FF26
:104C2000076A00340736E8340736FC0B066E000EC0
:104C3000FB6E4C0EFA6E4E0E06260750FA22D8B0C6
:104C4000FB2A0650E4CF07F0E4CF06F0F96E33EF0D
:104C500026F035EF26F037EF26F037EF26F037EF66
:104C600026F037EF26F0F0982BD0F09A29D0006A82
:104C7000016A030E026E036A0350800F800F02E187
:104C8000060E025C19E20250FF0F046EFF0E0320B5
:104C9000056E1C0E0426070E052204C0E9FF05C0A0
:104CA000EAFFEFCF04F0056A045000260550012208
:104CB000022AD8B0032AE0D700500110D8B4F296E7
:104CC000E86AE4CF05F0E4CF04F0E4CF03F0E4CFEA
:104CD00002F0E4CF01F0E4CF00F0E4CFD9FF1200FE
:104CE000D9CFE5FFE1CFD9FF00C0E5FF01C0E5FF67
:104CF00002C0E5FF03C0E5FF04C0E5FF05C0E5FF16
:104D000006C0E5FF07C0E5FF08C0E5FF09C0E5FFF5
:104D1000020EDBCF00F00006D8900034016E910E39
:104D20000124026E036A020E0322D6CF04F0056A44
:104D300002C0E9FF03C0EAFF04C0EEFF05C0EFFFB9
:104D4000910E0124026E036A020E0322910E0124C9
:104D5000046E056A020E052204C0E9FF05C0EAFFE1
:104D6000EECF04F0EFCF05F0D7CF06F0076A06507C
:104D7000096E086A085004120950051202C0E9FFC2
:104D800003C0EAFF04C0EEFF05C0EFFF2E0E0124B2
:104D9000026E036A070E0322910E0124046E056A57
:104DA000020E052204C0E9FF05C0EAFFEECF04F0C1
:104DB000EFCF05F0066A850E0126020E062201C01D
:104DC000E9FF06C0EAFFEECF01F0EFCF06F0015099
:104DD000045E0650055A02C0E9FF03C0EAFF04C0A2
:104DE000EEFF05C0EFFF016A280E0026070E012224
:104DF00000C0E9FF01C0EAFF010EEF6EE4CF09F049
:104E0000E4CF08F0E4CF07F0E4CF06F0E4CF05F0FC
:104E1000E4CF04F0E4CF03F0E4CF02F0E4CF01F0FC
:104E2000E4CF00F0E4CFD9FF1200D9CFE5FFE1CF06
:104E3000D9FF00C0E5FF01C0E5FF02C0E5FF03C0E8
:104E4000E5FF04C0E5FF05C0E5FF06C0E5FF07C0BC
:104E5000E5FF08C0E5FF09C0E5FF0AC0E5FF0BC09C
:104E6000E5FF0CC0E5FF0DC0E5FF0EC0E5FF0FC07C
:104E7000E5FFB2CF00F0016AB3CF02F0036A02503F
:104E8000056E046A0450001205500112E9C202F0D6
:104E9000EAC203F0B2CF04F0056AB3CF06F0076AA6
:104EA0000650096E086A0850041209500512015094
:104EB000055C02E10050045C1EE2E9C206F0EAC2B1
:104EC00007F0086A096A07500D6E06500C6E0A6AF0
:104ED0000B6A0E6A0F6A04500A1205500B120E502C
:104EE0000C120F500D120DC0E9FF0CC0F4FF0BC0E7
:104EF000F3FF0A5019D0046A056A0350096E025084
:104F0000086E066A076A0A6A0B6A005006120150A8
:104F100007120A5008120B50091209C0E9FF08C015
:104F2000F4FF07C0F3FF0650E4CF0FF0E4CF0EF01C
:104F3000E4CF0DF0E4CF0CF0E4CF0BF0E4CF0AF0B7
:104F4000E4CF09F0E4CF08F0E4CF07F0E4CF06F0B7
:104F5000E4CF05F0E4CF04F0E4CF03F0E4CF02F0B7
:104F6000E4CF01F0E4CF00F0E4CFD9FF1200D9CFB5
:104F7000E5FFE1CFD9FF00C0E5FF01C0E5FF02C0BA
:104F8000E5FF03C0E5FF04C0E5FF05C0E5FF06C07F
:104F9000E5FF07C0E5FF08C0E5FF09C0E5FF0AC05F
:104FA000E5FF0BC0E5FF0CC0E5FF0DC0E5FF0EC03F
:104FB000E5FF0FC0E5FFCECF00F0016ACFCF02F0D2
:104FC000036A0250056E046A045000120550011273
:104FD000E7C202F0E8C203F0CECF04F0056ACFCFFB
:104FE00006F0076A0650096E086A08500412095054
:104FF00005120150055C02E10050045C1EE2E7C2AC
:1050000006F0E8C207F0086A096A07500D6E0650FC
:105010000C6E0A6A0B6A0E6A0F6A04500A12055077
:105020000B120E500C120F500D120DC0E9FF0CC0E8
:10503000F4FF0BC0F3FF0A5019D0046A056A03504D
:10504000096E0250086E066A076A0A6A0B6A005007
:105050000612015007120A5008120B50091209C01B
:10506000E9FF08C0F4FF07C0F3FF0650E4CF0FF0DC
:10507000E4CF0EF0E4CF0DF0E4CF0CF0E4CF0BF072
:10508000E4CF0AF0E4CF09F0E4CF08F0E4CF07F072
:10509000E4CF06F0E4CF05F0E4CF04F0E4CF03F072
:1050A000E4CF02F0E4CF01F0E4CF00F0E4CFD9FF89
:1050B0001200D9CFE5FFE1CFD9FF00C0E5FF01C065
:1050C000E5FF02C0E5FF03C0E5FF04C0E5FF05C042
:1050D000E5FF06C0E5FF07C0E5FF08C0E5FF09C022
:1050E000E5FF0AC0E5FF0BC0E5FF0CC0E5FF0DC002
:1050F000E5FF0EC0E5FF0FC0E5FFD6CF00F0016A67
:10510000D7CF02F0036A0250056E046A0450001201
:1051100005500112E5C202F0E6C203F0D6CF04F05A
:10512000056AD7CF06F0076A0650096E086A08506C
:105130000412095005120150055C02E10050045CA4
:105140001EE2E5C206F0E6C207F0086A096A0750E7
:105150000D6E06500C6E0A6A0B6A0E6A0F6A0450D6
:105160000A1205500B120E500C120F500D120DC0EA
:10517000E9FF0CC0F4FF0BC0F3FF0A5019D0046A1A
:10518000056A0350096E0250086E066A076A0A6AC9
:105190000B6A00500612015007120A5008120B50F9
:1051A000091209C0E9FF08C0F4FF07C0F3FF065069
:1051B000E4CF0FF0E4CF0EF0E4CF0DF0E4CF0CF02D
:1051C000E4CF0BF0E4CF0AF0E4CF09F0E4CF08F02D
:1051D000E4CF07F0E4CF06F0E4CF05F0E4CF04F02D
:1051E000E4CF03F0E4CF02F0E4CF01F0E4CF00F02D
:1051F000E4CFD9FF1200D9CFE5FFE1CFD9FF00C03E
:10520000E5FF01C0E5FF02C0E5FF03C0E5FF04C004
:10521000E5FF05C0E5FF06C0E5FF07C0E5FF08C0E4
:10522000E5FF09C0E5FF020EDBCF00F00004016ED0
:10523000D8900134026E850E0224036E046A020EB9
:105240000422D6CF05F0066A03C0E9FF04C0EAFFD6
:1052500005C0EEFF06C0EFFF850E0224036E046A50
:10526000020E0422056A850E0226020E052202C0E5
:10527000E9FF05C0EAFFEECF02F0EFCF05F0D7CF90
:1052800006F0076A0650096E086A085002120950B3
:10529000051203C0E9FF04C0EAFF02C0EEFF05C02B
:1052A000EFFF010E005C2DE3070E005C2AE20AC04E
:1052B000E5FF0BC0E5FF0B6A01340B36E8340B3613
:1052C000FC0B0A6E000EFB6E520EFA6EE40E0A26FE
:1052D0000B50FA22D8B0FB2A0A50E4CF0BF0E4CFEF
:1052E0000AF0F96E7EEF29F080EF29F081EF29F0C6
:1052F00081EF29F081EF29F081EF29F0F19801D0B9
:10530000F196E4CF09F0E4CF08F0E4CF07F0E4CF62
:1053100006F0E4CF05F0E4CF04F0E4CF03F0E4CFEF
:1053200002F0E4CF01F0E4CF00F0E4CFD9FF1200A7
:10533000D9CFE5FFE1CFD9FF00C0E5FF01C0E5FF10
:1053400002C0E5FF03C0E5FF04C0E5FF05C0E5FFBF
:10535000020EDBCF00F0010E005CD870016A01364E
:10536000015019E1070E005C026A0236025013E197
:1053700000C003F0046AFF0E0326D8A004061C0E2A
:105380000326070E042203C0E9FF04C0EAFFEFCFA3
:1053900005F0055002E0800E50D003C0E9FF04C0C4
:1053A000EAFF010EEF6E0006D8900034036E046A27
:1053B0003A0E0326070E042203C0E9FF04C0EAFFE9
:1053C000000EEE6E000EEF6E015036E1025034E139
:1053D00006C0E5FF07C0E5FF076A00340736E8347A
:1053E0000736FC0B066E000EFB6E540EFA6E060EB0
:1053F00006260750FA22D8B0FB2A0650E4CF07F061
:10540000E4CF06F0F96E0FEF2AF014EF2AF019EF4F
:105410002AF019EF2AF019EF2AF019EF2AF0F18893
:10542000F09EF092F08808D0F186F192F094F08A24
:1054300003D0F190F290F286E86AE4CF05F0E4CF71
:1054400004F0E4CF03F0E4CF02F0E4CF01F0E4CFC6
:1054500000F0E4CFD9FF1200D9CFE5FFE1CFD9FFAB
:1054600000C0E5FF01C0E5FF02C0E5FF03C0E5FFA6
:1054700004C0E5FF05C0E5FF06C0E5FF07C0E5FF86
:1054800008C0E5FF09C0E5FF0AC0E5FF020EDBCF5B
:1054900000F0030EDBCF01F0040EDBCF02F0050EAF
:1054A000DBCF03F0060EDBCF04F0070EDBCF05F0F9
:1054B000080EDBCF06F0090EDBCF07F0086A096A99
:1054C0000744010B0A6E0AB01BD0045004260536AF
:1054D000063607360750035C08E10650025C05E11A
:1054E0000550015C02E10450005C06E2D8900732EE
:1054F00006320532043204D0092A09C008F0E0D788
:105500000750035C08E10650025C05E10550015CB0
:1055100002E10450005C08E30450005E0550015AAB
:105520000650025A0750035AD89007320632053205
:10553000043208C009F008060950E2E103C0E9FF9F
:1055400002C0F4FF01C0F3FF0050E4CF0AF0E4CF43
:1055500009F0E4CF08F0E4CF07F0E4CF06F0E4CFA1
:1055600005F0E4CF04F0E4CF03F0E4CF02F0E4CFA1
:1055700001F0E4CF00F0E4CFD9FF1200D9CFE5FF6E
:10558000E1CFD9FF00C0E5FF01C0E5FF02C0E5FFA4
:1055900003C0E5FF04C0E5FF05C0E5FF06C0E5FF69
:1055A00007C0E5FF08C0E5FF09C0E5FF0AC0E5FF49
:1055B0000BC0E5FF0CC0E5FF0DC0E5FF020EDBCF21
:1055C00000F0030EDBCF01F0040EDBCF02F0050E7E
:1055D000DBCF03F0060EDBCF04F0070EDBCF05F0C8
:1055E000080EDBCF06F0090EDBCF07F0086A096A68
:1055F0000A6A0B6A200E0C6E0344010B0D6E010E3D
:105600000D160050002601360236033608500826D3
:1056100009360A360B360D50D8A4088007500B5CAB
:1056200008E106500A5C05E10550095C02E10450FE
:10563000085C09E30450085E0550095A06500A5AEE
:1056400007500B5A00800C2ED7D703C0E9FF02C0C9
:10565000F4FF01C0F3FF0050E4CF0DF0E4CF0CF0F5
:10566000E4CF0BF0E4CF0AF0E4CF09F0E4CF08F088
:10567000E4CF07F0E4CF06F0E4CF05F0E4CF04F088
:10568000E4CF03F0E4CF02F0E4CF01F0E4CF00F088
:10569000E4CFD9FF1200D9CFE5FFE1CFD9FF00C099
:1056A000E5FF01C0E5FF02C0E5FF03C0E5FF04C060
:1056B000E5FF05C0E5FF020EDBCF00F0010E005C48
:1056C000D8A065D0070E005CD8B061D057C701F0F4
:1056D00058C702F059C703F0060E0126000E022239
:1056E000000E0322000600500126E86A0222E86A42
:1056F000032201C0E9FF02C0F3FF0350E9EC3AF0D6
:10570000016EFF0A24E157C701F058C702F059C7DC
:1057100003F0060E0126000E0222000E03220050A6
:105720000126E86A0222E86A032201C0E9FF02C0FA
:10573000F3FF0350E9EC3AF0046E040604C0E5FF01
:1057400001C0E9FF02C0F3FF03502FEC3BF057C745
:1057500001F058C702F059C703F0060E0126000EEB
:105760000222000E0322046A056A0150002602503C
:1057700004220350052200C0E9FF04C0F3FF0550D6
:10578000E9EC3AF0006E810E0026005001D0800E48
:10579000E4CF05F0E4CF04F0E4CF03F0E4CF02F06F
:1057A000E4CF01F0E4CF00F0E4CFD9FF1200D9CF6D
:1057B000E5FFE1CFD9FF00C0E5FF01C0E5FF02C072
:1057C000E5FF03C0E5FF04C0E5FF05C0E5FF06C037
:1057D000E5FF07C0E5FF08C0E5FF09C0E5FF0AC017
:1057E000E5FF0BC0E5FF0CC0E5FF020EDBCF00F0CC
:1057F000030EDBCF01F0040EDBCF02F0050EDBCF92
:1058000003F0060EDBCF04F0070EDBCF05F0080E29
:10581000DBCF06F0090EDBCF07F000C008F001C0B7
:1058200009F002C00AF006C00BF007C00CF0FF0E32
:105830000626D8A007060B500C101CE003C0E9FF99
:1058400004C0F3FF0550E9EC3AF00B6E032AD8B020
:10585000042AD8B0052A0BC0E5FF00C0E9FF01C04B
:10586000F3FF02502FEC3BF0002AD8B0012AD8B049
:10587000022AD9D70AC0F4FF09C0F3FF0850E4CFC9
:105880000CF0E4CF0BF0E4CF0AF0E4CF09F0E4CF62
:1058900008F0E4CF07F0E4CF06F0E4CF05F0E4CF62
:1058A00004F0E4CF03F0E4CF02F0E4CF01F0E4CF62
:1058B00000F0E4CFD9FF1200D9CFE5FFE1CFD9FF47
:1058C00000C0E5FF01C0E5FF02C0E5FF03C0E5FF42
:1058D00004C0E5FF05C0E5FF06C0E5FF07C0E5FF22
:1058E000020EDBCF00F0030EDBCF01F0040EDBCFA6
:1058F00002F0050EDBCF03F002C006F00650046E86
:10590000800A28E100C0E9FF01C0F3FF0250EBEC80
:1059100039F0056EF3CF06F0F4CF07F003C0E5FFD2
:1059200005C0E9FF06C0F3FF07502FEC3BF0052A46
:10593000D8B0062AD8B0072A05C0E5FF06C0F4FF94
:1059400007C0F6FF00C0E9FF01C0F3FF02500AECF8
:105950003BF01ED004AA1CD0200E041A045004E10F
:10596000035051EC3BF014D00450010A04E1035001
:1059700002EC04F00DD004500F0A04E103500AECCD
:1059800004F006D004500E0A03E1035059EC3BF03A
:10599000E4CF07F0E4CF06F0E4CF05F0E4CF04F065
:1059A000E4CF03F0E4CF02F0E4CF01F0E4CF00F065
:1059B000E4CFD9FF1200D9CFE5FFE1CFD9FF00C076
:1059C000E5FF01C0E5FF02C0E5FF03C0E5FF04C03D
:1059D000E5FF05C0E5FF06C0E5FF07C0E5FF020ED5
:1059E000DBCF00F0030EDBCF01F0040EDBCF02F0C3
:1059F000050EDBCF03F0D88001AED890046A0436E0
:105A0000045007E0011C066E001C056E054A062ABC
:105A100004D000C005F001C006F005C000F006C0CB
:105A200001F0D88003AED890056A0536055007E02E
:105A3000031C076E021C066E064A072A04D002C029
:105A400006F003C007F00750E56E0650E56E015002
:105A5000E56E0050E56E14EC32F0006EF3CF01F00D
:105A6000040EE1260550041A04500AE0011C036EDE
:105A7000001C026E024A032A03C0F3FF025003D047
:105A800001C0F3FF0050E4CF07F0E4CF06F0E4CF0D
:105A900005F0E4CF04F0E4CF03F0E4CF02F0E4CF6C
:105AA00001F0E4CF00F0E4CFD9FF1200D9CFE5FF39
:105AB000E1CFD9FF00C0E5FF01C0E5FF02C0E5FF6F
:105AC00003C0E5FF04C0E5FF05C0E5FF06C0E5FF34
:105AD000020EDBCF00F002011E51020A02E19EEC31
:105AE00023F07F0E02011515016E0201156F0701EB
:105AF0005A51200DF3CF01F0F4CF02F0AA0E012687
:105B0000070E02220150800E036E020E056E000E7B
:105B1000046E800E066E000EE56E200EE56E0650D9
:105B2000E56E0550E56E0450E56E0350E56E0250DB
:105B3000E56E0150E56ED7EC2BF0080EE1269D9640
:105B400007015A51D880E866D89007015A6B5A3736
:105B5000030108839D861DC201F0012A0150020144
:105B60001D6F0050010A05E16BEC3AF0006E005029
:105B7000FBE0E4CF06F0E4CF05F0E4CF04F0E4CF9F
:105B800003F0E4CF02F0E4CF01F0E4CF00F0E4CF83
:105B9000D9FF1200D9CFE5FFE1CFD9FF00C0E5FF63
:105BA00001C0E5FF02C0E5FFBCEC32F03AEC3AF090
:105BB000010E006E090E005C0AE2000EE56E005058
:105BC000E56E8CEC37F0020EE126002AF3D7080EC2
:105BD000006E100E005C0EE2040E0024016E026ADC
:105BE000020E022201C0E9FF02C0EAFF7F0EEF6E43
:105BF000002AEFD7010E006E090E005C0AE2010ECA
:105C0000E56E0050E56EBEEC34F0020EE126002A8F
:105C1000F3D7010E006E050E005C07E20050E56E42
:105C2000AAEC33F0E12A002AF6D702011D6B010E1F
:105C300002011E6FC90E02011F6F03010885089142
:105C4000000EE56E56EC2DF0E12A24EC3BF06BECF7
:105C50003AF0006E0050FBE085EC39F0E4CF02F042
:105C6000E4CF01F0E4CF00F0E4CFD9FF1200D9CFA8
:105C7000E5FFE1CFD9FF00C0E5FF01C0E5FF02C0AD
:105C8000E5FF03C0E5FF04C0E5FF05C0E5FF06C072
:105C9000E5FF07C0E5FF020EDBCF00F0030EDBCF10
:105CA00001F0040EDBCF02F0050EDBCF03F0060E91
:105CB000DBCF04F0070EDBCF05F0080EDBCF06F0DC
:105CC000090EDBCF07F00301036B0050010A02E16C
:105CD000015001E004D0010E0301036F01D0BA6A44
:105CE0000250010A02E1035001E003D003010383E3
:105CF00001D0B76A0450010A02E1055001E003D067
:105D00000301038501D0736A0650010A02E10750BE
:105D100001E003D00301038701D0706AE4CF07F0EC
:105D2000E4CF06F0E4CF05F0E4CF04F0E4CF03F0D5
:105D3000E4CF02F0E4CF01F0E4CF00F0E4CFD9FFEC
:105D40001200D9CFE5FFE1CFD9FF00C0E5FF01C0C8
:105D5000E5FF02C0E5FF020EDBCF00F0030EDBCF54
:105D600001F0040EDBCF02F00F0E0014C66E0250DD
:105D700003E0800E026E01D0026A02C0C7FF040E6B
:105D8000015C2EE203C0E5FF04C0E5FF046A0134B4
:105D90000436E8340436FC0B036E000EFB6E5D0E19
:105DA000FA6EBA0E03260450FA22D8B0FB2A03502A
:105DB000E4CF04F0E4CF03F0F96EE5EF2EF0E8EF66
:105DC0002EF0EBEF2EF0EEEF2EF0C698C78C08D039
:105DD000C698C79C05D0C688C78C02D0C688C79C09
:105DE0000050050A03E19486C79E06D00050010AC0
:105DF00002E1928A01D09496949A9488978EF19CAD
:105E0000F288C68AE4CF02F0E4CF01F0E4CF00F0DC
:105E1000E4CFD9FF1200D9CFE5FFE1CFD9FF00C011
:105E2000E5FF020EDBCF00F0010E005CD8A055D0DC
:105E3000050E005CD8B051D0000601C0E5FF02C0DD
:105E4000E5FF026A00340236E8340236FC0B016ECC
:105E5000000EFB6E5E0EFA6E700E01260250FA22E4
:105E6000D8B0FB2A0150E4CF02F0E4CF01F0F96E84
:105E700040EF2FF04CEF2FF057EF2FF063EF2FF0A4
:105E8000CD90CD8ECF0ECD14006E300E0010CD6EA5
:105E90009E909D80CD8021D0CA94FC0ECA14006EC5
:105EA000020E0010CA6E9E929D82CA8416D0B190D6
:105EB000B18ECF0EB114006E300E0010B16EA192F3
:105EC000A082B1800AD07694FC0E7614006E020E89
:105ED0000010766EA496A3867684E4CF00F0E4CF1B
:105EE000D9FF1200D9CFE5FFE1CFD9FF00C0E5FF10
:105EF00001C0E5FF02C0E5FF03C0E5FF04C0E5FF08
:105F000005C0E5FF06C0E5FF020EDBCF00F0030E83
:105F1000DBCF01F0040EDBCF02F0050EDBCF03F088
:105F2000060EDBCF04F0070EDBCF05F0080EDBCF4B
:105F300006F0D88003AED89016E306500A0A13E1A3
:105F400004C0E9FF05C0EAFF2D0EEF6E042AD8B0A9
:105F5000052A031E021E011E006C05E1012A03E151
:105F6000022AD8B4032A0650E56E0550E56E0450A7
:105F7000E56E0350E56E0250E56E0150E56E00508F
:105F8000E56E9BEC1FF0070EE126E4CF06F0E4CFB0
:105F900005F0E4CF04F0E4CF03F0E4CF02F0E4CF67
:105FA00001F0E4CF00F0E4CFD9FF1200D9CFE5FF34
:105FB000E1CFD9FF00C0E5FF01C0E5FF020EDBCF56
:105FC00000F0010E0014016E010BE840F46E9650D3
:105FD0007F0BF410966E020E0014016E010BF46E2E
:105FE0009850FE0BF410986E040E0014016E010B15
:105FF000E838E840F46E9850F70BF410986E080EED
:106000000014016E010BE838F46E9850EF0BF41099
:10601000986E100E0014016E010BF46E9650FE0B7C
:10602000F410966E200E0014016E010BE844F46E1D
:106030009650FD0BF410966E400E0014016E010B8D
:10604000E844E844F46E9650FB0BF410966E800E14
:1060500000160050010BE838E840F46E9650F70B3C
:10606000F410966EE4CF01F0E4CF00F0E4CFD9FF56
:106070001200CAEC2DF077EC20F00F0EE56EDFEC8D
:1060800022F0006EE12A005017E1000EE56E410E8D
:10609000E56E9A0EE56EB1EC36F0030EE12676EC75
:1060A00036F0006E010AFBE1000EE56E140EE56E9F
:1060B00097EC3AF0020EE1266BEC3AF0006E0050DD
:1060C000FBE0B8EC0EF0020EE56E050EE56EBAECE4
:1060D00031F0006E020EE126040E005CEDE201C01C
:1060E000E5FF02C0E5FF026A00340236E8340236FA
:1060F000FC0B016E000EFB6E610EFA6E140E012693
:106100000250FA22D8B0FB2A0150E4CF02F0E4CFCB
:1061100001F0F96E92EF30F095EF30F096EF30F03D
:1061200099EF30F0B9EC1EF0C7D7C6D7C4EC1CF01D
:10613000C3D7C2D71200D9CFE5FFE1CFD9FF00C046
:10614000E5FF01C0E5FF02C0E5FF03C0E5FF04C0B5
:10615000E5FF020EDBCF00F0030EDBCF01F0010EF6
:10616000005C0AE3070E005C07E201500301045DD6
:1061700003E2110E015C02E3800E32D0000EE56EE8
:106180000150E56EC2EC1BF0020EE126000EE56E3A
:106190000150E56EAAEC19F0020EE1260004026E31
:1061A000220E0224036E046A070E042203C0E9FFD4
:1061B00004C0EAFF010EEF6E036A9D0E0226020E76
:1061C000032202C0E9FF03C0EAFF01C0EFFF005055
:1061D000E56E0150E56E7BEC34F0020EE126E86AD4
:1061E000E4CF04F0E4CF03F0E4CF02F0E4CF01F019
:1061F000E4CF00F0E4CFD9FF1200D9CFE5FFE1CF23
:10620000D9FF00C0E5FF020EDBCF00F0010E005CFD
:10621000D8A04FD0050E005CD8B04BD0000601C00E
:10622000E5FF02C0E5FF026A00340236E8340236B8
:10623000FC0B016E000EFB6E620EFA6E540E012610
:106240000250FA22D8B0FB2A0150E4CF02F0E4CF8A
:1062500001F0F96E32EF31F039EF31F046EF31F005
:106260004DEF31F0CF6ACE6A0201E76B0201E86BB5
:1062700020D0CC6A010ECC6E0201A36B0201A46B8C
:106280000201A56B0201A66BCB6A13D0B36AB26A96
:106290000201E96B0201EA6B0CD0786A010E786E9C
:1062A0000201A76B0201A86B0201A96B0201AA6B94
:1062B000776AE4CF00F0E4CFD9FF1200D9CFE5FF31
:1062C000E1CFD9FF00C0E5FF01C0E5FF02C0E5FF57
:1062D00003C0E5FF04C0E5FF020EDBCF00F0030EB4
