:020000040000FA
:10080000FCEF28F0C96E120075EF0EF0006AC2B25C
:06081000002A0050120056
:08081800E7EF09F0D9CFE5FF7D
:10082000E1CFD9FF00C0E5FF01C0E5FF02C0E5FF51
:1008300003C0E5FF04C0E5FF05C0E5FF06C0E5FF16
:1008400007C0E5FF08C0E5FF09C0E5FF0AC0E5FFF6
:100850000BC0E5FF0CC0E5FF0DC0E5FF0EC0E5FFD6
:100860000FC0E5FF10C0E5FF11C0E5FF12C0E5FFB6
:1008700013C0E5FF14C0E5FF15C0E5FF16C0E5FF96
:1008800017C0E5FF18C0E5FF19C0E5FF1AC0E5FF76
:100890001BC0E5FF1CC0E5FF1DC0E5FF1EC0E5FF56
:1008A000020EDBCF00F0030EDBCF01F0040EDBCF36
:1008B00002F0050EDBCF03F0060EDBCF04F0070ECF
:1008C000DBCF05F0080EDBCF06F0090EDBCF07F01B
:1008D0000A0EDBCF08F0096A0A6A02C00DF00D505B
:1008E000800A0CE100C05AF201C05BF202C05CF267
:1008F000020E016E5A0E006E800E026E03C0E9FFFA
:1009000004C0F3FF055024EC29F00B6E0B50D8B453
:10091000DFEF07F00B50250A02E0C4EF07F00C6A86
:100920000D6A0E6A0F6A106A0A0E116E126A136A55
:10093000146A200E156E1668176A2B0E186E032A9D
:10094000D8B0042AD8B0052A03C0E9FF04C0F3FFD9
:10095000055024EC29F0196E250A15E11950E56EB1
:100960000250E56E0150E56E0050E56E2BEC1CF078
:10097000040EE126092AD8B00A2A032AD8B0042A8C
:10098000D8B0052ABBD71950300A07E1300E156ED2
:10099000032AD8B0042AD8B0052A03C0E9FF04C04E
:1009A000F3FF055024EC29F02D0A07E1010E146E27
:1009B000032AD8B0042AD8B0052A03C0E9FF04C02E
:1009C000F3FF055024EC29F0200A09E1010E176E0F
:1009D000200E186E032AD8B0042AD8B0052A03C006
:1009E000E9FF04C0F3FF055024EC29F02B0A07E1CE
:1009F000010E176E032AD8B0042AD8B0052A03C006
:100A0000E9FF04C0F3FF055024EC29F0196E800FB4
:100A10004F0F2EE31950800F460F2AE203C019F042
:100A200004C01AF005C01BF019C0E9FF1AC0F3FF9B
:100A30001B5024EC29F01C6E800F500F13E31C5048
:100A4000800F460F0FE213500A0DF3CF1DF01D501B
:100A50001C26D00E1C24136E192AD8B01A2AD8B01E
:100A60001B2AE2D719C003F01AC004F01BC005F01E
:100A700003C0E9FF04C0F3FF055024EC29F02E0A5F
:100A800030E1032AD8B0042AD8B0052A166A03C078
:100A900019F004C01AF005C01BF019C0E9FF1AC014
:100AA000F3FF1B5024EC29F01C6E800F500F13E352
:100AB0001C50800F460F0FE216500A0DF3CF1DF0A9
:100AC0001D501C26D00E1C24166E192AD8B01A2AC6
:100AD000D8B01B2AE2D719C003F01AC004F01BC01B
:100AE00005F003C0E9FF04C0F3FF055024EC29F032
:100AF000196E6C0A08E1010E0C6E032AD8B0042AA4
:100B0000D8B0052A0AD01950680A07E1010E0E6E06
:100B1000032AD8B0042AD8B0052A03C0E9FF04C0CC
:100B2000F3FF055024EC29F0750A07E1010E106E61
:100B3000032AD8B0042AD8B0052A03C0E9FF04C0AC
:100B4000F3FF055024EC29F0196E730A05E1010E3C
:100B50000D6E200E156E41D01950780A03E1100E6B
:100B6000116E3BD01950580A05E1100E116E010E9E
:100B7000126E33D01950630A02E1116A2ED0195057
:100B80006F0A03E1080E116E28D01950660A03E1BE
:100B9000010E0F6E22D01950640A1FE01950690A25
:100BA0001CE0105005E0FF0E03260422052215D09C
:100BB0001950E56E0250E56E0150E56E0050E56E8D
:100BC0002BEC1CF0040EE126092AD8B00A2A032ACD
:100BD000D8B0042AD8B0052A91D60D5021E006508D
:100BE000030F0D6E000E0720196E000E08201A6EFE
:100BF0000DC006F019C007F01AC008F0FD0E0D2652
:100C0000FF0E19221A220DC0E9FF19C0F3FF1A5076
:100C100026EC28F00D6EF3CF19F0F4CF1AF000D1C6
:100C20000F500DE0460E0D6E100E196E000E1A6E6E
:100C3000040E0626000E072208221668F1D0166858
:100C40000C5023E00650040F0C6E000E07200F6EB0
:100C5000000E08201B6E0CC006F00FC007F01BC072
:100C600008F0FC0E0C26FF0E0F221B220CC0E9FF21
:100C70000FC0F3FF1B5006EC28F00C6EF3CF0FF003
:100C8000F4CF1BF0E9CF1CF06AD00E5032E00650D2
:100C9000020F0E6E000E07201D6E000E08201E6E45
:100CA0000EC006F01DC007F01EC008F0FE0E0E2696
:100CB000FF0E1D221E220EC0E9FF1DC0F3FF1E50B5
:100CC000BCEC28F00E6E0EC00CF0E86A0EBEFF0EF3
:100CD0000F6E1B6E1C6E11500A0A03E11050D8B43F
:100CE0003ED00C500E6E0EC00CF00F6A1B6A1C6AD0
:100CF00036D00650020F0E6E000E07201D6E000E3D
:100D000008201E6E0EC006F01DC007F01EC008F0C1
:100D1000FE0E0E26FF0E1D221E220EC0E9FF1DC074
:100D2000F3FF1E50BCEC28F00E6EF3CF1DF00EC08A
:100D30000CF01DC00FF0E86A1DBEFF0E1B6E1C6E8E
:100D400011500A0A02E110500AE00C500E6E0F50CA
:100D50001D6E0EC00CF01DC00FF01B6A1C6A070E42
:100D6000196EE80E0D6E800E1A6E1150D8B440D078
:100D7000105013E01150E56E070EE56EE80EE56EBB
:100D80001C50E56E1B50E56E0F50E56E0C50E56E85
:100D9000A8EC12F0070EE12612D01150E56E070EF6
:100DA000E56EE80EE56E1C50E56E1B50E56E0F50CB
:100DB000E56E0C50E56EB1EC1FF0070EE126175002
:100DC0002FE00DC0E9FF19C0F3FF1A5024EC29F001
:100DD0002D0A26E0FF0E0D2619221A2218C0E5FF63
:100DE0000DC0E9FF19C0F3FF1A504EEC29F018D0DE
:100DF0000CC0E5FF0DC0E9FF19C0F3FF1A504EEC1F
:100E000029F00D50010F0C6E000E19200E6E000E11
:100E10001A20E56A0CC0E9FF0EC0F3FF4EEC29F082
:100E20000DC00CF019C00EF01AC00FF013C010F076
:100E3000105011E00CC0E9FF0EC0F3FF0F5024EC7E
:100E400029F0176E175007E00C2AD8B00E2AD8B038
:100E50000F2A1006EDD710C013F014501FE109C07F
:100E60000CF00AC00EF010C00FF00F5011E015503A
:100E7000E56E0250E56E0150E56E0050E56E2BEC1C
:100E80001CF0040EE1260C2AD8B00E2A0F06EDD76E
:100E90000CC009F00EC00AF00FC013F016C00CF021
:100EA0000DC00DF019C00EF01AC00FF009C010F0FF
:100EB0000AC015F00DC0E9FF0EC0F3FF0F5024EC7F
:100EC00029F0166E1650D8B440D00CC016F0176A30
:100ED000161E171E1650171005E00CC016F00C0653
:100EE000165033E00DC0E9FF0EC0F3FF0F5024ECA5
:100EF00029F0116E125010E01150E56E8FEC28F0C1
:100F0000166EE12A165004E0DF0E1114166E02D0A0
:100F100011C016F016C011F01150E56E0250E56ECA
:100F20000150E56E0050E56E2BEC1CF0040EE1263E
:100F30000D2AD8B00E2AD8B00F2A102AD8B0152AF8
:100F40001350D8B4B7D71306B5D710C009F015C0E1
:100F50000AF014502DE010C00CF015C00DF013C0B5
:100F60000EF00E5021E0200EE56E0250E56E0150AD
:100F7000E56E0050E56E2BEC1CF0040EE1260C2A09
:100F8000D8B00D2A0E06EDD70B50E56E0250E56E77
:100F90000150E56E0050E56E2BEC1CF0040EE126CE
:100FA000092AD8B00A2A04D00CC009F00DC00AF0F2
:100FB000032AD8B0042AD8B0052A7EEF04F00AC06C
:100FC000F3FF0950E4CF1EF0E4CF1DF0E4CF1CF096
:100FD000E4CF1BF0E4CF1AF0E4CF19F0E4CF18F01F
:100FE000E4CF17F0E4CF16F0E4CF15F0E4CF14F01F
:100FF000E4CF13F0E4CF12F0E4CF11F0E4CF10F01F
:10100000E4CF0FF0E4CF0EF0E4CF0DF0E4CF0CF01E
:10101000E4CF0BF0E4CF0AF0E4CF09F0E4CF08F01E
:10102000E4CF07F0E4CF06F0E4CF05F0E4CF04F01E
:10103000E4CF03F0E4CF02F0E4CF01F0E4CF00F01E
:10104000E4CFD9FF12003C4E4F20464C4F41543E56
:101050000000D9CFE5FFE1CFD9FF00C0E5FF01C017
:10106000E5FF02C0E5FF03C0E5FF04C0E5FF05C0E2
:10107000E5FF06C0E5FF07C0E5FF08C0E5FF09C0C2
:10108000E5FF020EDBCF00F0010E005CD8A084D19A
:10109000050E005CD8B080D100060AC0E5FF0BC089
:1010A000E5FF0B6A00340B36E8340B36FC0B0A6E96
:1010B000000EFB6E100EFA6ED00E0A260B50FA22AE
:1010C000D8B0FB2A0A50E4CF0BF0E4CF0AF0F96E57
:1010D00070EF08F0C1EF08F01EEF09F06FEF09F0B4
:1010E000FAEC16F0006EF3CF01F0F4CF02F0E9CF86
:1010F00003F0300ECD14046E04380F0B046E010E95
:10110000056E000E066E045006E0E86CD8900536B9
:101110000636010FFCE30650E56E0550E56E270E1E
:10112000E56E100EE56EAAEC1CF0046EF3CF05F030
:10113000040EE126E86A05BEFF0E066E076EE56E38
:101140000650E56E0550E56E0450E56E0350E56E01
:101150000250E56E0150E56E0050E56E07EC1AF0A6
:10116000006EF3CF01F0F4CF02F0E9CF03F0080EE8
:10117000E12603C0E9FF02C0F4FF01C0F3FF005005
:101180000FD1A1EC23F0006EF3CF01F0F4CF02F009
:10119000E9CF03F0030ECA14046E056A0450066E0C
:1011A00006260534076E010E086E000E096E065005
:1011B0000FE007E6E86CD89008360936010FFCE32B
:1011C00007D0D89009BED88009320832010FFAE35F
:1011D0000950E56E0850E56E270EE56E100EE56EBF
:1011E000AAEC1CF0046EF3CF05F0040EE126E86AC9
:1011F00005BEFF0E066E076EE56E0650E56E0550E5
:10120000E56E0450E56E0350E56E0250E56E015048
:10121000E56E0050E56E07EC1AF0006EF3CF01F0BA
:10122000F4CF02F0E9CF03F0080EE12603C0E9FF96
:1012300002C0F4FF01C0F3FF0050B2D058EC16F02A
:10124000006EF3CF01F0F4CF02F0E9CF03F0300EDF
:10125000B114046E04380F0B046E010E056E000EFF
:10126000066E045006E0E86CD89005360636010F8D
:10127000FCE30650E56E0550E56E270EE56E100E98
:10128000E56EAAEC1CF0046EF3CF05F0040EE12627
:10129000E86A05BEFF0E066E076EE56E0650E56E47
:1012A0000550E56E0450E56E0350E56E0250E56EA4
:1012B0000150E56E0050E56E07EC1AF0006EF3CFBA
:1012C00001F0F4CF02F0E9CF03F0080EE12603C0ED
:1012D000E9FF02C0F4FF01C0F3FF005061D05CECF5
:1012E00023F0006EF3CF01F0F4CF02F0E9CF03F06A
:1012F000030E7614046E056A0450066E0626053445
:10130000076E010E086E000E096E06500FE007E62C
:10131000E86CD89008360936010FFCE307D0D89066
:1013200009BED88009320832010FFAE30950E56E90
:101330000850E56E270EE56E100EE56EAAEC1CF067
:10134000046EF3CF05F0040EE126E86A05BEFF0E39
:10135000066E076EE56E0650E56E0550E56E0450AC
:10136000E56E0350E56E0250E56E0150E56E0050EB
:10137000E56E07EC1AF0006EF3CF01F0F4CF02F047
:10138000E9CF03F0080EE12603C0E9FF02C0F4FF35
:1013900001C0F3FF005004D0E96AF46AF36AE86A16
:1013A000E4CF09F0E4CF08F0E4CF07F0E4CF06F093
:1013B000E4CF05F0E4CF04F0E4CF03F0E4CF02F093
:1013C000E4CF01F0E4CF00F0E4CFD9FF1200E8CF82
:1013D000E5FFD8CFE5FFE0CFE5FFF3CFE5FFF4CFA2
:1013E000E5FFE9CFE5FFEACFE5FFFACFE5FFFBCF69
:1013F000E5FFD9CFE5FFE1CFD9FF00C0E5FF01C090
:10140000E5FF02C0E5FF03C0E5FF04C0E5FF05C03E
:10141000E5FF06C0E5FF07C0E5FF08C0E5FF09C01E
:10142000E5FF0AC0E5FF80CF7BF285CF7CF287CF56
:101430007DF2F2A0ACD081CF00F0F290100E016EE0
:10144000026A030E036E046A0450800F800F02E1EB
:10145000070E035CD8B09BD0070146510018056EFB
:10146000066A015005160250061605500610D8B43B
:1014700087D000C005F0066A015005160250061616
:1014800005500610D8B45ED00304056E3A0E05244C
:10149000066E076A05BE0768070E072206C0E9FF49
:1014A00007C0EAFFEFCF06F00650010A21E1000E67
:1014B00005BEFF0ED8900534076E086A07BE08689F
:1014C0002E0E0726070E082207C0E9FF08C0EAFF14
:1014D000EECF09F0EFCF0AF0092AD8B00A2A07C0E8
:1014E000E9FF08C0EAFF09C0EEFF0AC0EFFF1FD006
:1014F0000650020A07E10350066EE56EB0EC11F0EB
:10150000E12A15D0066A05BE0668160E0526070EE6
:10151000062205C0E9FF06C0EAFFEFCF05F005503F
:1015200006E00350056EE56E3EEC18F0E12A46C772
:1015300005F0066A01500512025006120550070117
:10154000466F1ED00350056E0506066A05BE066886
:10155000160E0526070E062205C0E9FF06C0EAFFA3
:10156000EFCF05F0055006E00350056EE56EB3ECD5
:1015700015F0E12A0150056E051E055007014617BA
:10158000032AD8B0042A0150012602365DD7F0A202
:101590002ED0F0923AC700F00050010A0FE1070187
:1015A0002E51010F016E000E07012F21026E015016
:1015B00007012E6F025007012F6F19D00050020A49
:1015C00006E1010EE56EB0EC11F0E12A10D0070142
:1015D00016510DE0F1A806D0010EE56E3EEC18F0B4
:1015E000E12A05D0010EE56EB3EC15F0E12AF0A476
:1015F0002ED0F0943BC700F00050010A0FE1070124
:101600003051010F016E000E07013121026E0150B1
:101610000701306F02500701316F19D00050020AE4
:1016200006E1020EE56EB0EC11F0E12A10D00701E0
:1016300017510DE0F1A606D0020EE56E3EEC18F053
:10164000E12A05D0020EE56EB3EC15F0E12AF2A412
:1016500006D0F2940201612B02E30201622B9EA0EC
:1016600006D09E900201632B02E30201642B9EA22E
:101670000ED09E920201462B02E30201472B02E3A9
:101680000201482B02E30201492B0201496BA1A28E
:1016900006D0A1920201652B02E30201662BA4A6EB
:1016A0000ED0A49602014A2B02E302014B2B02E367
:1016B00002014C2B02E302014D2B02014D6BE4CFE2
:1016C0000AF0E4CF09F0E4CF08F0E4CF07F0E4CF6C
:1016D00006F0E4CF05F0E4CF04F0E4CF03F0E4CF6C
:1016E00002F0E4CF01F0E4CF00F0E4CFD9FFE4CF83
:1016F000FBFFE4CFFAFFE4CFEAFFE4CFE9FFE4CF5A
:10170000F4FFE4CFF3FFE4CFE0FFE4CFD8FFE4CF72
:10171000E8FF1000D9CFE5FFE1CFD9FF00C0E5FF1A
:1017200001C0E5FF02C0E5FF03C0E5FF04C0E5FF1F
:1017300005C0E5FF06C0E5FF07C0E5FF08C0E5FFFF
:1017400009C0E5FF0AC0E5FF0BC0E5FF0CC0E5FFDF
:101750000DC0E5FF0EC0E5FF0FC0E5FF10C0E5FFBF
:1017600011C0E5FF12C0E5FF020EDBCF00F0030E53
:10177000DBCF01F0040EDBCF02F0050EDBCF03F070
:10178000060EDBCF04F0070EDBCF05F0080EDBCF33
:1017900006F0090EDBCF07F00A0EDBCF08F0D88089
:1017A00000AED890096A09360950D880E866D8900A
:1017B0000A6A0A360A5006E000C00BF00C6A00BE46
:1017C0000C680BD000C00DF00E6A00BE0E680E1C37
:1017D0000C6E0D1C0B6E0B4A0C2AD88001AED890F3
:1017E0000D6A0D360D50D880E866D8900E6A0E3618
:1017F0000E5006E001C00FF0106A01BE10680BD059
:1018000001C011F0126A01BE1268121C106E111C88
:101810000F6E0F4A102A0A5006E000C00AF0116A43
:1018200000BE116809D0126A00BE1268121C116E47
:10183000001C0A6E0A4A112A1150800F800F02E123
:10184000800E0A5C1CE20E5006E001C000F00A6A3D
:1018500001BE0A6809D00E6A01BE0E680E1C0A6E2F
:10186000011C006E004A0A2A0A50800F800F02E114
:10187000800E005C04E20250800FFF0F02E2800E37
:10188000B2D00F507F08006E000E1054016EE56E4E
:101890000050E56E0C50E56E0B50E56E29EC22F021
:1018A000006EF3CF01F0040EE126000EE56E7F0E10
:1018B000E56E0150E56E0050E56EAAEC1CF0006E7E
:1018C000F3CF01F0040EE1260F5000261050012244
:1018D0000A6A02BE0A680A50E56E0250E56E0150BF
:1018E000E56E0050E56E29EC22F0006EF3CF01F0BA
:1018F000040EE126000EE56E7F0EE56E0150E56EEA
:101900000050E56EAAEC1CF0006EF3CF01F0040E5F
:10191000E12600C05DF201C05EF20B500F5C0B6E61
:101920000C5010580C6E0A50E56E0250E56E0C50CB
:10193000E56E0B50E56E29EC22F0026EF3CF0AF053
:10194000040EE126000EE56E7F0EE56E0A50E56E90
:101950000250E56EAAEC1CF0026EF3CF0AF0040E02
:10196000E12602C05FF20AC060F20D500BE109509F
:1019700021E000C05FF201C060F202C05DF20AC067
:101980005EF218D0095008E102C05DF20AC05EF2B2
:1019900000C05FF201C060F202015E1F02015D6DD6
:1019A00002E102015E2B0201601F02015F6D02E194
:1019B0000201602B02015D51006E00C0E5FF03C013
:1019C000E9FF04C0F3FF05504EEC29F002015F511E
:1019D000006E00C0E5FF06C0E9FF07C0F3FF085036
:1019E0004EEC29F0E86AE4CF12F0E4CF11F0E4CF36
:1019F00010F0E4CF0FF0E4CF0EF0E4CF0DF0E4CF21
:101A00000CF0E4CF0BF0E4CF0AF0E4CF09F0E4CF20
:101A100008F0E4CF07F0E4CF06F0E4CF05F0E4CF20
:101A200004F0E4CF03F0E4CF02F0E4CF01F0E4CF20
:101A300000F0E4CFD9FF1200D9CFE5FFE1CFD9FF05
:101A400000C0E5FF01C0E5FF02C0E5FF03C0E5FF00
:101A500004C0E5FF05C0E5FF06C0E5FF07C0E5FFE0
:101A600008C0E5FF09C0E5FF0AC0E5FF0BC0E5FFC0
:101A70000CC0E5FF0DC0E5FF0EC0E5FF0FC0E5FFA0
:101A8000100EE56E84EC13F0006EE12A005003E1C5
:101A900020EC1BF002D079EC22F0000EE56E25EC74
:101AA0001DF0E12A9CEC17F0006EF3CF01F0F4CFAB
:101AB00002F0E9CF03F0D5A604D0010E046E056A4A
:101AC0000FD0070ED514066E020E046E000E056EC2
:101AD000065006E0E86CD89004360536010FFCE3AA
:101AE0000550E56E0450E56E270EE56E100EE56EAE
:101AF000AAEC1CF0046EF3CF05F0040EE126E86AB0
:101B000005BEFF0E066E076EE56E0650E56E0550CB
:101B1000E56E0450E56E0350E56E0250E56E01502F
:101B2000E56E0050E56E07EC1AF0006EF3CF01F0A1
:101B3000F4CF02F0E9CF03F0080EE126000EE56EC7
:101B4000000EE56E030EE56EE80EE56E0350E56EE1
:101B50000250E56E0150E56E0050E56E07EC1AF09C
:101B600002013E6FF3CF3FF2F4CF40F2E9CF41F2F2
:101B7000080EE126020141510701055D0EE1020157
:101B800040510701045D09E102013F510701035D76
:101B900004E102013E510701025DD8B083D03EC28C
:101BA00002F73FC203F740C204F741C205F7100E27
:101BB000E56E84EC13F0006EE12A016A00BE016854
:101BC000060EE56E94EC1AF0026EE12A036A02BE7C
:101BD0000368050EE56E94EC1AF0046EE12A056ABE
:101BE00004BE0568040EE56E94EC1AF0066EE12A58
:101BF000076A06BE0768030EE56E94EC1AF0086EDD
:101C0000E12A096A08BE0968020EE56E94EC1AF032
:101C10000A6EE12A0B6A0ABE0B68010EE56E94ECAF
:101C20001AF00C6EE12A0D6A0CBE0D6825EC25F049
:101C30000E6E0F6A0EBE0F680150E56E0050E56E25
:101C40000350E56E0250E56E0550E56E0450E56EFA
:101C50000750E56E0650E56E0950E56E0850E56EDA
:101C60000B50E56E0A50E56E0D50E56E0C50E56EBA
:101C70000F50E56E0E50E56E02014151E56E020116
:101C80004051E56E02013F51E56E02013E51E56EA5
:101C9000000EE56E320EE56E500EE56E9BEC25F003
:101CA000170EE126E4CF0FF0E4CF0EF0E4CF0DF0F5
:101CB000E4CF0CF0E4CF0BF0E4CF0AF0E4CF09F06E
:101CC000E4CF08F0E4CF07F0E4CF06F0E4CF05F06E
:101CD000E4CF04F0E4CF03F0E4CF02F0E4CF01F06E
:101CE000E4CF00F0E4CFD9FF1200E8CFE5FFD8CF72
:101CF000E5FFE0CFE5FFF3CFE5FFF4CFE5FFE9CF68
:101D0000E5FFEACFE5FFFACFE5FFFBCFE5FFD9CF4F
:101D1000E5FFE1CFD9FF00C0E5FF01C0E5FF02C04C
:101D2000E5FFF2A29BD0F292200E0201786F9F860F
:101D300007010A51D880E866D890006A0036005042
:101D4000200DF3CF00F0F4CF01F0470E0026070E70
:101D5000012201500201526F00500201516F800EAA
:101D60000201536F07010E51D880E866D890006ACF
:101D700000360050200DF3CF00F0F4CF01F0870EB5
:101D80000026070E0122015002014F6F0050020190
:101D90004E6F800E0201506F0BC700F00CC701F0B0
:101DA0000DC702F0002AD8B0012AD8B0022A00C01C
:101DB000E9FF01C0F3FF025024EC29F0E844E844B5
:101DC000010B006E00502FE007010E51D880E8662D
:101DD000D890006A00360050200DF3CF00F0016A61
:101DE000870E0026070E01221D0E0026D8B0012AFC
:101DF00000C0E9FF01C0EAFF0FC7EFFF07010E5166
:101E0000200DF3CF00F0016A870E0026070E012295
:101E10001D0E0026D8B0012A00C0E9FF01C0EAFF6C
:101E20000FC7EFFF0F2BC9CF79F24EC200F04FC2A0
:101E300001F050C202F000C0E9FF01C0F3FF025000
:101E400024EC29F0006E02014E2B02E302014F2B1D
:101E500002E30201502B00C0C9FF57D09EA655D007
:101E60009E9651C200F052C201F053C202F0C9CF97
:101E7000E5FF00C0E9FF01C0F3FF02504EEC29F07E
:101E80000201512B02E30201522B02E30201532B08
:101E90004EC200F04FC201F050C202F000C0E9FF94
:101EA00001C0F3FF025024EC29F0006E02014E2B1A
:101EB00002E302014F2B02E30201502B00C0C9FFD5
:101EC00002017807785121E1020E0701E56F020156
:101ED0007A937A8107010A51D880E866D890070181
:101EE0000A6B0A370A51200DF3CF00F0F4CF01F04E
:101EF000470E0026070E0122015007010C6F00500B
:101F000007010B6F800E07010D6FE4CF02F0E4CFE5
:101F100001F0E4CF00F0E4CFD9FFE4CFFBFFE4CF42
:101F2000FAFFE4CFEAFFE4CFE9FFE4CFF4FFE4CF28
:101F3000F3FFE4CFE0FFE4CFD8FFE4CFE8FF1000E9
:101F4000D9CFE5FFE1CFD9FF00C0E5FF01C0E5FF34
:101F500002C0E5FF03C0E5FF020EDBCF00F0030E79
:101F6000DBCF01F0005002017E5D0EE2110E005C3D
:101F7000026A0236025008E10050E56E01EC15F0ED
:101F8000036EE12A035002E0800EDDD0010E005CFA
:101F9000D8A0D6D00250D8A4D3D0000604C0E5FF04
:101FA00005C0E5FF056A00340536E8340536FC0B4C
:101FB000046E000EFB6E1F0EFA6ED20E0426055044
:101FC000FA22D8B0FB2A0450E4CF05F0E4CF04F0A5
:101FD000F96E09EF10F011EF10F01AEF10F024EF86
:101FE00010F02EEF10F038EF10F040EF10F049EF46
:101FF00010F053EF10F05DEF10F066EF10F070EF9F
:1020000010F07AEF10F083EF10F08DEF10F097EFF3
:1020100010F00150010BF46E8950FE0BF410896E24
:1020200091D00150010BE844F46E8950FD0BF4107F
:10203000896E88D00150010BE844E844F46E895061
:10204000FB0BF410896E7ED00150010BE838E8409C
:10205000F46E8950F70BF410896E74D00150010BA7
:10206000E838E844F46E8950DF0BF410896E6AD0CA
:102070000150010BF46E8E50FE0BF4108E6E62D088
:102080000150010BE844F46E8E50FD0BF4108E6E7F
:1020900059D00150010BE844E844F46E8E50FB0B1C
:1020A000F4108E6E4FD00150010BE838E840F46E0A
:1020B0008E50F70BF4108E6E45D00150010BE838AE
:1020C000F46E8E50EF0BF4108E6E3CD00150010B6D
:1020D000E838E844F46E8E50DF0BF4108E6E32D088
:1020E0000150010BE840E840F46E8E50BF0BF41035
:1020F0008E6E28D00150010BE838F46E9050EF0B33
:10210000F410906E1FD00150010BE838E844F46ED3
:102110009050DF0BF410906E15D00150010BE84089
:10212000E840F46E9050BF0BF410906E0BD001504D
:10213000010BE840F46E90507F0BF410906E02D0CB
:10214000800E01D0E86AE4CF03F0E4CF02F0E4CFE0
:1021500001F0E4CF00F0E4CFD9FF1200D9CFE5FFC2
:10216000E1CFD9FF00C0E5FF01C0E5FF02C0E5FFF8
:10217000020EDBCF00F0030EDBCF01F000500201B6
:102180007E5D06E2110E005C026A0236025002E039
:10219000800EDDD0010E005CD8A0D6D00250D8A4AD
:1021A000D3D0000603C0E5FF04C0E5FF046A003495
:1021B0000436E8340436FC0B036E000EFB6E210E71
:1021C000FA6EDA0E03260450FA22D8B0FB2A035026
:1021D000E4CF04F0E4CF03F0F96E0DEF11F015EF4A
:1021E00011F01EEF11F028EF11F032EF11F03CEF7B
:1021F00011F044EF11F04DEF11F057EF11F061EFD6
:1022000011F06AEF11F074EF11F07EEF11F087EF2B
:1022100011F091EF11F09BEF11F00150010BF46EF2
:102220009250FE0BF410926E91D00150010BE844D5
:10223000F46E9250FD0BF410926E88D00150010B99
:10224000E844E844F46E9250FB0BF410926E7ED09A
:102250000150010BE838E840F46E9250F70BF4108F
:10226000926E74D00150010BE838E844F46E92503D
:10227000DF0BF410926E6AD00150010BF46E975090
:10228000FE0BF410976E62D00150010BE844F46E1F
:102290009750FD0BF410976E59D00150010BE84494
:1022A000E844F46E9750FB0BF410976E4FD001503A
:1022B000010BE838E840F46E9750F70BF410976E76
:1022C00045D00150010BE838F46E9750EF0BF41035
:1022D000976E3CD00150010BE838E844F46E9750FB
:1022E000DF0BF410976E32D00150010BE840E8404C
:1022F000F46E9750BF0BF410976E28D00150010B6D
:10230000E838F46E9950EF0BF410996E1FD001501D
:10231000010BE838E844F46E9950DF0BF410996E25
:1023200015D00150010BE840E840F46E9950BF0B06
:10233000F410996E0BD00150010BE840F46E9950E7
:102340007F0BF410996E02D0800E01D0E86AE4CFC2
:1023500002F0E4CF01F0E4CF00F0E4CFD9FF1200A7
:10236000D9CFE5FFE1CFD9FF00C0E5FF01C0E5FF10
:1023700002C0E5FF03C0E5FF04C0E5FF020EDBCFAE
:1023800000F0016A0006400E0024026E036A070E88
:10239000032202C0E9FF03C0EAFFEFCF02F0010E03
:1023A000025CD8A08FD0110E025CD8B08BD0020690
:1023B00005C0E5FF06C0E5FF066A02340636E834CC
:1023C0000636FC0B056E000EFB6E230EFA6EE60E53
:1023D00005260650FA22D8B0FB2A0550E4CF06F0B5
:1023E000E4CF05F0F96E13EF12F018EF12F01DEFC5
:1023F00012F022EF12F027EF12F02CEF12F031EF73
:1024000012F036EF12F03BEF12F040EF12F045EF12
:1024100012F04AEF12F04FEF12F054EF12F059EFB2
:1024200012F05EEF12F0010E02017B15016E4AD030
:10243000020E02017B15016E45D0040E02017B15D0
:10244000016E40D0080E02017B15016E3BD0200EBC
:1024500002017B15016E36D0010E02017C15016E62
:1024600031D0020E02017C15016E2CD0040E020147
:102470007C15016E27D0080E02017C15016E22D05A
:10248000100E02017C15016E1DD0010E02017C159B
:10249000016E18D0020E02017C15016E13D0100ED1
:1024A00002017D15016E0ED0200E02017D15016E18
:1024B00009D0400E02017D15016E04D0800E02018C
:1024C0007D15016E01501DE1D8900034016E026A45
:1024D0002E0E0126070E022201C0E9FF02C0EAFF0C
:1024E000EECF03F0EFCF04F0FF0E0326D8A00406D2
:1024F00001C0E9FF02C0EAFF03C0EEFF04C0EFFF26
:102500001AD0D8900036016A2E0E0026070E01223E
:1025100000C0E9FF01C0EAFFEECF02F0EFCF03F009
:10252000022AD8B0032A00C0E9FF01C0EAFF02C0B6
:10253000EEFF03C0EFFFE4CF04F0E4CF03F0E4CFFD
:1025400002F0E4CF01F0E4CF00F0E4CFD9FF1200B5
:10255000D9CFE5FFE1CFD9FF00C0E5FF01C0E5FF1E
:1025600002C0E5FF03C0E5FF04C0E5FF05C0E5FFCD
:1025700006C0E5FF07C0E5FF08C0E5FF09C0E5FFAD
:102580000AC0E5FF0BC0E5FF0CC0E5FF0DC0E5FF8D
:102590000EC0E5FF0FC0E5FF020EDBCF00F0030E1B
:1025A000DBCF01F0040EDBCF02F0050EDBCF03F032
:1025B000060EDBCF04F0070EDBCF05F0080EDBCFF5
:1025C00006F0200E076E086A06C009F00A6A0B6A58
:1025D0000C6AE56AE56AE56A0950E56E0350E56E46
:1025E0000250E56E0150E56E0050E56E75EC19F095
:1025F0000D6E080EE126300E0D263A0E0D5C02E33C
:10260000270E0D26FF0E0726D8A00806000E072469
:102610000E6E020E08200F6E0EC0E9FF0FC0EAFF1B
:102620000DC0EFFF0C50E56E0B50E56E0A50E56EE5
:102630000950E56E0350E56E0250E56E0150E56EFF
:102640000050E56E07EC1AF0006EF3CF01F0F4CF06
:1026500002F0E9CF03F0080EE1260050011002104D
:102660000310D8A4B1D707C000F008C001F004C01F
:1026700002F005C003F000C004F001C005F0002A1C
:10268000D8B0012A000E0426020E052204C0E9FF7C
:1026900005C0EAFFEFCF04F002C0E9FF03C0EAFF84
:1026A00004C0EFFF022AD8B0032A000E015C02E149
:1026B000200E005CE0E302C0E9FF03C0EAFF000E69
:1026C000EF6AE4CF0FF0E4CF0EF0E4CF0DF0E4CFEB
:1026D0000CF0E4CF0BF0E4CF0AF0E4CF09F0E4CF44
:1026E00008F0E4CF07F0E4CF06F0E4CF05F0E4CF44
:1026F00004F0E4CF03F0E4CF02F0E4CF01F0E4CF44
:1027000000F0E4CFD9FF1200D9CFE5FFE1CFD9FF28
:1027100000C0E5FF01C0E5FF02C0E5FF020EDBCF10
:1027200000F0005002017E5D0FE2110E005C016AB4
:102730000136015009E10050E56E01EC15F0026E22
:10274000E12A0250010A02E0800E94D0010E005CE2
:10275000D8A08FD00150D8A48CD0000603C0E5FFCC
:1027600004C0E5FF046A00340436E8340436FC0B88
:10277000036E000EFB6E270EFA6E920E03260450B7
:10278000FA22D8B0FB2A0350E4CF04F0E4CF03F0E0
:10279000F96EE9EF13F0EEEF13F0F3EF13F0F8EF4B
:1027A00013F0FDEF13F002EF14F007EF14F00CEF4D
:1027B00014F011EF14F016EF14F01BEF14F020EFEB
:1027C00014F025EF14F02AEF14F02FEF14F034EF8B
:1027D00014F0006A80B0002A00504CD0006A80B229
:1027E000002A005047D0006A80B4002A005042D02E
:1027F000006A80B6002A00503DD0006A80BA002AE4
:10280000005038D0006A85B0002A005033D0006AEA
:1028100085B2002A00502ED0006A85B4002A0050EC
:1028200029D0006A85B6002A005024D0006A85B8F5
:10283000002A00501FD0006A85BA002A00501AD022
:10284000006A85BC002A005015D0006A87B8002AAB
:10285000005010D0006A87BA002A00500BD0006ADE
:1028600087BC002A005006D0006A87BE002A0050AC
:1028700001D0800EE4CF02F0E4CF01F0E4CF00F00D
:10288000E4CFD9FF1200D9CFE5FFE1CFD9FF00C0D7
:10289000E5FF0701E36B0701DE6BC6AE05D0C69E00
:1028A000010E0701DE6F16D0006AF1BE002A00504B
:1028B000010A0AE1006AF2B6002A0050010A04E1A6
:1028C000020E0701DE6F06D0F0A604D0909E030E24
:1028D0000701DE6F250EC614006E250A07E0010E03
:1028E0000701E36FC6500701DE6F86D0C55007E0D1
:1028F000020E0701E36FC5500701DE6F7DD0D0BE29
:1029000007D0030E0701E36FD0500701DE6F74D0CC
:102910009DB607D0040E0701E36F9D500701DE6FDF
:102920006BD09C5007E0050E0701E36F9C50070138
:10293000DE6F62D09F50080A07E0060E0701E36FC2
:102940009F500701DE6F58D0A25007E0070E070125
:10295000E36FA2500701DE6F4FD0A55007E0080ECD
:102960000701E36FA5500701DE6F46D0100EF21489
:10297000006E100A07E0090E0701E36FF25007012D
:10298000DE6F3AD0F150470B07E00A0E0701E36F04
:10299000F1500701DE6F30D0F050C00B07E00B0E96
:1029A0000701E36FF0500701DE6F26D092A807D031
:1029B0000C0E0701E36F92500701DE6F1DD093B03C
:1029C00007D00D0E0701E36F93500701DE6F14D09F
:1029D0003E0E9414006E1C0A07E00E0E0701E36F12
:1029E00094500701DE6F08D097BE06D00F0E070186
:1029F000E36F97500701DE6FE4CF00F0E4CFD9FF1B
:102A00001200D9CFE5FFE1CFD9FF00C0E5FF01C03B
:102A1000E5FF020EDBCF00F0005002017E5D06E212
:102A2000110E005C016A0136015002E0800E94D064
:102A3000010E005CD8A08FD00150D8A48CD0000625
:102A400002C0E5FF03C0E5FF036A00340336E83443
:102A50000336FC0B026E000EFB6E2A0EFA6E760E2B
:102A600002260350FA22D8B0FB2A0250E4CF03F02A
:102A7000E4CF02F0F96E5BEF15F060EF15F065EF53
:102A800015F06AEF15F06FEF15F074EF15F079EFB0
:102A900015F07EEF15F083EF15F088EF15F08DEF50
:102AA00015F092EF15F097EF15F09CEF15F0A1EFF0
:102AB00015F0A6EF15F0006A92B0002A00504CD035
:102AC000006A92B2002A005047D0006A92B4002AED
:102AD000005042D0006A92B6002A00503DD0006AF1
:102AE00092BA002A005038D0006A97B0002A0050ED
:102AF00033D0006A97B2002A00502ED0006A97B4F3
:102B0000002A005029D0006A97B6002A005024D02D
:102B1000006A97B8002A00501FD0006A97BA002AAE
:102B200000501AD0006A97BC002A005015D0006AE5
:102B300099B8002A005010D0006A99BA002A0050B3
:102B40000BD0006A99BC002A005006D0006A99BEDA
:102B5000002A005001D0800EE4CF01F0E4CF00F055
:102B6000E4CFD9FF1200D9CFE5FFE1CFD9FF00C0F4
:102B7000E5FF01C0E5FF02C0E5FF03C0E5FF04C0BB
:102B8000E5FF05C0E5FF06C0E5FF07C0E5FF08C09B
:102B9000E5FF09C0E5FF020EDBCF00F00006D8908C
:102BA0000034016E2C0E0124026E036A020E032211
:102BB000D6CF04F0056A02C0E9FF03C0EAFF04C0F3
:102BC000EEFF05C0EFFF2C0E0124026E036A020E19
:102BD00003222C0E0124046E056A020E052204C095
:102BE000E9FF05C0EAFFEECF04F0EFCF05F0D7CF45
:102BF00006F0076A0650096E086A08500412095068
:102C0000051202C0E9FF03C0EAFF04C0EEFF05C0E1
:102C1000EFFF220E0124026E036A070E03222C0E20
:102C20000124046E056A020E052204C0E9FF05C0F6
:102C3000EAFFEECF04F0EFCF05F0066A200E012682
:102C4000020E062201C0E9FF06C0EAFFEECF01F046
:102C5000EFCF06F00150045E0650055A02C0E9FFAE
:102C600003C0EAFF04C0EEFF05C0EFFF016A1C0EBF
:102C70000026070E012200C0E9FF01C0EAFF010E95
:102C8000EF6EE4CF09F0E4CF08F0E4CF07F0E4CF33
:102C900006F0E4CF05F0E4CF04F0E4CF03F0E4CF96
:102CA00002F0E4CF01F0E4CF00F0E4CFD9FF12004E
:102CB000D9CFE5FFE1CFD9FF00C0E5FF01C0E5FFB7
:102CC00002C0E5FF03C0E5FF04C0E5FF05C0E5FF66
:102CD00006C0E5FF07C0E5FF08C0E5FF09C0E5FF46
:102CE0000AC0E5FF0BC0E5FF0CC0E5FF0DC0E5FF26
:102CF0000EC0E5FF0FC0E5FFB2CF00F0016AB3CF11
:102D000002F0036A0250056E046A04500012055076
:102D1000011265C202F066C203F0B2CF04F0056A88
:102D2000B3CF06F0076A0650096E086A085004120D
:102D3000095005120150055C02E10050045C1EE2DE
:102D400065C206F066C207F0086A096A07500D6E90
:102D500006500C6E0A6A0B6A0E6A0F6A04500A1259
:102D600005500B120E500C120F500D120DC0E9FF42
:102D70000CC0F4FF0BC0F3FF0A5019D0046A056AB7
:102D80000350096E0250086E066A076A0A6A0B6AE7
:102D900000500612015007120A5008120B50091277
:102DA00009C0E9FF08C0F4FF07C0F3FF0650E4CFF5
:102DB0000FF0E4CF0EF0E4CF0DF0E4CF0CF0E4CF51
:102DC0000BF0E4CF0AF0E4CF09F0E4CF08F0E4CF51
:102DD00007F0E4CF06F0E4CF05F0E4CF04F0E4CF51
:102DE00003F0E4CF02F0E4CF01F0E4CF00F0E4CF51
:102DF000D9FF1200D9CFE5FFE1CFD9FF00C0E5FF31
:102E000001C0E5FF02C0E5FF03C0E5FF04C0E5FF28
:102E100005C0E5FF06C0E5FF07C0E5FF08C0E5FF08
:102E200009C0E5FF0AC0E5FF0BC0E5FF0CC0E5FFE8
:102E30000DC0E5FF0EC0E5FF0FC0E5FFCECF00F0EF
:102E4000016ACFCF02F0036A0250056E046A045093
:102E500000120550011263C202F064C203F0CECF2B
:102E600004F0056ACFCF06F0076A0650096E086ABB
:102E700008500412095005120150055C02E100508F
:102E8000045C1EE263C206F064C207F0086A096AC5
:102E900007500D6E06500C6E0A6A0B6A0E6A0F6AB6
:102EA00004500A1205500B120E500C120F500D1246
:102EB0000DC0E9FF0CC0F4FF0BC0F3FF0A5019D09E
:102EC000046A056A0350096E0250086E066A076AB2
:102ED0000A6A0B6A00500612015007120A500812C3
:102EE0000B50091209C0E9FF08C0F4FF07C0F3FF47
:102EF0000650E4CF0FF0E4CF0EF0E4CF0DF0E4CFB6
:102F00000CF0E4CF0BF0E4CF0AF0E4CF09F0E4CF0B
:102F100008F0E4CF07F0E4CF06F0E4CF05F0E4CF0B
:102F200004F0E4CF03F0E4CF02F0E4CF01F0E4CF0B
:102F300000F0E4CFD9FF1200D9CFE5FFE1CFD9FFF0
:102F400000C0E5FF01C0E5FF02C0E5FF03C0E5FFEB
:102F500004C0E5FF05C0E5FF06C0E5FF07C0E5FFCB
:102F600008C0E5FF09C0E5FF0AC0E5FF0BC0E5FFAB
:102F70000CC0E5FF0DC0E5FF0EC0E5FF0FC0E5FF8B
:102F8000D6CF00F0016AD7CF02F0036A0250056E77
:102F9000046A045000120550011261C202F062C2BC
:102FA00003F0D6CF04F0056AD7CF06F0076A0650C3
:102FB000096E086A08500412095005120150055C98
:102FC00002E10050045C1EE261C206F062C207F03A
:102FD000086A096A07500D6E06500C6E0A6A0B6A81
:102FE0000E6A0F6A04500A1205500B120E500C1292
:102FF0000F500D120DC0E9FF0CC0F4FF0BC0F3FF22
:103000000A5019D0046A056A0350096E0250086E0E
:10301000066A076A0A6A0B6A005006120150071214
:103020000A5008120B50091209C0E9FF08C0F4FF4A
:1030300007C0F3FF0650E4CF0FF0E4CF0EF0E4CF6B
:103040000DF0E4CF0CF0E4CF0BF0E4CF0AF0E4CFC6
:1030500009F0E4CF08F0E4CF07F0E4CF06F0E4CFC6
:1030600005F0E4CF04F0E4CF03F0E4CF02F0E4CFC6
:1030700001F0E4CF00F0E4CFD9FF1200D9CFE5FF93
:10308000E1CFD9FF00C0E5FF01C0E5FF02C0E5FFC9
:1030900003C0E5FF04C0E5FF05C0E5FF06C0E5FF8E
:1030A00007C0E5FF08C0E5FF09C0E5FF020EDBCF62
:1030B00000F00004016ED8900134026E200E02244C
:1030C000036E046A020E0422D6CF05F0066A03C01E
:1030D000E9FF04C0EAFF05C0EEFF06C0EFFF200EC7
:1030E0000224036E046A020E0422056A200E0226E0
:1030F000020E052202C0E9FF05C0EAFFEECF02F092
:10310000EFCF05F0D7CF06F0076A0650096E086AC0
:10311000085002120950051203C0E9FF04C0EAFF7B
:1031200002C0EEFF05C0EFFF010E005C2DE3070EAD
:10313000005C2AE20AC0E5FF0BC0E5FF0B6A013420
:103140000B36E8340B36FC0B0A6E000EFB6E310EAC
:10315000FA6E6A0E0A260B50FA22D8B0FB2A0A50E1
:10316000E4CF0BF0E4CF0AF0F96EC1EF18F0C3EF33
:1031700018F0C4EF18F0C4EF18F0C4EF18F0C4EF63
:1031800018F0F19801D0F196E4CF09F0E4CF08F0FF
:10319000E4CF07F0E4CF06F0E4CF05F0E4CF04F08D
:1031A000E4CF03F0E4CF02F0E4CF01F0E4CF00F08D
:1031B000E4CFD9FF1200D9CFE5FFE1CFD9FF00C09E
:1031C000E5FF01C0E5FF02C0E5FF010E006E016AE8
:1031D0000150800F800F02E1110E005C0EE20050E2
:1031E000026E010EE56E0250E56EAEEC10F0020EBE
:1031F000E126002AD8B0012AEBD7040EE56EC0EC18
:1032000027F0E12AE9EC24F0E4CF02F0E4CF01F06A
:10321000E4CF00F0E4CFD9FF120057616974696E02
:103220006720666F72205243207369676E616C205D
:10323000746F20626567696E206175746F6E6F6D63
:103240006F757320706572696F642E2E2E0A0000F0
:1032500045543A20256C64202052433A20256420AE
:1032600025642025642025642025642025642025EC
:103270006420204A756D7065723A2025640A00004A
:103280005374617274696E67206175746F6E6F6DCF
:103290006F757320726F7574696E652E2E2E0A001D
:1032A000456E64696E67206175746F6E6F6D6F75C2
:1032B0007320726F7574696E652E2E2E0A0052751A
:1032C0006E6E696E6720636F6D7065746974696F87
:1032D0006E206175746F6E6F6D6F757320726F7590
:1032E00074696E652E2E2E0A0000D9CFE5FFE1CF5E
:1032F000D9FF00C0E5FF01C0E5FF02C0E5FF03C044
:10330000E5FF04C0E5FF05C0E5FF06C0E5FF07C017
:10331000E5FF08C0E5FF09C0E5FF0AC0E5FF020EB2
:10332000DBCF00F0030EDBCF01F0040EDBCF02F0A9
:10333000050EDBCF03F0060EDBCF04F0070EDBCF6C
:1033400005F0080EDBCF06F0090EDBCF07F0086AA8
:10335000096A0744010B0A6E0AB01BD00450042608
:103360000536063607360750035C08E10650025C56
:1033700005E10550015C02E10450005C06E2D890D2
:10338000073206320532043204D0092A09C008F097
:10339000E0D70750035C08E10650025C05E10550E8
:1033A000015C02E10450005C08E30450005E05503B
:1033B000015A0650025A0750035AD8900732063273
:1033C0000532043208C009F008060950E2E103C0E2
:1033D000E9FF02C0F4FF01C0F3FF0050E4CF0AF0A0
:1033E000E4CF09F0E4CF08F0E4CF07F0E4CF06F033
:1033F000E4CF05F0E4CF04F0E4CF03F0E4CF02F033
:10340000E4CF01F0E4CF00F0E4CFD9FF1200D9CF30
:10341000E5FFE1CFD9FF00C0E5FF01C0E5FF02C035
:10342000E5FF03C0E5FF04C0E5FF05C0E5FF06C0FA
:10343000E5FF07C0E5FF08C0E5FF09C0E5FF0AC0DA
:10344000E5FF0BC0E5FF0CC0E5FF0DC0E5FF020E78
:10345000DBCF00F0030EDBCF01F0040EDBCF02F078
:10346000050EDBCF03F0060EDBCF04F0070EDBCF3B
:1034700005F0080EDBCF06F0090EDBCF07F0086A77
:10348000096A0A6A0B6A200E0C6E0344010B0D6E6A
:10349000010E0D1600500026013602360336085084
:1034A000082609360A360B360D50D8A40880075076
:1034B0000B5C08E106500A5C05E10550095C02E17D
:1034C0000450085C09E30450085E0550095A065090
:1034D0000A5A07500B5A00800C2ED7D703C0E9FFB9
:1034E00002C0F4FF01C0F3FF0050E4CF0DF0E4CFC1
:1034F0000CF0E4CF0BF0E4CF0AF0E4CF09F0E4CF16
:1035000008F0E4CF07F0E4CF06F0E4CF05F0E4CF15
:1035100004F0E4CF03F0E4CF02F0E4CF01F0E4CF15
:1035200000F0E4CFD9FF1200D9CFE5FFE1CFD9FFFA
:1035300000C0E5FF01C0E5FF02C0E5FF03C0E5FFF5
:1035400004C0E5FF05C0E5FF020EDBCF00F0010E71
:10355000005CD8A065D0070E005CD8B061D00BC766
:1035600001F00CC702F00DC703F0060E0126000E95
:103570000222000E0322000600500126E86A022201
:10358000E86A032201C0E9FF02C0F3FF035024EC04
:1035900029F0016EFF0A24E10BC701F00CC702F00D
:1035A0000DC703F0060E0126000E0222000E0322B4
:1035B00000500126E86A0222E86A032201C0E9FFFE
:1035C00002C0F3FF035024EC29F0046E040604C08B
:1035D000E5FF01C0E9FF02C0F3FF03504EEC29F004
:1035E0000BC701F00CC702F00DC703F0060E012651
:1035F000000E0222000E0322046A056A0150002612
:10360000025004220350052200C0E9FF04C0F3FF6A
:10361000055024EC29F0006E810E0026005001D0E8
:10362000800EE4CF05F0E4CF04F0E4CF03F0E4CF64
:1036300002F0E4CF01F0E4CF00F0E4CFD9FF1200B4
:10364000D9CFE5FFE1CFD9FF00C0E5FF01C0E5FF1D
:1036500002C0E5FF03C0E5FF04C0E5FF05C0E5FFCC
:1036600006C0E5FF07C0E5FF040EE56E94EC1AF016
:10367000006EE12A030EE56E94EC1AF0016EE12A69
:10368000016C020E036E710E026E800E046E020E4D
:10369000066E720E056E800E076EE56E0650E56EC4
:1036A0000550E56E0450E56E0350E56E0250E56E80
:1036B0007F0EE56E0150E56E0050E56E8AEC0BF072
:1036C000090EE12602017151E56E030EE56E78ECFC
:1036D00026F0020EE1260201721D006E002A005043
:1036E000E56E040EE56E78EC26F0020EE126020E81
:1036F000E56E94EC1AF0006EE12A010EE56E94EC92
:103700001AF0016EE12A0050E56E050EE56E78ECC8
:1037100026F0020EE1260150E56E060EE56E78EC0D
:1037200026F0020EE126E4CF07F0E4CF06F0E4CF66
:1037300005F0E4CF04F0E4CF03F0E4CF02F0E4CFEF
:1037400001F0E4CF00F0E4CFD9FF1200D9CFE5FFBC
:10375000E1CFD9FF00C0E5FF01C0E5FF02C0E5FFF2
:1037600003C0E5FF04C0E5FF05C0E5FF06C0E5FFB7
:1037700007C0E5FF08C0E5FF09C0E5FF0AC0E5FF97
:103780000BC0E5FF0CC0E5FF020EDBCF00F0030E1F
:10379000DBCF01F0040EDBCF02F0050EDBCF03F030
:1037A000060EDBCF04F0070EDBCF05F0080EDBCFF3
:1037B00006F0090EDBCF07F000C008F001C009F0E9
:1037C00002C00AF006C00BF007C00CF0FF0E062680
:1037D000D8A007060B500C101CE003C0E9FF04C082
:1037E000F3FF055024EC29F00B6E032AD8B0042A0D
:1037F000D8B0052A0BC0E5FF00C0E9FF01C0F3FF08
:1038000002504EEC29F0002AD8B0012AD8B0022A82
:10381000D9D70AC0F4FF09C0F3FF0850E4CF0CF079
:10382000E4CF0BF0E4CF0AF0E4CF09F0E4CF08F0E6
:10383000E4CF07F0E4CF06F0E4CF05F0E4CF04F0E6
:10384000E4CF03F0E4CF02F0E4CF01F0E4CF00F0E6
:10385000E4CFD9FF1200D9CFE5FFE1CFD9FF00C0F7
:10386000E5FF01C0E5FF02C0E5FF03C0E5FF04C0BE
:10387000E5FF05C0E5FF06C0E5FF07C0E5FF020E56
:10388000DBCF00F0030EDBCF01F0040EDBCF02F044
:10389000050EDBCF03F002C006F00650046E800A6E
:1038A00028E100C0E9FF01C0F3FF025026EC28F038
:1038B000056EF3CF06F0F4CF07F003C0E5FF05C0B7
:1038C000E9FF06C0F3FF07504EEC29F0052AD8B0F7
:1038D000062AD8B0072A05C0E5FF06C0F4FF07C0D6
:1038E000F6FF00C0E9FF01C0F3FF025035EC29F0FC
:1038F0001ED004AA1CD0200E041A045004E1035068
:1039000070EC29F014D00450010A04E1035002ECD9
:1039100004F00DD004500F0A04E103500AEC04F047
:1039200006D004500E0A03E1035078EC29F0E4CFEE
:1039300007F0E4CF06F0E4CF05F0E4CF04F0E4CFE5
:1039400003F0E4CF02F0E4CF01F0E4CF00F0E4CFE5
:10395000D9FF1200D9CFE5FFE1CFD9FF00C0E5FFC5
:1039600001C0E5FF02C0E5FF03C0E5FF04C0E5FFBD
:1039700005C0E5FF06C0E5FF07C0E5FF020EDBCF8F
:1039800000F0030EDBCF01F0040EDBCF02F0050EDA
:10399000DBCF03F0D88001AED890046A043604501F
:1039A00007E0011C066E001C056E054A062A04D0BD
:1039B00000C005F001C006F005C000F006C001F02F
:1039C000D88003AED890056A0536055007E0031C81
:1039D000076E021C066E064A072A04D002C006F0D3
:1039E00003C007F00750E56E0650E56E0150E56E26
:1039F0000050E56E33EC21F0006EF3CF01F0040EC1
:103A0000E1260550041A04500AE0011C036E001C54
:103A1000026E024A032A03C0F3FF025003D001C022
:103A2000F3FF0050E4CF07F0E4CF06F0E4CF05F059
:103A3000E4CF04F0E4CF03F0E4CF02F0E4CF01F0F0
:103A4000E4CF00F0E4CFD9FF1200D9CFE5FFE1CFFA
:103A5000D9FF00C0E5FF01C0E5FF02C0E5FF03C0DC
:103A6000E5FF04C0E5FF05C0E5FF06C0E5FF020E67
:103A7000DBCF00F00701E551020A02E143EC14F04C
:103A80007F0E0701DC15016E0701DC6F07010E5187
:103A9000200DF3CF01F0F4CF02F0870E0126070EC0
:103AA00002220150800E036E070E056EC70E046ED3
:103AB000800E066E000EE56E200EE56E0650E56E79
:103AC0000550E56E0450E56E0350E56E0250E56E5C
:103AD0000150E56EA6EC1BF0080EE1269D9607014D
:103AE0000E51D880E866D89007010E6B0E370201A0
:103AF0007A839D86E4C701F0012A01500701E46F33
:103B00000050010A05E1A6EC28F0006E0050FBE031
:103B1000E4CF06F0E4CF05F0E4CF04F0E4CF03F007
:103B2000E4CF02F0E4CF01F0E4CF00F0E4CFD9FF1E
:103B300012009BEF1DF0D4EC25F09DEF1DF0E80680
:103B4000E56E630ECBEC1DF0E4500BE000D0E56EAB
:103B5000630ECBEC1DF000D000D00000E450E82E46
:103B6000F6D71200E806E56E090E9FEC1DF0630E15
:103B7000CBEC1DF0E4500EE000D0E56E090E9FEC9A
:103B80001DF0630ECBEC1DF000D000D00000E4501F
:103B9000E82EF3D71200E8060000E85007E000D056
:103BA00000D000D000D00000E82EFAD71200E806BE
:103BB000E56E630EB2EC1DF0630EF6EC1DF0090E1F
:103BC000CBEC1DF0E45011E000D0E56E630EB2ECDA
:103BD0001DF0630EF6EC1DF0090ECBEC1DF000D0CD
:103BE00000D00000E450E82EF0D71200E806E56EA1
:103BF000090ECBEC1DF0E4500BE000D0E56E090E91
:103C0000CBEC1DF000D0E450000000D0E82EF6D739
:103C10001200D9CFE5FFE1CFD9FF00C0E5FF01C019
:103C2000E5FF02C0E5FFD9EC21F075EC28F0010EAC
:103C3000006E090E005C0AE2000EE56E0050E56EB3
:103C400078EC26F0020EE126002AF3D7080E006E6B
:103C5000100E005C0EE2CB0E0024016E026A070E0D
:103C6000022201C0E9FF02C0EAFF7F0EEF6E002AC8
:103C7000EFD7010E006E090E005C0AE2010EE56E40
:103C80000050E56EE6EC23F0020EE126002AF3D7A1
:103C9000010E006E050E005C07E20050E56E15ECAB
:103CA00023F0E12A002AF6D70701E46B010E070191
:103CB000E56FC90E0701E66F02017A857A91000E61
:103CC000E56E25EC1DF0E12A43EC29F0A6EC28F086
:103CD000006E0050FBE09DEC27F0E4CF02F0E4CF53
:103CE00001F0E4CF00F0E4CFD9FF1200D9CFE5FF17
:103CF000E1CFD9FF00C0E5FF01C0E5FF02C0E5FF4D
:103D000003C0E5FF04C0E5FF05C0E5FF06C0E5FF11
:103D100007C0E5FF020EDBCF00F0030EDBCF01F0A2
:103D2000040EDBCF02F0050EDBCF03F0060EDBCF77
:103D300004F0070EDBCF05F0080EDBCF06F0090E0E
:103D4000DBCF07F00201776B0050010A02E101505E
:103D500001E004D0010E0201776F01D0BA6A02506F
:103D6000010A02E1035001E003D00201778301D090
:103D7000B76A0450010A02E1055001E003D00201D4
:103D8000778501D0736A0650010A02E1075001E00D
:103D900003D00201778701D0706AE4CF07F0E4CF47
:103DA00006F0E4CF05F0E4CF04F0E4CF03F0E4CF75
:103DB00002F0E4CF01F0E4CF00F0E4CFD9FF12002D
:103DC000D9CFE5FFE1CFD9FF00C0E5FF01C0E5FF96
:103DD00002C0E5FF020EDBCF00F0030EDBCF01F0E7
:103DE000040EDBCF02F00F0E0014C66E025003E08B
:103DF000800E026E01D0026A02C0C7FF040E015C91
:103E00002EE203C0E5FF04C0E5FF046A0134043676
:103E1000E8340436FC0B036E000EFB6E3E0EFA6EA9
:103E2000380E03260450FA22D8B0FB2A0350E4CF00
:103E300004F0E4CF03F0F96E24EF1FF027EF1FF03A
:103E40002AEF1FF02DEF1FF0C698C78C08D0C69838
:103E5000C79C05D0C688C78C02D0C688C79C0050B6
:103E6000050A03E19486C79E06D00050010A02E1CC
:103E7000928A01D09496949A9488978EF19CF288B5
:103E8000C68AE4CF02F0E4CF01F0E4CF00F0E4CF43
:103E9000D9FF1200D9CFE5FFE1CFD9FF00C0E5FF80
:103EA000020EDBCF00F0010E005CD8A055D0050E4D
:103EB000005CD8B051D0000601C0E5FF02C0E5FFAC
:103EC000026A00340236E8340236FC0B016E000E42
:103ED000FB6E3E0EFA6EEE0E01260250FA22D8B0AC
:103EE000FB2A0150E4CF02F0E4CF01F0F96E7FEF3E
:103EF0001FF08BEF1FF096EF1FF0A2EF1FF0CD9099
:103F0000CD8ECF0ECD14006E300E0010CD6E9E9073
:103F10009D80CD8021D0CA94FC0ECA14006E020E82
:103F20000010CA6E9E929D82CA8416D0B190B18E46
:103F3000CF0EB114006E300E0010B16EA192A082AF
:103F4000B1800AD07694FC0E7614006E020E00103A
:103F5000766EA496A3867684E4CF00F0E4CFD9FFF2
:103F60001200D9CFE5FFE1CFD9FF00C0E5FF01C0C6
:103F7000E5FF02C0E5FF03C0E5FF04C0E5FF05C0A3
:103F8000E5FF06C0E5FF020EDBCF00F0030EDBCF3E
:103F900001F0040EDBCF02F0050EDBCF03F0060EBE
:103FA000DBCF04F0070EDBCF05F0080EDBCF06F009
:103FB000D88003AED89016E306500A0A13E104C075
:103FC000E9FF05C0EAFF2D0EEF6E042AD8B0052ADE
:103FD000031E021E011E006C05E1012A03E1022AF4
:103FE000D8B4032A0650E56E0550E56E0450E56E20
:103FF0000350E56E0250E56E0150E56E0050E56E2F
:10400000A8EC12F0070EE126E4CF06F0E4CF05F0AD
:10401000E4CF04F0E4CF03F0E4CF02F0E4CF01F00A
:10402000E4CF00F0E4CFD9FF1200D9CFE5FFE1CF14
:10403000D9FF00C0E5FF01C0E5FF020EDBCF00F0B5
:10404000010E0014016E010BE840F46E96507F0BD8
:10405000F410966E020E0014016E010BF46E98506F
:10406000FE0BF410986E040E0014016E010BE8387C
:10407000E840F46E9850F70BF410986E080E001498
:10408000016E010BE838F46E9850EF0BF410986E47
:10409000100E0014016E010BF46E9650FE0BF4101E
:1040A000966E200E0014016E010BE844F46E9650DB
:1040B000FD0BF410966E400E0014016E010BE844E7
:1040C000E844F46E9650FB0BF410966E800E0016CA
:1040D0000050010BE838E840F46E9650F70BF410EE
:1040E000966EE4CF01F0E4CF00F0E4CFD9FF1200E8
:1040F000D9CFE5FFE1CFD9FF00C0E5FF020EDBCF4E
:1041000000F0010E005CD8A04FD0050E005CD8B0C6
:104110004BD0000601C0E5FF02C0E5FF026A003493
:104120000236E8340236FC0B016E000EFB6E410EC7
:10413000FA6E4A0E01260250FA22D8B0FB2A01502C
:10414000E4CF02F0E4CF01F0F96EADEF20F0B4EF70
:1041500020F0C1EF20F0C8EF20F0CF6ACE6A020154
:10416000636B0201646B20D0CC6A010ECC6E02013D
:10417000466B0201476B0201486B0201496BCB6A37
:1041800013D0B36AB26A0201656B0201666B0CD090
:10419000786A010E786E02014A6B02014B6B0201D4
:1041A0004C6B02014D6B776AE4CF00F0E4CFD9FF8E
:1041B0001200D9CFE5FFE1CFD9FF00C0E5FF01C074
:1041C000E5FF020EDBCF00F0030EDBCF01F0010EA6
:1041D000005C03E3070E005C02E3800E3DD000505C
:1041E000E56E94EC1AF0006EE12A00C075F2005002
:1041F000810A04E000507F0A04E007D00201746BDA
:1042000007D0010E0201746F03D0020E0201746F19
:10421000020E0201745D10E202017551020176196D
:104220000BE00701072B07010845FE0B006E02019A
:10423000745100240701086F75C276F20701075117
:10424000011809E108C773F20701086B0701076B42
:104250000201735101D0FE0EE4CF01F0E4CF00F073
:10426000E4CFD9FF1200D9CFE5FFE1CFD9FF00C0DD
:10427000E5FF01C0E5FF02C0E5FF03C0E5FF04C0A4
:10428000E5FF05C0E5FF06C0E5FF07C0E5FF020E3C
:10429000DBCF00F0030EDBCF01F0040EDBCF02F02A
:1042A000050EDBCF03F0046A056A100E066E0144AA
:1042B000010B076E010E0716005000260136045050
:1042C000042605360750D8A404800350055C02E19B
:1042D0000250045C05E30250045E0350055A00805E
:1042E000062EE5D701C0F3FF0050E4CF07F0E4CF7E
:1042F00006F0E4CF05F0E4CF04F0E4CF03F0E4CF20
:1043000002F0E4CF01F0E4CF00F0E4CFD9FF1200D7
:10431000D9CFE5FFE1CFD9FF000EE56E320EE56E95
:10432000800EE56E9BEC25F0030EE12641EC28F0B3
:10433000460EE56E040EE56E78EC26F0020EE126E0
:10434000BA0EE56E030EE56E78EC26F0020EE1265D
:10435000010EE56E25EC1DF0E12A000EE56E020E61
:10436000E56E60EC25F0020EE126000EE56E040E0F
:10437000E56E78EC26F0020EE126000EE56E030EE7
:10438000E56E78EC26F0020EE126010EE56E25ECD6
:104390001DF0E12A5BEC28F0000EE56E320EE56EB2
:1043A000A00EE56E9BEC25F0030EE126E4CFD9FFCD
:1043B0001200D9CFE5FFE1CFD9FF070EB46E886AAE
:1043C000876A866A856A846A836A826A816A806A81
:1043D000916A906A8F6A8E6A8D6A8C6A8B6A8A6A21
:1043E000896AFF0E926E936EBF0E946E956A700E80
:1043F000966E9F0E976EE40E986E0F0E996EFF0EDE
:104400009A6E0F0EC16E070EC06EF19EB0989C8E14
:10441000A26A9F6AA06A9D6AA36AA56A000EE56EF9
:10442000010EE56E050EE56EE0EC1EF0030EE126D2
:104430009F86D08E9E969D869382F06AF288F09E2B
:10444000F098F192F09AF16AF28CF28EE4CFD9FFF3
:104450001200D9CFE5FFE1CFD9FF00C0E5FF01C0D1
:10446000E5FF02C0E5FF03C0E5FF020EDBCF00F071
:10447000030EDBCF01F0040EDBCF02F0050EDBCF25
:1044800003F000500201676F0150686F0250020193
:10449000696F03506A6F0201675102016903F3CF2C
:1044A00000F0F4CF01F0005002016B6F01506C6F0F
:1044B0000201675102016A03F3CF00F00201685163
:1044C00002016903F3CF01F00150002602016C5193
:1044D000002600506C6F6CC2F3FF6B51E4CF03F009
:1044E000E4CF02F0E4CF01F0E4CF00F0E4CFD9FF55
:1044F0001200D9CFE5FFE1CFD9FF00C0E5FF030EE1
:10450000E56E94EC1AF0006EE12A001C02016D6F5A
:104510006D2B020EE56E94EC1AF002016E6FE12A2B
:1045200002016E51E56E040EE56E78EC26F0020E87
:10453000E12602016D51E56E030EE56E78EC26F082
:10454000020EE126050EE56E94EC1AF002016F6F83
:10455000E12A060EE56E94EC1AF00201706FE12A72
:1045600002016F51E56E050EE56E78EC26F0020E45
:10457000E12602017051E56E060EE56E78EC26F03C
:10458000020EE126E4CF00F0E4CFD9FF1200D20EF4
:10459000F66E520EF76E000EF86E0900F550056EBD
:1045A0000900F550066E04E1056702D014EF23F010
:1045B0000900F550006E0900F550016E0900F55034
:1045C000026E09000900F550E96E0900F550EA6E27
:1045D000090009000900F550036E0900F550046E4A
:1045E00009000900F6CF07F0F7CF08F0F8CF09F07F
:1045F00000C0F6FF01C0F7FF02C0F8FF035002E160
:10460000045007E00900F550EE6E0306F8E20406D8
:10461000F9D707C0F6FF08C0F7FF09C0F8FF050685
:1046200001E20606D3EF22F01200D9CFE5FFE1CF79
:10463000D9FF00C0E5FF020EDBCF00F0010E005CE9
:1046400036E3050E005C33E2000601C0E5FF02C060
:10465000E5FF026A00340236E8340236FC0B016ED4
:10466000000EFB6E460EFA6E800E01260250FA22F4
:10467000D8B0FB2A0150E4CF02F0E4CF01F0F96E8C
:1046800048EF23F04CEF23F050EF23F054EF23F0EA
:10469000CD909E909D900BD0CA949E929D9207D0F3
:1046A000B190A192A09203D07694A496A396E4CF61
:1046B00000F0E4CFD9FF1200D9CFE5FFE1CFD9FF59
:1046C00000C0E5FF01C0E5FF02C0E5FF03C0E5FF54
:1046D00004C0E5FF05C0E5FF06C0E5FF07C0E5FF34
:1046E00078CF00F0016A02014C51056E02014B5176
:1046F000046E02014A51036E026A066A076A00509C
:10470000021201500312065004120750051205C090
:10471000E9FF04C0F4FF03C0F3FF0250E4CF07F049
:10472000E4CF06F0E4CF05F0E4CF04F0E4CF03F0EB
:10473000E4CF02F0E4CF01F0E4CF00F0E4CFD9FF02
:104740001200D9CFE5FFE1CFD9FF00C0E5FF01C0DE
:10475000E5FF02C0E5FF03C0E5FF04C0E5FF05C0BB
:10476000E5FF06C0E5FF07C0E5FFCCCF00F0016A1A
:1047700002014851056E02014751046E0201465183
:10478000036E026A066A076A0050021201500312A1
:10479000065004120750051205C0E9FF04C0F4FFDB
:1047A00003C0F3FF0250E4CF07F0E4CF06F0E4CFFC
:1047B00005F0E4CF04F0E4CF03F0E4CF02F0E4CF5F
:1047C00001F0E4CF00F0E4CFD9FF1200D9CFE5FF2C
:1047D000E1CFD9FF00C0E5FF01C0E5FF02C0E5FF62
:1047E000020EDBCF00F0030EDBCF01F0015015E02D
:1047F0000150010A24E10004016E010E026E015015
:1048000005E0E86CD8900236010FFDE30250070185
:10481000DD11016E0701DD6F12D00006010E016E81
:10482000005005E0E86CD8900136010FFDE3011C53
:10483000006E0701DD51001600500701DD6FE4CF67
:1048400002F0E4CF01F0E4CF00F0E4CFD9FF120092
:10485000D9CFE5FFE1CFD9FF00C0E5FF020EDBCFE6
:1048600000F0010E005C30E3070E005C2DE2000654
:1048700001C0E5FF02C0E5FF026A00340236E834F9
:104880000236FC0B016E000EFB6E480EFA6EA60E91
:1048900001260250FA22D8B0FB2A0150E4CF02F0E0
:1048A000E4CF01F0F96E5FEF24F061EF24F063EFE5
:1048B00024F063EF24F063EF24F063EF24F0F0982A
:1048C00003D0F09A01D0F296E4CF00F0E4CFD9FF04
:1048D0001200D9CFE5FFE1CFD9FF00C0E5FF020EFE
:1048E000DBCF00F0010E005C30E3070E005C2DE230
:1048F000000601C0E5FF02C0E5FF026A003402368F
:10490000E8340236FC0B016E000EFB6E490EFA6EA7
:10491000280E01260250FA22D8B0FB2A0150E4CF1B
:1049200002F0E4CF01F0F96EA0EF24F0A2EF24F042
:10493000A4EF24F0A4EF24F0A4EF24F0A4EF24F0DB
:10494000F08803D0F08A01D0F286E4CF00F0E4CF03
:10495000D9FF1200D9CFE5FFE1CFD9FF00C0E5FFB5
:1049600001C0E5FF02C0E5FF006E020EDBCF01F0E3
:10497000030EDBCF02F0AC6AAB6A00B0AC8800A2D9
:1049800002D0AC8CAB8C00A401D0AC8E00A602D0BF
:10499000AB8801D0AB8A00A802D0AC8401D0AC9423
:1049A0009E9800AC02D09D8A01D09D9A9E9A00AE3E
:1049B00002D09D8801D09D980150AF6EAC8AAB8E1D
:1049C000E4CF02F0E4CF01F0E4CF00F0E4CFD9FF70
:1049D0001200D9CFE5FFE1CFD9FF00C0E5FF01C04C
:1049E000E5FF02C0E5FF0BC700F00CC701F00DC7E3
:1049F00002F01F0E0026000E0122000E022200C04F
:104A0000E9FF01C0F3FF025024EC29F0006E016AB7
:104A1000000EE56E4A0EE56EB20EE56E0150E56ED3
:104A20000050E56E000EE56E4A0EE56E980EE56EDE
:104A30009BEC25F0080EE126E4CF02F0E4CF01F074
:104A4000E4CF00F0E4CFD9FF1200D9CFE5FFE1CFEA
:104A5000D9FF00C0E5FF01C0E5FF02C0E5FF0BC7BD
:104A600000F00CC701F00DC702F0020E0026000E88
:104A70000122000E022200C0E9FF01C0F3FF025034
:104A800024EC29F0006EE4CF02F0E4CF01F0E4CF93
:104A900000F0E4CFD9FF12000A564558206D61732B
:104AA00074657220636F6465207625640A25730A35
:104AB00000004F70656E5665782D302E352E300013
:104AC000D9CFE5FFE1CFD9FF00C0E5FF01C0E5FF89
:104AD00002C0E5FF03C0E5FF020EDBCF00F0030ECE
:104AE000DBCF01F0005001101BE0000E015C02E181
:104AF000190E005C05E200C002F001C003F003D013
:104B0000190E026E036A02500A0DF3CF03F0035030
:104B1000D7EC1DF0036A0250005E0350015AE2D741
:104B2000E4CF03F0E4CF02F0E4CF01F0E4CF00F0F3
:104B3000E4CFD9FF1200D9CFE5FFE1CFD9FF00C004
:104B4000E5FF01C0E5FF020ED924006E000EDA2059
:104B5000016E030E0026D8B0012A800EE56E0150CA
:104B6000E56E0050E56E040EDBCFE5FF030EDBCFF4
:104B7000E5FF020EDBCFE5FF02015651E56E555110
:104B8000E56E5451E56E0EEC04F0006EF3CF01F0CB
:104B9000090EE12601C0F3FF0050E4CF01F0E4CF9D
:104BA00000F0E4CFD9FF120009EC1EF0DBEC18F0A6
:104BB0000F0EE56E84EC13F0006EE12A005017E151
:104BC000000EE56E320EE56E1A0EE56E9BEC25F0DA
:104BD000030EE12625EC25F0006E010AFBE1000E34
:104BE000E56E140EE56ED2EC28F0020EE126A6EC7E
:104BF00028F0006E0050FBE01CEC0DF0050EE56E99
:104C000094EC1AF0006EE12A0050810AF0E188EC81
:104C100021F0EDD71200D9CFE5FFE1CFD9FF00C0D9
:104C2000E5FF01C0E5FF02C0E5FF03C0E5FF020E9E
:104C3000DBCF00F0030EDBCF01F00050011017E0D6
:104C4000000E015C02E1FF0E005C05E200C002F014
:104C500001C003F003D0FF0E026E036A0250B2ECF3
:104C60001DF0036A0250005E0350015AE6D7E4CFFC
:104C700003F0E4CF02F0E4CF01F0E4CF00F0E4CFA2
:104C8000D9FF1200D9CFE5FFE1CFD9FF00C0E5FF82
:104C900001C0E5FF020EDBCF00F0010E005C04E373
:104CA000005002017E5D03E2F368800E1AD0000618
:104CB0000050E56E53EC27F0E12A0A0ECBEC1DF014
:104CC00061EC29F006EC04F0006E0050FBE174EC9E
:104CD00029F0006EF3CF01F07BEC29F001C0F3FF67
:104CE0000050E4CF01F0E4CF00F0E4CFD9FF120090
:104CF000D9CFE5FFE1CFD9FF00C0E5FF01C0E5FF57
:104D000002C0E5FF020EDBCF00F0030EDBCF01F0A7
:104D10000150800A01E1012A010E005C13E3090E33
:104D2000005C10E20006026ACB0E0026070E02228B
:104D30007F0E012600C0E9FF02C0EAFF01C0EFFFBD
:104D4000E86A01D0800EE4CF02F0E4CF01F0E4CFB6
:104D500000F0E4CFD9FF1200D9CFE5FFE1CFD9FFB2
:104D600000C0E5FF01C0E5FF020EDBCF00F0030E3F
:104D7000DBCF01F00050010A04E00050020A0AE013
:104D800012D00150010BE838F46EF150EF0BF41023
:104D9000F16E09D00150010BE838E840F46EF15093
:104DA000F70BF410F16EE4CF01F0E4CF00F0E4CFA4
:104DB000D9FF1200D9CFE5FFE1CFD9FF00C0E5FF51
:104DC00001C0E5FF020EDBCF00F0010E005C13E333
:104DD000090E005C10E20006016ACB0E0026070EE9
:104DE000012200C0E9FF01C0EAFFEFCF00F0810E11
:104DF0000026005001D0800EE4CF01F0E4CF00F097
:104E0000E4CFD9FF1200D9CFE5FFE1CFD9FF00C031
:104E1000E5FF01C0E5FF02C0E5FF0BC700F00CC7CE
:104E200001F00DC702F0002AD8B0012AD8B0022A3A
:104E300000C0E9FF01C0F3FF025024EC29F0E84470
:104E4000E844010B006EE4CF02F0E4CF01F0E4CFC0
:104E500000F0E4CFD9FF1200D9CFE5FFE1CFD9FFB1
:104E60000201425104E1010E0201426F19D0020118
:104E7000445105E1010E0201446F030E11D00201FD
:104E8000435105E1010E0201436F020E09D00201F8
:104E9000455105E1010E0201456F040E01D0E86A9B
:104EA000E4CFD9FF1200D9CFE5FFE1CFD9FF00C091
:104EB000E5FF01C0E5FF020EDBCF00F0C26A00444F
:104EC000E844FC0B016EC212C292C16AC19AC19839
:104ED00002017F51C112C08EC084C082C0809E9CDE
:104EE0009D9CC280E4CF01F0E4CF00F0E4CFD9FF75
:104EF00012000000000000000000000000470780D2
:104F000000000000000000000000000000000000A1
:104F10000000000000000000000000000000000091
:104F20000000000000000000000000000000000081
:104F300000000000000000000000D9CFE5FFE1CF35
:104F4000D9FF00C0E5FF0701095115E1D56A02014B
:104F5000616B0201626BD59CF00ED514006E030EDE
:104F60000010D56EF194F28AF28CF28EF294D58E06
:104F7000010E0701096FE4CF00F0E4CFD9FF120062
:104F8000D9CFE5FFE1CFD9FF00C0E5FF020EDBCFAF
:104F900000F00F0E005C08E200C07EF200500F0827
:104FA00002017F6FE86A0AD00050100A06E100C0D3
:104FB0007EF202017F6BE86A01D0800EE4CF00F040
:104FC000E4CFD9FF1200D9CFE5FFE1CFD9FF00C070
:104FD000E5FF01C0E5FF020EDBCF00F00050E56EFB
:104FE00015EC23F0E12A0006016A420E0026020EAB
:104FF000012200C0E9FF01C0EAFF000EEF6EE4CF1E
:1050000001F0E4CF00F0E4CFD9FF1200E8AE0AD0FF
:10501000F3CFEAFFEE50EECFF3FFEECFF4FFEECF8B
:10502000E9FF1200E8BC11D0E9CFF6FFF3CFF7FF9C
:10503000F86E0900F5500900F5CFF3FF0900F5CF30
:10504000F4FF0900F5CFE9FF12001200E8AE08D026
:10505000F3CFEAFFEE50EECFF3FFEECFF4FF1200F6
:10506000E8BC0ED0E9CFF6FFF3CFF7FFF86E0900EA
:10507000F5500900F5CFF3FF0900F5CFF4FF12005A
:105080001200D9CFE5FFE1CFD9FF00C0E5FF020E46
:10509000E56E10EC29F0E12A010EE56E25EC1DF01D
:1050A000E12A03EC27F0006E0050FBE0E4CF00F0B3
:1050B000E4CFD9FF1200D9CFE5FFE1CFD9FF00C07F
:1050C000E5FF020EE56EE7EC28F0E12A010EE56E41
:1050D00025EC1DF0E12A03EC27F0006E0050FBE107
:1050E000E4CF00F0E4CFD9FF1200D9CFE5FFE1CF44
:1050F000D9FF000EE56E150EE56E3C0EAAEC24F00D
:10510000020EE126320E9FEC1DF00201546B0201EB
:10511000556B200E0201566FE4CFD9FF1200D9CF94
:10512000E5FFE1CFD9FF00C0E5FF020EDBCF00F0C5
:10513000610E005C05E37B0E005C02E2010E01D013
:10514000E86AE4CF00F0E4CFD9FF1200D9CFE5FF41
:10515000E1CFD9FF00C0E5FF006A02017AB1002A61
:10516000005004E09D9602017A919D860050E4CFA4
:1051700000F0E4CFD9FF1200E8AE06D0F3CFEAFF8B
:10518000EE50EECFF3FF1200E8BC0BD0E9CFF6FFF4
:10519000F3CFF7FFF86E0900F5500900F5CFF3FFE4
:1051A00012001200D9CFE5FFE1CFD9FF000EE56E66
:1051B000320EE56EBE0EE56E9BEC25F0030EE12689
:1051C00041EC28F05BEC28F0E4CFD9FF1200D9CFF6
:1051D000E5FFE1CFD9FF00C0E5FF020EDBCF00F015
:1051E000001E0701DB51001600500701DB6FE4CF02
:1051F00000F0E4CFD9FF120011EEFFF021EEFFF036
:10520000F86AA68EA69CE9680E0EEA6E0068000E8B
:10521000ED6A0050FDE1C7EC22F0D4EC25F0FFD799
:10522000D9CFE5FFE1CFD9FF00C0E5FF020EDBCF0C
:1052300000F00701DB51001200500701DB6FE4CFE3
:1052400000F0E4CFD9FF1200E8AE04D0F3CFEAFFBC
:10525000EE501200E8BC08D0E9CFF6FFF3CFF7FF1D
:10526000F86E0900F55012001200E8AE09D0F3CF35
:10527000EAFFE4CFEEFFF4CFEEFFF6CFEEFF120031
:10528000E8AC12001200D9CFE5FFE1CFD9FF82824E
:10529000808894929298E4CFD9FF1200E8AE05D0AE
:1052A000F3CFEAFFE4CFEEFF1200E8AC12001200E9
:1052B000D9CFE5FFE1CFD9FF02017E51E4CFD9FF7D
:1052C0001200D9CFE5FFE1CFD9FFC282E4CFD9FFE9
:1052D00012000100F24E000000070000470000002D
:1052E000ACA2FED7AD6E1200C4CFF3FFC3501200C4
:0C52F000E8CF7FFF1200C2909D9C1200CE
:00000001FF
